{
	"data": {
		"bytecode": {
			"linkReferences": {},
			"object": "60e0346200017d57601f6200339a38819003918201601f19168301916001600160401b0383118484101762000181578084926060946040528339810103126200017d576200004d8162000195565b620000696040620000616020850162000195565b930162000195565b9060805260c05260a0526040516131ef9081620001ab823960805181818161021d0152818161047b015281816105d7015281816107570152818161087201528181610a5701528181610aa001528181610b8701528181610dc501528181610fb5015281816112bf01528181611387015281816115a4015281816118950152818161191a01528181611a57015281816122a5015281816126c701528181612cfe0152612f4d015260a051818181610ae30152611f6a015260c0518181816023015281816101e8015281816104460152818161053d015281816107350152818161084401528181610b5501528181610d530152818161129d0152818161171601528181611a26015281816128540152612a120152f35b5f80fd5b634e487b7160e01b5f52604160045260245ffd5b51906001600160a01b03821682036200017d5756fe60406080815260049081361015610053575b5050361561001d575f80fd5b610051337f00000000000000000000000000000000000000000000000000000000000000006001600160a01b031614611f45565b005b5f90813560e01c806301a388ed14611c03578063054d50d414611be85780631bb689d6146119f25780631f6f0b32146118f75780632916f89d1461187d5780632b154101146116df578063426e40b114611527578063565fd504146113735780635fed10bc146112795780636ea1847a14611258578063736c72c51461106d578063805a372f14610f5657806385f8c25914610f2c5780638ea2443b14610d0b57806396adb33714610cc1578063a9a6bc0d14610b2d578063ad615dec14610b12578063ae062d7614610acf578063b67b122014610a86578063c45a015514610a43578063c71d77cb14610810578063d74297501461070f578063dd182996146106cf578063e99fb634146105af578063f1703d241461056c578063f3ec43c714610529578063f7d13af914610504578063f9751a4c1461040e5763ff62cce01461019e5750610011565b3461040a576101bd6101af36611cf5565b989498969096959395613197565b5f1994828601938385116103f7576101de6101d9868685612b3a565b612b4a565b6001600160a01b037f0000000000000000000000000000000000000000000000000000000000000000811696909182168790036103d057505061024f837f000000000000000000000000000000000000000000000000000000000000000092610248368887611ea0565b9084612d86565b998061025a8c612af5565b51116103ba575083156103a75761027082612b4a565b9061027a83612b4a565b8560011015610394576102c4928c6102b26102ac8888966102bb966102a660206102ca9e9d9c01612b4a565b91611fc5565b91612af5565b519133906121fb565b30933691611ea0565b89612cb0565b8551838101908111610381576102e09087612b26565b51813b1561037d5782916024839288519485938492632e1a7d4d60e01b84528d8401525af180156103735790829161035c575b5050845191820191821161034957610345858561033b866103348785612b26565b5190612602565b5191829182611d48565b0390f35b634e487b7160e01b815260118652602490fd5b61036590611e3e565b61037057805f610313565b80fd5b85513d84823e3d90fd5b8280fd5b634e487b7160e01b835260118852602483fd5b634e487b7160e01b885260328d52602488fd5b634e487b7160e01b865260328b52602486fd5b8b6024918b519163e877b61b60e01b8352820152fd5b8c6024926103e36101d98e948a89612b3a565b92516311f37a9560e11b8152921690820152fd5b634e487b7160e01b865260118b52602486fd5b5080fd5b503461040a576104206101af36611cf5565b5f1994828601938385116103f75761043c6101d9868685612b3a565b6001600160a01b037f0000000000000000000000000000000000000000000000000000000000000000811696909182168790036103d05750506104ad837f0000000000000000000000000000000000000000000000000000000000000000926104a6368887611ea0565b9084612b90565b998a518881019081116104f1576104c582918d612b26565b51106104db575083156103a75761027082612b4a565b8b6024918b5191630f29385b60e21b8352820152fd5b634e487b7160e01b885260118d52602488fd5b503461040a5760209061052261051936611efe565b50508080612e5e565b9051908152f35b503461040a578160031936011261040a57517f00000000000000000000000000000000000000000000000000000000000000006001600160a01b03168152602090f35b503461040a57602036600319011261040a57610586611c23565b61058f33611f60565b6001600160a01b0316825260208290528120805460ff1916600117905580f35b503461040a576105d16105c136611cf5565b9892939498969096959195613197565b610602857f0000000000000000000000000000000000000000000000000000000000000000926104a6368789611ea0565b9788515f1981019081116106bc5761061b82918b612b26565b51106106a6575082156106935761063184612b4a565b9161063b85612b4a565b908460011015610680576103458a8a61033b8b8b61067a8c8c6106738d61066a868f8f6102a660208901612b4a565b6102b28b612af5565b3691611ea0565b85612cb0565b634e487b7160e01b815260328b52602490fd5b634e487b7160e01b825260328952602482fd5b89602491895191630f29385b60e21b8352820152fd5b634e487b7160e01b845260118b52602484fd5b503461040a57602036600319011261040a576106e9611c23565b6106f233611f60565b6001600160a01b0316825260208290528120805460ff1916905580f35b5081833461040a5761072036611dd2565b61077b8a989a9d959d9c93969c9b979b9492947f0000000000000000000000000000000000000000000000000000000000000000897f0000000000000000000000000000000000000000000000000000000000000000611fc5565b9115610809575f19915b6001600160a01b031692833b15610805576107bc8f928f96889451998a988997889663d505accf60e01b88523090339089016129c2565b03925af180156107fb576107e3575b506107d7979850612836565b82519182526020820152f35b6107ed8a91611e3e565b6107f757886107cb565b8880fd5b89513d8c823e3d90fd5b8580fd5b8891610785565b50829061082b61081f36611d82565b97919497959095613197565b8115610a305761083a83612b4a565b6001600160a01b037f00000000000000000000000000000000000000000000000000000000000000008116918116829003610a2257507f00000000000000000000000000000000000000000000000000000000000000006108a7866108a0368789611ea0565b3484612b90565b9889515f198101908111610a0f576108c082918c612b26565b51106109f95750896108d18a612af5565b51833b1561040a578185918b5192838092630d0e30db60e41b8252885af180156109ef576109d7575b505061090585612b4a565b84600110156109c457916109268761096295936020956102a6878b01612b4a565b8b6109308c612af5565b518b5163a9059cbb60e01b81526001600160a01b03909316948301948552602085015290948593849291839160400190565b03925af19081156109ba579161067361033b9695949261067a946103459b9161098c575b50611f45565b6109ad915060203d81116109b3575b6109a58183611e66565b810190612087565b8b610986565b503d61099b565b86513d8a823e3d90fd5b634e487b7160e01b8b526032845260248bfd5b6109e090611e3e565b6109eb57898b6108fa565b8980fd5b8a513d84823e3d90fd5b836024918a5191630f29385b60e21b8352820152fd5b634e487b7160e01b8c526011855260248cfd5b87836024926103e388612b4a565b634e487b7160e01b885260329052602487fd5b503461040a578160031936011261040a57517f00000000000000000000000000000000000000000000000000000000000000006001600160a01b03168152602090f35b503461040a5761034590610ac4610a9c36611efe565b90917f0000000000000000000000000000000000000000000000000000000000000000612b90565b905191829182611d48565b503461040a578160031936011261040a57517f00000000000000000000000000000000000000000000000000000000000000006001600160a01b03168152602090f35b503461040a57602090610522610b2736611caa565b916124c4565b508290610b3c61081f36611d82565b8115610a3057610b4b83612b4a565b6001600160a01b037f00000000000000000000000000000000000000000000000000000000000000008116918116829003610a225750610bb9857f000000000000000000000000000000000000000000000000000000000000000099610bb2368789611ea0565b908b612d86565b97610bc389612af5565b513410610ca15789610bd48a612af5565b51833b1561040a578185918b5192838092630d0e30db60e41b8252885af180156109ef57610c8d575b5050610c0885612b4a565b84600110156109c4579161092687610c2995936020956102a6878b01612b4a565b03925af19081156109ba5791610673610c529695949261067a946103459b9161098c5750611f45565b610c5b82612af5565b513411610c6c575191829182611d48565b610c88610c82610c7b84612af5565b51346125f5565b33612602565b61033b565b610c9690611e3e565b6109eb57898b610bfd565b60248389610cae8c612af5565b51905163e877b61b60e01b815291820152fd5b5090346103705761010036600319011261037057506107d7610ce1611c23565b610ce9611c39565b610cf1611c4f565b9060e4359260a435916084359160643591604435916126a8565b50823461037d57610d2f90610d1f36611cf5565b9895969497909893919293613197565b5f19830195838711610f1957610d496101d9888685612b3a565b6001600160a01b037f000000000000000000000000000000000000000000000000000000000000000081169890918216899003610f065750508315610ef357610d9182612b4a565b610d9a83612b4a565b8560011015610ee057610df1928492610de9876102bb94610dc26020610df69c9b9a01612b4a565b907f0000000000000000000000000000000000000000000000000000000000000000611fc5565b9033906121fb565b612f47565b81516370a0823160e01b8152308282015293602085602481875afa948515610ed6578795610e9f575b50808510610e8b575090829186933b15610e875784602485928385519687948593632e1a7d4d60e01b85528401525af1908115610e7e5750610e6a575b5050610e6791612602565b80f35b610e7390611e3e565b61037d578284610e5c565b513d84823e3d90fd5b8380fd5b6024925191630f29385b60e21b8352820152fd5b9094506020813d8211610ece575b81610eba60209383611e66565b81010312610eca57519387610e1f565b5f80fd5b3d9150610ead565b83513d89823e3d90fd5b634e487b7160e01b8c526032875260248cfd5b634e487b7160e01b8a526032855260248afd5b866024926103e36101d98b948a89612b3a565b634e487b7160e01b8a526011855260248afd5b5091903461037057505f602492610f4236611caa565b5050505191633f49430560e01b8352820152fd5b50823461037d5761018036600319011261037d57610f72611c23565b610f7a611c39565b60443591606435610f89611c4f565b9360e4359561010435908115158203610eca57610124359060ff82168203610eca578a91610fd98589897f0000000000000000000000000000000000000000000000000000000000000000611fc5565b9315611066575f19935b6001600160a01b031690813b15610e8757838b6110218e519788968795869463d505accf60e01b8652610164359361014435933090339089016129c2565b03925af1801561105c57611044575b506107d796975060a43593608435936126a8565b61104e8991611e3e565b6110585787611030565b8780fd5b88513d8b823e3d90fd5b8593610fe3565b50913461040a5761108d61108036611cf5565b9995919496909399613197565b81156112455761109c89612b4a565b6110a58a612b4a565b836001101561123257916110c991610de9878d98979695610dc26020809b01612b4a565b5f1981019080821161121f57988791899a60018060a01b0392836110f16101d9858585612b3a565b169589519789896024816370a0823160e01b9b8c82528a8716809c8301525afa988915611213578a9b9c9d9e9a98996111d2575b50926101d992611142602497969361114796610df1368686611ea0565b612b3a565b16938751948593849283528b8301525afa9081156111c857908592918891611194575b50611176929350612ef5565b1061117f578380f35b51630f29385b60e21b81529182015260249150fd5b9250509181813d83116111c1575b6111ac8183611e66565b81010312610eca57518391829161117661116a565b503d6111a2565b84513d89823e3d90fd5b88819599929b5096959293963d831161120c575b6111f08183611e66565b81010312610eca579151978996939492939291906101d9611125565b503d6111e6565b8e8c51903d90823e3d90fd5b634e487b7160e01b895260118852602489fd5b634e487b7160e01b8a526032895260248afd5b634e487b7160e01b885260328752602488fd5b503461040a5760209061052261126d36611c65565b959490949391936129fe565b50823461037d5761128936611dd2565b6112e3899e969c929493959e9b979b9a989a7f0000000000000000000000000000000000000000000000000000000000000000897f0000000000000000000000000000000000000000000000000000000000000000611fc5565b921561136c575f19925b6001600160a01b031693843b15611368578694928f94928f9087936113299251998a988997889663d505accf60e01b88523090339089016129c2565b03925af1801561135e5761134a575b6020896105228c8b8b8b8b8b8b6129fe565b6113548291611e3e565b6103705780611338565b89513d84823e3d90fd5b8680fd5b87926112ed565b503461040a576113856105c136611cf5565b7f0000000000000000000000000000000000000000000000000000000000000000906113bd866113b6368789611ea0565b8385612b90565b9889515f198101908111611514576113d682918c612b26565b51106114fe575083156114eb576113ec85612b4a565b916113f686612b4a565b85600110156114d8576103459b509361067a959361067393826114298b82968c9a61033b9f9e9d60206102a69101612b4a565b8d51637921219560e11b602082019081523360248301526001600160a01b039092166044820152606481018c9052608481019390935260a060a4840152600260c484015261060f60f31b60e4840152916114918161010481015b03601f198101835282611e66565b51925af161149d612156565b816114a9575b50612195565b80518015925082156114be575b50505f6114a3565b6114d19250602080918301019101612087565b5f806114b6565b634e487b7160e01b855260328c52602485fd5b634e487b7160e01b835260328a52602483fd5b8a6024918a5191630f29385b60e21b8352820152fd5b634e487b7160e01b855260118c52602485fd5b50823461037d5761012036600319011261037d57611543611c23565b9261154c611c39565b926044359260e4359060018060a01b0396878316809303610eca57879061157561010435613197565b61157e33612247565b61159560c43560a4356084356064358b8d87612268565b9990986115d18a6115c88b84877f0000000000000000000000000000000000000000000000000000000000000000611fc5565b809533906121fb565b16803b15611368579086918651938492637921219560e11b84523387850152169889602484015260448301528a606483015260a0608483015281838161162a60a482016040906002815261060f60f31b60208201520190565b03925af180156116d5579085916116c1575b5060209291602491855197889485936335313c2160e11b85528401525af19182156116b65791611681575b519283526020830193909352506040810191909152606090f35b90506020823d82116116ae575b8161169b60209383611e66565b81010312610eca57610345915190611667565b3d915061168e565b9051903d90823e3d90fd5b6116ca90611e3e565b610e8757838861163c565b84513d87823e3d90fd5b50916116fb6116ed36611d82565b989495909298939193613197565b871561186a5761170a81612b4a565b6001600160a01b0398907f00000000000000000000000000000000000000000000000000000000000000008a16908a1681900361185c57803b156107f7578551630d0e30db60e41b815289818a8134865af1801561183e57908a91611848575b505061177583612b4a565b908260011015611232578594939291896117d09261179c6020998a94610dc2868a01612b4a565b8a5163a9059cbb60e01b81526001600160a01b0390911692810192835234602084015293849283918f918391604090910190565b03925af190811561183e57906117ec918b916118215750611f45565b5f1981019181831161180e579181838c6110f16101d98e9f9686908f99612b3a565b634e487b7160e01b8a526011895260248afd5b6118389150873d89116109b3576109a58183611e66565b5f610986565b87513d8c823e3d90fd5b61185190611e3e565b6107f757885f61176a565b602486898c6103e387612b4a565b634e487b7160e01b875260328652602487fd5b503461040a5761188f6105c136611cf5565b6118c0857f000000000000000000000000000000000000000000000000000000000000000092610248368789611ea0565b97806118cb8a612af5565b51116118e1575082156106935761063184612b4a565b8960249189519163e877b61b60e01b8352820152fd5b503461040a5761191861190936611cf5565b98919592939498969096613197565b7f000000000000000000000000000000000000000000000000000000000000000061194f86611948368789611ea0565b8584612b90565b9889515f1981019081116119df5761196882918c612b26565b51106114fe575083156119cc5761197e85612b4a565b9161198886612b4a565b9085600110156119b957506103459a509261067a9492610de9886106739489976102a6602061033b9e9d9c01612b4a565b634e487b7160e01b815260328c52602490fd5b634e487b7160e01b825260328a52602482fd5b634e487b7160e01b845260118c52602484fd5b6115c8611a7b858585611a50611a1b611a0a36611c65565b9b949b979396909597929192613197565b611a2433612247565b7f00000000000000000000000000000000000000000000000000000000000000009534908c888a612268565b99819985877f0000000000000000000000000000000000000000000000000000000000000000611fc5565b6001600160a01b03918216803b15610805578451630d0e30db60e41b8152868189818d865af18015611bc75790889291611bd1575b50855163a9059cbb60e01b81526001600160a01b03861692810192835260208381018c905295929091869183919082908b9082906040015b03925af1908115611bc75784602493611b0c889796948b948591611baa5750611f45565b88519a8b9687956335313c2160e11b87521690850152165af1928315611b9f5792611b6d575b506103459250843411611b5b575b51938493846040919493926060820195825260208201520152565b611b68610c8286346125f5565b611b40565b90915082813d8311611b98575b611b848183611e66565b81010312610eca5761034591519085611b32565b503d611b7a565b8251903d90823e3d90fd5b611bc19150893d8b116109b3576109a58183611e66565b8f610986565b86513d89823e3d90fd5b91611ae897611be08794611e3e565b975091611ab0565b503461040a57602090610522611bfd36611caa565b91612c08565b50903461037057506107d7611c1736611c65565b95949094939193612836565b600435906001600160a01b0382168203610eca57565b602435906001600160a01b0382168203610eca57565b60c435906001600160a01b0382168203610eca57565b60e0906003190112610eca576001600160a01b03906004358281168103610eca57916024359160443591606435916084359160a4359081168103610eca579060c43590565b6060906003190112610eca57600435906024359060443590565b9181601f84011215610eca5782359167ffffffffffffffff8311610eca576020808501948460051b010111610eca57565b60c0600319820112610eca5760043591602435916044359067ffffffffffffffff8211610eca57611d2891600401611cc4565b9091606435906084356001600160a01b0381168103610eca579060a43590565b602090816040818301928281528551809452019301915f5b828110611d6e575050505090565b835185529381019392810192600101611d60565b9060a0600319830112610eca57600435916024359067ffffffffffffffff8211610eca57611db291600401611cc4565b9091604435906064356001600160a01b0381168103610eca579060843590565b610160906003190112610eca576001600160a01b03906004358281168103610eca57916024359160443591606435916084359160a4359081168103610eca579060c4359060e4358015158103610eca57906101043560ff81168103610eca579061012435906101443590565b67ffffffffffffffff8111611e5257604052565b634e487b7160e01b5f52604160045260245ffd5b90601f8019910116810190811067ffffffffffffffff821117611e5257604052565b67ffffffffffffffff8111611e525760051b60200190565b9291611eab82611e88565b91611eb96040519384611e66565b829481845260208094019160051b8101928311610eca57905b828210611edf5750505050565b81356001600160a01b0381168103610eca578152908301908301611ed2565b6060600319820112610eca5760043591602435916044359067ffffffffffffffff8211610eca5780602383011215610eca57816024611f4293600401359101611ea0565b90565b15611f4c57565b634e487b7160e01b5f52600160045260245ffd5b6001600160a01b037f00000000000000000000000000000000000000000000000000000000000000008116911603611f9457565b604051637ddab60160e01b8152600490fd5b90816020910312610eca57516001600160a01b0381168103610eca5790565b939291611fd19161209f565b60405162bd9da960e71b81526001600160a01b03838116600483015282811660248301526044820194909452949192916020908690606490829086165afa94851561207c575f9561204c575b508185161561202b57505050565b6040516304af780160e11b8152928216600484015216602482015260449150fd5b61206e91955060203d8111612075575b6120668183611e66565b810190611fa6565b935f61201d565b503d61205c565b6040513d5f823e3d90fd5b90816020910312610eca57518015158103610eca5790565b90916001600160a01b0391828116838516811461213e576040516301ffc9a760e01b8152636cdb3d1360e11b600482015290602090829060249082905afa5f918161211e575b50612109575092915b8316156120f757565b60405163312b5f4560e01b8152600490fd5b909390156121185792916120ee565b916120ee565b61213791925060203d81116109b3576109a58183611e66565b905f6120e5565b60249060405190630a7c9b1d60e11b82526004820152fd5b3d15612190573d9067ffffffffffffffff8211611e525760405191612185601f8201601f191660200184611e66565b82523d5f602084013e565b606090565b1561219c57565b60405162461bcd60e51b815260206004820152603160248201527f5472616e7366657248656c7065723a3a7472616e7366657246726f6d3a207472604482015270185b9cd9995c919c9bdb4819985a5b1959607a1b6064820152608490fd5b6040516323b872dd60e01b602082019081526001600160a01b0393841660248301529390921660448301526064820193909352612245925f92839283906114918160848101611483565b565b6001600160a01b03165f9081526020819052604090205460ff1615611f9457565b906122789196939695949561209f565b60405162bd9da960e71b81526001600160a01b0383811660048301528281166024830152604482018590527f00000000000000000000000000000000000000000000000000000000000000009493916020816064818986165afa90811561207c575f9161239f575b50161561238d576122f093612407565b9290801580612385575b1561230757505050509091565b612316848288979596976124c4565b94838611612346575050505080821061232e57509091565b602490604051906377a3d06f60e01b82526004820152fd5b836123619496506123589395506124c4565b93841115611f45565b80831061236d57509091565b60249060405190635842f43b60e11b82526004820152fd5b5083156122fa565b6040516325d7d51d60e11b8152600490fd5b6123b7915060203d8111612075576120668183611e66565b5f6122e0565b51906001600160701b0382168203610eca57565b90816060910312610eca576123e5816123bd565b9160406123f4602084016123bd565b92015163ffffffff81168103610eca5790565b6060829161242e6004959661241c888661209f565b50976001600160a01b03958694611fc5565b1660405194858092630240bc6b60e21b82525afa92831561207c575f908194612474575b5081906001600160701b03809116941694169116145f146124705791565b9091565b829450612498915060603d811161249f575b6124908183611e66565b8101906123d1565b5093612452565b503d612486565b81156124b0570490565b634e487b7160e01b5f52601260045260245ffd5b9190918015612513578215801561250b575b6124ed57611f4292916124e8916125b9565b6124a6565b60448383604051916328e9189960e21b835260048301526024820152fd5b5081156124d6565b602490604051906318388e0760e31b82526004820152fd5b906103e591828102928184048114821517156125865783040361254a57565b60405162461bcd60e51b815260206004820152601460248201527364732d6d6174682d6d756c2d6f766572666c6f7760601b6044820152606490fd5b634e487b7160e01b5f52601160045260245ffd5b906103e891828102928184048114821517156125865783040361254a57565b5f929180159182156125cf575b50501561254a57565b80820294509150811582850482141715612586576125ed90846124a6565b145f806125c6565b9190820391821161258657565b604051602081019080821067ffffffffffffffff831117611e52575f938493848094938194604052525af1612635612156565b501561263d57565b60405162461bcd60e51b815260206004820152603a60248201527f5472616e7366657248656c7065723a3a736166655472616e736665724e61746960448201527f76653a204e6174697665207472616e73666572206661696c65640000000000006064820152608490fd5b916126ba6126eb929997949598613197565b6126c333612247565b88837f0000000000000000000000000000000000000000000000000000000000000000611fc5565b604080516323b872dd60e01b81523360048201526001600160a01b039283166024820181905260448201969096529094935f91602081606481868a5af1801561282c578792859260249261280e575b50848451988994859363226bf2d160e21b85521660048401525af1988915612802578194829a6127c8575b509061277283928561209f565b509050169116145f146127c357945b80948087106127ac57508211612795575050565b6024925051906377a3d06f60e01b82526004820152fd5b602490835190635842f43b60e11b82526004820152fd5b612781565b8680929b508196503d83116127fb575b6127e28183611e66565b8101031261037057835160209094015198612772612765565b503d6127d8565b508451903d90823e3d90fd5b6128259060203d81116109b3576109a58183611e66565b505f61273a565b87513d85823e3d90fd5b96949361287d9396929661284984613197565b61285233612247565b7f0000000000000000000000000000000000000000000000000000000000000000973093898b6126a8565b909361288c82958481986128e0565b6001600160a01b031691823b15610eca575f8093602460405180968193632e1a7d4d60e01b83528760048401525af192831561207c57612245936128d1575b50612602565b6128da90611e3e565b5f6128cb565b60405163a9059cbb60e01b602082019081526001600160a01b03909316602482015260448101939093525f92839290839061291e8160648101611483565b51925af161292a612156565b81612993575b501561293857565b60405162461bcd60e51b815260206004820152602d60248201527f5472616e7366657248656c7065723a3a736166655472616e736665723a20747260448201526c185b9cd9995c8819985a5b1959609a1b6064820152608490fd5b80518015925082156129a8575b50505f612930565b6129bb9250602080918301019101612087565b5f806129a0565b9360ff929897969360c0969260e087019a60018060a01b0380921688521660208701526040860152606085015216608083015260a08201520152565b93612a3b9397969297612a1084613197565b7f00000000000000000000000000000000000000000000000000000000000000009830938a886126a8565b6040516370a0823160e01b8152306004820152909586936001600160a01b03935090916020816024818786165afa90811561207c5786905f92612abf575b50612a83926128e0565b1691823b15610eca575f8093602460405180968193632e1a7d4d60e01b83528760048401525af192831561207c57612245936128d15750612602565b9190506020823d8211612aed575b81612ada60209383611e66565b8101031261037057505185612a83612a79565b3d9150612acd565b805115612b025760200190565b634e487b7160e01b5f52603260045260245ffd5b805160011015612b025760400190565b8051821015612b025760209160051b010190565b9190811015612b025760051b0190565b356001600160a01b0381168103610eca5790565b90612b6882611e88565b612b756040519182611e66565b8281528092612b86601f1991611e88565b0190602036910137565b825194939192612b9f86612b5e565b9584612baa88612af5565b5260028103612bf05750612be49392611bfd9290916001600160a01b03612bdc81612bd484612af5565b511692612b16565b511691612407565b612bed83612b16565b52565b60249060405190630919d84560e41b82526004820152fd5b9190918015612c985782158015612c90575b6124ed57612c34612c2d612c3a9261252b565b92836125b9565b9261259a565b90810190818111612586578110612c5457611f42916124a6565b60405162461bcd60e51b815260206004820152601460248201527364732d6d6174682d6164642d6f766572666c6f7760601b6044820152606490fd5b508115612c1a565b6024906040519063ec8ea7fd60e01b82526004820152fd5b909290916001600160a01b039081612cd381612ccb88612af5565b511696612b16565b511682612cea612ce3838961209f565b5096612b16565b5195168603612d795790612d22915f95965b7f0000000000000000000000000000000000000000000000000000000000000000611fc5565b16803b15610eca576040516336cd320560e11b8152600481019390935260248301939093526001600160a01b03166044820152905f908290606490829084905af1801561207c57612d705750565b61224590611e3e565b5f95612d22929190612cfc565b9193929380519460028610612e4557612d9e86612b5e565b958651935f199485810190811161258657612db99089612b26565b5283810190811161258657805b612dd1575050505050565b83810190808211612e3157612e2090612e1a90612e11856001600160a01b0380612dfb888b612b26565b511690612e08858b612b26565b5116908b612407565b9290918b612b26565b51612e5e565b612e2a8289612b26565b5280612dc6565b60245f634e487b7160e01b81526011600452fd5b604051630919d84560e41b815260048101879052602490fd5b9291908315612edc5780158015612ed4575b612eb757612e9784612e91612e8c612ea29697612e9c956125b9565b61259a565b93612ef5565b61252b565b906124a6565b6001810190818111612586578110612c545790565b604491604051916328e9189960e21b835260048301526024820152fd5b508115612e70565b604051633f49430560e01b815260048101859052602490fd5b9190612f0190836125f5565b918211612f0a57565b60405162461bcd60e51b815260206004820152601560248201527464732d6d6174682d7375622d756e646572666c6f7760581b6044820152606490fd5b805192937f00000000000000000000000000000000000000000000000000000000000000009291905f5b855f19810111612586575f19860181101561318e576001600160a01b03612f988285612b26565b511690600181018111612586576001600160a01b03612fba6001830186612b26565b511691612fc7838261209f565b50906001600160a01b03612fdd8886848c611fc5565b1690604051630240bc6b60e21b815260608082600481875afa91821561207c575f91829361316b575b50506001600160701b0391821691166001600160a01b0385168303613165575b6040516370a0823160e01b815260048101859052602081602481875afa90811561207c575f91613131575b5090613061816130669493612ef5565b612c08565b926001600160a01b03160361312a575f91935b86516001198101908111612586578410156131225760028401808511612586576130bb9189916001600160a01b03906130b2908b612b26565b5116908b611fc5565b905b803b15610eca576040516336cd320560e11b8152600481019390935260248301949094526001600160a01b03166044820152915f908390606490829084905af191821561207c57600192613113575b5001612f71565b61311c90611e3e565b5f61310c565b5089906130bd565b5f93613079565b906020823d60201161315d575b8161314b60209383611e66565b81010312610370575051613061613051565b3d915061313e565b90613026565b613185935080919250903d1061249f576124908183611e66565b50905f80613006565b50945050505050565b4281106131a15750565b6024906040519063051a60c160e51b82526004820152fdfea2646970667358221220c7cef314da0bc67d44d3d894f58b57001db9f46c24bbb835c4c48a3b4d150dc964736f6c63430008150033",
			"opcodes": "PUSH1 0xE0 CALLVALUE PUSH3 0x17D JUMPI PUSH1 0x1F PUSH3 0x339A CODESIZE DUP2 SWAP1 SUB SWAP2 DUP3 ADD PUSH1 0x1F NOT AND DUP4 ADD SWAP2 PUSH1 0x1 PUSH1 0x1 PUSH1 0x40 SHL SUB DUP4 GT DUP5 DUP5 LT OR PUSH3 0x181 JUMPI DUP1 DUP5 SWAP3 PUSH1 0x60 SWAP5 PUSH1 0x40 MSTORE DUP4 CODECOPY DUP2 ADD SUB SLT PUSH3 0x17D JUMPI PUSH3 0x4D DUP2 PUSH3 0x195 JUMP JUMPDEST PUSH3 0x69 PUSH1 0x40 PUSH3 0x61 PUSH1 0x20 DUP6 ADD PUSH3 0x195 JUMP JUMPDEST SWAP4 ADD PUSH3 0x195 JUMP JUMPDEST SWAP1 PUSH1 0x80 MSTORE PUSH1 0xC0 MSTORE PUSH1 0xA0 MSTORE PUSH1 0x40 MLOAD PUSH2 0x31EF SWAP1 DUP2 PUSH3 0x1AB DUP3 CODECOPY PUSH1 0x80 MLOAD DUP2 DUP2 DUP2 PUSH2 0x21D ADD MSTORE DUP2 DUP2 PUSH2 0x47B ADD MSTORE DUP2 DUP2 PUSH2 0x5D7 ADD MSTORE DUP2 DUP2 PUSH2 0x757 ADD MSTORE DUP2 DUP2 PUSH2 0x872 ADD MSTORE DUP2 DUP2 PUSH2 0xA57 ADD MSTORE DUP2 DUP2 PUSH2 0xAA0 ADD MSTORE DUP2 DUP2 PUSH2 0xB87 ADD MSTORE DUP2 DUP2 PUSH2 0xDC5 ADD MSTORE DUP2 DUP2 PUSH2 0xFB5 ADD MSTORE DUP2 DUP2 PUSH2 0x12BF ADD MSTORE DUP2 DUP2 PUSH2 0x1387 ADD MSTORE DUP2 DUP2 PUSH2 0x15A4 ADD MSTORE DUP2 DUP2 PUSH2 0x1895 ADD MSTORE DUP2 DUP2 PUSH2 0x191A ADD MSTORE DUP2 DUP2 PUSH2 0x1A57 ADD MSTORE DUP2 DUP2 PUSH2 0x22A5 ADD MSTORE DUP2 DUP2 PUSH2 0x26C7 ADD MSTORE DUP2 DUP2 PUSH2 0x2CFE ADD MSTORE PUSH2 0x2F4D ADD MSTORE PUSH1 0xA0 MLOAD DUP2 DUP2 DUP2 PUSH2 0xAE3 ADD MSTORE PUSH2 0x1F6A ADD MSTORE PUSH1 0xC0 MLOAD DUP2 DUP2 DUP2 PUSH1 0x23 ADD MSTORE DUP2 DUP2 PUSH2 0x1E8 ADD MSTORE DUP2 DUP2 PUSH2 0x446 ADD MSTORE DUP2 DUP2 PUSH2 0x53D ADD MSTORE DUP2 DUP2 PUSH2 0x735 ADD MSTORE DUP2 DUP2 PUSH2 0x844 ADD MSTORE DUP2 DUP2 PUSH2 0xB55 ADD MSTORE DUP2 DUP2 PUSH2 0xD53 ADD MSTORE DUP2 DUP2 PUSH2 0x129D ADD MSTORE DUP2 DUP2 PUSH2 0x1716 ADD MSTORE DUP2 DUP2 PUSH2 0x1A26 ADD MSTORE DUP2 DUP2 PUSH2 0x2854 ADD MSTORE PUSH2 0x2A12 ADD MSTORE RETURN JUMPDEST PUSH0 DUP1 REVERT JUMPDEST PUSH4 0x4E487B71 PUSH1 0xE0 SHL PUSH0 MSTORE PUSH1 0x41 PUSH1 0x4 MSTORE PUSH1 0x24 PUSH0 REVERT JUMPDEST MLOAD SWAP1 PUSH1 0x1 PUSH1 0x1 PUSH1 0xA0 SHL SUB DUP3 AND DUP3 SUB PUSH3 0x17D JUMPI JUMP INVALID PUSH1 0x40 PUSH1 0x80 DUP2 MSTORE PUSH1 0x4 SWAP1 DUP2 CALLDATASIZE LT ISZERO PUSH2 0x53 JUMPI JUMPDEST POP POP CALLDATASIZE ISZERO PUSH2 0x1D JUMPI PUSH0 DUP1 REVERT JUMPDEST PUSH2 0x51 CALLER PUSH32 0x0 PUSH1 0x1 PUSH1 0x1 PUSH1 0xA0 SHL SUB AND EQ PUSH2 0x1F45 JUMP JUMPDEST STOP JUMPDEST PUSH0 SWAP1 DUP2 CALLDATALOAD PUSH1 0xE0 SHR DUP1 PUSH4 0x1A388ED EQ PUSH2 0x1C03 JUMPI DUP1 PUSH4 0x54D50D4 EQ PUSH2 0x1BE8 JUMPI DUP1 PUSH4 0x1BB689D6 EQ PUSH2 0x19F2 JUMPI DUP1 PUSH4 0x1F6F0B32 EQ PUSH2 0x18F7 JUMPI DUP1 PUSH4 0x2916F89D EQ PUSH2 0x187D JUMPI DUP1 PUSH4 0x2B154101 EQ PUSH2 0x16DF JUMPI DUP1 PUSH4 0x426E40B1 EQ PUSH2 0x1527 JUMPI DUP1 PUSH4 0x565FD504 EQ PUSH2 0x1373 JUMPI DUP1 PUSH4 0x5FED10BC EQ PUSH2 0x1279 JUMPI DUP1 PUSH4 0x6EA1847A EQ PUSH2 0x1258 JUMPI DUP1 PUSH4 0x736C72C5 EQ PUSH2 0x106D JUMPI DUP1 PUSH4 0x805A372F EQ PUSH2 0xF56 JUMPI DUP1 PUSH4 0x85F8C259 EQ PUSH2 0xF2C JUMPI DUP1 PUSH4 0x8EA2443B EQ PUSH2 0xD0B JUMPI DUP1 PUSH4 0x96ADB337 EQ PUSH2 0xCC1 JUMPI DUP1 PUSH4 0xA9A6BC0D EQ PUSH2 0xB2D JUMPI DUP1 PUSH4 0xAD615DEC EQ PUSH2 0xB12 JUMPI DUP1 PUSH4 0xAE062D76 EQ PUSH2 0xACF JUMPI DUP1 PUSH4 0xB67B1220 EQ PUSH2 0xA86 JUMPI DUP1 PUSH4 0xC45A0155 EQ PUSH2 0xA43 JUMPI DUP1 PUSH4 0xC71D77CB EQ PUSH2 0x810 JUMPI DUP1 PUSH4 0xD7429750 EQ PUSH2 0x70F JUMPI DUP1 PUSH4 0xDD182996 EQ PUSH2 0x6CF JUMPI DUP1 PUSH4 0xE99FB634 EQ PUSH2 0x5AF JUMPI DUP1 PUSH4 0xF1703D24 EQ PUSH2 0x56C JUMPI DUP1 PUSH4 0xF3EC43C7 EQ PUSH2 0x529 JUMPI DUP1 PUSH4 0xF7D13AF9 EQ PUSH2 0x504 JUMPI DUP1 PUSH4 0xF9751A4C EQ PUSH2 0x40E JUMPI PUSH4 0xFF62CCE0 EQ PUSH2 0x19E JUMPI POP PUSH2 0x11 JUMP JUMPDEST CALLVALUE PUSH2 0x40A JUMPI PUSH2 0x1BD PUSH2 0x1AF CALLDATASIZE PUSH2 0x1CF5 JUMP JUMPDEST SWAP9 SWAP5 SWAP9 SWAP7 SWAP1 SWAP7 SWAP6 SWAP4 SWAP6 PUSH2 0x3197 JUMP JUMPDEST PUSH0 NOT SWAP5 DUP3 DUP7 ADD SWAP4 DUP4 DUP6 GT PUSH2 0x3F7 JUMPI PUSH2 0x1DE PUSH2 0x1D9 DUP7 DUP7 DUP6 PUSH2 0x2B3A JUMP JUMPDEST PUSH2 0x2B4A JUMP JUMPDEST PUSH1 0x1 PUSH1 0x1 PUSH1 0xA0 SHL SUB PUSH32 0x0 DUP2 AND SWAP7 SWAP1 SWAP2 DUP3 AND DUP8 SWAP1 SUB PUSH2 0x3D0 JUMPI POP POP PUSH2 0x24F DUP4 PUSH32 0x0 SWAP3 PUSH2 0x248 CALLDATASIZE DUP9 DUP8 PUSH2 0x1EA0 JUMP JUMPDEST SWAP1 DUP5 PUSH2 0x2D86 JUMP JUMPDEST SWAP10 DUP1 PUSH2 0x25A DUP13 PUSH2 0x2AF5 JUMP JUMPDEST MLOAD GT PUSH2 0x3BA JUMPI POP DUP4 ISZERO PUSH2 0x3A7 JUMPI PUSH2 0x270 DUP3 PUSH2 0x2B4A JUMP JUMPDEST SWAP1 PUSH2 0x27A DUP4 PUSH2 0x2B4A JUMP JUMPDEST DUP6 PUSH1 0x1 LT ISZERO PUSH2 0x394 JUMPI PUSH2 0x2C4 SWAP3 DUP13 PUSH2 0x2B2 PUSH2 0x2AC DUP9 DUP9 SWAP7 PUSH2 0x2BB SWAP7 PUSH2 0x2A6 PUSH1 0x20 PUSH2 0x2CA SWAP15 SWAP14 SWAP13 ADD PUSH2 0x2B4A JUMP JUMPDEST SWAP2 PUSH2 0x1FC5 JUMP JUMPDEST SWAP2 PUSH2 0x2AF5 JUMP JUMPDEST MLOAD SWAP2 CALLER SWAP1 PUSH2 0x21FB JUMP JUMPDEST ADDRESS SWAP4 CALLDATASIZE SWAP2 PUSH2 0x1EA0 JUMP JUMPDEST DUP10 PUSH2 0x2CB0 JUMP JUMPDEST DUP6 MLOAD DUP4 DUP2 ADD SWAP1 DUP2 GT PUSH2 0x381 JUMPI PUSH2 0x2E0 SWAP1 DUP8 PUSH2 0x2B26 JUMP JUMPDEST MLOAD DUP2 EXTCODESIZE ISZERO PUSH2 0x37D JUMPI DUP3 SWAP2 PUSH1 0x24 DUP4 SWAP3 DUP9 MLOAD SWAP5 DUP6 SWAP4 DUP5 SWAP3 PUSH4 0x2E1A7D4D PUSH1 0xE0 SHL DUP5 MSTORE DUP14 DUP5 ADD MSTORE GAS CALL DUP1 ISZERO PUSH2 0x373 JUMPI SWAP1 DUP3 SWAP2 PUSH2 0x35C JUMPI JUMPDEST POP POP DUP5 MLOAD SWAP2 DUP3 ADD SWAP2 DUP3 GT PUSH2 0x349 JUMPI PUSH2 0x345 DUP6 DUP6 PUSH2 0x33B DUP7 PUSH2 0x334 DUP8 DUP6 PUSH2 0x2B26 JUMP JUMPDEST MLOAD SWAP1 PUSH2 0x2602 JUMP JUMPDEST MLOAD SWAP2 DUP3 SWAP2 DUP3 PUSH2 0x1D48 JUMP JUMPDEST SUB SWAP1 RETURN JUMPDEST PUSH4 0x4E487B71 PUSH1 0xE0 SHL DUP2 MSTORE PUSH1 0x11 DUP7 MSTORE PUSH1 0x24 SWAP1 REVERT JUMPDEST PUSH2 0x365 SWAP1 PUSH2 0x1E3E JUMP JUMPDEST PUSH2 0x370 JUMPI DUP1 PUSH0 PUSH2 0x313 JUMP JUMPDEST DUP1 REVERT JUMPDEST DUP6 MLOAD RETURNDATASIZE DUP5 DUP3 RETURNDATACOPY RETURNDATASIZE SWAP1 REVERT JUMPDEST DUP3 DUP1 REVERT JUMPDEST PUSH4 0x4E487B71 PUSH1 0xE0 SHL DUP4 MSTORE PUSH1 0x11 DUP9 MSTORE PUSH1 0x24 DUP4 REVERT JUMPDEST PUSH4 0x4E487B71 PUSH1 0xE0 SHL DUP9 MSTORE PUSH1 0x32 DUP14 MSTORE PUSH1 0x24 DUP9 REVERT JUMPDEST PUSH4 0x4E487B71 PUSH1 0xE0 SHL DUP7 MSTORE PUSH1 0x32 DUP12 MSTORE PUSH1 0x24 DUP7 REVERT JUMPDEST DUP12 PUSH1 0x24 SWAP2 DUP12 MLOAD SWAP2 PUSH4 0xE877B61B PUSH1 0xE0 SHL DUP4 MSTORE DUP3 ADD MSTORE REVERT JUMPDEST DUP13 PUSH1 0x24 SWAP3 PUSH2 0x3E3 PUSH2 0x1D9 DUP15 SWAP5 DUP11 DUP10 PUSH2 0x2B3A JUMP JUMPDEST SWAP3 MLOAD PUSH4 0x11F37A95 PUSH1 0xE1 SHL DUP2 MSTORE SWAP3 AND SWAP1 DUP3 ADD MSTORE REVERT JUMPDEST PUSH4 0x4E487B71 PUSH1 0xE0 SHL DUP7 MSTORE PUSH1 0x11 DUP12 MSTORE PUSH1 0x24 DUP7 REVERT JUMPDEST POP DUP1 REVERT JUMPDEST POP CALLVALUE PUSH2 0x40A JUMPI PUSH2 0x420 PUSH2 0x1AF CALLDATASIZE PUSH2 0x1CF5 JUMP JUMPDEST PUSH0 NOT SWAP5 DUP3 DUP7 ADD SWAP4 DUP4 DUP6 GT PUSH2 0x3F7 JUMPI PUSH2 0x43C PUSH2 0x1D9 DUP7 DUP7 DUP6 PUSH2 0x2B3A JUMP JUMPDEST PUSH1 0x1 PUSH1 0x1 PUSH1 0xA0 SHL SUB PUSH32 0x0 DUP2 AND SWAP7 SWAP1 SWAP2 DUP3 AND DUP8 SWAP1 SUB PUSH2 0x3D0 JUMPI POP POP PUSH2 0x4AD DUP4 PUSH32 0x0 SWAP3 PUSH2 0x4A6 CALLDATASIZE DUP9 DUP8 PUSH2 0x1EA0 JUMP JUMPDEST SWAP1 DUP5 PUSH2 0x2B90 JUMP JUMPDEST SWAP10 DUP11 MLOAD DUP9 DUP2 ADD SWAP1 DUP2 GT PUSH2 0x4F1 JUMPI PUSH2 0x4C5 DUP3 SWAP2 DUP14 PUSH2 0x2B26 JUMP JUMPDEST MLOAD LT PUSH2 0x4DB JUMPI POP DUP4 ISZERO PUSH2 0x3A7 JUMPI PUSH2 0x270 DUP3 PUSH2 0x2B4A JUMP JUMPDEST DUP12 PUSH1 0x24 SWAP2 DUP12 MLOAD SWAP2 PUSH4 0xF29385B PUSH1 0xE2 SHL DUP4 MSTORE DUP3 ADD MSTORE REVERT JUMPDEST PUSH4 0x4E487B71 PUSH1 0xE0 SHL DUP9 MSTORE PUSH1 0x11 DUP14 MSTORE PUSH1 0x24 DUP9 REVERT JUMPDEST POP CALLVALUE PUSH2 0x40A JUMPI PUSH1 0x20 SWAP1 PUSH2 0x522 PUSH2 0x519 CALLDATASIZE PUSH2 0x1EFE JUMP JUMPDEST POP POP DUP1 DUP1 PUSH2 0x2E5E JUMP JUMPDEST SWAP1 MLOAD SWAP1 DUP2 MSTORE RETURN JUMPDEST POP CALLVALUE PUSH2 0x40A JUMPI DUP2 PUSH1 0x3 NOT CALLDATASIZE ADD SLT PUSH2 0x40A JUMPI MLOAD PUSH32 0x0 PUSH1 0x1 PUSH1 0x1 PUSH1 0xA0 SHL SUB AND DUP2 MSTORE PUSH1 0x20 SWAP1 RETURN JUMPDEST POP CALLVALUE PUSH2 0x40A JUMPI PUSH1 0x20 CALLDATASIZE PUSH1 0x3 NOT ADD SLT PUSH2 0x40A JUMPI PUSH2 0x586 PUSH2 0x1C23 JUMP JUMPDEST PUSH2 0x58F CALLER PUSH2 0x1F60 JUMP JUMPDEST PUSH1 0x1 PUSH1 0x1 PUSH1 0xA0 SHL SUB AND DUP3 MSTORE PUSH1 0x20 DUP3 SWAP1 MSTORE DUP2 KECCAK256 DUP1 SLOAD PUSH1 0xFF NOT AND PUSH1 0x1 OR SWAP1 SSTORE DUP1 RETURN JUMPDEST POP CALLVALUE PUSH2 0x40A JUMPI PUSH2 0x5D1 PUSH2 0x5C1 CALLDATASIZE PUSH2 0x1CF5 JUMP JUMPDEST SWAP9 SWAP3 SWAP4 SWAP5 SWAP9 SWAP7 SWAP1 SWAP7 SWAP6 SWAP2 SWAP6 PUSH2 0x3197 JUMP JUMPDEST PUSH2 0x602 DUP6 PUSH32 0x0 SWAP3 PUSH2 0x4A6 CALLDATASIZE DUP8 DUP10 PUSH2 0x1EA0 JUMP JUMPDEST SWAP8 DUP9 MLOAD PUSH0 NOT DUP2 ADD SWAP1 DUP2 GT PUSH2 0x6BC JUMPI PUSH2 0x61B DUP3 SWAP2 DUP12 PUSH2 0x2B26 JUMP JUMPDEST MLOAD LT PUSH2 0x6A6 JUMPI POP DUP3 ISZERO PUSH2 0x693 JUMPI PUSH2 0x631 DUP5 PUSH2 0x2B4A JUMP JUMPDEST SWAP2 PUSH2 0x63B DUP6 PUSH2 0x2B4A JUMP JUMPDEST SWAP1 DUP5 PUSH1 0x1 LT ISZERO PUSH2 0x680 JUMPI PUSH2 0x345 DUP11 DUP11 PUSH2 0x33B DUP12 DUP12 PUSH2 0x67A DUP13 DUP13 PUSH2 0x673 DUP14 PUSH2 0x66A DUP7 DUP16 DUP16 PUSH2 0x2A6 PUSH1 0x20 DUP10 ADD PUSH2 0x2B4A JUMP JUMPDEST PUSH2 0x2B2 DUP12 PUSH2 0x2AF5 JUMP JUMPDEST CALLDATASIZE SWAP2 PUSH2 0x1EA0 JUMP JUMPDEST DUP6 PUSH2 0x2CB0 JUMP JUMPDEST PUSH4 0x4E487B71 PUSH1 0xE0 SHL DUP2 MSTORE PUSH1 0x32 DUP12 MSTORE PUSH1 0x24 SWAP1 REVERT JUMPDEST PUSH4 0x4E487B71 PUSH1 0xE0 SHL DUP3 MSTORE PUSH1 0x32 DUP10 MSTORE PUSH1 0x24 DUP3 REVERT JUMPDEST DUP10 PUSH1 0x24 SWAP2 DUP10 MLOAD SWAP2 PUSH4 0xF29385B PUSH1 0xE2 SHL DUP4 MSTORE DUP3 ADD MSTORE REVERT JUMPDEST PUSH4 0x4E487B71 PUSH1 0xE0 SHL DUP5 MSTORE PUSH1 0x11 DUP12 MSTORE PUSH1 0x24 DUP5 REVERT JUMPDEST POP CALLVALUE PUSH2 0x40A JUMPI PUSH1 0x20 CALLDATASIZE PUSH1 0x3 NOT ADD SLT PUSH2 0x40A JUMPI PUSH2 0x6E9 PUSH2 0x1C23 JUMP JUMPDEST PUSH2 0x6F2 CALLER PUSH2 0x1F60 JUMP JUMPDEST PUSH1 0x1 PUSH1 0x1 PUSH1 0xA0 SHL SUB AND DUP3 MSTORE PUSH1 0x20 DUP3 SWAP1 MSTORE DUP2 KECCAK256 DUP1 SLOAD PUSH1 0xFF NOT AND SWAP1 SSTORE DUP1 RETURN JUMPDEST POP DUP2 DUP4 CALLVALUE PUSH2 0x40A JUMPI PUSH2 0x720 CALLDATASIZE PUSH2 0x1DD2 JUMP JUMPDEST PUSH2 0x77B DUP11 SWAP9 SWAP11 SWAP14 SWAP6 SWAP14 SWAP13 SWAP4 SWAP7 SWAP13 SWAP12 SWAP8 SWAP12 SWAP5 SWAP3 SWAP5 PUSH32 0x0 DUP10 PUSH32 0x0 PUSH2 0x1FC5 JUMP JUMPDEST SWAP2 ISZERO PUSH2 0x809 JUMPI PUSH0 NOT SWAP2 JUMPDEST PUSH1 0x1 PUSH1 0x1 PUSH1 0xA0 SHL SUB AND SWAP3 DUP4 EXTCODESIZE ISZERO PUSH2 0x805 JUMPI PUSH2 0x7BC DUP16 SWAP3 DUP16 SWAP7 DUP9 SWAP5 MLOAD SWAP10 DUP11 SWAP9 DUP10 SWAP8 DUP9 SWAP7 PUSH4 0xD505ACCF PUSH1 0xE0 SHL DUP9 MSTORE ADDRESS SWAP1 CALLER SWAP1 DUP10 ADD PUSH2 0x29C2 JUMP JUMPDEST SUB SWAP3 GAS CALL DUP1 ISZERO PUSH2 0x7FB JUMPI PUSH2 0x7E3 JUMPI JUMPDEST POP PUSH2 0x7D7 SWAP8 SWAP9 POP PUSH2 0x2836 JUMP JUMPDEST DUP3 MLOAD SWAP2 DUP3 MSTORE PUSH1 0x20 DUP3 ADD MSTORE RETURN JUMPDEST PUSH2 0x7ED DUP11 SWAP2 PUSH2 0x1E3E JUMP JUMPDEST PUSH2 0x7F7 JUMPI DUP9 PUSH2 0x7CB JUMP JUMPDEST DUP9 DUP1 REVERT JUMPDEST DUP10 MLOAD RETURNDATASIZE DUP13 DUP3 RETURNDATACOPY RETURNDATASIZE SWAP1 REVERT JUMPDEST DUP6 DUP1 REVERT JUMPDEST DUP9 SWAP2 PUSH2 0x785 JUMP JUMPDEST POP DUP3 SWAP1 PUSH2 0x82B PUSH2 0x81F CALLDATASIZE PUSH2 0x1D82 JUMP JUMPDEST SWAP8 SWAP2 SWAP5 SWAP8 SWAP6 SWAP1 SWAP6 PUSH2 0x3197 JUMP JUMPDEST DUP2 ISZERO PUSH2 0xA30 JUMPI PUSH2 0x83A DUP4 PUSH2 0x2B4A JUMP JUMPDEST PUSH1 0x1 PUSH1 0x1 PUSH1 0xA0 SHL SUB PUSH32 0x0 DUP2 AND SWAP2 DUP2 AND DUP3 SWAP1 SUB PUSH2 0xA22 JUMPI POP PUSH32 0x0 PUSH2 0x8A7 DUP7 PUSH2 0x8A0 CALLDATASIZE DUP8 DUP10 PUSH2 0x1EA0 JUMP JUMPDEST CALLVALUE DUP5 PUSH2 0x2B90 JUMP JUMPDEST SWAP9 DUP10 MLOAD PUSH0 NOT DUP2 ADD SWAP1 DUP2 GT PUSH2 0xA0F JUMPI PUSH2 0x8C0 DUP3 SWAP2 DUP13 PUSH2 0x2B26 JUMP JUMPDEST MLOAD LT PUSH2 0x9F9 JUMPI POP DUP10 PUSH2 0x8D1 DUP11 PUSH2 0x2AF5 JUMP JUMPDEST MLOAD DUP4 EXTCODESIZE ISZERO PUSH2 0x40A JUMPI DUP2 DUP6 SWAP2 DUP12 MLOAD SWAP3 DUP4 DUP1 SWAP3 PUSH4 0xD0E30DB PUSH1 0xE4 SHL DUP3 MSTORE DUP9 GAS CALL DUP1 ISZERO PUSH2 0x9EF JUMPI PUSH2 0x9D7 JUMPI JUMPDEST POP POP PUSH2 0x905 DUP6 PUSH2 0x2B4A JUMP JUMPDEST DUP5 PUSH1 0x1 LT ISZERO PUSH2 0x9C4 JUMPI SWAP2 PUSH2 0x926 DUP8 PUSH2 0x962 SWAP6 SWAP4 PUSH1 0x20 SWAP6 PUSH2 0x2A6 DUP8 DUP12 ADD PUSH2 0x2B4A JUMP JUMPDEST DUP12 PUSH2 0x930 DUP13 PUSH2 0x2AF5 JUMP JUMPDEST MLOAD DUP12 MLOAD PUSH4 0xA9059CBB PUSH1 0xE0 SHL DUP2 MSTORE PUSH1 0x1 PUSH1 0x1 PUSH1 0xA0 SHL SUB SWAP1 SWAP4 AND SWAP5 DUP4 ADD SWAP5 DUP6 MSTORE PUSH1 0x20 DUP6 ADD MSTORE SWAP1 SWAP5 DUP6 SWAP4 DUP5 SWAP3 SWAP2 DUP4 SWAP2 PUSH1 0x40 ADD SWAP1 JUMP JUMPDEST SUB SWAP3 GAS CALL SWAP1 DUP2 ISZERO PUSH2 0x9BA JUMPI SWAP2 PUSH2 0x673 PUSH2 0x33B SWAP7 SWAP6 SWAP5 SWAP3 PUSH2 0x67A SWAP5 PUSH2 0x345 SWAP12 SWAP2 PUSH2 0x98C JUMPI JUMPDEST POP PUSH2 0x1F45 JUMP JUMPDEST PUSH2 0x9AD SWAP2 POP PUSH1 0x20 RETURNDATASIZE DUP2 GT PUSH2 0x9B3 JUMPI JUMPDEST PUSH2 0x9A5 DUP2 DUP4 PUSH2 0x1E66 JUMP JUMPDEST DUP2 ADD SWAP1 PUSH2 0x2087 JUMP JUMPDEST DUP12 PUSH2 0x986 JUMP JUMPDEST POP RETURNDATASIZE PUSH2 0x99B JUMP JUMPDEST DUP7 MLOAD RETURNDATASIZE DUP11 DUP3 RETURNDATACOPY RETURNDATASIZE SWAP1 REVERT JUMPDEST PUSH4 0x4E487B71 PUSH1 0xE0 SHL DUP12 MSTORE PUSH1 0x32 DUP5 MSTORE PUSH1 0x24 DUP12 REVERT JUMPDEST PUSH2 0x9E0 SWAP1 PUSH2 0x1E3E JUMP JUMPDEST PUSH2 0x9EB JUMPI DUP10 DUP12 PUSH2 0x8FA JUMP JUMPDEST DUP10 DUP1 REVERT JUMPDEST DUP11 MLOAD RETURNDATASIZE DUP5 DUP3 RETURNDATACOPY RETURNDATASIZE SWAP1 REVERT JUMPDEST DUP4 PUSH1 0x24 SWAP2 DUP11 MLOAD SWAP2 PUSH4 0xF29385B PUSH1 0xE2 SHL DUP4 MSTORE DUP3 ADD MSTORE REVERT JUMPDEST PUSH4 0x4E487B71 PUSH1 0xE0 SHL DUP13 MSTORE PUSH1 0x11 DUP6 MSTORE PUSH1 0x24 DUP13 REVERT JUMPDEST DUP8 DUP4 PUSH1 0x24 SWAP3 PUSH2 0x3E3 DUP9 PUSH2 0x2B4A JUMP JUMPDEST PUSH4 0x4E487B71 PUSH1 0xE0 SHL DUP9 MSTORE PUSH1 0x32 SWAP1 MSTORE PUSH1 0x24 DUP8 REVERT JUMPDEST POP CALLVALUE PUSH2 0x40A JUMPI DUP2 PUSH1 0x3 NOT CALLDATASIZE ADD SLT PUSH2 0x40A JUMPI MLOAD PUSH32 0x0 PUSH1 0x1 PUSH1 0x1 PUSH1 0xA0 SHL SUB AND DUP2 MSTORE PUSH1 0x20 SWAP1 RETURN JUMPDEST POP CALLVALUE PUSH2 0x40A JUMPI PUSH2 0x345 SWAP1 PUSH2 0xAC4 PUSH2 0xA9C CALLDATASIZE PUSH2 0x1EFE JUMP JUMPDEST SWAP1 SWAP2 PUSH32 0x0 PUSH2 0x2B90 JUMP JUMPDEST SWAP1 MLOAD SWAP2 DUP3 SWAP2 DUP3 PUSH2 0x1D48 JUMP JUMPDEST POP CALLVALUE PUSH2 0x40A JUMPI DUP2 PUSH1 0x3 NOT CALLDATASIZE ADD SLT PUSH2 0x40A JUMPI MLOAD PUSH32 0x0 PUSH1 0x1 PUSH1 0x1 PUSH1 0xA0 SHL SUB AND DUP2 MSTORE PUSH1 0x20 SWAP1 RETURN JUMPDEST POP CALLVALUE PUSH2 0x40A JUMPI PUSH1 0x20 SWAP1 PUSH2 0x522 PUSH2 0xB27 CALLDATASIZE PUSH2 0x1CAA JUMP JUMPDEST SWAP2 PUSH2 0x24C4 JUMP JUMPDEST POP DUP3 SWAP1 PUSH2 0xB3C PUSH2 0x81F CALLDATASIZE PUSH2 0x1D82 JUMP JUMPDEST DUP2 ISZERO PUSH2 0xA30 JUMPI PUSH2 0xB4B DUP4 PUSH2 0x2B4A JUMP JUMPDEST PUSH1 0x1 PUSH1 0x1 PUSH1 0xA0 SHL SUB PUSH32 0x0 DUP2 AND SWAP2 DUP2 AND DUP3 SWAP1 SUB PUSH2 0xA22 JUMPI POP PUSH2 0xBB9 DUP6 PUSH32 0x0 SWAP10 PUSH2 0xBB2 CALLDATASIZE DUP8 DUP10 PUSH2 0x1EA0 JUMP JUMPDEST SWAP1 DUP12 PUSH2 0x2D86 JUMP JUMPDEST SWAP8 PUSH2 0xBC3 DUP10 PUSH2 0x2AF5 JUMP JUMPDEST MLOAD CALLVALUE LT PUSH2 0xCA1 JUMPI DUP10 PUSH2 0xBD4 DUP11 PUSH2 0x2AF5 JUMP JUMPDEST MLOAD DUP4 EXTCODESIZE ISZERO PUSH2 0x40A JUMPI DUP2 DUP6 SWAP2 DUP12 MLOAD SWAP3 DUP4 DUP1 SWAP3 PUSH4 0xD0E30DB PUSH1 0xE4 SHL DUP3 MSTORE DUP9 GAS CALL DUP1 ISZERO PUSH2 0x9EF JUMPI PUSH2 0xC8D JUMPI JUMPDEST POP POP PUSH2 0xC08 DUP6 PUSH2 0x2B4A JUMP JUMPDEST DUP5 PUSH1 0x1 LT ISZERO PUSH2 0x9C4 JUMPI SWAP2 PUSH2 0x926 DUP8 PUSH2 0xC29 SWAP6 SWAP4 PUSH1 0x20 SWAP6 PUSH2 0x2A6 DUP8 DUP12 ADD PUSH2 0x2B4A JUMP JUMPDEST SUB SWAP3 GAS CALL SWAP1 DUP2 ISZERO PUSH2 0x9BA JUMPI SWAP2 PUSH2 0x673 PUSH2 0xC52 SWAP7 SWAP6 SWAP5 SWAP3 PUSH2 0x67A SWAP5 PUSH2 0x345 SWAP12 SWAP2 PUSH2 0x98C JUMPI POP PUSH2 0x1F45 JUMP JUMPDEST PUSH2 0xC5B DUP3 PUSH2 0x2AF5 JUMP JUMPDEST MLOAD CALLVALUE GT PUSH2 0xC6C JUMPI MLOAD SWAP2 DUP3 SWAP2 DUP3 PUSH2 0x1D48 JUMP JUMPDEST PUSH2 0xC88 PUSH2 0xC82 PUSH2 0xC7B DUP5 PUSH2 0x2AF5 JUMP JUMPDEST MLOAD CALLVALUE PUSH2 0x25F5 JUMP JUMPDEST CALLER PUSH2 0x2602 JUMP JUMPDEST PUSH2 0x33B JUMP JUMPDEST PUSH2 0xC96 SWAP1 PUSH2 0x1E3E JUMP JUMPDEST PUSH2 0x9EB JUMPI DUP10 DUP12 PUSH2 0xBFD JUMP JUMPDEST PUSH1 0x24 DUP4 DUP10 PUSH2 0xCAE DUP13 PUSH2 0x2AF5 JUMP JUMPDEST MLOAD SWAP1 MLOAD PUSH4 0xE877B61B PUSH1 0xE0 SHL DUP2 MSTORE SWAP2 DUP3 ADD MSTORE REVERT JUMPDEST POP SWAP1 CALLVALUE PUSH2 0x370 JUMPI PUSH2 0x100 CALLDATASIZE PUSH1 0x3 NOT ADD SLT PUSH2 0x370 JUMPI POP PUSH2 0x7D7 PUSH2 0xCE1 PUSH2 0x1C23 JUMP JUMPDEST PUSH2 0xCE9 PUSH2 0x1C39 JUMP JUMPDEST PUSH2 0xCF1 PUSH2 0x1C4F JUMP JUMPDEST SWAP1 PUSH1 0xE4 CALLDATALOAD SWAP3 PUSH1 0xA4 CALLDATALOAD SWAP2 PUSH1 0x84 CALLDATALOAD SWAP2 PUSH1 0x64 CALLDATALOAD SWAP2 PUSH1 0x44 CALLDATALOAD SWAP2 PUSH2 0x26A8 JUMP JUMPDEST POP DUP3 CALLVALUE PUSH2 0x37D JUMPI PUSH2 0xD2F SWAP1 PUSH2 0xD1F CALLDATASIZE PUSH2 0x1CF5 JUMP JUMPDEST SWAP9 SWAP6 SWAP7 SWAP5 SWAP8 SWAP1 SWAP9 SWAP4 SWAP2 SWAP3 SWAP4 PUSH2 0x3197 JUMP JUMPDEST PUSH0 NOT DUP4 ADD SWAP6 DUP4 DUP8 GT PUSH2 0xF19 JUMPI PUSH2 0xD49 PUSH2 0x1D9 DUP9 DUP7 DUP6 PUSH2 0x2B3A JUMP JUMPDEST PUSH1 0x1 PUSH1 0x1 PUSH1 0xA0 SHL SUB PUSH32 0x0 DUP2 AND SWAP9 SWAP1 SWAP2 DUP3 AND DUP10 SWAP1 SUB PUSH2 0xF06 JUMPI POP POP DUP4 ISZERO PUSH2 0xEF3 JUMPI PUSH2 0xD91 DUP3 PUSH2 0x2B4A JUMP JUMPDEST PUSH2 0xD9A DUP4 PUSH2 0x2B4A JUMP JUMPDEST DUP6 PUSH1 0x1 LT ISZERO PUSH2 0xEE0 JUMPI PUSH2 0xDF1 SWAP3 DUP5 SWAP3 PUSH2 0xDE9 DUP8 PUSH2 0x2BB SWAP5 PUSH2 0xDC2 PUSH1 0x20 PUSH2 0xDF6 SWAP13 SWAP12 SWAP11 ADD PUSH2 0x2B4A JUMP JUMPDEST SWAP1 PUSH32 0x0 PUSH2 0x1FC5 JUMP JUMPDEST SWAP1 CALLER SWAP1 PUSH2 0x21FB JUMP JUMPDEST PUSH2 0x2F47 JUMP JUMPDEST DUP2 MLOAD PUSH4 0x70A08231 PUSH1 0xE0 SHL DUP2 MSTORE ADDRESS DUP3 DUP3 ADD MSTORE SWAP4 PUSH1 0x20 DUP6 PUSH1 0x24 DUP2 DUP8 GAS STATICCALL SWAP5 DUP6 ISZERO PUSH2 0xED6 JUMPI DUP8 SWAP6 PUSH2 0xE9F JUMPI JUMPDEST POP DUP1 DUP6 LT PUSH2 0xE8B JUMPI POP SWAP1 DUP3 SWAP2 DUP7 SWAP4 EXTCODESIZE ISZERO PUSH2 0xE87 JUMPI DUP5 PUSH1 0x24 DUP6 SWAP3 DUP4 DUP6 MLOAD SWAP7 DUP8 SWAP5 DUP6 SWAP4 PUSH4 0x2E1A7D4D PUSH1 0xE0 SHL DUP6 MSTORE DUP5 ADD MSTORE GAS CALL SWAP1 DUP2 ISZERO PUSH2 0xE7E JUMPI POP PUSH2 0xE6A JUMPI JUMPDEST POP POP PUSH2 0xE67 SWAP2 PUSH2 0x2602 JUMP JUMPDEST DUP1 RETURN JUMPDEST PUSH2 0xE73 SWAP1 PUSH2 0x1E3E JUMP JUMPDEST PUSH2 0x37D JUMPI DUP3 DUP5 PUSH2 0xE5C JUMP JUMPDEST MLOAD RETURNDATASIZE DUP5 DUP3 RETURNDATACOPY RETURNDATASIZE SWAP1 REVERT JUMPDEST DUP4 DUP1 REVERT JUMPDEST PUSH1 0x24 SWAP3 MLOAD SWAP2 PUSH4 0xF29385B PUSH1 0xE2 SHL DUP4 MSTORE DUP3 ADD MSTORE REVERT JUMPDEST SWAP1 SWAP5 POP PUSH1 0x20 DUP2 RETURNDATASIZE DUP3 GT PUSH2 0xECE JUMPI JUMPDEST DUP2 PUSH2 0xEBA PUSH1 0x20 SWAP4 DUP4 PUSH2 0x1E66 JUMP JUMPDEST DUP2 ADD SUB SLT PUSH2 0xECA JUMPI MLOAD SWAP4 DUP8 PUSH2 0xE1F JUMP JUMPDEST PUSH0 DUP1 REVERT JUMPDEST RETURNDATASIZE SWAP2 POP PUSH2 0xEAD JUMP JUMPDEST DUP4 MLOAD RETURNDATASIZE DUP10 DUP3 RETURNDATACOPY RETURNDATASIZE SWAP1 REVERT JUMPDEST PUSH4 0x4E487B71 PUSH1 0xE0 SHL DUP13 MSTORE PUSH1 0x32 DUP8 MSTORE PUSH1 0x24 DUP13 REVERT JUMPDEST PUSH4 0x4E487B71 PUSH1 0xE0 SHL DUP11 MSTORE PUSH1 0x32 DUP6 MSTORE PUSH1 0x24 DUP11 REVERT JUMPDEST DUP7 PUSH1 0x24 SWAP3 PUSH2 0x3E3 PUSH2 0x1D9 DUP12 SWAP5 DUP11 DUP10 PUSH2 0x2B3A JUMP JUMPDEST PUSH4 0x4E487B71 PUSH1 0xE0 SHL DUP11 MSTORE PUSH1 0x11 DUP6 MSTORE PUSH1 0x24 DUP11 REVERT JUMPDEST POP SWAP2 SWAP1 CALLVALUE PUSH2 0x370 JUMPI POP PUSH0 PUSH1 0x24 SWAP3 PUSH2 0xF42 CALLDATASIZE PUSH2 0x1CAA JUMP JUMPDEST POP POP POP MLOAD SWAP2 PUSH4 0x3F494305 PUSH1 0xE0 SHL DUP4 MSTORE DUP3 ADD MSTORE REVERT JUMPDEST POP DUP3 CALLVALUE PUSH2 0x37D JUMPI PUSH2 0x180 CALLDATASIZE PUSH1 0x3 NOT ADD SLT PUSH2 0x37D JUMPI PUSH2 0xF72 PUSH2 0x1C23 JUMP JUMPDEST PUSH2 0xF7A PUSH2 0x1C39 JUMP JUMPDEST PUSH1 0x44 CALLDATALOAD SWAP2 PUSH1 0x64 CALLDATALOAD PUSH2 0xF89 PUSH2 0x1C4F JUMP JUMPDEST SWAP4 PUSH1 0xE4 CALLDATALOAD SWAP6 PUSH2 0x104 CALLDATALOAD SWAP1 DUP2 ISZERO ISZERO DUP3 SUB PUSH2 0xECA JUMPI PUSH2 0x124 CALLDATALOAD SWAP1 PUSH1 0xFF DUP3 AND DUP3 SUB PUSH2 0xECA JUMPI DUP11 SWAP2 PUSH2 0xFD9 DUP6 DUP10 DUP10 PUSH32 0x0 PUSH2 0x1FC5 JUMP JUMPDEST SWAP4 ISZERO PUSH2 0x1066 JUMPI PUSH0 NOT SWAP4 JUMPDEST PUSH1 0x1 PUSH1 0x1 PUSH1 0xA0 SHL SUB AND SWAP1 DUP2 EXTCODESIZE ISZERO PUSH2 0xE87 JUMPI DUP4 DUP12 PUSH2 0x1021 DUP15 MLOAD SWAP8 DUP9 SWAP7 DUP8 SWAP6 DUP7 SWAP5 PUSH4 0xD505ACCF PUSH1 0xE0 SHL DUP7 MSTORE PUSH2 0x164 CALLDATALOAD SWAP4 PUSH2 0x144 CALLDATALOAD SWAP4 ADDRESS SWAP1 CALLER SWAP1 DUP10 ADD PUSH2 0x29C2 JUMP JUMPDEST SUB SWAP3 GAS CALL DUP1 ISZERO PUSH2 0x105C JUMPI PUSH2 0x1044 JUMPI JUMPDEST POP PUSH2 0x7D7 SWAP7 SWAP8 POP PUSH1 0xA4 CALLDATALOAD SWAP4 PUSH1 0x84 CALLDATALOAD SWAP4 PUSH2 0x26A8 JUMP JUMPDEST PUSH2 0x104E DUP10 SWAP2 PUSH2 0x1E3E JUMP JUMPDEST PUSH2 0x1058 JUMPI DUP8 PUSH2 0x1030 JUMP JUMPDEST DUP8 DUP1 REVERT JUMPDEST DUP9 MLOAD RETURNDATASIZE DUP12 DUP3 RETURNDATACOPY RETURNDATASIZE SWAP1 REVERT JUMPDEST DUP6 SWAP4 PUSH2 0xFE3 JUMP JUMPDEST POP SWAP2 CALLVALUE PUSH2 0x40A JUMPI PUSH2 0x108D PUSH2 0x1080 CALLDATASIZE PUSH2 0x1CF5 JUMP JUMPDEST SWAP10 SWAP6 SWAP2 SWAP5 SWAP7 SWAP1 SWAP4 SWAP10 PUSH2 0x3197 JUMP JUMPDEST DUP2 ISZERO PUSH2 0x1245 JUMPI PUSH2 0x109C DUP10 PUSH2 0x2B4A JUMP JUMPDEST PUSH2 0x10A5 DUP11 PUSH2 0x2B4A JUMP JUMPDEST DUP4 PUSH1 0x1 LT ISZERO PUSH2 0x1232 JUMPI SWAP2 PUSH2 0x10C9 SWAP2 PUSH2 0xDE9 DUP8 DUP14 SWAP9 SWAP8 SWAP7 SWAP6 PUSH2 0xDC2 PUSH1 0x20 DUP1 SWAP12 ADD PUSH2 0x2B4A JUMP JUMPDEST PUSH0 NOT DUP2 ADD SWAP1 DUP1 DUP3 GT PUSH2 0x121F JUMPI SWAP9 DUP8 SWAP2 DUP10 SWAP11 PUSH1 0x1 DUP1 PUSH1 0xA0 SHL SUB SWAP3 DUP4 PUSH2 0x10F1 PUSH2 0x1D9 DUP6 DUP6 DUP6 PUSH2 0x2B3A JUMP JUMPDEST AND SWAP6 DUP10 MLOAD SWAP8 DUP10 DUP10 PUSH1 0x24 DUP2 PUSH4 0x70A08231 PUSH1 0xE0 SHL SWAP12 DUP13 DUP3 MSTORE DUP11 DUP8 AND DUP1 SWAP13 DUP4 ADD MSTORE GAS STATICCALL SWAP9 DUP10 ISZERO PUSH2 0x1213 JUMPI DUP11 SWAP12 SWAP13 SWAP14 SWAP15 SWAP11 SWAP9 SWAP10 PUSH2 0x11D2 JUMPI JUMPDEST POP SWAP3 PUSH2 0x1D9 SWAP3 PUSH2 0x1142 PUSH1 0x24 SWAP8 SWAP7 SWAP4 PUSH2 0x1147 SWAP7 PUSH2 0xDF1 CALLDATASIZE DUP7 DUP7 PUSH2 0x1EA0 JUMP JUMPDEST PUSH2 0x2B3A JUMP JUMPDEST AND SWAP4 DUP8 MLOAD SWAP5 DUP6 SWAP4 DUP5 SWAP3 DUP4 MSTORE DUP12 DUP4 ADD MSTORE GAS STATICCALL SWAP1 DUP2 ISZERO PUSH2 0x11C8 JUMPI SWAP1 DUP6 SWAP3 SWAP2 DUP9 SWAP2 PUSH2 0x1194 JUMPI JUMPDEST POP PUSH2 0x1176 SWAP3 SWAP4 POP PUSH2 0x2EF5 JUMP JUMPDEST LT PUSH2 0x117F JUMPI DUP4 DUP1 RETURN JUMPDEST MLOAD PUSH4 0xF29385B PUSH1 0xE2 SHL DUP2 MSTORE SWAP2 DUP3 ADD MSTORE PUSH1 0x24 SWAP2 POP REVERT JUMPDEST SWAP3 POP POP SWAP2 DUP2 DUP2 RETURNDATASIZE DUP4 GT PUSH2 0x11C1 JUMPI JUMPDEST PUSH2 0x11AC DUP2 DUP4 PUSH2 0x1E66 JUMP JUMPDEST DUP2 ADD SUB SLT PUSH2 0xECA JUMPI MLOAD DUP4 SWAP2 DUP3 SWAP2 PUSH2 0x1176 PUSH2 0x116A JUMP JUMPDEST POP RETURNDATASIZE PUSH2 0x11A2 JUMP JUMPDEST DUP5 MLOAD RETURNDATASIZE DUP10 DUP3 RETURNDATACOPY RETURNDATASIZE SWAP1 REVERT JUMPDEST DUP9 DUP2 SWAP6 SWAP10 SWAP3 SWAP12 POP SWAP7 SWAP6 SWAP3 SWAP4 SWAP7 RETURNDATASIZE DUP4 GT PUSH2 0x120C JUMPI JUMPDEST PUSH2 0x11F0 DUP2 DUP4 PUSH2 0x1E66 JUMP JUMPDEST DUP2 ADD SUB SLT PUSH2 0xECA JUMPI SWAP2 MLOAD SWAP8 DUP10 SWAP7 SWAP4 SWAP5 SWAP3 SWAP4 SWAP3 SWAP2 SWAP1 PUSH2 0x1D9 PUSH2 0x1125 JUMP JUMPDEST POP RETURNDATASIZE PUSH2 0x11E6 JUMP JUMPDEST DUP15 DUP13 MLOAD SWAP1 RETURNDATASIZE SWAP1 DUP3 RETURNDATACOPY RETURNDATASIZE SWAP1 REVERT JUMPDEST PUSH4 0x4E487B71 PUSH1 0xE0 SHL DUP10 MSTORE PUSH1 0x11 DUP9 MSTORE PUSH1 0x24 DUP10 REVERT JUMPDEST PUSH4 0x4E487B71 PUSH1 0xE0 SHL DUP11 MSTORE PUSH1 0x32 DUP10 MSTORE PUSH1 0x24 DUP11 REVERT JUMPDEST PUSH4 0x4E487B71 PUSH1 0xE0 SHL DUP9 MSTORE PUSH1 0x32 DUP8 MSTORE PUSH1 0x24 DUP9 REVERT JUMPDEST POP CALLVALUE PUSH2 0x40A JUMPI PUSH1 0x20 SWAP1 PUSH2 0x522 PUSH2 0x126D CALLDATASIZE PUSH2 0x1C65 JUMP JUMPDEST SWAP6 SWAP5 SWAP1 SWAP5 SWAP4 SWAP2 SWAP4 PUSH2 0x29FE JUMP JUMPDEST POP DUP3 CALLVALUE PUSH2 0x37D JUMPI PUSH2 0x1289 CALLDATASIZE PUSH2 0x1DD2 JUMP JUMPDEST PUSH2 0x12E3 DUP10 SWAP15 SWAP7 SWAP13 SWAP3 SWAP5 SWAP4 SWAP6 SWAP15 SWAP12 SWAP8 SWAP12 SWAP11 SWAP9 SWAP11 PUSH32 0x0 DUP10 PUSH32 0x0 PUSH2 0x1FC5 JUMP JUMPDEST SWAP3 ISZERO PUSH2 0x136C JUMPI PUSH0 NOT SWAP3 JUMPDEST PUSH1 0x1 PUSH1 0x1 PUSH1 0xA0 SHL SUB AND SWAP4 DUP5 EXTCODESIZE ISZERO PUSH2 0x1368 JUMPI DUP7 SWAP5 SWAP3 DUP16 SWAP5 SWAP3 DUP16 SWAP1 DUP8 SWAP4 PUSH2 0x1329 SWAP3 MLOAD SWAP10 DUP11 SWAP9 DUP10 SWAP8 DUP9 SWAP7 PUSH4 0xD505ACCF PUSH1 0xE0 SHL DUP9 MSTORE ADDRESS SWAP1 CALLER SWAP1 DUP10 ADD PUSH2 0x29C2 JUMP JUMPDEST SUB SWAP3 GAS CALL DUP1 ISZERO PUSH2 0x135E JUMPI PUSH2 0x134A JUMPI JUMPDEST PUSH1 0x20 DUP10 PUSH2 0x522 DUP13 DUP12 DUP12 DUP12 DUP12 DUP12 DUP12 PUSH2 0x29FE JUMP JUMPDEST PUSH2 0x1354 DUP3 SWAP2 PUSH2 0x1E3E JUMP JUMPDEST PUSH2 0x370 JUMPI DUP1 PUSH2 0x1338 JUMP JUMPDEST DUP10 MLOAD RETURNDATASIZE DUP5 DUP3 RETURNDATACOPY RETURNDATASIZE SWAP1 REVERT JUMPDEST DUP7 DUP1 REVERT JUMPDEST DUP8 SWAP3 PUSH2 0x12ED JUMP JUMPDEST POP CALLVALUE PUSH2 0x40A JUMPI PUSH2 0x1385 PUSH2 0x5C1 CALLDATASIZE PUSH2 0x1CF5 JUMP JUMPDEST PUSH32 0x0 SWAP1 PUSH2 0x13BD DUP7 PUSH2 0x13B6 CALLDATASIZE DUP8 DUP10 PUSH2 0x1EA0 JUMP JUMPDEST DUP4 DUP6 PUSH2 0x2B90 JUMP JUMPDEST SWAP9 DUP10 MLOAD PUSH0 NOT DUP2 ADD SWAP1 DUP2 GT PUSH2 0x1514 JUMPI PUSH2 0x13D6 DUP3 SWAP2 DUP13 PUSH2 0x2B26 JUMP JUMPDEST MLOAD LT PUSH2 0x14FE JUMPI POP DUP4 ISZERO PUSH2 0x14EB JUMPI PUSH2 0x13EC DUP6 PUSH2 0x2B4A JUMP JUMPDEST SWAP2 PUSH2 0x13F6 DUP7 PUSH2 0x2B4A JUMP JUMPDEST DUP6 PUSH1 0x1 LT ISZERO PUSH2 0x14D8 JUMPI PUSH2 0x345 SWAP12 POP SWAP4 PUSH2 0x67A SWAP6 SWAP4 PUSH2 0x673 SWAP4 DUP3 PUSH2 0x1429 DUP12 DUP3 SWAP7 DUP13 SWAP11 PUSH2 0x33B SWAP16 SWAP15 SWAP14 PUSH1 0x20 PUSH2 0x2A6 SWAP2 ADD PUSH2 0x2B4A JUMP JUMPDEST DUP14 MLOAD PUSH4 0x79212195 PUSH1 0xE1 SHL PUSH1 0x20 DUP3 ADD SWAP1 DUP2 MSTORE CALLER PUSH1 0x24 DUP4 ADD MSTORE PUSH1 0x1 PUSH1 0x1 PUSH1 0xA0 SHL SUB SWAP1 SWAP3 AND PUSH1 0x44 DUP3 ADD MSTORE PUSH1 0x64 DUP2 ADD DUP13 SWAP1 MSTORE PUSH1 0x84 DUP2 ADD SWAP4 SWAP1 SWAP4 MSTORE PUSH1 0xA0 PUSH1 0xA4 DUP5 ADD MSTORE PUSH1 0x2 PUSH1 0xC4 DUP5 ADD MSTORE PUSH2 0x60F PUSH1 0xF3 SHL PUSH1 0xE4 DUP5 ADD MSTORE SWAP2 PUSH2 0x1491 DUP2 PUSH2 0x104 DUP2 ADD JUMPDEST SUB PUSH1 0x1F NOT DUP2 ADD DUP4 MSTORE DUP3 PUSH2 0x1E66 JUMP JUMPDEST MLOAD SWAP3 GAS CALL PUSH2 0x149D PUSH2 0x2156 JUMP JUMPDEST DUP2 PUSH2 0x14A9 JUMPI JUMPDEST POP PUSH2 0x2195 JUMP JUMPDEST DUP1 MLOAD DUP1 ISZERO SWAP3 POP DUP3 ISZERO PUSH2 0x14BE JUMPI JUMPDEST POP POP PUSH0 PUSH2 0x14A3 JUMP JUMPDEST PUSH2 0x14D1 SWAP3 POP PUSH1 0x20 DUP1 SWAP2 DUP4 ADD ADD SWAP2 ADD PUSH2 0x2087 JUMP JUMPDEST PUSH0 DUP1 PUSH2 0x14B6 JUMP JUMPDEST PUSH4 0x4E487B71 PUSH1 0xE0 SHL DUP6 MSTORE PUSH1 0x32 DUP13 MSTORE PUSH1 0x24 DUP6 REVERT JUMPDEST PUSH4 0x4E487B71 PUSH1 0xE0 SHL DUP4 MSTORE PUSH1 0x32 DUP11 MSTORE PUSH1 0x24 DUP4 REVERT JUMPDEST DUP11 PUSH1 0x24 SWAP2 DUP11 MLOAD SWAP2 PUSH4 0xF29385B PUSH1 0xE2 SHL DUP4 MSTORE DUP3 ADD MSTORE REVERT JUMPDEST PUSH4 0x4E487B71 PUSH1 0xE0 SHL DUP6 MSTORE PUSH1 0x11 DUP13 MSTORE PUSH1 0x24 DUP6 REVERT JUMPDEST POP DUP3 CALLVALUE PUSH2 0x37D JUMPI PUSH2 0x120 CALLDATASIZE PUSH1 0x3 NOT ADD SLT PUSH2 0x37D JUMPI PUSH2 0x1543 PUSH2 0x1C23 JUMP JUMPDEST SWAP3 PUSH2 0x154C PUSH2 0x1C39 JUMP JUMPDEST SWAP3 PUSH1 0x44 CALLDATALOAD SWAP3 PUSH1 0xE4 CALLDATALOAD SWAP1 PUSH1 0x1 DUP1 PUSH1 0xA0 SHL SUB SWAP7 DUP8 DUP4 AND DUP1 SWAP4 SUB PUSH2 0xECA JUMPI DUP8 SWAP1 PUSH2 0x1575 PUSH2 0x104 CALLDATALOAD PUSH2 0x3197 JUMP JUMPDEST PUSH2 0x157E CALLER PUSH2 0x2247 JUMP JUMPDEST PUSH2 0x1595 PUSH1 0xC4 CALLDATALOAD PUSH1 0xA4 CALLDATALOAD PUSH1 0x84 CALLDATALOAD PUSH1 0x64 CALLDATALOAD DUP12 DUP14 DUP8 PUSH2 0x2268 JUMP JUMPDEST SWAP10 SWAP1 SWAP9 PUSH2 0x15D1 DUP11 PUSH2 0x15C8 DUP12 DUP5 DUP8 PUSH32 0x0 PUSH2 0x1FC5 JUMP JUMPDEST DUP1 SWAP6 CALLER SWAP1 PUSH2 0x21FB JUMP JUMPDEST AND DUP1 EXTCODESIZE ISZERO PUSH2 0x1368 JUMPI SWAP1 DUP7 SWAP2 DUP7 MLOAD SWAP4 DUP5 SWAP3 PUSH4 0x79212195 PUSH1 0xE1 SHL DUP5 MSTORE CALLER DUP8 DUP6 ADD MSTORE AND SWAP9 DUP10 PUSH1 0x24 DUP5 ADD MSTORE PUSH1 0x44 DUP4 ADD MSTORE DUP11 PUSH1 0x64 DUP4 ADD MSTORE PUSH1 0xA0 PUSH1 0x84 DUP4 ADD MSTORE DUP2 DUP4 DUP2 PUSH2 0x162A PUSH1 0xA4 DUP3 ADD PUSH1 0x40 SWAP1 PUSH1 0x2 DUP2 MSTORE PUSH2 0x60F PUSH1 0xF3 SHL PUSH1 0x20 DUP3 ADD MSTORE ADD SWAP1 JUMP JUMPDEST SUB SWAP3 GAS CALL DUP1 ISZERO PUSH2 0x16D5 JUMPI SWAP1 DUP6 SWAP2 PUSH2 0x16C1 JUMPI JUMPDEST POP PUSH1 0x20 SWAP3 SWAP2 PUSH1 0x24 SWAP2 DUP6 MLOAD SWAP8 DUP9 SWAP5 DUP6 SWAP4 PUSH4 0x35313C21 PUSH1 0xE1 SHL DUP6 MSTORE DUP5 ADD MSTORE GAS CALL SWAP2 DUP3 ISZERO PUSH2 0x16B6 JUMPI SWAP2 PUSH2 0x1681 JUMPI JUMPDEST MLOAD SWAP3 DUP4 MSTORE PUSH1 0x20 DUP4 ADD SWAP4 SWAP1 SWAP4 MSTORE POP PUSH1 0x40 DUP2 ADD SWAP2 SWAP1 SWAP2 MSTORE PUSH1 0x60 SWAP1 RETURN JUMPDEST SWAP1 POP PUSH1 0x20 DUP3 RETURNDATASIZE DUP3 GT PUSH2 0x16AE JUMPI JUMPDEST DUP2 PUSH2 0x169B PUSH1 0x20 SWAP4 DUP4 PUSH2 0x1E66 JUMP JUMPDEST DUP2 ADD SUB SLT PUSH2 0xECA JUMPI PUSH2 0x345 SWAP2 MLOAD SWAP1 PUSH2 0x1667 JUMP JUMPDEST RETURNDATASIZE SWAP2 POP PUSH2 0x168E JUMP JUMPDEST SWAP1 MLOAD SWAP1 RETURNDATASIZE SWAP1 DUP3 RETURNDATACOPY RETURNDATASIZE SWAP1 REVERT JUMPDEST PUSH2 0x16CA SWAP1 PUSH2 0x1E3E JUMP JUMPDEST PUSH2 0xE87 JUMPI DUP4 DUP9 PUSH2 0x163C JUMP JUMPDEST DUP5 MLOAD RETURNDATASIZE DUP8 DUP3 RETURNDATACOPY RETURNDATASIZE SWAP1 REVERT JUMPDEST POP SWAP2 PUSH2 0x16FB PUSH2 0x16ED CALLDATASIZE PUSH2 0x1D82 JUMP JUMPDEST SWAP9 SWAP5 SWAP6 SWAP1 SWAP3 SWAP9 SWAP4 SWAP2 SWAP4 PUSH2 0x3197 JUMP JUMPDEST DUP8 ISZERO PUSH2 0x186A JUMPI PUSH2 0x170A DUP2 PUSH2 0x2B4A JUMP JUMPDEST PUSH1 0x1 PUSH1 0x1 PUSH1 0xA0 SHL SUB SWAP9 SWAP1 PUSH32 0x0 DUP11 AND SWAP1 DUP11 AND DUP2 SWAP1 SUB PUSH2 0x185C JUMPI DUP1 EXTCODESIZE ISZERO PUSH2 0x7F7 JUMPI DUP6 MLOAD PUSH4 0xD0E30DB PUSH1 0xE4 SHL DUP2 MSTORE DUP10 DUP2 DUP11 DUP2 CALLVALUE DUP7 GAS CALL DUP1 ISZERO PUSH2 0x183E JUMPI SWAP1 DUP11 SWAP2 PUSH2 0x1848 JUMPI JUMPDEST POP POP PUSH2 0x1775 DUP4 PUSH2 0x2B4A JUMP JUMPDEST SWAP1 DUP3 PUSH1 0x1 LT ISZERO PUSH2 0x1232 JUMPI DUP6 SWAP5 SWAP4 SWAP3 SWAP2 DUP10 PUSH2 0x17D0 SWAP3 PUSH2 0x179C PUSH1 0x20 SWAP10 DUP11 SWAP5 PUSH2 0xDC2 DUP7 DUP11 ADD PUSH2 0x2B4A JUMP JUMPDEST DUP11 MLOAD PUSH4 0xA9059CBB PUSH1 0xE0 SHL DUP2 MSTORE PUSH1 0x1 PUSH1 0x1 PUSH1 0xA0 SHL SUB SWAP1 SWAP2 AND SWAP3 DUP2 ADD SWAP3 DUP4 MSTORE CALLVALUE PUSH1 0x20 DUP5 ADD MSTORE SWAP4 DUP5 SWAP3 DUP4 SWAP2 DUP16 SWAP2 DUP4 SWAP2 PUSH1 0x40 SWAP1 SWAP2 ADD SWAP1 JUMP JUMPDEST SUB SWAP3 GAS CALL SWAP1 DUP2 ISZERO PUSH2 0x183E JUMPI SWAP1 PUSH2 0x17EC SWAP2 DUP12 SWAP2 PUSH2 0x1821 JUMPI POP PUSH2 0x1F45 JUMP JUMPDEST PUSH0 NOT DUP2 ADD SWAP2 DUP2 DUP4 GT PUSH2 0x180E JUMPI SWAP2 DUP2 DUP4 DUP13 PUSH2 0x10F1 PUSH2 0x1D9 DUP15 SWAP16 SWAP7 DUP7 SWAP1 DUP16 SWAP10 PUSH2 0x2B3A JUMP JUMPDEST PUSH4 0x4E487B71 PUSH1 0xE0 SHL DUP11 MSTORE PUSH1 0x11 DUP10 MSTORE PUSH1 0x24 DUP11 REVERT JUMPDEST PUSH2 0x1838 SWAP2 POP DUP8 RETURNDATASIZE DUP10 GT PUSH2 0x9B3 JUMPI PUSH2 0x9A5 DUP2 DUP4 PUSH2 0x1E66 JUMP JUMPDEST PUSH0 PUSH2 0x986 JUMP JUMPDEST DUP8 MLOAD RETURNDATASIZE DUP13 DUP3 RETURNDATACOPY RETURNDATASIZE SWAP1 REVERT JUMPDEST PUSH2 0x1851 SWAP1 PUSH2 0x1E3E JUMP JUMPDEST PUSH2 0x7F7 JUMPI DUP9 PUSH0 PUSH2 0x176A JUMP JUMPDEST PUSH1 0x24 DUP7 DUP10 DUP13 PUSH2 0x3E3 DUP8 PUSH2 0x2B4A JUMP JUMPDEST PUSH4 0x4E487B71 PUSH1 0xE0 SHL DUP8 MSTORE PUSH1 0x32 DUP7 MSTORE PUSH1 0x24 DUP8 REVERT JUMPDEST POP CALLVALUE PUSH2 0x40A JUMPI PUSH2 0x188F PUSH2 0x5C1 CALLDATASIZE PUSH2 0x1CF5 JUMP JUMPDEST PUSH2 0x18C0 DUP6 PUSH32 0x0 SWAP3 PUSH2 0x248 CALLDATASIZE DUP8 DUP10 PUSH2 0x1EA0 JUMP JUMPDEST SWAP8 DUP1 PUSH2 0x18CB DUP11 PUSH2 0x2AF5 JUMP JUMPDEST MLOAD GT PUSH2 0x18E1 JUMPI POP DUP3 ISZERO PUSH2 0x693 JUMPI PUSH2 0x631 DUP5 PUSH2 0x2B4A JUMP JUMPDEST DUP10 PUSH1 0x24 SWAP2 DUP10 MLOAD SWAP2 PUSH4 0xE877B61B PUSH1 0xE0 SHL DUP4 MSTORE DUP3 ADD MSTORE REVERT JUMPDEST POP CALLVALUE PUSH2 0x40A JUMPI PUSH2 0x1918 PUSH2 0x1909 CALLDATASIZE PUSH2 0x1CF5 JUMP JUMPDEST SWAP9 SWAP2 SWAP6 SWAP3 SWAP4 SWAP5 SWAP9 SWAP7 SWAP1 SWAP7 PUSH2 0x3197 JUMP JUMPDEST PUSH32 0x0 PUSH2 0x194F DUP7 PUSH2 0x1948 CALLDATASIZE DUP8 DUP10 PUSH2 0x1EA0 JUMP JUMPDEST DUP6 DUP5 PUSH2 0x2B90 JUMP JUMPDEST SWAP9 DUP10 MLOAD PUSH0 NOT DUP2 ADD SWAP1 DUP2 GT PUSH2 0x19DF JUMPI PUSH2 0x1968 DUP3 SWAP2 DUP13 PUSH2 0x2B26 JUMP JUMPDEST MLOAD LT PUSH2 0x14FE JUMPI POP DUP4 ISZERO PUSH2 0x19CC JUMPI PUSH2 0x197E DUP6 PUSH2 0x2B4A JUMP JUMPDEST SWAP2 PUSH2 0x1988 DUP7 PUSH2 0x2B4A JUMP JUMPDEST SWAP1 DUP6 PUSH1 0x1 LT ISZERO PUSH2 0x19B9 JUMPI POP PUSH2 0x345 SWAP11 POP SWAP3 PUSH2 0x67A SWAP5 SWAP3 PUSH2 0xDE9 DUP9 PUSH2 0x673 SWAP5 DUP10 SWAP8 PUSH2 0x2A6 PUSH1 0x20 PUSH2 0x33B SWAP15 SWAP14 SWAP13 ADD PUSH2 0x2B4A JUMP JUMPDEST PUSH4 0x4E487B71 PUSH1 0xE0 SHL DUP2 MSTORE PUSH1 0x32 DUP13 MSTORE PUSH1 0x24 SWAP1 REVERT JUMPDEST PUSH4 0x4E487B71 PUSH1 0xE0 SHL DUP3 MSTORE PUSH1 0x32 DUP11 MSTORE PUSH1 0x24 DUP3 REVERT JUMPDEST PUSH4 0x4E487B71 PUSH1 0xE0 SHL DUP5 MSTORE PUSH1 0x11 DUP13 MSTORE PUSH1 0x24 DUP5 REVERT JUMPDEST PUSH2 0x15C8 PUSH2 0x1A7B DUP6 DUP6 DUP6 PUSH2 0x1A50 PUSH2 0x1A1B PUSH2 0x1A0A CALLDATASIZE PUSH2 0x1C65 JUMP JUMPDEST SWAP12 SWAP5 SWAP12 SWAP8 SWAP4 SWAP7 SWAP1 SWAP6 SWAP8 SWAP3 SWAP2 SWAP3 PUSH2 0x3197 JUMP JUMPDEST PUSH2 0x1A24 CALLER PUSH2 0x2247 JUMP JUMPDEST PUSH32 0x0 SWAP6 CALLVALUE SWAP1 DUP13 DUP9 DUP11 PUSH2 0x2268 JUMP JUMPDEST SWAP10 DUP2 SWAP10 DUP6 DUP8 PUSH32 0x0 PUSH2 0x1FC5 JUMP JUMPDEST PUSH1 0x1 PUSH1 0x1 PUSH1 0xA0 SHL SUB SWAP2 DUP3 AND DUP1 EXTCODESIZE ISZERO PUSH2 0x805 JUMPI DUP5 MLOAD PUSH4 0xD0E30DB PUSH1 0xE4 SHL DUP2 MSTORE DUP7 DUP2 DUP10 DUP2 DUP14 DUP7 GAS CALL DUP1 ISZERO PUSH2 0x1BC7 JUMPI SWAP1 DUP9 SWAP3 SWAP2 PUSH2 0x1BD1 JUMPI JUMPDEST POP DUP6 MLOAD PUSH4 0xA9059CBB PUSH1 0xE0 SHL DUP2 MSTORE PUSH1 0x1 PUSH1 0x1 PUSH1 0xA0 SHL SUB DUP7 AND SWAP3 DUP2 ADD SWAP3 DUP4 MSTORE PUSH1 0x20 DUP4 DUP2 ADD DUP13 SWAP1 MSTORE SWAP6 SWAP3 SWAP1 SWAP2 DUP7 SWAP2 DUP4 SWAP2 SWAP1 DUP3 SWAP1 DUP12 SWAP1 DUP3 SWAP1 PUSH1 0x40 ADD JUMPDEST SUB SWAP3 GAS CALL SWAP1 DUP2 ISZERO PUSH2 0x1BC7 JUMPI DUP5 PUSH1 0x24 SWAP4 PUSH2 0x1B0C DUP9 SWAP8 SWAP7 SWAP5 DUP12 SWAP5 DUP6 SWAP2 PUSH2 0x1BAA JUMPI POP PUSH2 0x1F45 JUMP JUMPDEST DUP9 MLOAD SWAP11 DUP12 SWAP7 DUP8 SWAP6 PUSH4 0x35313C21 PUSH1 0xE1 SHL DUP8 MSTORE AND SWAP1 DUP6 ADD MSTORE AND GAS CALL SWAP3 DUP4 ISZERO PUSH2 0x1B9F JUMPI SWAP3 PUSH2 0x1B6D JUMPI JUMPDEST POP PUSH2 0x345 SWAP3 POP DUP5 CALLVALUE GT PUSH2 0x1B5B JUMPI JUMPDEST MLOAD SWAP4 DUP5 SWAP4 DUP5 PUSH1 0x40 SWAP2 SWAP5 SWAP4 SWAP3 PUSH1 0x60 DUP3 ADD SWAP6 DUP3 MSTORE PUSH1 0x20 DUP3 ADD MSTORE ADD MSTORE JUMP JUMPDEST PUSH2 0x1B68 PUSH2 0xC82 DUP7 CALLVALUE PUSH2 0x25F5 JUMP JUMPDEST PUSH2 0x1B40 JUMP JUMPDEST SWAP1 SWAP2 POP DUP3 DUP2 RETURNDATASIZE DUP4 GT PUSH2 0x1B98 JUMPI JUMPDEST PUSH2 0x1B84 DUP2 DUP4 PUSH2 0x1E66 JUMP JUMPDEST DUP2 ADD SUB SLT PUSH2 0xECA JUMPI PUSH2 0x345 SWAP2 MLOAD SWAP1 DUP6 PUSH2 0x1B32 JUMP JUMPDEST POP RETURNDATASIZE PUSH2 0x1B7A JUMP JUMPDEST DUP3 MLOAD SWAP1 RETURNDATASIZE SWAP1 DUP3 RETURNDATACOPY RETURNDATASIZE SWAP1 REVERT JUMPDEST PUSH2 0x1BC1 SWAP2 POP DUP10 RETURNDATASIZE DUP12 GT PUSH2 0x9B3 JUMPI PUSH2 0x9A5 DUP2 DUP4 PUSH2 0x1E66 JUMP JUMPDEST DUP16 PUSH2 0x986 JUMP JUMPDEST DUP7 MLOAD RETURNDATASIZE DUP10 DUP3 RETURNDATACOPY RETURNDATASIZE SWAP1 REVERT JUMPDEST SWAP2 PUSH2 0x1AE8 SWAP8 PUSH2 0x1BE0 DUP8 SWAP5 PUSH2 0x1E3E JUMP JUMPDEST SWAP8 POP SWAP2 PUSH2 0x1AB0 JUMP JUMPDEST POP CALLVALUE PUSH2 0x40A JUMPI PUSH1 0x20 SWAP1 PUSH2 0x522 PUSH2 0x1BFD CALLDATASIZE PUSH2 0x1CAA JUMP JUMPDEST SWAP2 PUSH2 0x2C08 JUMP JUMPDEST POP SWAP1 CALLVALUE PUSH2 0x370 JUMPI POP PUSH2 0x7D7 PUSH2 0x1C17 CALLDATASIZE PUSH2 0x1C65 JUMP JUMPDEST SWAP6 SWAP5 SWAP1 SWAP5 SWAP4 SWAP2 SWAP4 PUSH2 0x2836 JUMP JUMPDEST PUSH1 0x4 CALLDATALOAD SWAP1 PUSH1 0x1 PUSH1 0x1 PUSH1 0xA0 SHL SUB DUP3 AND DUP3 SUB PUSH2 0xECA JUMPI JUMP JUMPDEST PUSH1 0x24 CALLDATALOAD SWAP1 PUSH1 0x1 PUSH1 0x1 PUSH1 0xA0 SHL SUB DUP3 AND DUP3 SUB PUSH2 0xECA JUMPI JUMP JUMPDEST PUSH1 0xC4 CALLDATALOAD SWAP1 PUSH1 0x1 PUSH1 0x1 PUSH1 0xA0 SHL SUB DUP3 AND DUP3 SUB PUSH2 0xECA JUMPI JUMP JUMPDEST PUSH1 0xE0 SWAP1 PUSH1 0x3 NOT ADD SLT PUSH2 0xECA JUMPI PUSH1 0x1 PUSH1 0x1 PUSH1 0xA0 SHL SUB SWAP1 PUSH1 0x4 CALLDATALOAD DUP3 DUP2 AND DUP2 SUB PUSH2 0xECA JUMPI SWAP2 PUSH1 0x24 CALLDATALOAD SWAP2 PUSH1 0x44 CALLDATALOAD SWAP2 PUSH1 0x64 CALLDATALOAD SWAP2 PUSH1 0x84 CALLDATALOAD SWAP2 PUSH1 0xA4 CALLDATALOAD SWAP1 DUP2 AND DUP2 SUB PUSH2 0xECA JUMPI SWAP1 PUSH1 0xC4 CALLDATALOAD SWAP1 JUMP JUMPDEST PUSH1 0x60 SWAP1 PUSH1 0x3 NOT ADD SLT PUSH2 0xECA JUMPI PUSH1 0x4 CALLDATALOAD SWAP1 PUSH1 0x24 CALLDATALOAD SWAP1 PUSH1 0x44 CALLDATALOAD SWAP1 JUMP JUMPDEST SWAP2 DUP2 PUSH1 0x1F DUP5 ADD SLT ISZERO PUSH2 0xECA JUMPI DUP3 CALLDATALOAD SWAP2 PUSH8 0xFFFFFFFFFFFFFFFF DUP4 GT PUSH2 0xECA JUMPI PUSH1 0x20 DUP1 DUP6 ADD SWAP5 DUP5 PUSH1 0x5 SHL ADD ADD GT PUSH2 0xECA JUMPI JUMP JUMPDEST PUSH1 0xC0 PUSH1 0x3 NOT DUP3 ADD SLT PUSH2 0xECA JUMPI PUSH1 0x4 CALLDATALOAD SWAP2 PUSH1 0x24 CALLDATALOAD SWAP2 PUSH1 0x44 CALLDATALOAD SWAP1 PUSH8 0xFFFFFFFFFFFFFFFF DUP3 GT PUSH2 0xECA JUMPI PUSH2 0x1D28 SWAP2 PUSH1 0x4 ADD PUSH2 0x1CC4 JUMP JUMPDEST SWAP1 SWAP2 PUSH1 0x64 CALLDATALOAD SWAP1 PUSH1 0x84 CALLDATALOAD PUSH1 0x1 PUSH1 0x1 PUSH1 0xA0 SHL SUB DUP2 AND DUP2 SUB PUSH2 0xECA JUMPI SWAP1 PUSH1 0xA4 CALLDATALOAD SWAP1 JUMP JUMPDEST PUSH1 0x20 SWAP1 DUP2 PUSH1 0x40 DUP2 DUP4 ADD SWAP3 DUP3 DUP2 MSTORE DUP6 MLOAD DUP1 SWAP5 MSTORE ADD SWAP4 ADD SWAP2 PUSH0 JUMPDEST DUP3 DUP2 LT PUSH2 0x1D6E JUMPI POP POP POP POP SWAP1 JUMP JUMPDEST DUP4 MLOAD DUP6 MSTORE SWAP4 DUP2 ADD SWAP4 SWAP3 DUP2 ADD SWAP3 PUSH1 0x1 ADD PUSH2 0x1D60 JUMP JUMPDEST SWAP1 PUSH1 0xA0 PUSH1 0x3 NOT DUP4 ADD SLT PUSH2 0xECA JUMPI PUSH1 0x4 CALLDATALOAD SWAP2 PUSH1 0x24 CALLDATALOAD SWAP1 PUSH8 0xFFFFFFFFFFFFFFFF DUP3 GT PUSH2 0xECA JUMPI PUSH2 0x1DB2 SWAP2 PUSH1 0x4 ADD PUSH2 0x1CC4 JUMP JUMPDEST SWAP1 SWAP2 PUSH1 0x44 CALLDATALOAD SWAP1 PUSH1 0x64 CALLDATALOAD PUSH1 0x1 PUSH1 0x1 PUSH1 0xA0 SHL SUB DUP2 AND DUP2 SUB PUSH2 0xECA JUMPI SWAP1 PUSH1 0x84 CALLDATALOAD SWAP1 JUMP JUMPDEST PUSH2 0x160 SWAP1 PUSH1 0x3 NOT ADD SLT PUSH2 0xECA JUMPI PUSH1 0x1 PUSH1 0x1 PUSH1 0xA0 SHL SUB SWAP1 PUSH1 0x4 CALLDATALOAD DUP3 DUP2 AND DUP2 SUB PUSH2 0xECA JUMPI SWAP2 PUSH1 0x24 CALLDATALOAD SWAP2 PUSH1 0x44 CALLDATALOAD SWAP2 PUSH1 0x64 CALLDATALOAD SWAP2 PUSH1 0x84 CALLDATALOAD SWAP2 PUSH1 0xA4 CALLDATALOAD SWAP1 DUP2 AND DUP2 SUB PUSH2 0xECA JUMPI SWAP1 PUSH1 0xC4 CALLDATALOAD SWAP1 PUSH1 0xE4 CALLDATALOAD DUP1 ISZERO ISZERO DUP2 SUB PUSH2 0xECA JUMPI SWAP1 PUSH2 0x104 CALLDATALOAD PUSH1 0xFF DUP2 AND DUP2 SUB PUSH2 0xECA JUMPI SWAP1 PUSH2 0x124 CALLDATALOAD SWAP1 PUSH2 0x144 CALLDATALOAD SWAP1 JUMP JUMPDEST PUSH8 0xFFFFFFFFFFFFFFFF DUP2 GT PUSH2 0x1E52 JUMPI PUSH1 0x40 MSTORE JUMP JUMPDEST PUSH4 0x4E487B71 PUSH1 0xE0 SHL PUSH0 MSTORE PUSH1 0x41 PUSH1 0x4 MSTORE PUSH1 0x24 PUSH0 REVERT JUMPDEST SWAP1 PUSH1 0x1F DUP1 NOT SWAP2 ADD AND DUP2 ADD SWAP1 DUP2 LT PUSH8 0xFFFFFFFFFFFFFFFF DUP3 GT OR PUSH2 0x1E52 JUMPI PUSH1 0x40 MSTORE JUMP JUMPDEST PUSH8 0xFFFFFFFFFFFFFFFF DUP2 GT PUSH2 0x1E52 JUMPI PUSH1 0x5 SHL PUSH1 0x20 ADD SWAP1 JUMP JUMPDEST SWAP3 SWAP2 PUSH2 0x1EAB DUP3 PUSH2 0x1E88 JUMP JUMPDEST SWAP2 PUSH2 0x1EB9 PUSH1 0x40 MLOAD SWAP4 DUP5 PUSH2 0x1E66 JUMP JUMPDEST DUP3 SWAP5 DUP2 DUP5 MSTORE PUSH1 0x20 DUP1 SWAP5 ADD SWAP2 PUSH1 0x5 SHL DUP2 ADD SWAP3 DUP4 GT PUSH2 0xECA JUMPI SWAP1 JUMPDEST DUP3 DUP3 LT PUSH2 0x1EDF JUMPI POP POP POP POP JUMP JUMPDEST DUP2 CALLDATALOAD PUSH1 0x1 PUSH1 0x1 PUSH1 0xA0 SHL SUB DUP2 AND DUP2 SUB PUSH2 0xECA JUMPI DUP2 MSTORE SWAP1 DUP4 ADD SWAP1 DUP4 ADD PUSH2 0x1ED2 JUMP JUMPDEST PUSH1 0x60 PUSH1 0x3 NOT DUP3 ADD SLT PUSH2 0xECA JUMPI PUSH1 0x4 CALLDATALOAD SWAP2 PUSH1 0x24 CALLDATALOAD SWAP2 PUSH1 0x44 CALLDATALOAD SWAP1 PUSH8 0xFFFFFFFFFFFFFFFF DUP3 GT PUSH2 0xECA JUMPI DUP1 PUSH1 0x23 DUP4 ADD SLT ISZERO PUSH2 0xECA JUMPI DUP2 PUSH1 0x24 PUSH2 0x1F42 SWAP4 PUSH1 0x4 ADD CALLDATALOAD SWAP2 ADD PUSH2 0x1EA0 JUMP JUMPDEST SWAP1 JUMP JUMPDEST ISZERO PUSH2 0x1F4C JUMPI JUMP JUMPDEST PUSH4 0x4E487B71 PUSH1 0xE0 SHL PUSH0 MSTORE PUSH1 0x1 PUSH1 0x4 MSTORE PUSH1 0x24 PUSH0 REVERT JUMPDEST PUSH1 0x1 PUSH1 0x1 PUSH1 0xA0 SHL SUB PUSH32 0x0 DUP2 AND SWAP2 AND SUB PUSH2 0x1F94 JUMPI JUMP JUMPDEST PUSH1 0x40 MLOAD PUSH4 0x7DDAB601 PUSH1 0xE0 SHL DUP2 MSTORE PUSH1 0x4 SWAP1 REVERT JUMPDEST SWAP1 DUP2 PUSH1 0x20 SWAP2 SUB SLT PUSH2 0xECA JUMPI MLOAD PUSH1 0x1 PUSH1 0x1 PUSH1 0xA0 SHL SUB DUP2 AND DUP2 SUB PUSH2 0xECA JUMPI SWAP1 JUMP JUMPDEST SWAP4 SWAP3 SWAP2 PUSH2 0x1FD1 SWAP2 PUSH2 0x209F JUMP JUMPDEST PUSH1 0x40 MLOAD PUSH3 0xBD9DA9 PUSH1 0xE7 SHL DUP2 MSTORE PUSH1 0x1 PUSH1 0x1 PUSH1 0xA0 SHL SUB DUP4 DUP2 AND PUSH1 0x4 DUP4 ADD MSTORE DUP3 DUP2 AND PUSH1 0x24 DUP4 ADD MSTORE PUSH1 0x44 DUP3 ADD SWAP5 SWAP1 SWAP5 MSTORE SWAP5 SWAP2 SWAP3 SWAP2 PUSH1 0x20 SWAP1 DUP7 SWAP1 PUSH1 0x64 SWAP1 DUP3 SWAP1 DUP7 AND GAS STATICCALL SWAP5 DUP6 ISZERO PUSH2 0x207C JUMPI PUSH0 SWAP6 PUSH2 0x204C JUMPI JUMPDEST POP DUP2 DUP6 AND ISZERO PUSH2 0x202B JUMPI POP POP POP JUMP JUMPDEST PUSH1 0x40 MLOAD PUSH4 0x4AF7801 PUSH1 0xE1 SHL DUP2 MSTORE SWAP3 DUP3 AND PUSH1 0x4 DUP5 ADD MSTORE AND PUSH1 0x24 DUP3 ADD MSTORE PUSH1 0x44 SWAP2 POP REVERT JUMPDEST PUSH2 0x206E SWAP2 SWAP6 POP PUSH1 0x20 RETURNDATASIZE DUP2 GT PUSH2 0x2075 JUMPI JUMPDEST PUSH2 0x2066 DUP2 DUP4 PUSH2 0x1E66 JUMP JUMPDEST DUP2 ADD SWAP1 PUSH2 0x1FA6 JUMP JUMPDEST SWAP4 PUSH0 PUSH2 0x201D JUMP JUMPDEST POP RETURNDATASIZE PUSH2 0x205C JUMP JUMPDEST PUSH1 0x40 MLOAD RETURNDATASIZE PUSH0 DUP3 RETURNDATACOPY RETURNDATASIZE SWAP1 REVERT JUMPDEST SWAP1 DUP2 PUSH1 0x20 SWAP2 SUB SLT PUSH2 0xECA JUMPI MLOAD DUP1 ISZERO ISZERO DUP2 SUB PUSH2 0xECA JUMPI SWAP1 JUMP JUMPDEST SWAP1 SWAP2 PUSH1 0x1 PUSH1 0x1 PUSH1 0xA0 SHL SUB SWAP2 DUP3 DUP2 AND DUP4 DUP6 AND DUP2 EQ PUSH2 0x213E JUMPI PUSH1 0x40 MLOAD PUSH4 0x1FFC9A7 PUSH1 0xE0 SHL DUP2 MSTORE PUSH4 0x6CDB3D13 PUSH1 0xE1 SHL PUSH1 0x4 DUP3 ADD MSTORE SWAP1 PUSH1 0x20 SWAP1 DUP3 SWAP1 PUSH1 0x24 SWAP1 DUP3 SWAP1 GAS STATICCALL PUSH0 SWAP2 DUP2 PUSH2 0x211E JUMPI JUMPDEST POP PUSH2 0x2109 JUMPI POP SWAP3 SWAP2 JUMPDEST DUP4 AND ISZERO PUSH2 0x20F7 JUMPI JUMP JUMPDEST PUSH1 0x40 MLOAD PUSH4 0x312B5F45 PUSH1 0xE0 SHL DUP2 MSTORE PUSH1 0x4 SWAP1 REVERT JUMPDEST SWAP1 SWAP4 SWAP1 ISZERO PUSH2 0x2118 JUMPI SWAP3 SWAP2 PUSH2 0x20EE JUMP JUMPDEST SWAP2 PUSH2 0x20EE JUMP JUMPDEST PUSH2 0x2137 SWAP2 SWAP3 POP PUSH1 0x20 RETURNDATASIZE DUP2 GT PUSH2 0x9B3 JUMPI PUSH2 0x9A5 DUP2 DUP4 PUSH2 0x1E66 JUMP JUMPDEST SWAP1 PUSH0 PUSH2 0x20E5 JUMP JUMPDEST PUSH1 0x24 SWAP1 PUSH1 0x40 MLOAD SWAP1 PUSH4 0xA7C9B1D PUSH1 0xE1 SHL DUP3 MSTORE PUSH1 0x4 DUP3 ADD MSTORE REVERT JUMPDEST RETURNDATASIZE ISZERO PUSH2 0x2190 JUMPI RETURNDATASIZE SWAP1 PUSH8 0xFFFFFFFFFFFFFFFF DUP3 GT PUSH2 0x1E52 JUMPI PUSH1 0x40 MLOAD SWAP2 PUSH2 0x2185 PUSH1 0x1F DUP3 ADD PUSH1 0x1F NOT AND PUSH1 0x20 ADD DUP5 PUSH2 0x1E66 JUMP JUMPDEST DUP3 MSTORE RETURNDATASIZE PUSH0 PUSH1 0x20 DUP5 ADD RETURNDATACOPY JUMP JUMPDEST PUSH1 0x60 SWAP1 JUMP JUMPDEST ISZERO PUSH2 0x219C JUMPI JUMP JUMPDEST PUSH1 0x40 MLOAD PUSH3 0x461BCD PUSH1 0xE5 SHL DUP2 MSTORE PUSH1 0x20 PUSH1 0x4 DUP3 ADD MSTORE PUSH1 0x31 PUSH1 0x24 DUP3 ADD MSTORE PUSH32 0x5472616E7366657248656C7065723A3A7472616E7366657246726F6D3A207472 PUSH1 0x44 DUP3 ADD MSTORE PUSH17 0x185B9CD9995C919C9BDB4819985A5B1959 PUSH1 0x7A SHL PUSH1 0x64 DUP3 ADD MSTORE PUSH1 0x84 SWAP1 REVERT JUMPDEST PUSH1 0x40 MLOAD PUSH4 0x23B872DD PUSH1 0xE0 SHL PUSH1 0x20 DUP3 ADD SWAP1 DUP2 MSTORE PUSH1 0x1 PUSH1 0x1 PUSH1 0xA0 SHL SUB SWAP4 DUP5 AND PUSH1 0x24 DUP4 ADD MSTORE SWAP4 SWAP1 SWAP3 AND PUSH1 0x44 DUP4 ADD MSTORE PUSH1 0x64 DUP3 ADD SWAP4 SWAP1 SWAP4 MSTORE PUSH2 0x2245 SWAP3 PUSH0 SWAP3 DUP4 SWAP3 DUP4 SWAP1 PUSH2 0x1491 DUP2 PUSH1 0x84 DUP2 ADD PUSH2 0x1483 JUMP JUMPDEST JUMP JUMPDEST PUSH1 0x1 PUSH1 0x1 PUSH1 0xA0 SHL SUB AND PUSH0 SWAP1 DUP2 MSTORE PUSH1 0x20 DUP2 SWAP1 MSTORE PUSH1 0x40 SWAP1 KECCAK256 SLOAD PUSH1 0xFF AND ISZERO PUSH2 0x1F94 JUMPI JUMP JUMPDEST SWAP1 PUSH2 0x2278 SWAP2 SWAP7 SWAP4 SWAP7 SWAP6 SWAP5 SWAP6 PUSH2 0x209F JUMP JUMPDEST PUSH1 0x40 MLOAD PUSH3 0xBD9DA9 PUSH1 0xE7 SHL DUP2 MSTORE PUSH1 0x1 PUSH1 0x1 PUSH1 0xA0 SHL SUB DUP4 DUP2 AND PUSH1 0x4 DUP4 ADD MSTORE DUP3 DUP2 AND PUSH1 0x24 DUP4 ADD MSTORE PUSH1 0x44 DUP3 ADD DUP6 SWAP1 MSTORE PUSH32 0x0 SWAP5 SWAP4 SWAP2 PUSH1 0x20 DUP2 PUSH1 0x64 DUP2 DUP10 DUP7 AND GAS STATICCALL SWAP1 DUP2 ISZERO PUSH2 0x207C JUMPI PUSH0 SWAP2 PUSH2 0x239F JUMPI JUMPDEST POP AND ISZERO PUSH2 0x238D JUMPI PUSH2 0x22F0 SWAP4 PUSH2 0x2407 JUMP JUMPDEST SWAP3 SWAP1 DUP1 ISZERO DUP1 PUSH2 0x2385 JUMPI JUMPDEST ISZERO PUSH2 0x2307 JUMPI POP POP POP POP SWAP1 SWAP2 JUMP JUMPDEST PUSH2 0x2316 DUP5 DUP3 DUP9 SWAP8 SWAP6 SWAP7 SWAP8 PUSH2 0x24C4 JUMP JUMPDEST SWAP5 DUP4 DUP7 GT PUSH2 0x2346 JUMPI POP POP POP POP DUP1 DUP3 LT PUSH2 0x232E JUMPI POP SWAP1 SWAP2 JUMP JUMPDEST PUSH1 0x24 SWAP1 PUSH1 0x40 MLOAD SWAP1 PUSH4 0x77A3D06F PUSH1 0xE0 SHL DUP3 MSTORE PUSH1 0x4 DUP3 ADD MSTORE REVERT JUMPDEST DUP4 PUSH2 0x2361 SWAP5 SWAP7 POP PUSH2 0x2358 SWAP4 SWAP6 POP PUSH2 0x24C4 JUMP JUMPDEST SWAP4 DUP5 GT ISZERO PUSH2 0x1F45 JUMP JUMPDEST DUP1 DUP4 LT PUSH2 0x236D JUMPI POP SWAP1 SWAP2 JUMP JUMPDEST PUSH1 0x24 SWAP1 PUSH1 0x40 MLOAD SWAP1 PUSH4 0x5842F43B PUSH1 0xE1 SHL DUP3 MSTORE PUSH1 0x4 DUP3 ADD MSTORE REVERT JUMPDEST POP DUP4 ISZERO PUSH2 0x22FA JUMP JUMPDEST PUSH1 0x40 MLOAD PUSH4 0x25D7D51D PUSH1 0xE1 SHL DUP2 MSTORE PUSH1 0x4 SWAP1 REVERT JUMPDEST PUSH2 0x23B7 SWAP2 POP PUSH1 0x20 RETURNDATASIZE DUP2 GT PUSH2 0x2075 JUMPI PUSH2 0x2066 DUP2 DUP4 PUSH2 0x1E66 JUMP JUMPDEST PUSH0 PUSH2 0x22E0 JUMP JUMPDEST MLOAD SWAP1 PUSH1 0x1 PUSH1 0x1 PUSH1 0x70 SHL SUB DUP3 AND DUP3 SUB PUSH2 0xECA JUMPI JUMP JUMPDEST SWAP1 DUP2 PUSH1 0x60 SWAP2 SUB SLT PUSH2 0xECA JUMPI PUSH2 0x23E5 DUP2 PUSH2 0x23BD JUMP JUMPDEST SWAP2 PUSH1 0x40 PUSH2 0x23F4 PUSH1 0x20 DUP5 ADD PUSH2 0x23BD JUMP JUMPDEST SWAP3 ADD MLOAD PUSH4 0xFFFFFFFF DUP2 AND DUP2 SUB PUSH2 0xECA JUMPI SWAP1 JUMP JUMPDEST PUSH1 0x60 DUP3 SWAP2 PUSH2 0x242E PUSH1 0x4 SWAP6 SWAP7 PUSH2 0x241C DUP9 DUP7 PUSH2 0x209F JUMP JUMPDEST POP SWAP8 PUSH1 0x1 PUSH1 0x1 PUSH1 0xA0 SHL SUB SWAP6 DUP7 SWAP5 PUSH2 0x1FC5 JUMP JUMPDEST AND PUSH1 0x40 MLOAD SWAP5 DUP6 DUP1 SWAP3 PUSH4 0x240BC6B PUSH1 0xE2 SHL DUP3 MSTORE GAS STATICCALL SWAP3 DUP4 ISZERO PUSH2 0x207C JUMPI PUSH0 SWAP1 DUP2 SWAP5 PUSH2 0x2474 JUMPI JUMPDEST POP DUP2 SWAP1 PUSH1 0x1 PUSH1 0x1 PUSH1 0x70 SHL SUB DUP1 SWAP2 AND SWAP5 AND SWAP5 AND SWAP2 AND EQ PUSH0 EQ PUSH2 0x2470 JUMPI SWAP2 JUMP JUMPDEST SWAP1 SWAP2 JUMP JUMPDEST DUP3 SWAP5 POP PUSH2 0x2498 SWAP2 POP PUSH1 0x60 RETURNDATASIZE DUP2 GT PUSH2 0x249F JUMPI JUMPDEST PUSH2 0x2490 DUP2 DUP4 PUSH2 0x1E66 JUMP JUMPDEST DUP2 ADD SWAP1 PUSH2 0x23D1 JUMP JUMPDEST POP SWAP4 PUSH2 0x2452 JUMP JUMPDEST POP RETURNDATASIZE PUSH2 0x2486 JUMP JUMPDEST DUP2 ISZERO PUSH2 0x24B0 JUMPI DIV SWAP1 JUMP JUMPDEST PUSH4 0x4E487B71 PUSH1 0xE0 SHL PUSH0 MSTORE PUSH1 0x12 PUSH1 0x4 MSTORE PUSH1 0x24 PUSH0 REVERT JUMPDEST SWAP2 SWAP1 SWAP2 DUP1 ISZERO PUSH2 0x2513 JUMPI DUP3 ISZERO DUP1 ISZERO PUSH2 0x250B JUMPI JUMPDEST PUSH2 0x24ED JUMPI PUSH2 0x1F42 SWAP3 SWAP2 PUSH2 0x24E8 SWAP2 PUSH2 0x25B9 JUMP JUMPDEST PUSH2 0x24A6 JUMP JUMPDEST PUSH1 0x44 DUP4 DUP4 PUSH1 0x40 MLOAD SWAP2 PUSH4 0x28E91899 PUSH1 0xE2 SHL DUP4 MSTORE PUSH1 0x4 DUP4 ADD MSTORE PUSH1 0x24 DUP3 ADD MSTORE REVERT JUMPDEST POP DUP2 ISZERO PUSH2 0x24D6 JUMP JUMPDEST PUSH1 0x24 SWAP1 PUSH1 0x40 MLOAD SWAP1 PUSH4 0x18388E07 PUSH1 0xE3 SHL DUP3 MSTORE PUSH1 0x4 DUP3 ADD MSTORE REVERT JUMPDEST SWAP1 PUSH2 0x3E5 SWAP2 DUP3 DUP2 MUL SWAP3 DUP2 DUP5 DIV DUP2 EQ DUP3 ISZERO OR ISZERO PUSH2 0x2586 JUMPI DUP4 DIV SUB PUSH2 0x254A JUMPI JUMP JUMPDEST PUSH1 0x40 MLOAD PUSH3 0x461BCD PUSH1 0xE5 SHL DUP2 MSTORE PUSH1 0x20 PUSH1 0x4 DUP3 ADD MSTORE PUSH1 0x14 PUSH1 0x24 DUP3 ADD MSTORE PUSH20 0x64732D6D6174682D6D756C2D6F766572666C6F77 PUSH1 0x60 SHL PUSH1 0x44 DUP3 ADD MSTORE PUSH1 0x64 SWAP1 REVERT JUMPDEST PUSH4 0x4E487B71 PUSH1 0xE0 SHL PUSH0 MSTORE PUSH1 0x11 PUSH1 0x4 MSTORE PUSH1 0x24 PUSH0 REVERT JUMPDEST SWAP1 PUSH2 0x3E8 SWAP2 DUP3 DUP2 MUL SWAP3 DUP2 DUP5 DIV DUP2 EQ DUP3 ISZERO OR ISZERO PUSH2 0x2586 JUMPI DUP4 DIV SUB PUSH2 0x254A JUMPI JUMP JUMPDEST PUSH0 SWAP3 SWAP2 DUP1 ISZERO SWAP2 DUP3 ISZERO PUSH2 0x25CF JUMPI JUMPDEST POP POP ISZERO PUSH2 0x254A JUMPI JUMP JUMPDEST DUP1 DUP3 MUL SWAP5 POP SWAP2 POP DUP2 ISZERO DUP3 DUP6 DIV DUP3 EQ OR ISZERO PUSH2 0x2586 JUMPI PUSH2 0x25ED SWAP1 DUP5 PUSH2 0x24A6 JUMP JUMPDEST EQ PUSH0 DUP1 PUSH2 0x25C6 JUMP JUMPDEST SWAP2 SWAP1 DUP3 SUB SWAP2 DUP3 GT PUSH2 0x2586 JUMPI JUMP JUMPDEST PUSH1 0x40 MLOAD PUSH1 0x20 DUP2 ADD SWAP1 DUP1 DUP3 LT PUSH8 0xFFFFFFFFFFFFFFFF DUP4 GT OR PUSH2 0x1E52 JUMPI PUSH0 SWAP4 DUP5 SWAP4 DUP5 DUP1 SWAP5 SWAP4 DUP2 SWAP5 PUSH1 0x40 MSTORE MSTORE GAS CALL PUSH2 0x2635 PUSH2 0x2156 JUMP JUMPDEST POP ISZERO PUSH2 0x263D JUMPI JUMP JUMPDEST PUSH1 0x40 MLOAD PUSH3 0x461BCD PUSH1 0xE5 SHL DUP2 MSTORE PUSH1 0x20 PUSH1 0x4 DUP3 ADD MSTORE PUSH1 0x3A PUSH1 0x24 DUP3 ADD MSTORE PUSH32 0x5472616E7366657248656C7065723A3A736166655472616E736665724E617469 PUSH1 0x44 DUP3 ADD MSTORE PUSH32 0x76653A204E6174697665207472616E73666572206661696C6564000000000000 PUSH1 0x64 DUP3 ADD MSTORE PUSH1 0x84 SWAP1 REVERT JUMPDEST SWAP2 PUSH2 0x26BA PUSH2 0x26EB SWAP3 SWAP10 SWAP8 SWAP5 SWAP6 SWAP9 PUSH2 0x3197 JUMP JUMPDEST PUSH2 0x26C3 CALLER PUSH2 0x2247 JUMP JUMPDEST DUP9 DUP4 PUSH32 0x0 PUSH2 0x1FC5 JUMP JUMPDEST PUSH1 0x40 DUP1 MLOAD PUSH4 0x23B872DD PUSH1 0xE0 SHL DUP2 MSTORE CALLER PUSH1 0x4 DUP3 ADD MSTORE PUSH1 0x1 PUSH1 0x1 PUSH1 0xA0 SHL SUB SWAP3 DUP4 AND PUSH1 0x24 DUP3 ADD DUP2 SWAP1 MSTORE PUSH1 0x44 DUP3 ADD SWAP7 SWAP1 SWAP7 MSTORE SWAP1 SWAP5 SWAP4 PUSH0 SWAP2 PUSH1 0x20 DUP2 PUSH1 0x64 DUP2 DUP7 DUP11 GAS CALL DUP1 ISZERO PUSH2 0x282C JUMPI DUP8 SWAP3 DUP6 SWAP3 PUSH1 0x24 SWAP3 PUSH2 0x280E JUMPI JUMPDEST POP DUP5 DUP5 MLOAD SWAP9 DUP10 SWAP5 DUP6 SWAP4 PUSH4 0x226BF2D1 PUSH1 0xE2 SHL DUP6 MSTORE AND PUSH1 0x4 DUP5 ADD MSTORE GAS CALL SWAP9 DUP10 ISZERO PUSH2 0x2802 JUMPI DUP2 SWAP5 DUP3 SWAP11 PUSH2 0x27C8 JUMPI JUMPDEST POP SWAP1 PUSH2 0x2772 DUP4 SWAP3 DUP6 PUSH2 0x209F JUMP JUMPDEST POP SWAP1 POP AND SWAP2 AND EQ PUSH0 EQ PUSH2 0x27C3 JUMPI SWAP5 JUMPDEST DUP1 SWAP5 DUP1 DUP8 LT PUSH2 0x27AC JUMPI POP DUP3 GT PUSH2 0x2795 JUMPI POP POP JUMP JUMPDEST PUSH1 0x24 SWAP3 POP MLOAD SWAP1 PUSH4 0x77A3D06F PUSH1 0xE0 SHL DUP3 MSTORE PUSH1 0x4 DUP3 ADD MSTORE REVERT JUMPDEST PUSH1 0x24 SWAP1 DUP4 MLOAD SWAP1 PUSH4 0x5842F43B PUSH1 0xE1 SHL DUP3 MSTORE PUSH1 0x4 DUP3 ADD MSTORE REVERT JUMPDEST PUSH2 0x2781 JUMP JUMPDEST DUP7 DUP1 SWAP3 SWAP12 POP DUP2 SWAP7 POP RETURNDATASIZE DUP4 GT PUSH2 0x27FB JUMPI JUMPDEST PUSH2 0x27E2 DUP2 DUP4 PUSH2 0x1E66 JUMP JUMPDEST DUP2 ADD SUB SLT PUSH2 0x370 JUMPI DUP4 MLOAD PUSH1 0x20 SWAP1 SWAP5 ADD MLOAD SWAP9 PUSH2 0x2772 PUSH2 0x2765 JUMP JUMPDEST POP RETURNDATASIZE PUSH2 0x27D8 JUMP JUMPDEST POP DUP5 MLOAD SWAP1 RETURNDATASIZE SWAP1 DUP3 RETURNDATACOPY RETURNDATASIZE SWAP1 REVERT JUMPDEST PUSH2 0x2825 SWAP1 PUSH1 0x20 RETURNDATASIZE DUP2 GT PUSH2 0x9B3 JUMPI PUSH2 0x9A5 DUP2 DUP4 PUSH2 0x1E66 JUMP JUMPDEST POP PUSH0 PUSH2 0x273A JUMP JUMPDEST DUP8 MLOAD RETURNDATASIZE DUP6 DUP3 RETURNDATACOPY RETURNDATASIZE SWAP1 REVERT JUMPDEST SWAP7 SWAP5 SWAP4 PUSH2 0x287D SWAP4 SWAP7 SWAP3 SWAP7 PUSH2 0x2849 DUP5 PUSH2 0x3197 JUMP JUMPDEST PUSH2 0x2852 CALLER PUSH2 0x2247 JUMP JUMPDEST PUSH32 0x0 SWAP8 ADDRESS SWAP4 DUP10 DUP12 PUSH2 0x26A8 JUMP JUMPDEST SWAP1 SWAP4 PUSH2 0x288C DUP3 SWAP6 DUP5 DUP2 SWAP9 PUSH2 0x28E0 JUMP JUMPDEST PUSH1 0x1 PUSH1 0x1 PUSH1 0xA0 SHL SUB AND SWAP2 DUP3 EXTCODESIZE ISZERO PUSH2 0xECA JUMPI PUSH0 DUP1 SWAP4 PUSH1 0x24 PUSH1 0x40 MLOAD DUP1 SWAP7 DUP2 SWAP4 PUSH4 0x2E1A7D4D PUSH1 0xE0 SHL DUP4 MSTORE DUP8 PUSH1 0x4 DUP5 ADD MSTORE GAS CALL SWAP3 DUP4 ISZERO PUSH2 0x207C JUMPI PUSH2 0x2245 SWAP4 PUSH2 0x28D1 JUMPI JUMPDEST POP PUSH2 0x2602 JUMP JUMPDEST PUSH2 0x28DA SWAP1 PUSH2 0x1E3E JUMP JUMPDEST PUSH0 PUSH2 0x28CB JUMP JUMPDEST PUSH1 0x40 MLOAD PUSH4 0xA9059CBB PUSH1 0xE0 SHL PUSH1 0x20 DUP3 ADD SWAP1 DUP2 MSTORE PUSH1 0x1 PUSH1 0x1 PUSH1 0xA0 SHL SUB SWAP1 SWAP4 AND PUSH1 0x24 DUP3 ADD MSTORE PUSH1 0x44 DUP2 ADD SWAP4 SWAP1 SWAP4 MSTORE PUSH0 SWAP3 DUP4 SWAP3 SWAP1 DUP4 SWAP1 PUSH2 0x291E DUP2 PUSH1 0x64 DUP2 ADD PUSH2 0x1483 JUMP JUMPDEST MLOAD SWAP3 GAS CALL PUSH2 0x292A PUSH2 0x2156 JUMP JUMPDEST DUP2 PUSH2 0x2993 JUMPI JUMPDEST POP ISZERO PUSH2 0x2938 JUMPI JUMP JUMPDEST PUSH1 0x40 MLOAD PUSH3 0x461BCD PUSH1 0xE5 SHL DUP2 MSTORE PUSH1 0x20 PUSH1 0x4 DUP3 ADD MSTORE PUSH1 0x2D PUSH1 0x24 DUP3 ADD MSTORE PUSH32 0x5472616E7366657248656C7065723A3A736166655472616E736665723A207472 PUSH1 0x44 DUP3 ADD MSTORE PUSH13 0x185B9CD9995C8819985A5B1959 PUSH1 0x9A SHL PUSH1 0x64 DUP3 ADD MSTORE PUSH1 0x84 SWAP1 REVERT JUMPDEST DUP1 MLOAD DUP1 ISZERO SWAP3 POP DUP3 ISZERO PUSH2 0x29A8 JUMPI JUMPDEST POP POP PUSH0 PUSH2 0x2930 JUMP JUMPDEST PUSH2 0x29BB SWAP3 POP PUSH1 0x20 DUP1 SWAP2 DUP4 ADD ADD SWAP2 ADD PUSH2 0x2087 JUMP JUMPDEST PUSH0 DUP1 PUSH2 0x29A0 JUMP JUMPDEST SWAP4 PUSH1 0xFF SWAP3 SWAP9 SWAP8 SWAP7 SWAP4 PUSH1 0xC0 SWAP7 SWAP3 PUSH1 0xE0 DUP8 ADD SWAP11 PUSH1 0x1 DUP1 PUSH1 0xA0 SHL SUB DUP1 SWAP3 AND DUP9 MSTORE AND PUSH1 0x20 DUP8 ADD MSTORE PUSH1 0x40 DUP7 ADD MSTORE PUSH1 0x60 DUP6 ADD MSTORE AND PUSH1 0x80 DUP4 ADD MSTORE PUSH1 0xA0 DUP3 ADD MSTORE ADD MSTORE JUMP JUMPDEST SWAP4 PUSH2 0x2A3B SWAP4 SWAP8 SWAP7 SWAP3 SWAP8 PUSH2 0x2A10 DUP5 PUSH2 0x3197 JUMP JUMPDEST PUSH32 0x0 SWAP9 ADDRESS SWAP4 DUP11 DUP9 PUSH2 0x26A8 JUMP JUMPDEST PUSH1 0x40 MLOAD PUSH4 0x70A08231 PUSH1 0xE0 SHL DUP2 MSTORE ADDRESS PUSH1 0x4 DUP3 ADD MSTORE SWAP1 SWAP6 DUP7 SWAP4 PUSH1 0x1 PUSH1 0x1 PUSH1 0xA0 SHL SUB SWAP4 POP SWAP1 SWAP2 PUSH1 0x20 DUP2 PUSH1 0x24 DUP2 DUP8 DUP7 AND GAS STATICCALL SWAP1 DUP2 ISZERO PUSH2 0x207C JUMPI DUP7 SWAP1 PUSH0 SWAP3 PUSH2 0x2ABF JUMPI JUMPDEST POP PUSH2 0x2A83 SWAP3 PUSH2 0x28E0 JUMP JUMPDEST AND SWAP2 DUP3 EXTCODESIZE ISZERO PUSH2 0xECA JUMPI PUSH0 DUP1 SWAP4 PUSH1 0x24 PUSH1 0x40 MLOAD DUP1 SWAP7 DUP2 SWAP4 PUSH4 0x2E1A7D4D PUSH1 0xE0 SHL DUP4 MSTORE DUP8 PUSH1 0x4 DUP5 ADD MSTORE GAS CALL SWAP3 DUP4 ISZERO PUSH2 0x207C JUMPI PUSH2 0x2245 SWAP4 PUSH2 0x28D1 JUMPI POP PUSH2 0x2602 JUMP JUMPDEST SWAP2 SWAP1 POP PUSH1 0x20 DUP3 RETURNDATASIZE DUP3 GT PUSH2 0x2AED JUMPI JUMPDEST DUP2 PUSH2 0x2ADA PUSH1 0x20 SWAP4 DUP4 PUSH2 0x1E66 JUMP JUMPDEST DUP2 ADD SUB SLT PUSH2 0x370 JUMPI POP MLOAD DUP6 PUSH2 0x2A83 PUSH2 0x2A79 JUMP JUMPDEST RETURNDATASIZE SWAP2 POP PUSH2 0x2ACD JUMP JUMPDEST DUP1 MLOAD ISZERO PUSH2 0x2B02 JUMPI PUSH1 0x20 ADD SWAP1 JUMP JUMPDEST PUSH4 0x4E487B71 PUSH1 0xE0 SHL PUSH0 MSTORE PUSH1 0x32 PUSH1 0x4 MSTORE PUSH1 0x24 PUSH0 REVERT JUMPDEST DUP1 MLOAD PUSH1 0x1 LT ISZERO PUSH2 0x2B02 JUMPI PUSH1 0x40 ADD SWAP1 JUMP JUMPDEST DUP1 MLOAD DUP3 LT ISZERO PUSH2 0x2B02 JUMPI PUSH1 0x20 SWAP2 PUSH1 0x5 SHL ADD ADD SWAP1 JUMP JUMPDEST SWAP2 SWAP1 DUP2 LT ISZERO PUSH2 0x2B02 JUMPI PUSH1 0x5 SHL ADD SWAP1 JUMP JUMPDEST CALLDATALOAD PUSH1 0x1 PUSH1 0x1 PUSH1 0xA0 SHL SUB DUP2 AND DUP2 SUB PUSH2 0xECA JUMPI SWAP1 JUMP JUMPDEST SWAP1 PUSH2 0x2B68 DUP3 PUSH2 0x1E88 JUMP JUMPDEST PUSH2 0x2B75 PUSH1 0x40 MLOAD SWAP2 DUP3 PUSH2 0x1E66 JUMP JUMPDEST DUP3 DUP2 MSTORE DUP1 SWAP3 PUSH2 0x2B86 PUSH1 0x1F NOT SWAP2 PUSH2 0x1E88 JUMP JUMPDEST ADD SWAP1 PUSH1 0x20 CALLDATASIZE SWAP2 ADD CALLDATACOPY JUMP JUMPDEST DUP3 MLOAD SWAP5 SWAP4 SWAP2 SWAP3 PUSH2 0x2B9F DUP7 PUSH2 0x2B5E JUMP JUMPDEST SWAP6 DUP5 PUSH2 0x2BAA DUP9 PUSH2 0x2AF5 JUMP JUMPDEST MSTORE PUSH1 0x2 DUP2 SUB PUSH2 0x2BF0 JUMPI POP PUSH2 0x2BE4 SWAP4 SWAP3 PUSH2 0x1BFD SWAP3 SWAP1 SWAP2 PUSH1 0x1 PUSH1 0x1 PUSH1 0xA0 SHL SUB PUSH2 0x2BDC DUP2 PUSH2 0x2BD4 DUP5 PUSH2 0x2AF5 JUMP JUMPDEST MLOAD AND SWAP3 PUSH2 0x2B16 JUMP JUMPDEST MLOAD AND SWAP2 PUSH2 0x2407 JUMP JUMPDEST PUSH2 0x2BED DUP4 PUSH2 0x2B16 JUMP JUMPDEST MSTORE JUMP JUMPDEST PUSH1 0x24 SWAP1 PUSH1 0x40 MLOAD SWAP1 PUSH4 0x919D845 PUSH1 0xE4 SHL DUP3 MSTORE PUSH1 0x4 DUP3 ADD MSTORE REVERT JUMPDEST SWAP2 SWAP1 SWAP2 DUP1 ISZERO PUSH2 0x2C98 JUMPI DUP3 ISZERO DUP1 ISZERO PUSH2 0x2C90 JUMPI JUMPDEST PUSH2 0x24ED JUMPI PUSH2 0x2C34 PUSH2 0x2C2D PUSH2 0x2C3A SWAP3 PUSH2 0x252B JUMP JUMPDEST SWAP3 DUP4 PUSH2 0x25B9 JUMP JUMPDEST SWAP3 PUSH2 0x259A JUMP JUMPDEST SWAP1 DUP2 ADD SWAP1 DUP2 DUP2 GT PUSH2 0x2586 JUMPI DUP2 LT PUSH2 0x2C54 JUMPI PUSH2 0x1F42 SWAP2 PUSH2 0x24A6 JUMP JUMPDEST PUSH1 0x40 MLOAD PUSH3 0x461BCD PUSH1 0xE5 SHL DUP2 MSTORE PUSH1 0x20 PUSH1 0x4 DUP3 ADD MSTORE PUSH1 0x14 PUSH1 0x24 DUP3 ADD MSTORE PUSH20 0x64732D6D6174682D6164642D6F766572666C6F77 PUSH1 0x60 SHL PUSH1 0x44 DUP3 ADD MSTORE PUSH1 0x64 SWAP1 REVERT JUMPDEST POP DUP2 ISZERO PUSH2 0x2C1A JUMP JUMPDEST PUSH1 0x24 SWAP1 PUSH1 0x40 MLOAD SWAP1 PUSH4 0xEC8EA7FD PUSH1 0xE0 SHL DUP3 MSTORE PUSH1 0x4 DUP3 ADD MSTORE REVERT JUMPDEST SWAP1 SWAP3 SWAP1 SWAP2 PUSH1 0x1 PUSH1 0x1 PUSH1 0xA0 SHL SUB SWAP1 DUP2 PUSH2 0x2CD3 DUP2 PUSH2 0x2CCB DUP9 PUSH2 0x2AF5 JUMP JUMPDEST MLOAD AND SWAP7 PUSH2 0x2B16 JUMP JUMPDEST MLOAD AND DUP3 PUSH2 0x2CEA PUSH2 0x2CE3 DUP4 DUP10 PUSH2 0x209F JUMP JUMPDEST POP SWAP7 PUSH2 0x2B16 JUMP JUMPDEST MLOAD SWAP6 AND DUP7 SUB PUSH2 0x2D79 JUMPI SWAP1 PUSH2 0x2D22 SWAP2 PUSH0 SWAP6 SWAP7 JUMPDEST PUSH32 0x0 PUSH2 0x1FC5 JUMP JUMPDEST AND DUP1 EXTCODESIZE ISZERO PUSH2 0xECA JUMPI PUSH1 0x40 MLOAD PUSH4 0x36CD3205 PUSH1 0xE1 SHL DUP2 MSTORE PUSH1 0x4 DUP2 ADD SWAP4 SWAP1 SWAP4 MSTORE PUSH1 0x24 DUP4 ADD SWAP4 SWAP1 SWAP4 MSTORE PUSH1 0x1 PUSH1 0x1 PUSH1 0xA0 SHL SUB AND PUSH1 0x44 DUP3 ADD MSTORE SWAP1 PUSH0 SWAP1 DUP3 SWAP1 PUSH1 0x64 SWAP1 DUP3 SWAP1 DUP5 SWAP1 GAS CALL DUP1 ISZERO PUSH2 0x207C JUMPI PUSH2 0x2D70 JUMPI POP JUMP JUMPDEST PUSH2 0x2245 SWAP1 PUSH2 0x1E3E JUMP JUMPDEST PUSH0 SWAP6 PUSH2 0x2D22 SWAP3 SWAP2 SWAP1 PUSH2 0x2CFC JUMP JUMPDEST SWAP2 SWAP4 SWAP3 SWAP4 DUP1 MLOAD SWAP5 PUSH1 0x2 DUP7 LT PUSH2 0x2E45 JUMPI PUSH2 0x2D9E DUP7 PUSH2 0x2B5E JUMP JUMPDEST SWAP6 DUP7 MLOAD SWAP4 PUSH0 NOT SWAP5 DUP6 DUP2 ADD SWAP1 DUP2 GT PUSH2 0x2586 JUMPI PUSH2 0x2DB9 SWAP1 DUP10 PUSH2 0x2B26 JUMP JUMPDEST MSTORE DUP4 DUP2 ADD SWAP1 DUP2 GT PUSH2 0x2586 JUMPI DUP1 JUMPDEST PUSH2 0x2DD1 JUMPI POP POP POP POP POP JUMP JUMPDEST DUP4 DUP2 ADD SWAP1 DUP1 DUP3 GT PUSH2 0x2E31 JUMPI PUSH2 0x2E20 SWAP1 PUSH2 0x2E1A SWAP1 PUSH2 0x2E11 DUP6 PUSH1 0x1 PUSH1 0x1 PUSH1 0xA0 SHL SUB DUP1 PUSH2 0x2DFB DUP9 DUP12 PUSH2 0x2B26 JUMP JUMPDEST MLOAD AND SWAP1 PUSH2 0x2E08 DUP6 DUP12 PUSH2 0x2B26 JUMP JUMPDEST MLOAD AND SWAP1 DUP12 PUSH2 0x2407 JUMP JUMPDEST SWAP3 SWAP1 SWAP2 DUP12 PUSH2 0x2B26 JUMP JUMPDEST MLOAD PUSH2 0x2E5E JUMP JUMPDEST PUSH2 0x2E2A DUP3 DUP10 PUSH2 0x2B26 JUMP JUMPDEST MSTORE DUP1 PUSH2 0x2DC6 JUMP JUMPDEST PUSH1 0x24 PUSH0 PUSH4 0x4E487B71 PUSH1 0xE0 SHL DUP2 MSTORE PUSH1 0x11 PUSH1 0x4 MSTORE REVERT JUMPDEST PUSH1 0x40 MLOAD PUSH4 0x919D845 PUSH1 0xE4 SHL DUP2 MSTORE PUSH1 0x4 DUP2 ADD DUP8 SWAP1 MSTORE PUSH1 0x24 SWAP1 REVERT JUMPDEST SWAP3 SWAP2 SWAP1 DUP4 ISZERO PUSH2 0x2EDC JUMPI DUP1 ISZERO DUP1 ISZERO PUSH2 0x2ED4 JUMPI JUMPDEST PUSH2 0x2EB7 JUMPI PUSH2 0x2E97 DUP5 PUSH2 0x2E91 PUSH2 0x2E8C PUSH2 0x2EA2 SWAP7 SWAP8 PUSH2 0x2E9C SWAP6 PUSH2 0x25B9 JUMP JUMPDEST PUSH2 0x259A JUMP JUMPDEST SWAP4 PUSH2 0x2EF5 JUMP JUMPDEST PUSH2 0x252B JUMP JUMPDEST SWAP1 PUSH2 0x24A6 JUMP JUMPDEST PUSH1 0x1 DUP2 ADD SWAP1 DUP2 DUP2 GT PUSH2 0x2586 JUMPI DUP2 LT PUSH2 0x2C54 JUMPI SWAP1 JUMP JUMPDEST PUSH1 0x44 SWAP2 PUSH1 0x40 MLOAD SWAP2 PUSH4 0x28E91899 PUSH1 0xE2 SHL DUP4 MSTORE PUSH1 0x4 DUP4 ADD MSTORE PUSH1 0x24 DUP3 ADD MSTORE REVERT JUMPDEST POP DUP2 ISZERO PUSH2 0x2E70 JUMP JUMPDEST PUSH1 0x40 MLOAD PUSH4 0x3F494305 PUSH1 0xE0 SHL DUP2 MSTORE PUSH1 0x4 DUP2 ADD DUP6 SWAP1 MSTORE PUSH1 0x24 SWAP1 REVERT JUMPDEST SWAP2 SWAP1 PUSH2 0x2F01 SWAP1 DUP4 PUSH2 0x25F5 JUMP JUMPDEST SWAP2 DUP3 GT PUSH2 0x2F0A JUMPI JUMP JUMPDEST PUSH1 0x40 MLOAD PUSH3 0x461BCD PUSH1 0xE5 SHL DUP2 MSTORE PUSH1 0x20 PUSH1 0x4 DUP3 ADD MSTORE PUSH1 0x15 PUSH1 0x24 DUP3 ADD MSTORE PUSH21 0x64732D6D6174682D7375622D756E646572666C6F77 PUSH1 0x58 SHL PUSH1 0x44 DUP3 ADD MSTORE PUSH1 0x64 SWAP1 REVERT JUMPDEST DUP1 MLOAD SWAP3 SWAP4 PUSH32 0x0 SWAP3 SWAP2 SWAP1 PUSH0 JUMPDEST DUP6 PUSH0 NOT DUP2 ADD GT PUSH2 0x2586 JUMPI PUSH0 NOT DUP7 ADD DUP2 LT ISZERO PUSH2 0x318E JUMPI PUSH1 0x1 PUSH1 0x1 PUSH1 0xA0 SHL SUB PUSH2 0x2F98 DUP3 DUP6 PUSH2 0x2B26 JUMP JUMPDEST MLOAD AND SWAP1 PUSH1 0x1 DUP2 ADD DUP2 GT PUSH2 0x2586 JUMPI PUSH1 0x1 PUSH1 0x1 PUSH1 0xA0 SHL SUB PUSH2 0x2FBA PUSH1 0x1 DUP4 ADD DUP7 PUSH2 0x2B26 JUMP JUMPDEST MLOAD AND SWAP2 PUSH2 0x2FC7 DUP4 DUP3 PUSH2 0x209F JUMP JUMPDEST POP SWAP1 PUSH1 0x1 PUSH1 0x1 PUSH1 0xA0 SHL SUB PUSH2 0x2FDD DUP9 DUP7 DUP5 DUP13 PUSH2 0x1FC5 JUMP JUMPDEST AND SWAP1 PUSH1 0x40 MLOAD PUSH4 0x240BC6B PUSH1 0xE2 SHL DUP2 MSTORE PUSH1 0x60 DUP1 DUP3 PUSH1 0x4 DUP2 DUP8 GAS STATICCALL SWAP2 DUP3 ISZERO PUSH2 0x207C JUMPI PUSH0 SWAP2 DUP3 SWAP4 PUSH2 0x316B JUMPI JUMPDEST POP POP PUSH1 0x1 PUSH1 0x1 PUSH1 0x70 SHL SUB SWAP2 DUP3 AND SWAP2 AND PUSH1 0x1 PUSH1 0x1 PUSH1 0xA0 SHL SUB DUP6 AND DUP4 SUB PUSH2 0x3165 JUMPI JUMPDEST PUSH1 0x40 MLOAD PUSH4 0x70A08231 PUSH1 0xE0 SHL DUP2 MSTORE PUSH1 0x4 DUP2 ADD DUP6 SWAP1 MSTORE PUSH1 0x20 DUP2 PUSH1 0x24 DUP2 DUP8 GAS STATICCALL SWAP1 DUP2 ISZERO PUSH2 0x207C JUMPI PUSH0 SWAP2 PUSH2 0x3131 JUMPI JUMPDEST POP SWAP1 PUSH2 0x3061 DUP2 PUSH2 0x3066 SWAP5 SWAP4 PUSH2 0x2EF5 JUMP JUMPDEST PUSH2 0x2C08 JUMP JUMPDEST SWAP3 PUSH1 0x1 PUSH1 0x1 PUSH1 0xA0 SHL SUB AND SUB PUSH2 0x312A JUMPI PUSH0 SWAP2 SWAP4 JUMPDEST DUP7 MLOAD PUSH1 0x1 NOT DUP2 ADD SWAP1 DUP2 GT PUSH2 0x2586 JUMPI DUP5 LT ISZERO PUSH2 0x3122 JUMPI PUSH1 0x2 DUP5 ADD DUP1 DUP6 GT PUSH2 0x2586 JUMPI PUSH2 0x30BB SWAP2 DUP10 SWAP2 PUSH1 0x1 PUSH1 0x1 PUSH1 0xA0 SHL SUB SWAP1 PUSH2 0x30B2 SWAP1 DUP12 PUSH2 0x2B26 JUMP JUMPDEST MLOAD AND SWAP1 DUP12 PUSH2 0x1FC5 JUMP JUMPDEST SWAP1 JUMPDEST DUP1 EXTCODESIZE ISZERO PUSH2 0xECA JUMPI PUSH1 0x40 MLOAD PUSH4 0x36CD3205 PUSH1 0xE1 SHL DUP2 MSTORE PUSH1 0x4 DUP2 ADD SWAP4 SWAP1 SWAP4 MSTORE PUSH1 0x24 DUP4 ADD SWAP5 SWAP1 SWAP5 MSTORE PUSH1 0x1 PUSH1 0x1 PUSH1 0xA0 SHL SUB AND PUSH1 0x44 DUP3 ADD MSTORE SWAP2 PUSH0 SWAP1 DUP4 SWAP1 PUSH1 0x64 SWAP1 DUP3 SWAP1 DUP5 SWAP1 GAS CALL SWAP2 DUP3 ISZERO PUSH2 0x207C JUMPI PUSH1 0x1 SWAP3 PUSH2 0x3113 JUMPI JUMPDEST POP ADD PUSH2 0x2F71 JUMP JUMPDEST PUSH2 0x311C SWAP1 PUSH2 0x1E3E JUMP JUMPDEST PUSH0 PUSH2 0x310C JUMP JUMPDEST POP DUP10 SWAP1 PUSH2 0x30BD JUMP JUMPDEST PUSH0 SWAP4 PUSH2 0x3079 JUMP JUMPDEST SWAP1 PUSH1 0x20 DUP3 RETURNDATASIZE PUSH1 0x20 GT PUSH2 0x315D JUMPI JUMPDEST DUP2 PUSH2 0x314B PUSH1 0x20 SWAP4 DUP4 PUSH2 0x1E66 JUMP JUMPDEST DUP2 ADD SUB SLT PUSH2 0x370 JUMPI POP MLOAD PUSH2 0x3061 PUSH2 0x3051 JUMP JUMPDEST RETURNDATASIZE SWAP2 POP PUSH2 0x313E JUMP JUMPDEST SWAP1 PUSH2 0x3026 JUMP JUMPDEST PUSH2 0x3185 SWAP4 POP DUP1 SWAP2 SWAP3 POP SWAP1 RETURNDATASIZE LT PUSH2 0x249F JUMPI PUSH2 0x2490 DUP2 DUP4 PUSH2 0x1E66 JUMP JUMPDEST POP SWAP1 PUSH0 DUP1 PUSH2 0x3006 JUMP JUMPDEST POP SWAP5 POP POP POP POP POP JUMP JUMPDEST TIMESTAMP DUP2 LT PUSH2 0x31A1 JUMPI POP JUMP JUMPDEST PUSH1 0x24 SWAP1 PUSH1 0x40 MLOAD SWAP1 PUSH4 0x51A60C1 PUSH1 0xE5 SHL DUP3 MSTORE PUSH1 0x4 DUP3 ADD MSTORE REVERT INVALID LOG2 PUSH5 0x6970667358 0x22 SLT KECCAK256 0xC7 0xCE RETURN EQ 0xDA SIGNEXTEND 0xC6 PUSH30 0x44D3D894F58B57001DB9F46C24BBB835C4C48A3B4D150DC964736F6C6343 STOP ADDMOD ISZERO STOP CALLER "
		},
		"gasEstimates": {
			"creation": {
				"codeDepositCost": "2556600",
				"executionCost": "infinite",
				"totalCost": "infinite"
			},
			"external": {
				"WNative()": "infinite",
				"addEntity(address)": "infinite",
				"addLiquidity(address,address,uint256,uint256,uint256,uint256,uint256,address,uint256)": "infinite",
				"addLiquidityNative(address,uint256,uint256,uint256,uint256,address,uint256)": "infinite",
				"factory()": "infinite",
				"getAmountIn(uint256,uint256,uint256)": "518",
				"getAmountOut(uint256,uint256,uint256)": "792",
				"getAmountsIn(uint256,uint256,address[])": "infinite",
				"getAmountsOut(uint256,uint256,address[])": "infinite",
				"govBr()": "infinite",
				"quote(uint256,uint256,uint256)": "infinite",
				"removeEntity(address)": "infinite",
				"removeLiquidity(address,address,uint256,uint256,uint256,uint256,address,uint256)": "infinite",
				"removeLiquidityNative(address,uint256,uint256,uint256,uint256,address,uint256)": "infinite",
				"removeLiquidityNativeSupportingFeeOnTransferTokens(address,uint256,uint256,uint256,uint256,address,uint256)": "infinite",
				"removeLiquidityNativeWithPermit(address,uint256,uint256,uint256,uint256,address,uint256,bool,uint8,bytes32,bytes32)": "infinite",
				"removeLiquidityNativeWithPermitSupportingFeeOnTransferTokens(address,uint256,uint256,uint256,uint256,address,uint256,bool,uint8,bytes32,bytes32)": "infinite",
				"removeLiquidityWithPermit(address,address,uint256,uint256,uint256,uint256,address,uint256,bool,uint8,bytes32,bytes32)": "infinite",
				"swapERC1155TokensForERC20Tokens(uint256,uint256,address[],uint256,address,uint256)": "infinite",
				"swapERC20TokensForERC1155Tokens(uint256,uint256,address[],uint256,address,uint256)": "infinite",
				"swapExactNativeForTokens(uint256,address[],uint256,address,uint256)": "infinite",
				"swapExactNativeForTokensSupportingFeeOnTransferTokens(uint256,address[],uint256,address,uint256)": "infinite",
				"swapExactTokensForNative(uint256,uint256,address[],uint256,address,uint256)": "infinite",
				"swapExactTokensForNativeSupportingFeeOnTransferTokens(uint256,uint256,address[],uint256,address,uint256)": "infinite",
				"swapExactTokensForTokens(uint256,uint256,address[],uint256,address,uint256)": "infinite",
				"swapExactTokensForTokensSupportingFeeOnTransferTokens(uint256,uint256,address[],uint256,address,uint256)": "infinite",
				"swapNativeForExactTokens(uint256,address[],uint256,address,uint256)": "infinite",
				"swapTokensForExactNative(uint256,uint256,address[],uint256,address,uint256)": "infinite",
				"swapTokensForExactTokens(uint256,uint256,address[],uint256,address,uint256)": "infinite"
			},
			"internal": {
				"_addLiquidity(address,address,uint256,uint256,uint256,uint256,uint256)": "infinite",
				"_isAllowed(address)": "infinite",
				"_isGov(address)": "infinite",
				"_swap(uint256[] memory,address[] memory,uint256,address)": "infinite",
				"_swapSupportingFeeOnTransferTokens(address[] memory,uint256,address)": "infinite",
				"ensure(uint256)": "infinite"
			}
		},
		"methodIdentifiers": {
			"WNative()": "f3ec43c7",
			"addEntity(address)": "f1703d24",
			"addLiquidity(address,address,uint256,uint256,uint256,uint256,uint256,address,uint256)": "426e40b1",
			"addLiquidityNative(address,uint256,uint256,uint256,uint256,address,uint256)": "1bb689d6",
			"factory()": "c45a0155",
			"getAmountIn(uint256,uint256,uint256)": "85f8c259",
			"getAmountOut(uint256,uint256,uint256)": "054d50d4",
			"getAmountsIn(uint256,uint256,address[])": "f7d13af9",
			"getAmountsOut(uint256,uint256,address[])": "b67b1220",
			"govBr()": "ae062d76",
			"quote(uint256,uint256,uint256)": "ad615dec",
			"removeEntity(address)": "dd182996",
			"removeLiquidity(address,address,uint256,uint256,uint256,uint256,address,uint256)": "96adb337",
			"removeLiquidityNative(address,uint256,uint256,uint256,uint256,address,uint256)": "01a388ed",
			"removeLiquidityNativeSupportingFeeOnTransferTokens(address,uint256,uint256,uint256,uint256,address,uint256)": "6ea1847a",
			"removeLiquidityNativeWithPermit(address,uint256,uint256,uint256,uint256,address,uint256,bool,uint8,bytes32,bytes32)": "d7429750",
			"removeLiquidityNativeWithPermitSupportingFeeOnTransferTokens(address,uint256,uint256,uint256,uint256,address,uint256,bool,uint8,bytes32,bytes32)": "5fed10bc",
			"removeLiquidityWithPermit(address,address,uint256,uint256,uint256,uint256,address,uint256,bool,uint8,bytes32,bytes32)": "805a372f",
			"swapERC1155TokensForERC20Tokens(uint256,uint256,address[],uint256,address,uint256)": "565fd504",
			"swapERC20TokensForERC1155Tokens(uint256,uint256,address[],uint256,address,uint256)": "1f6f0b32",
			"swapExactNativeForTokens(uint256,address[],uint256,address,uint256)": "c71d77cb",
			"swapExactNativeForTokensSupportingFeeOnTransferTokens(uint256,address[],uint256,address,uint256)": "2b154101",
			"swapExactTokensForNative(uint256,uint256,address[],uint256,address,uint256)": "f9751a4c",
			"swapExactTokensForNativeSupportingFeeOnTransferTokens(uint256,uint256,address[],uint256,address,uint256)": "8ea2443b",
			"swapExactTokensForTokens(uint256,uint256,address[],uint256,address,uint256)": "e99fb634",
			"swapExactTokensForTokensSupportingFeeOnTransferTokens(uint256,uint256,address[],uint256,address,uint256)": "736c72c5",
			"swapNativeForExactTokens(uint256,address[],uint256,address,uint256)": "a9a6bc0d",
			"swapTokensForExactNative(uint256,uint256,address[],uint256,address,uint256)": "ff62cce0",
			"swapTokensForExactTokens(uint256,uint256,address[],uint256,address,uint256)": "2916f89d"
		}
	},
	"abi": [
		{
			"inputs": [
				{
					"internalType": "address",
					"name": "_factory",
					"type": "address"
				},
				{
					"internalType": "address",
					"name": "_govBr",
					"type": "address"
				},
				{
					"internalType": "address",
					"name": "_WNative",
					"type": "address"
				}
			],
			"stateMutability": "nonpayable",
			"type": "constructor"
		},
		{
			"inputs": [
				{
					"internalType": "address",
					"name": "identicalToken",
					"type": "address"
				}
			],
			"name": "Library_Identical_Addresses",
			"type": "error"
		},
		{
			"inputs": [
				{
					"internalType": "uint256",
					"name": "amount",
					"type": "uint256"
				}
			],
			"name": "Library_Insufficient_Amount",
			"type": "error"
		},
		{
			"inputs": [
				{
					"internalType": "uint256",
					"name": "amount",
					"type": "uint256"
				}
			],
			"name": "Library_Insufficient_INPUT_Amount",
			"type": "error"
		},
		{
			"inputs": [
				{
					"internalType": "uint256",
					"name": "reserveA",
					"type": "uint256"
				},
				{
					"internalType": "uint256",
					"name": "reserveB",
					"type": "uint256"
				}
			],
			"name": "Library_Insufficient_Liquidity",
			"type": "error"
		},
		{
			"inputs": [
				{
					"internalType": "uint256",
					"name": "amount",
					"type": "uint256"
				}
			],
			"name": "Library_Insufficient_OUTPUT_Amount",
			"type": "error"
		},
		{
			"inputs": [
				{
					"internalType": "uint256",
					"name": "invalidPathLength",
					"type": "uint256"
				}
			],
			"name": "Library_Invalid_Path",
			"type": "error"
		},
		{
			"inputs": [
				{
					"internalType": "address",
					"name": "token0",
					"type": "address"
				},
				{
					"internalType": "address",
					"name": "token1",
					"type": "address"
				}
			],
			"name": "Library_Pair_Unexists",
			"type": "error"
		},
		{
			"inputs": [],
			"name": "Library_Zero_Address",
			"type": "error"
		},
		{
			"inputs": [
				{
					"internalType": "uint256",
					"name": "amountInMax",
					"type": "uint256"
				}
			],
			"name": "Router_Excessive_Input_Amount",
			"type": "error"
		},
		{
			"inputs": [
				{
					"internalType": "uint256",
					"name": "deadline",
					"type": "uint256"
				}
			],
			"name": "Router_Expired",
			"type": "error"
		},
		{
			"inputs": [],
			"name": "Router_Forbidden",
			"type": "error"
		},
		{
			"inputs": [
				{
					"internalType": "uint256",
					"name": "amountAMin",
					"type": "uint256"
				}
			],
			"name": "Router_Insufficient_A_Amount",
			"type": "error"
		},
		{
			"inputs": [
				{
					"internalType": "uint256",
					"name": "amountBMin",
					"type": "uint256"
				}
			],
			"name": "Router_Insufficient_B_Amount",
			"type": "error"
		},
		{
			"inputs": [
				{
					"internalType": "uint256",
					"name": "outputMinAmount",
					"type": "uint256"
				}
			],
			"name": "Router_Insufficient_OUTPUT_Amount",
			"type": "error"
		},
		{
			"inputs": [
				{
					"internalType": "address",
					"name": "token",
					"type": "address"
				}
			],
			"name": "Router_Invalid_Path",
			"type": "error"
		},
		{
			"inputs": [],
			"name": "Router_PairUnexists",
			"type": "error"
		},
		{
			"inputs": [],
			"name": "WNative",
			"outputs": [
				{
					"internalType": "address",
					"name": "",
					"type": "address"
				}
			],
			"stateMutability": "view",
			"type": "function"
		},
		{
			"inputs": [
				{
					"internalType": "address",
					"name": "entity",
					"type": "address"
				}
			],
			"name": "addEntity",
			"outputs": [],
			"stateMutability": "nonpayable",
			"type": "function"
		},
		{
			"inputs": [
				{
					"internalType": "address",
					"name": "tokenA",
					"type": "address"
				},
				{
					"internalType": "address",
					"name": "tokenB",
					"type": "address"
				},
				{
					"internalType": "uint256",
					"name": "id",
					"type": "uint256"
				},
				{
					"internalType": "uint256",
					"name": "amountADesired",
					"type": "uint256"
				},
				{
					"internalType": "uint256",
					"name": "amountBDesired",
					"type": "uint256"
				},
				{
					"internalType": "uint256",
					"name": "amountAMin",
					"type": "uint256"
				},
				{
					"internalType": "uint256",
					"name": "amountBMin",
					"type": "uint256"
				},
				{
					"internalType": "address",
					"name": "to",
					"type": "address"
				},
				{
					"internalType": "uint256",
					"name": "deadline",
					"type": "uint256"
				}
			],
			"name": "addLiquidity",
			"outputs": [
				{
					"internalType": "uint256",
					"name": "amountA",
					"type": "uint256"
				},
				{
					"internalType": "uint256",
					"name": "amountB",
					"type": "uint256"
				},
				{
					"internalType": "uint256",
					"name": "liquidity",
					"type": "uint256"
				}
			],
			"stateMutability": "nonpayable",
			"type": "function"
		},
		{
			"inputs": [
				{
					"internalType": "address",
					"name": "token",
					"type": "address"
				},
				{
					"internalType": "uint256",
					"name": "id",
					"type": "uint256"
				},
				{
					"internalType": "uint256",
					"name": "amountTokenDesired",
					"type": "uint256"
				},
				{
					"internalType": "uint256",
					"name": "amountTokenMin",
					"type": "uint256"
				},
				{
					"internalType": "uint256",
					"name": "amountNativeMin",
					"type": "uint256"
				},
				{
					"internalType": "address",
					"name": "to",
					"type": "address"
				},
				{
					"internalType": "uint256",
					"name": "deadline",
					"type": "uint256"
				}
			],
			"name": "addLiquidityNative",
			"outputs": [
				{
					"internalType": "uint256",
					"name": "amountToken",
					"type": "uint256"
				},
				{
					"internalType": "uint256",
					"name": "amountNative",
					"type": "uint256"
				},
				{
					"internalType": "uint256",
					"name": "liquidity",
					"type": "uint256"
				}
			],
			"stateMutability": "payable",
			"type": "function"
		},
		{
			"inputs": [],
			"name": "factory",
			"outputs": [
				{
					"internalType": "address",
					"name": "",
					"type": "address"
				}
			],
			"stateMutability": "view",
			"type": "function"
		},
		{
			"inputs": [
				{
					"internalType": "uint256",
					"name": "amountOut",
					"type": "uint256"
				},
				{
					"internalType": "uint256",
					"name": "reserveIn",
					"type": "uint256"
				},
				{
					"internalType": "uint256",
					"name": "reserveOut",
					"type": "uint256"
				}
			],
			"name": "getAmountIn",
			"outputs": [
				{
					"internalType": "uint256",
					"name": "amountIn",
					"type": "uint256"
				}
			],
			"stateMutability": "pure",
			"type": "function"
		},
		{
			"inputs": [
				{
					"internalType": "uint256",
					"name": "amountIn",
					"type": "uint256"
				},
				{
					"internalType": "uint256",
					"name": "reserveIn",
					"type": "uint256"
				},
				{
					"internalType": "uint256",
					"name": "reserveOut",
					"type": "uint256"
				}
			],
			"name": "getAmountOut",
			"outputs": [
				{
					"internalType": "uint256",
					"name": "amountOut",
					"type": "uint256"
				}
			],
			"stateMutability": "pure",
			"type": "function"
		},
		{
			"inputs": [
				{
					"internalType": "uint256",
					"name": "amountOut",
					"type": "uint256"
				},
				{
					"internalType": "uint256",
					"name": "id",
					"type": "uint256"
				},
				{
					"internalType": "address[]",
					"name": "path",
					"type": "address[]"
				}
			],
			"name": "getAmountsIn",
			"outputs": [
				{
					"internalType": "uint256",
					"name": "amounts",
					"type": "uint256"
				}
			],
			"stateMutability": "view",
			"type": "function"
		},
		{
			"inputs": [
				{
					"internalType": "uint256",
					"name": "amountIn",
					"type": "uint256"
				},
				{
					"internalType": "uint256",
					"name": "id",
					"type": "uint256"
				},
				{
					"internalType": "address[]",
					"name": "path",
					"type": "address[]"
				}
			],
			"name": "getAmountsOut",
			"outputs": [
				{
					"internalType": "uint256[]",
					"name": "amounts",
					"type": "uint256[]"
				}
			],
			"stateMutability": "view",
			"type": "function"
		},
		{
			"inputs": [],
			"name": "govBr",
			"outputs": [
				{
					"internalType": "address",
					"name": "",
					"type": "address"
				}
			],
			"stateMutability": "view",
			"type": "function"
		},
		{
			"inputs": [
				{
					"internalType": "uint256",
					"name": "amountA",
					"type": "uint256"
				},
				{
					"internalType": "uint256",
					"name": "reserveA",
					"type": "uint256"
				},
				{
					"internalType": "uint256",
					"name": "reserveB",
					"type": "uint256"
				}
			],
			"name": "quote",
			"outputs": [
				{
					"internalType": "uint256",
					"name": "amountB",
					"type": "uint256"
				}
			],
			"stateMutability": "pure",
			"type": "function"
		},
		{
			"inputs": [
				{
					"internalType": "address",
					"name": "entity",
					"type": "address"
				}
			],
			"name": "removeEntity",
			"outputs": [],
			"stateMutability": "nonpayable",
			"type": "function"
		},
		{
			"inputs": [
				{
					"internalType": "address",
					"name": "tokenA",
					"type": "address"
				},
				{
					"internalType": "address",
					"name": "tokenB",
					"type": "address"
				},
				{
					"internalType": "uint256",
					"name": "id",
					"type": "uint256"
				},
				{
					"internalType": "uint256",
					"name": "liquidity",
					"type": "uint256"
				},
				{
					"internalType": "uint256",
					"name": "amountAMin",
					"type": "uint256"
				},
				{
					"internalType": "uint256",
					"name": "amountBMin",
					"type": "uint256"
				},
				{
					"internalType": "address",
					"name": "to",
					"type": "address"
				},
				{
					"internalType": "uint256",
					"name": "deadline",
					"type": "uint256"
				}
			],
			"name": "removeLiquidity",
			"outputs": [
				{
					"internalType": "uint256",
					"name": "amountA",
					"type": "uint256"
				},
				{
					"internalType": "uint256",
					"name": "amountB",
					"type": "uint256"
				}
			],
			"stateMutability": "nonpayable",
			"type": "function"
		},
		{
			"inputs": [
				{
					"internalType": "address",
					"name": "token",
					"type": "address"
				},
				{
					"internalType": "uint256",
					"name": "id",
					"type": "uint256"
				},
				{
					"internalType": "uint256",
					"name": "liquidity",
					"type": "uint256"
				},
				{
					"internalType": "uint256",
					"name": "amountTokenMin",
					"type": "uint256"
				},
				{
					"internalType": "uint256",
					"name": "amountNativeMin",
					"type": "uint256"
				},
				{
					"internalType": "address",
					"name": "to",
					"type": "address"
				},
				{
					"internalType": "uint256",
					"name": "deadline",
					"type": "uint256"
				}
			],
			"name": "removeLiquidityNative",
			"outputs": [
				{
					"internalType": "uint256",
					"name": "amountToken",
					"type": "uint256"
				},
				{
					"internalType": "uint256",
					"name": "amountNative",
					"type": "uint256"
				}
			],
			"stateMutability": "nonpayable",
			"type": "function"
		},
		{
			"inputs": [
				{
					"internalType": "address",
					"name": "token",
					"type": "address"
				},
				{
					"internalType": "uint256",
					"name": "id",
					"type": "uint256"
				},
				{
					"internalType": "uint256",
					"name": "liquidity",
					"type": "uint256"
				},
				{
					"internalType": "uint256",
					"name": "amountTokenMin",
					"type": "uint256"
				},
				{
					"internalType": "uint256",
					"name": "amountNativeMin",
					"type": "uint256"
				},
				{
					"internalType": "address",
					"name": "to",
					"type": "address"
				},
				{
					"internalType": "uint256",
					"name": "deadline",
					"type": "uint256"
				}
			],
			"name": "removeLiquidityNativeSupportingFeeOnTransferTokens",
			"outputs": [
				{
					"internalType": "uint256",
					"name": "amountNative",
					"type": "uint256"
				}
			],
			"stateMutability": "nonpayable",
			"type": "function"
		},
		{
			"inputs": [
				{
					"internalType": "address",
					"name": "token",
					"type": "address"
				},
				{
					"internalType": "uint256",
					"name": "id",
					"type": "uint256"
				},
				{
					"internalType": "uint256",
					"name": "liquidity",
					"type": "uint256"
				},
				{
					"internalType": "uint256",
					"name": "amountTokenMin",
					"type": "uint256"
				},
				{
					"internalType": "uint256",
					"name": "amountNativeMin",
					"type": "uint256"
				},
				{
					"internalType": "address",
					"name": "to",
					"type": "address"
				},
				{
					"internalType": "uint256",
					"name": "deadline",
					"type": "uint256"
				},
				{
					"internalType": "bool",
					"name": "approveMax",
					"type": "bool"
				},
				{
					"internalType": "uint8",
					"name": "v",
					"type": "uint8"
				},
				{
					"internalType": "bytes32",
					"name": "r",
					"type": "bytes32"
				},
				{
					"internalType": "bytes32",
					"name": "s",
					"type": "bytes32"
				}
			],
			"name": "removeLiquidityNativeWithPermit",
			"outputs": [
				{
					"internalType": "uint256",
					"name": "amountToken",
					"type": "uint256"
				},
				{
					"internalType": "uint256",
					"name": "amountNative",
					"type": "uint256"
				}
			],
			"stateMutability": "nonpayable",
			"type": "function"
		},
		{
			"inputs": [
				{
					"internalType": "address",
					"name": "token",
					"type": "address"
				},
				{
					"internalType": "uint256",
					"name": "liquidity",
					"type": "uint256"
				},
				{
					"internalType": "uint256",
					"name": "id",
					"type": "uint256"
				},
				{
					"internalType": "uint256",
					"name": "amountTokenMin",
					"type": "uint256"
				},
				{
					"internalType": "uint256",
					"name": "amountNativeMin",
					"type": "uint256"
				},
				{
					"internalType": "address",
					"name": "to",
					"type": "address"
				},
				{
					"internalType": "uint256",
					"name": "deadline",
					"type": "uint256"
				},
				{
					"internalType": "bool",
					"name": "approveMax",
					"type": "bool"
				},
				{
					"internalType": "uint8",
					"name": "v",
					"type": "uint8"
				},
				{
					"internalType": "bytes32",
					"name": "r",
					"type": "bytes32"
				},
				{
					"internalType": "bytes32",
					"name": "s",
					"type": "bytes32"
				}
			],
			"name": "removeLiquidityNativeWithPermitSupportingFeeOnTransferTokens",
			"outputs": [
				{
					"internalType": "uint256",
					"name": "amountNative",
					"type": "uint256"
				}
			],
			"stateMutability": "nonpayable",
			"type": "function"
		},
		{
			"inputs": [
				{
					"internalType": "address",
					"name": "tokenA",
					"type": "address"
				},
				{
					"internalType": "address",
					"name": "tokenB",
					"type": "address"
				},
				{
					"internalType": "uint256",
					"name": "id",
					"type": "uint256"
				},
				{
					"internalType": "uint256",
					"name": "liquidity",
					"type": "uint256"
				},
				{
					"internalType": "uint256",
					"name": "amountAMin",
					"type": "uint256"
				},
				{
					"internalType": "uint256",
					"name": "amountBMin",
					"type": "uint256"
				},
				{
					"internalType": "address",
					"name": "to",
					"type": "address"
				},
				{
					"internalType": "uint256",
					"name": "deadline",
					"type": "uint256"
				},
				{
					"internalType": "bool",
					"name": "approveMax",
					"type": "bool"
				},
				{
					"internalType": "uint8",
					"name": "v",
					"type": "uint8"
				},
				{
					"internalType": "bytes32",
					"name": "r",
					"type": "bytes32"
				},
				{
					"internalType": "bytes32",
					"name": "s",
					"type": "bytes32"
				}
			],
			"name": "removeLiquidityWithPermit",
			"outputs": [
				{
					"internalType": "uint256",
					"name": "amountA",
					"type": "uint256"
				},
				{
					"internalType": "uint256",
					"name": "amountB",
					"type": "uint256"
				}
			],
			"stateMutability": "nonpayable",
			"type": "function"
		},
		{
			"inputs": [
				{
					"internalType": "uint256",
					"name": "amountIn",
					"type": "uint256"
				},
				{
					"internalType": "uint256",
					"name": "amountOutMin",
					"type": "uint256"
				},
				{
					"internalType": "address[]",
					"name": "path",
					"type": "address[]"
				},
				{
					"internalType": "uint256",
					"name": "id",
					"type": "uint256"
				},
				{
					"internalType": "address",
					"name": "to",
					"type": "address"
				},
				{
					"internalType": "uint256",
					"name": "deadline",
					"type": "uint256"
				}
			],
			"name": "swapERC1155TokensForERC20Tokens",
			"outputs": [
				{
					"internalType": "uint256[]",
					"name": "amounts",
					"type": "uint256[]"
				}
			],
			"stateMutability": "nonpayable",
			"type": "function"
		},
		{
			"inputs": [
				{
					"internalType": "uint256",
					"name": "amountIn",
					"type": "uint256"
				},
				{
					"internalType": "uint256",
					"name": "amountOutMin",
					"type": "uint256"
				},
				{
					"internalType": "address[]",
					"name": "path",
					"type": "address[]"
				},
				{
					"internalType": "uint256",
					"name": "id",
					"type": "uint256"
				},
				{
					"internalType": "address",
					"name": "to",
					"type": "address"
				},
				{
					"internalType": "uint256",
					"name": "deadline",
					"type": "uint256"
				}
			],
			"name": "swapERC20TokensForERC1155Tokens",
			"outputs": [
				{
					"internalType": "uint256[]",
					"name": "amounts",
					"type": "uint256[]"
				}
			],
			"stateMutability": "nonpayable",
			"type": "function"
		},
		{
			"inputs": [
				{
					"internalType": "uint256",
					"name": "amountOutMin",
					"type": "uint256"
				},
				{
					"internalType": "address[]",
					"name": "path",
					"type": "address[]"
				},
				{
					"internalType": "uint256",
					"name": "id",
					"type": "uint256"
				},
				{
					"internalType": "address",
					"name": "to",
					"type": "address"
				},
				{
					"internalType": "uint256",
					"name": "deadline",
					"type": "uint256"
				}
			],
			"name": "swapExactNativeForTokens",
			"outputs": [
				{
					"internalType": "uint256[]",
					"name": "amounts",
					"type": "uint256[]"
				}
			],
			"stateMutability": "payable",
			"type": "function"
		},
		{
			"inputs": [
				{
					"internalType": "uint256",
					"name": "amountOutMin",
					"type": "uint256"
				},
				{
					"internalType": "address[]",
					"name": "path",
					"type": "address[]"
				},
				{
					"internalType": "uint256",
					"name": "id",
					"type": "uint256"
				},
				{
					"internalType": "address",
					"name": "to",
					"type": "address"
				},
				{
					"internalType": "uint256",
					"name": "deadline",
					"type": "uint256"
				}
			],
			"name": "swapExactNativeForTokensSupportingFeeOnTransferTokens",
			"outputs": [],
			"stateMutability": "payable",
			"type": "function"
		},
		{
			"inputs": [
				{
					"internalType": "uint256",
					"name": "amountIn",
					"type": "uint256"
				},
				{
					"internalType": "uint256",
					"name": "amountOutMin",
					"type": "uint256"
				},
				{
					"internalType": "address[]",
					"name": "path",
					"type": "address[]"
				},
				{
					"internalType": "uint256",
					"name": "id",
					"type": "uint256"
				},
				{
					"internalType": "address",
					"name": "to",
					"type": "address"
				},
				{
					"internalType": "uint256",
					"name": "deadline",
					"type": "uint256"
				}
			],
			"name": "swapExactTokensForNative",
			"outputs": [
				{
					"internalType": "uint256[]",
					"name": "amounts",
					"type": "uint256[]"
				}
			],
			"stateMutability": "nonpayable",
			"type": "function"
		},
		{
			"inputs": [
				{
					"internalType": "uint256",
					"name": "amountIn",
					"type": "uint256"
				},
				{
					"internalType": "uint256",
					"name": "amountOutMin",
					"type": "uint256"
				},
				{
					"internalType": "address[]",
					"name": "path",
					"type": "address[]"
				},
				{
					"internalType": "uint256",
					"name": "id",
					"type": "uint256"
				},
				{
					"internalType": "address",
					"name": "to",
					"type": "address"
				},
				{
					"internalType": "uint256",
					"name": "deadline",
					"type": "uint256"
				}
			],
			"name": "swapExactTokensForNativeSupportingFeeOnTransferTokens",
			"outputs": [],
			"stateMutability": "nonpayable",
			"type": "function"
		},
		{
			"inputs": [
				{
					"internalType": "uint256",
					"name": "amountIn",
					"type": "uint256"
				},
				{
					"internalType": "uint256",
					"name": "amountOutMin",
					"type": "uint256"
				},
				{
					"internalType": "address[]",
					"name": "path",
					"type": "address[]"
				},
				{
					"internalType": "uint256",
					"name": "id",
					"type": "uint256"
				},
				{
					"internalType": "address",
					"name": "to",
					"type": "address"
				},
				{
					"internalType": "uint256",
					"name": "deadline",
					"type": "uint256"
				}
			],
			"name": "swapExactTokensForTokens",
			"outputs": [
				{
					"internalType": "uint256[]",
					"name": "amounts",
					"type": "uint256[]"
				}
			],
			"stateMutability": "nonpayable",
			"type": "function"
		},
		{
			"inputs": [
				{
					"internalType": "uint256",
					"name": "amountIn",
					"type": "uint256"
				},
				{
					"internalType": "uint256",
					"name": "amountOutMin",
					"type": "uint256"
				},
				{
					"internalType": "address[]",
					"name": "path",
					"type": "address[]"
				},
				{
					"internalType": "uint256",
					"name": "id",
					"type": "uint256"
				},
				{
					"internalType": "address",
					"name": "to",
					"type": "address"
				},
				{
					"internalType": "uint256",
					"name": "deadline",
					"type": "uint256"
				}
			],
			"name": "swapExactTokensForTokensSupportingFeeOnTransferTokens",
			"outputs": [],
			"stateMutability": "nonpayable",
			"type": "function"
		},
		{
			"inputs": [
				{
					"internalType": "uint256",
					"name": "amountOut",
					"type": "uint256"
				},
				{
					"internalType": "address[]",
					"name": "path",
					"type": "address[]"
				},
				{
					"internalType": "uint256",
					"name": "id",
					"type": "uint256"
				},
				{
					"internalType": "address",
					"name": "to",
					"type": "address"
				},
				{
					"internalType": "uint256",
					"name": "deadline",
					"type": "uint256"
				}
			],
			"name": "swapNativeForExactTokens",
			"outputs": [
				{
					"internalType": "uint256[]",
					"name": "amounts",
					"type": "uint256[]"
				}
			],
			"stateMutability": "payable",
			"type": "function"
		},
		{
			"inputs": [
				{
					"internalType": "uint256",
					"name": "amountOut",
					"type": "uint256"
				},
				{
					"internalType": "uint256",
					"name": "amountInMax",
					"type": "uint256"
				},
				{
					"internalType": "address[]",
					"name": "path",
					"type": "address[]"
				},
				{
					"internalType": "uint256",
					"name": "id",
					"type": "uint256"
				},
				{
					"internalType": "address",
					"name": "to",
					"type": "address"
				},
				{
					"internalType": "uint256",
					"name": "deadline",
					"type": "uint256"
				}
			],
			"name": "swapTokensForExactNative",
			"outputs": [
				{
					"internalType": "uint256[]",
					"name": "amounts",
					"type": "uint256[]"
				}
			],
			"stateMutability": "nonpayable",
			"type": "function"
		},
		{
			"inputs": [
				{
					"internalType": "uint256",
					"name": "amountOut",
					"type": "uint256"
				},
				{
					"internalType": "uint256",
					"name": "amountInMax",
					"type": "uint256"
				},
				{
					"internalType": "address[]",
					"name": "path",
					"type": "address[]"
				},
				{
					"internalType": "uint256",
					"name": "id",
					"type": "uint256"
				},
				{
					"internalType": "address",
					"name": "to",
					"type": "address"
				},
				{
					"internalType": "uint256",
					"name": "deadline",
					"type": "uint256"
				}
			],
			"name": "swapTokensForExactTokens",
			"outputs": [
				{
					"internalType": "uint256[]",
					"name": "amounts",
					"type": "uint256[]"
				}
			],
			"stateMutability": "nonpayable",
			"type": "function"
		},
		{
			"stateMutability": "payable",
			"type": "receive"
		}
	]
}