{
	"data": {
		"bytecode": {
			"linkReferences": {},
			"object": "60803461008d57601f612ef238819003918201601f19168301916001600160401b0383118484101761009157808492604094855283398101031261008d57610052602061004b836100a5565b92016100a5565b600180546001600160a01b039384166001600160a01b03199182161790915560028054929093169116179055604051612e3890816100ba8239f35b5f80fd5b634e487b7160e01b5f52604160045260245ffd5b51906001600160a01b038216820361008d5756fe60806040526004361015610011575f80fd5b5f803560e01c908163017e7e58146100a757508063094b7415146100a25780631e3dd18b1461009d5780634b77fa8b14610098578063574f2ba3146100935780635eced4801461008e578063a2e74af614610089578063ae062d76146100845763f46901ed1461007f575f80fd5b610618565b6105f0565b61059b565b610539565b61051c565b61018a565b610104565b6100dc565b346100cb57806003193601126100cb57546001600160a01b03166080908152602090f35b80fd5b5f9103126100d857565b5f80fd5b346100d8575f3660031901126100d8576001546040516001600160a01b039091168152602090f35b346100d85760203660031901126100d8576004356004548110156100d85760045f527f8a35acfbc15ff81a39ae7d344fd709f28e8600b4aa8c65c6b64bfe7fe36bd19b01546040516001600160a01b039091168152602090f35b600435906001600160a01b03821682036100d857565b602435906001600160a01b03821682036100d857565b346100d85760a03660031901126100d8576101a361015e565b6101ab610174565b6044359160643590608435906101c03361075f565b6001600160a01b038181169390858116851461050a5786158015610502575b6104f057604080516301ffc9a760e01b8152636cdb3d1360e11b6004820152909560209491905f908690839060249082905afa9091816104c1575b506104ae5750955b81871693841580156104a4575b6104935761029661028a61027d886102708661025b8e60018060a01b03165f52600360205260405f2090565b9060018060a01b03165f5260205260405f2090565b905f5260205260405f2090565b546001600160a01b031690565b6001600160a01b031690565b6104825761268c88836103036102ad8585016106d3565b948486528086019461077786396102f58b8d51948593840196879190604893916bffffffffffffffffffffffff19809260601b16845260601b16601483015260288201520190565b03601f19810183528261068e565b5190209151905ff59682881698893b156100d857875163344fe42d60e21b81526001600160a01b03838116600483015284166024820152604481018290526064810186905260848101889052995f908b9060a490829084905af194851561047d576104048a6103c98a6102706104609f976103e8856103c9857f8a38fca419462c383787e71f5b2d201679cb27d9a0b77168da94de03b0f077bf9f8e6104459e61027092610464575b506001600160a01b0387165f90815260036020526040902061025b565b80546001600160a01b0319166001600160a01b03909216919091179055565b6001600160a01b038a165f90815260036020526040902061025b565b61040d8a6106e3565b60045489516001600160a01b038c168152602081019990995260408901929092526060880152608087015291169390819060a0820190565b0390a3516001600160a01b0390911681529081906020820190565b0390f35b8061047161047792610675565b806100ce565b5f6103ac565b6106c8565b8651638e38f67360e01b8152600490fd5b8651630a4cd35b60e21b8152600490fd5b508282161561022f565b909690156104bc5795610222565b610222565b6104e2919250863d88116104e9575b6104da818361068e565b8101906106b0565b905f61021a565b503d6104d0565b6040516349ecd26760e11b8152600490fd5b5081156101df565b60405163e22b04c960e01b8152600490fd5b346100d8575f3660031901126100d8576020600454604051908152f35b346100d85760603660031901126100d857602061055461015e565b61058661055f610174565b6001600160a01b039283165f90815260038552604080822092851682526020929092522090565b6044355f52825260405f205416604051908152f35b346100d85760203660031901126100d8576105b461015e565b600154906001600160a01b039081831633036105de576001600160a01b0319909216911617600155005b6040516324ef589f60e01b8152600490fd5b346100d8575f3660031901126100d8576002546040516001600160a01b039091168152602090f35b346100d85760203660031901126100d85761063161015e565b6001546001600160a01b039190821633036105de57166bffffffffffffffffffffffff60a01b5f5416175f555f80f35b634e487b7160e01b5f52604160045260245ffd5b67ffffffffffffffff811161068957604052565b610661565b90601f8019910116810190811067ffffffffffffffff82111761068957604052565b908160209103126100d8575180151581036100d85790565b6040513d5f823e3d90fd5b906106e1604051928361068e565b565b6004546801000000000000000081101561068957600181018060045581101561074b5760045f527f8a35acfbc15ff81a39ae7d344fd709f28e8600b4aa8c65c6b64bfe7fe36bd19b0180546001600160a01b0319166001600160a01b03909216919091179055565b634e487b7160e01b5f52603260045260245ffd5b6002546001600160a01b039081169116036105de5756fe60808060405234620000eb576020816200001b600693620000ef565b82815201650a85a88e4caf60d31b815220600160206040516200003e81620000ef565b82815201603160f81b815220906040519160208301917f8b73c3c69bb8fe3d512ecc4cf759cc79239f7b179b0ffacaa9a75d522b39400f8352604084015260608301524660808301523060a083015260a0825260c082019180831060018060401b03841117620000d75760408390525190206003556001601055600580546001600160a01b0319163317905561258090816200010c8239f35b634e487b7160e01b5f52604160045260245ffd5b5f80fd5b604081019081106001600160401b03821117620000d75760405256fe6080604081815260049081361015610015575f80fd5b5f92833560e01c90816301ffc9a714611a6b5750806306fdde0314611a2d5780630902f1ac146119d4578063095ea7b3146119aa5780630dfe168114611981578063143ba4f31461178f578063175ec2a31461177057806318160ddd1461175357806323b872dd146116c457806330adf81f14611689578063313ce5671461166d5780633644e5151461164e5780635909c0d51461162f5780635a3d5493146116105780636a627842146113515780636d9a640a14610f9c57806370a0823114610f645780637464fc3d14610f455780637ecebe0014610f0f57806388be4a7f14610ef057806389afcb4414610b5857806395d89b4114610b17578063a9059cbb14610ae6578063b3cea21714610ac7578063ba9a7a5614610aaa578063bc197c8114610a20578063bc25cf77146108ad578063c45a015514610884578063d13f90b4146107ff578063d21220a7146107d6578063d505accf146105a4578063dd62ed3e1461055b578063f23a6e6114610501578063fcf2ce04146102ea5763fff6cae9146101a2575f80fd5b346102e657826003193601126102e6576101c0600160105414611c9b565b601083905560065481516370a0823160e01b81523084820152906020906001600160a01b039082908490602490829085165afa9283156102dc5786936102ab575b50600754600b548551627eeac760e11b815230978101978852602088019190915295839287921690829081906040015b03915afa9283156102a25750849261026c575b506102649250600c54916001600160701b03808460701c16931691611d7b565b600160105580f35b90915082813d831161029b575b6102838183611ad4565b81010312610297576102649151905f610244565b5f80fd5b503d610279565b513d86823e3d90fd5b9092508181813d83116102d5575b6102c38183611ad4565b81010312610297575191610231610201565b503d6102b9565b84513d88823e3d90fd5b8280fd5b509190346104fd57826003193601126104fd57610305611b3d565b92610314600160105414611c9b565b8260105560018060a01b038060055416948251809663570316bb60e11b825281866020998a935afa9081156102dc5790839187916104d0575b501633036104c157604486836007541685519283809263e985e9c560e01b8252308a8301523360248301525afa9081156102dc5786916104a4575b50156104955781169482516323b872dd60e01b8152338582015230602482015260243560448201528181606481898b5af180156102dc57610467575b50506007541691600b54600a5490843b156104635790606486928386519788948593637a94c56560e11b85523389860152602485015260448401525af180156104595761042d575b600880546001600160a81b0319168617600160a01b17905560016010558380f35b67ffffffffffffffff83116104465750525f808061040c565b634e487b7160e01b845260419052602483fd5b82513d86823e3d90fd5b8580fd5b8161048692903d1061048e575b61047e8183611ad4565b810190612073565b505f806103c4565b503d610474565b505051637ea0aea560e11b8152fd5b6104bb9150873d891161048e5761047e8183611ad4565b5f610388565b50505163d2f85aeb60e01b8152fd5b6104f09150883d8a116104f6575b6104e88183611ad4565b810190611ebb565b5f61034d565b503d6104de565b5080fd5b5082346105585760a03660031901126105585761051c611b3d565b50610525611b53565b506084359067ffffffffffffffff8211610558575060209261054991369101611bb2565b50505163f23a6e6160e01b8152f35b80fd5b8382346104fd57806003193601126104fd5780602092610579611b3d565b610581611b53565b6001600160a01b0391821683526002865283832091168252845220549051908152f35b509190346104fd5760e03660031901126104fd576105c0611b3d565b6105c8611b53565b906044359260643560843560ff81168091036107d25742821061079a576003549160018060a01b039182861693848a52856020528a8a20928354935f19851461078757908493929160018e960190558451938760208601967f6e71edae12b1b97f4d1f60370fef10105fa2faae0126114a169c64845d6126c98852860152868b1660608601528b608086015260a085015260c084015260c0835260e0830167ffffffffffffffff948482108683111761077457818e528451902061010085019261190160f01b8452610102860152610122850152604281526101608401948186109086111761076157848d52519020835261018082015260a4356101a082015260c4356101c090910152878052602090889060809060015afa156107575786511690811515918261074d575b50501561070a5750610707939450611be0565b80f35b606490602087519162461bcd60e51b8352820152601c60248201527f556e697377617056323a20494e56414c49445f5349474e4154555245000000006044820152fd5b1490505f806106f4565b87513d88823e3d90fd5b634e487b7160e01b8c526041885260248cfd5b634e487b7160e01b8d526041895260248dfd5b634e487b7160e01b8c526011885260248cfd5b875162461bcd60e51b81526020818501526012602482015271155b9a5cddd85c158c8e881156141254915160721b6044820152606490fd5b8680fd5b8382346104fd57816003193601126104fd5760075490516001600160a01b039091168152602090f35b50346102e65760a03660031901126102e657610819611b3d565b91610822611b53565b6005546001600160a01b03939192919084163303610877575050816bffffffffffffffffffffffff60a01b931683600654161760065516906007541617600755604435600955606435600a55608435600b5580f35b5163d2f85aeb60e01b8152fd5b8382346104fd57816003193601126104fd5760055490516001600160a01b039091168152602090f35b5090346102e65760209081600319360112610a1c576108ca611b3d565b6108d8600160105414611c9b565b601085905560065460075485516370a0823160e01b81523085820152956001600160a01b039182169590929091168187602481845afa968715610a125788976109db575b509061094361096f928561093d6001600160701b039a8b600c541690612417565b9161208b565b600b548351627eeac760e11b815230968101968752602087018290529095909282918491829160400190565b0381895afa9283156109d2575087926109a2575b505061099a9061026495600c5460701c1690612417565b92309061219c565b90809250813d83116109cb575b6109b98183611ad4565b8101031261046357518461099a610983565b503d6109af565b513d89823e3d90fd5b918091975082813d8311610a0b575b6109f48183611ad4565b81010312610a075790519561094361091c565b8780fd5b503d6109ea565b83513d8a823e3d90fd5b8380fd5b5082346105585760a036600319011261055857610a3b611b3d565b50610a44611b53565b5067ffffffffffffffff906044358281116104fd57610a669036908601611b81565b50506064358281116104fd57610a7f9036908601611b81565b50506084359182116105585750602092610a9b91369101611bb2565b50505163bc197c8160e01b8152f35b8382346104fd57816003193601126104fd57602090516103e88152f35b8382346104fd57816003193601126104fd57602090600b549051908152f35b8382346104fd57806003193601126104fd57602090610b10610b06611b3d565b6024359033611c33565b5160018152f35b8382346104fd57816003193601126104fd578051610b5491610b3882611aa4565b60058252640a888e4caf60db1b60208301525191829182611af6565b0390f35b509190346104fd576020806003193601126102e657610b75611b3d565b610b83600160105414611c9b565b83601055610ba6600c546001600160701b0391828216928260701c169160e01c90565b5060065460075488516370a0823160e01b808252308983015290986001600160a01b03959194909390928616908616888b602481845afa9a8b15610dea57859b610ebd575b50600b548c51627eeac760e11b808252308d83019081526020810193909352909b9093918b908d9081906040010381855afa9b8c15610e2c57879c610e8e575b5030875260018b528d87205497610c428787611eda565b9888549e8f90610c5290836124a7565b90610c5c91611cd7565b9e8f9e610c6990836124a7565b90610c7391611cd7565b9d151580610e85575b15610e3657908f8f908f8f94908f610cdf6024958f610cea9530825260018b52610ca98189842054612417565b30835260018c5288832055610cbf818354612417565b825587519081525f8051602061252b8339815191528b3092a3828c61208b565b600b5490308a61219c565b5180968193825230868301525afa928315610e2c57918e918c938995610df4575b50600b5492519586523090860190815260208101929092528491829081906040015b03915afa918215610dea578592610db3575b50610d4a9450611d7b565b610d90575b855191858352848484015216907fdccd412f0b1252819cb1fd330b93224ca42612892bb3f4f789976e6d81936496863392a360016010558351928352820152f35b610dab600c546001600160701b03808260701c1691166124a7565b600f55610d4f565b91509192938882813d8311610de3575b610dcd8183611ad4565b81010312610558575051610d4a9392915f610d3f565b503d610dc3565b8c513d87823e3d90fd5b92509290935081813d8311610e25575b610e0e8183611ad4565b810103126107d25751918a918e9190610d2d610d0b565b503d610e04565b8e513d89823e3d90fd5b8f5162461bcd60e51b81528084018e90526024808201527f54447265783a20494e53554646494349454e545f4c49515549444954595f42556044820152631493915160e21b6064820152608490fd5b508d1515610c7c565b909b508a81813d8311610eb6575b610ea68183611ad4565b810103126107d257519a5f610c2b565b503d610e9c565b909a508881813d8311610ee9575b610ed58183611ad4565b81010312610ee55751995f610beb565b8480fd5b503d610ecb565b8382346104fd57816003193601126104fd57602090600a549051908152f35b5090346102e65760203660031901126102e65760209282916001600160a01b03610f37611b3d565b168252845220549051908152f35b8382346104fd57816003193601126104fd57602090600f549051908152f35b8382346104fd5760203660031901126104fd5760209181906001600160a01b03610f8c611b3d565b1681526001845220549051908152f35b50346102e65760603660031901126102e6578135602435906044359360018060a01b039384861695868103610a0757610fd9600160105414611c9b565b87601055831595868097611349575b61133a5761100b600c546001600160701b0391828216928260701c169160e01c90565b50916001600160701b039889831694858910158061132e575b611312578260065416926007541691838d148015611309575b6112f657156112e6575b89806112d1575b505085519687926370a0823160e01b8452308285015283602460209a8b935afa918d83156112c65790899193611295575b600b548951627eeac760e11b81523085820190815260208101929092529550859190829081906040015b03915afa92831561128b578d93611258575b506110c6898761232a565b821115611251576110e06110da8a8861232a565b8361232a565b9a5b8516958d6110f08c8961232a565b851115905061124a5761110c6111068c8961232a565b8561232a565b965b8c1580611242575b6112325761115e9061115861113d8f61113761113189612469565b91612488565b90612417565b61115261114989612469565b6111378d612488565b906124a7565b926124a7565b90620f4240918281029281840481148215171561121d578304036111e357106111d557509061118e939291611d7b565b600b54928251968752860152840152606083015260808201527fd8a2619bb81b7ab8223519302707bc92744bb4c9e8f4dff2f582d261953c54c960a03392a3600160105580f35b865163de92078f60e01b8152fd5b885162461bcd60e51b81528084018b9052601460248201527364732d6d6174682d6d756c2d6f766572666c6f7760601b6044820152606490fd5b5050634e487b7160e01b8f526011835260248ffd5b88516341f8d06560e11b81528390fd5b508715611116565b8d9661110e565b8c9a6110e2565b9092508781813d8311611284575b6112708183611ad4565b810103126112805751915f6110bb565b8c80fd5b503d611266565b87513d8f823e3d90fd5b925083813d83116112bf575b6112ab8183611ad4565b8101031261128057876110a993519261107f565b503d6112a1565b8851903d90823e3d90fd5b600b546112df92308561219c565b5f8961104e565b6112f189828561208b565b611047565b875160016235116560e11b031981528990fd5b50828d1461103d565b6044888b8b8a5192639499bf7160e01b84528301526024820152fd5b508a85168a1015611024565b505051630f201e0960e01b8152fd5b508515610fe8565b50346102e65760209182600319360112610a1c5760249293611371611b3d565b91611380600160105414611c9b565b816010556113a3600c546001600160701b0391828216928260701c169160e01c90565b5060065486516370a0823160e01b81523085820152979192916001600160a01b03918a918a91829085165afa9788156115d35790899186996115dd575b50600754600b548951627eeac760e11b8152308189019081526020810192909252969594939287921690829081906040015b03915afa9384156115d35785946115a4575b506001600160701b03938482169861143c8a82612417565b978685169561144b8785612417565b986114568787611eda565b9781549d8e155f146115665750506114766114718b8d6124a7565b612357565b6103e7198101908111611553578e82919e611490906123b0565b8255818052600181528d808320546114a7906123b0565b90838052600183528320558d51906103e882525f8051602061252b83398151915291a35b8b156115455750906114e38b6114e896959493611cf5565b611d7b565b611527575b508251918252848201527f4c209b5fc8ad50758f13e2e1088ba56a560dff690a1c6fef26394f4c03821c4f823392a2600160105551908152f35b61153c90600c5490808260701c1691166124a7565b600f555f6114ed565b8a516313cd809560e31b8152fd5b506011602492634e487b7160e01b835252fd5b9061157f8f949f61158b938f6115849261157f916124a7565b611cd7565b948d6124a7565b90508082101561159d57505b9a6114cb565b9050611597565b9093508881813d83116115cc575b6115bc8183611ad4565b81010312610ee55751925f611424565b503d6115b2565b87513d87823e3d90fd5b828193929a503d8311611609575b6115f58183611ad4565b81010312610ee557519688906114126113e0565b503d6115eb565b8382346104fd57816003193601126104fd57602090600e549051908152f35b8382346104fd57816003193601126104fd57602090600d549051908152f35b8382346104fd57816003193601126104fd576020906003549051908152f35b8382346104fd57816003193601126104fd576020905160128152f35b8382346104fd57816003193601126104fd57602090517f6e71edae12b1b97f4d1f60370fef10105fa2faae0126114a169c64845d6126c98152f35b8382346104fd5760603660031901126104fd57610b106116e2611b3d565b6116ea611b53565b6044359160018060a01b038116808752856020976002895281812033825289525f19828220540361171e575b505050611c33565b82815260028952818120338252895261173a8683832054612417565b9281526002895281812033825289522055868581611716565b8382346104fd57816003193601126104fd57602091549051908152f35b8382346104fd57816003193601126104fd576020906009549051908152f35b50346102e657806003193601126102e65767ffffffffffffffff918035838111610ee55736602382011215610ee557808201359360246117ce86611b69565b926117db86519485611ad4565b868452602096828886019160051b8301019136831161195a578301905b82821061195e5750505080359182116107d257366023830112156107d257818401359161182483611b69565b9261183187519485611ad4565b808452828885019160051b8301019136831161195a5783899101915b83831061194a575050505060089060ff825460a01c161561193a57835190835182810361191f575050155b8015611882578780f35b81546118e39088906001600160a01b039081169061189f88612309565b5116906118ab87612309565b518a5163a9059cbb60e01b81526001600160a01b03909316838b0190815260208101919091529193849283918e918391604090910190565b03925af18015611915576118f8575b50611878565b61190e90883d8a1161048e5761047e8183611ad4565b505f6118f2565b87513d8b823e3d90fd5b91869160449389519363963f39bf60e01b8552840152820152fd5b8551633ae4444960e11b81528590fd5b823581529181019189910161184d565b8980fd5b81356001600160a01b038116810361197d5781529088019088016117f8565b8a80fd5b8382346104fd57816003193601126104fd5760065490516001600160a01b039091168152602090f35b8382346104fd57806003193601126104fd57602090610b106119ca611b3d565b6024359033611be0565b508234610558578060031936011261055857606063ffffffff83611a0d600c546001600160701b0391828216928260701c169160e01c90565b9093918351946001600160701b0380921686521660208501521690820152f35b8382346104fd57816003193601126104fd578051610b5491611a4e82611aa4565b60068252650a85a88e4caf60d31b60208301525191829182611af6565b849084346102e65760203660031901126102e65735916001600160e01b0319831683036105585750611a9e602092612337565b15158152f35b6040810190811067ffffffffffffffff821117611ac057604052565b634e487b7160e01b5f52604160045260245ffd5b90601f8019910116810190811067ffffffffffffffff821117611ac057604052565b602080825282518183018190529093925f5b828110611b2957505060409293505f838284010152601f8019910116010190565b818101860151848201604001528501611b08565b600435906001600160a01b038216820361029757565b602435906001600160a01b038216820361029757565b67ffffffffffffffff8111611ac05760051b60200190565b9181601f840112156102975782359167ffffffffffffffff8311610297576020808501948460051b01011161029757565b9181601f840112156102975782359167ffffffffffffffff8311610297576020838186019501011161029757565b909160207f8c5be1e5ebec7d5bd14f71427d1e84f3dd0314c0f7b2291e5b200ac8c7c3b9259160018060a01b0380941693845f526002835260405f20951694855f5282528060405f2055604051908152a3565b909160205f8051602061252b8339815191529160018060a01b03809416935f9585875260018452611c68836040892054612417565b86885260018552604088205516948581526040611c888382842054612402565b91878152600185522055604051908152a3565b15611ca257565b60405162461bcd60e51b815260206004820152600d60248201526c15111c995e0e881313d0d2d151609a1b6044820152606490fd5b8115611ce1570490565b634e487b7160e01b5f52601260045260245ffd5b5f8051602061252b83398151915260205f92611d12858554612402565b845560018060a01b03169384845260018252611d32816040862054612402565b858552600183526040852055604051908152a3565b81810292918115918404141715611d5a57565b634e487b7160e01b5f52601160045260245ffd5b91908201809211611d5a57565b916001600160701b03908184118015611eb2575b611e945763ffffffff93600c5460e01c8542160391858311611d5a577f1c411e9a96e071241c2f21f7726b17ae89e3cab4c78be50e062b03a9fffbbad19660409685941680151580611e89575b80611e7e575b611e25575b505050607093841b600160701b600160e01b031691169081174260e01b6001600160e01b03191617600c819055845191825290921c166020820152a1565b611e7392611e6b926001600160e01b0391611e559190611e5090611e63611e5b8787878587896124dd565b61250c565b16611d47565b600d54611d6e565b600d556124dd565b600e54611d6e565b600e555f8080611de7565b508482161515611de2565b508483161515611ddc565b60448484604051916352939d7760e01b835260048301526024820152fd5b50818311611d8f565b9081602091031261029757516001600160a01b03811681036102975790565b600554604051622fcfcb60e31b815292939291906001600160a01b03906020908490600490829085165afa928315612029575f93612009575b508216151593600f5491855f14611ff95782611f30575b50505050565b611471611f4d91611f53936001600160701b0380911691166124a7565b91612357565b90818111611f62575b80611f2a565b611f715f546111528484612417565b90600581029080820460051481151715611d5a576005820403611fbd57611fa192611f9b91612402565b90611cd7565b80611fad575b80611f5c565b611fb691611cf5565b5f80611fa7565b60405162461bcd60e51b815260206004820152601460248201527364732d6d6174682d6d756c2d6f766572666c6f7760601b6044820152606490fd5b5050905061200357565b5f600f55565b61202291935060203d81116104f6576104e88183611ad4565b915f611f13565b6040513d5f823e3d90fd5b3d1561206e573d9067ffffffffffffffff8211611ac05760405191612063601f8201601f191660200184611ad4565b82523d5f602084013e565b606090565b90816020910312610297575180151581036102975790565b5f92918361210061210e82957f7472616e7366657228616464726573732c75696e74323536290000000000000060206040516120c681611aa4565b60198152015260405163a9059cbb60e01b602082019081526001600160a01b03909616602482015260448101919091529182906064820190565b03601f198101835282611ad4565b51925af161211a612034565b8161216d575b501561212857565b60405162461bcd60e51b815260206004820152601c60248201527f54447265783a2045524332305f5452414e534645525f4641494c4544000000006044820152606490fd5b8051801592508215612182575b50505f612120565b6121959250602080918301019101612073565b5f8061217a565b90604094855194606086019567ffffffffffffffff9681811088821117611ac0578852603781527f2c75696e743235362c75696e743235362c6279746573290000000000000000008860208301927f736166655472616e7366657246726f6d28616464726573732c6164647265737384520152603763ffffffff60e01b912016928751956020870194855260018060a01b0380921660248801521660448601526064850152608484015260a060a4840152600260c484015261060f60f31b60e484015260e4835261012083019383851090851117611ac0575f8094938194875251925af1612288612034565b816122da575b50156122975750565b5162461bcd60e51b815260206004820152601e60248201527f54447265783a20455243313135355f5452414e534645525f4641494c454400006044820152606490fd5b80518015925082156122ef575b50505f61228e565b6123029250602080918301019101612073565b5f806122e7565b8051156123165760200190565b634e487b7160e01b5f52603260045260245ffd5b91908203918211611d5a57565b6001600160e01b0319166336372b0760e01b14612352575f90565b600190565b905f60038311156123a357508160019080821c828101809111611d5a5791905b84831061238357505050565b9091935061239a846123958184611cd7565b611d6e565b821c9190612377565b916123aa57565b60019150565b906103e8820191828111611d5a5782106123c657565b60405162461bcd60e51b815260206004820152601460248201527364732d6d6174682d6164642d6f766572666c6f7760601b6044820152606490fd5b919061240e9083611d6e565b9182106123c657565b9190612423908361232a565b91821161242c57565b60405162461bcd60e51b815260206004820152601560248201527464732d6d6174682d7375622d756e646572666c6f7760581b6044820152606490fd5b906103e89182810292818404811482151715611d5a57830403611fbd57565b90600382029180830460031481151715611d5a576003830403611fbd57565b5f929180159182156124bd575b505015611fbd57565b915092506124d56124ce8483611d47565b9384611cd7565b145f806124b4565b600160701b600160e01b03607082901b16906001600160701b0316808204600160701b1490151715611d5a5790565b906001600160701b0316908115611ce1576001600160e01b0316049056feddf252ad1be2c89b69c2b068fc378daa952ba7f163c4a11628f55a4df523b3efa2646970667358221220331da0b7f1176d48e8a2703811379f08232cca891ae5dc618331ee358b27c3e664736f6c63430008150033a2646970667358221220f7101769012e0fbd003d95e7e228947f0ac0f27c5aa72a9dfa2778abda9f744664736f6c63430008150033",
			"opcodes": "PUSH1 0x80 CALLVALUE PUSH2 0x8D JUMPI PUSH1 0x1F PUSH2 0x2EF2 CODESIZE DUP2 SWAP1 SUB SWAP2 DUP3 ADD PUSH1 0x1F NOT AND DUP4 ADD SWAP2 PUSH1 0x1 PUSH1 0x1 PUSH1 0x40 SHL SUB DUP4 GT DUP5 DUP5 LT OR PUSH2 0x91 JUMPI DUP1 DUP5 SWAP3 PUSH1 0x40 SWAP5 DUP6 MSTORE DUP4 CODECOPY DUP2 ADD SUB SLT PUSH2 0x8D JUMPI PUSH2 0x52 PUSH1 0x20 PUSH2 0x4B DUP4 PUSH2 0xA5 JUMP JUMPDEST SWAP3 ADD PUSH2 0xA5 JUMP JUMPDEST PUSH1 0x1 DUP1 SLOAD PUSH1 0x1 PUSH1 0x1 PUSH1 0xA0 SHL SUB SWAP4 DUP5 AND PUSH1 0x1 PUSH1 0x1 PUSH1 0xA0 SHL SUB NOT SWAP2 DUP3 AND OR SWAP1 SWAP2 SSTORE PUSH1 0x2 DUP1 SLOAD SWAP3 SWAP1 SWAP4 AND SWAP2 AND OR SWAP1 SSTORE PUSH1 0x40 MLOAD PUSH2 0x2E38 SWAP1 DUP2 PUSH2 0xBA DUP3 CODECOPY RETURN JUMPDEST PUSH0 DUP1 REVERT JUMPDEST PUSH4 0x4E487B71 PUSH1 0xE0 SHL PUSH0 MSTORE PUSH1 0x41 PUSH1 0x4 MSTORE PUSH1 0x24 PUSH0 REVERT JUMPDEST MLOAD SWAP1 PUSH1 0x1 PUSH1 0x1 PUSH1 0xA0 SHL SUB DUP3 AND DUP3 SUB PUSH2 0x8D JUMPI JUMP INVALID PUSH1 0x80 PUSH1 0x40 MSTORE PUSH1 0x4 CALLDATASIZE LT ISZERO PUSH2 0x11 JUMPI PUSH0 DUP1 REVERT JUMPDEST PUSH0 DUP1 CALLDATALOAD PUSH1 0xE0 SHR SWAP1 DUP2 PUSH4 0x17E7E58 EQ PUSH2 0xA7 JUMPI POP DUP1 PUSH4 0x94B7415 EQ PUSH2 0xA2 JUMPI DUP1 PUSH4 0x1E3DD18B EQ PUSH2 0x9D JUMPI DUP1 PUSH4 0x4B77FA8B EQ PUSH2 0x98 JUMPI DUP1 PUSH4 0x574F2BA3 EQ PUSH2 0x93 JUMPI DUP1 PUSH4 0x5ECED480 EQ PUSH2 0x8E JUMPI DUP1 PUSH4 0xA2E74AF6 EQ PUSH2 0x89 JUMPI DUP1 PUSH4 0xAE062D76 EQ PUSH2 0x84 JUMPI PUSH4 0xF46901ED EQ PUSH2 0x7F JUMPI PUSH0 DUP1 REVERT JUMPDEST PUSH2 0x618 JUMP JUMPDEST PUSH2 0x5F0 JUMP JUMPDEST PUSH2 0x59B JUMP JUMPDEST PUSH2 0x539 JUMP JUMPDEST PUSH2 0x51C JUMP JUMPDEST PUSH2 0x18A JUMP JUMPDEST PUSH2 0x104 JUMP JUMPDEST PUSH2 0xDC JUMP JUMPDEST CALLVALUE PUSH2 0xCB JUMPI DUP1 PUSH1 0x3 NOT CALLDATASIZE ADD SLT PUSH2 0xCB JUMPI SLOAD PUSH1 0x1 PUSH1 0x1 PUSH1 0xA0 SHL SUB AND PUSH1 0x80 SWAP1 DUP2 MSTORE PUSH1 0x20 SWAP1 RETURN JUMPDEST DUP1 REVERT JUMPDEST PUSH0 SWAP2 SUB SLT PUSH2 0xD8 JUMPI JUMP JUMPDEST PUSH0 DUP1 REVERT JUMPDEST CALLVALUE PUSH2 0xD8 JUMPI PUSH0 CALLDATASIZE PUSH1 0x3 NOT ADD SLT PUSH2 0xD8 JUMPI PUSH1 0x1 SLOAD PUSH1 0x40 MLOAD PUSH1 0x1 PUSH1 0x1 PUSH1 0xA0 SHL SUB SWAP1 SWAP2 AND DUP2 MSTORE PUSH1 0x20 SWAP1 RETURN JUMPDEST CALLVALUE PUSH2 0xD8 JUMPI PUSH1 0x20 CALLDATASIZE PUSH1 0x3 NOT ADD SLT PUSH2 0xD8 JUMPI PUSH1 0x4 CALLDATALOAD PUSH1 0x4 SLOAD DUP2 LT ISZERO PUSH2 0xD8 JUMPI PUSH1 0x4 PUSH0 MSTORE PUSH32 0x8A35ACFBC15FF81A39AE7D344FD709F28E8600B4AA8C65C6B64BFE7FE36BD19B ADD SLOAD PUSH1 0x40 MLOAD PUSH1 0x1 PUSH1 0x1 PUSH1 0xA0 SHL SUB SWAP1 SWAP2 AND DUP2 MSTORE PUSH1 0x20 SWAP1 RETURN JUMPDEST PUSH1 0x4 CALLDATALOAD SWAP1 PUSH1 0x1 PUSH1 0x1 PUSH1 0xA0 SHL SUB DUP3 AND DUP3 SUB PUSH2 0xD8 JUMPI JUMP JUMPDEST PUSH1 0x24 CALLDATALOAD SWAP1 PUSH1 0x1 PUSH1 0x1 PUSH1 0xA0 SHL SUB DUP3 AND DUP3 SUB PUSH2 0xD8 JUMPI JUMP JUMPDEST CALLVALUE PUSH2 0xD8 JUMPI PUSH1 0xA0 CALLDATASIZE PUSH1 0x3 NOT ADD SLT PUSH2 0xD8 JUMPI PUSH2 0x1A3 PUSH2 0x15E JUMP JUMPDEST PUSH2 0x1AB PUSH2 0x174 JUMP JUMPDEST PUSH1 0x44 CALLDATALOAD SWAP2 PUSH1 0x64 CALLDATALOAD SWAP1 PUSH1 0x84 CALLDATALOAD SWAP1 PUSH2 0x1C0 CALLER PUSH2 0x75F JUMP JUMPDEST PUSH1 0x1 PUSH1 0x1 PUSH1 0xA0 SHL SUB DUP2 DUP2 AND SWAP4 SWAP1 DUP6 DUP2 AND DUP6 EQ PUSH2 0x50A JUMPI DUP7 ISZERO DUP1 ISZERO PUSH2 0x502 JUMPI JUMPDEST PUSH2 0x4F0 JUMPI PUSH1 0x40 DUP1 MLOAD PUSH4 0x1FFC9A7 PUSH1 0xE0 SHL DUP2 MSTORE PUSH4 0x6CDB3D13 PUSH1 0xE1 SHL PUSH1 0x4 DUP3 ADD MSTORE SWAP1 SWAP6 PUSH1 0x20 SWAP5 SWAP2 SWAP1 PUSH0 SWAP1 DUP7 SWAP1 DUP4 SWAP1 PUSH1 0x24 SWAP1 DUP3 SWAP1 GAS STATICCALL SWAP1 SWAP2 DUP2 PUSH2 0x4C1 JUMPI JUMPDEST POP PUSH2 0x4AE JUMPI POP SWAP6 JUMPDEST DUP2 DUP8 AND SWAP4 DUP5 ISZERO DUP1 ISZERO PUSH2 0x4A4 JUMPI JUMPDEST PUSH2 0x493 JUMPI PUSH2 0x296 PUSH2 0x28A PUSH2 0x27D DUP9 PUSH2 0x270 DUP7 PUSH2 0x25B DUP15 PUSH1 0x1 DUP1 PUSH1 0xA0 SHL SUB AND PUSH0 MSTORE PUSH1 0x3 PUSH1 0x20 MSTORE PUSH1 0x40 PUSH0 KECCAK256 SWAP1 JUMP JUMPDEST SWAP1 PUSH1 0x1 DUP1 PUSH1 0xA0 SHL SUB AND PUSH0 MSTORE PUSH1 0x20 MSTORE PUSH1 0x40 PUSH0 KECCAK256 SWAP1 JUMP JUMPDEST SWAP1 PUSH0 MSTORE PUSH1 0x20 MSTORE PUSH1 0x40 PUSH0 KECCAK256 SWAP1 JUMP JUMPDEST SLOAD PUSH1 0x1 PUSH1 0x1 PUSH1 0xA0 SHL SUB AND SWAP1 JUMP JUMPDEST PUSH1 0x1 PUSH1 0x1 PUSH1 0xA0 SHL SUB AND SWAP1 JUMP JUMPDEST PUSH2 0x482 JUMPI PUSH2 0x268C DUP9 DUP4 PUSH2 0x303 PUSH2 0x2AD DUP6 DUP6 ADD PUSH2 0x6D3 JUMP JUMPDEST SWAP5 DUP5 DUP7 MSTORE DUP1 DUP7 ADD SWAP5 PUSH2 0x777 DUP7 CODECOPY PUSH2 0x2F5 DUP12 DUP14 MLOAD SWAP5 DUP6 SWAP4 DUP5 ADD SWAP7 DUP8 SWAP2 SWAP1 PUSH1 0x48 SWAP4 SWAP2 PUSH12 0xFFFFFFFFFFFFFFFFFFFFFFFF NOT DUP1 SWAP3 PUSH1 0x60 SHL AND DUP5 MSTORE PUSH1 0x60 SHL AND PUSH1 0x14 DUP4 ADD MSTORE PUSH1 0x28 DUP3 ADD MSTORE ADD SWAP1 JUMP JUMPDEST SUB PUSH1 0x1F NOT DUP2 ADD DUP4 MSTORE DUP3 PUSH2 0x68E JUMP JUMPDEST MLOAD SWAP1 KECCAK256 SWAP2 MLOAD SWAP1 PUSH0 CREATE2 SWAP7 DUP3 DUP9 AND SWAP9 DUP10 EXTCODESIZE ISZERO PUSH2 0xD8 JUMPI DUP8 MLOAD PUSH4 0x344FE42D PUSH1 0xE2 SHL DUP2 MSTORE PUSH1 0x1 PUSH1 0x1 PUSH1 0xA0 SHL SUB DUP4 DUP2 AND PUSH1 0x4 DUP4 ADD MSTORE DUP5 AND PUSH1 0x24 DUP3 ADD MSTORE PUSH1 0x44 DUP2 ADD DUP3 SWAP1 MSTORE PUSH1 0x64 DUP2 ADD DUP7 SWAP1 MSTORE PUSH1 0x84 DUP2 ADD DUP9 SWAP1 MSTORE SWAP10 PUSH0 SWAP1 DUP12 SWAP1 PUSH1 0xA4 SWAP1 DUP3 SWAP1 DUP5 SWAP1 GAS CALL SWAP5 DUP6 ISZERO PUSH2 0x47D JUMPI PUSH2 0x404 DUP11 PUSH2 0x3C9 DUP11 PUSH2 0x270 PUSH2 0x460 SWAP16 SWAP8 PUSH2 0x3E8 DUP6 PUSH2 0x3C9 DUP6 PUSH32 0x8A38FCA419462C383787E71F5B2D201679CB27D9A0B77168DA94DE03B0F077BF SWAP16 DUP15 PUSH2 0x445 SWAP15 PUSH2 0x270 SWAP3 PUSH2 0x464 JUMPI JUMPDEST POP PUSH1 0x1 PUSH1 0x1 PUSH1 0xA0 SHL SUB DUP8 AND PUSH0 SWAP1 DUP2 MSTORE PUSH1 0x3 PUSH1 0x20 MSTORE PUSH1 0x40 SWAP1 KECCAK256 PUSH2 0x25B JUMP JUMPDEST DUP1 SLOAD PUSH1 0x1 PUSH1 0x1 PUSH1 0xA0 SHL SUB NOT AND PUSH1 0x1 PUSH1 0x1 PUSH1 0xA0 SHL SUB SWAP1 SWAP3 AND SWAP2 SWAP1 SWAP2 OR SWAP1 SSTORE JUMP JUMPDEST PUSH1 0x1 PUSH1 0x1 PUSH1 0xA0 SHL SUB DUP11 AND PUSH0 SWAP1 DUP2 MSTORE PUSH1 0x3 PUSH1 0x20 MSTORE PUSH1 0x40 SWAP1 KECCAK256 PUSH2 0x25B JUMP JUMPDEST PUSH2 0x40D DUP11 PUSH2 0x6E3 JUMP JUMPDEST PUSH1 0x4 SLOAD DUP10 MLOAD PUSH1 0x1 PUSH1 0x1 PUSH1 0xA0 SHL SUB DUP13 AND DUP2 MSTORE PUSH1 0x20 DUP2 ADD SWAP10 SWAP1 SWAP10 MSTORE PUSH1 0x40 DUP10 ADD SWAP3 SWAP1 SWAP3 MSTORE PUSH1 0x60 DUP9 ADD MSTORE PUSH1 0x80 DUP8 ADD MSTORE SWAP2 AND SWAP4 SWAP1 DUP2 SWAP1 PUSH1 0xA0 DUP3 ADD SWAP1 JUMP JUMPDEST SUB SWAP1 LOG3 MLOAD PUSH1 0x1 PUSH1 0x1 PUSH1 0xA0 SHL SUB SWAP1 SWAP2 AND DUP2 MSTORE SWAP1 DUP2 SWAP1 PUSH1 0x20 DUP3 ADD SWAP1 JUMP JUMPDEST SUB SWAP1 RETURN JUMPDEST DUP1 PUSH2 0x471 PUSH2 0x477 SWAP3 PUSH2 0x675 JUMP JUMPDEST DUP1 PUSH2 0xCE JUMP JUMPDEST PUSH0 PUSH2 0x3AC JUMP JUMPDEST PUSH2 0x6C8 JUMP JUMPDEST DUP7 MLOAD PUSH4 0x8E38F673 PUSH1 0xE0 SHL DUP2 MSTORE PUSH1 0x4 SWAP1 REVERT JUMPDEST DUP7 MLOAD PUSH4 0xA4CD35B PUSH1 0xE2 SHL DUP2 MSTORE PUSH1 0x4 SWAP1 REVERT JUMPDEST POP DUP3 DUP3 AND ISZERO PUSH2 0x22F JUMP JUMPDEST SWAP1 SWAP7 SWAP1 ISZERO PUSH2 0x4BC JUMPI SWAP6 PUSH2 0x222 JUMP JUMPDEST PUSH2 0x222 JUMP JUMPDEST PUSH2 0x4E2 SWAP2 SWAP3 POP DUP7 RETURNDATASIZE DUP9 GT PUSH2 0x4E9 JUMPI JUMPDEST PUSH2 0x4DA DUP2 DUP4 PUSH2 0x68E JUMP JUMPDEST DUP2 ADD SWAP1 PUSH2 0x6B0 JUMP JUMPDEST SWAP1 PUSH0 PUSH2 0x21A JUMP JUMPDEST POP RETURNDATASIZE PUSH2 0x4D0 JUMP JUMPDEST PUSH1 0x40 MLOAD PUSH4 0x49ECD267 PUSH1 0xE1 SHL DUP2 MSTORE PUSH1 0x4 SWAP1 REVERT JUMPDEST POP DUP2 ISZERO PUSH2 0x1DF JUMP JUMPDEST PUSH1 0x40 MLOAD PUSH4 0xE22B04C9 PUSH1 0xE0 SHL DUP2 MSTORE PUSH1 0x4 SWAP1 REVERT JUMPDEST CALLVALUE PUSH2 0xD8 JUMPI PUSH0 CALLDATASIZE PUSH1 0x3 NOT ADD SLT PUSH2 0xD8 JUMPI PUSH1 0x20 PUSH1 0x4 SLOAD PUSH1 0x40 MLOAD SWAP1 DUP2 MSTORE RETURN JUMPDEST CALLVALUE PUSH2 0xD8 JUMPI PUSH1 0x60 CALLDATASIZE PUSH1 0x3 NOT ADD SLT PUSH2 0xD8 JUMPI PUSH1 0x20 PUSH2 0x554 PUSH2 0x15E JUMP JUMPDEST PUSH2 0x586 PUSH2 0x55F PUSH2 0x174 JUMP JUMPDEST PUSH1 0x1 PUSH1 0x1 PUSH1 0xA0 SHL SUB SWAP3 DUP4 AND PUSH0 SWAP1 DUP2 MSTORE PUSH1 0x3 DUP6 MSTORE PUSH1 0x40 DUP1 DUP3 KECCAK256 SWAP3 DUP6 AND DUP3 MSTORE PUSH1 0x20 SWAP3 SWAP1 SWAP3 MSTORE KECCAK256 SWAP1 JUMP JUMPDEST PUSH1 0x44 CALLDATALOAD PUSH0 MSTORE DUP3 MSTORE PUSH1 0x40 PUSH0 KECCAK256 SLOAD AND PUSH1 0x40 MLOAD SWAP1 DUP2 MSTORE RETURN JUMPDEST CALLVALUE PUSH2 0xD8 JUMPI PUSH1 0x20 CALLDATASIZE PUSH1 0x3 NOT ADD SLT PUSH2 0xD8 JUMPI PUSH2 0x5B4 PUSH2 0x15E JUMP JUMPDEST PUSH1 0x1 SLOAD SWAP1 PUSH1 0x1 PUSH1 0x1 PUSH1 0xA0 SHL SUB SWAP1 DUP2 DUP4 AND CALLER SUB PUSH2 0x5DE JUMPI PUSH1 0x1 PUSH1 0x1 PUSH1 0xA0 SHL SUB NOT SWAP1 SWAP3 AND SWAP2 AND OR PUSH1 0x1 SSTORE STOP JUMPDEST PUSH1 0x40 MLOAD PUSH4 0x24EF589F PUSH1 0xE0 SHL DUP2 MSTORE PUSH1 0x4 SWAP1 REVERT JUMPDEST CALLVALUE PUSH2 0xD8 JUMPI PUSH0 CALLDATASIZE PUSH1 0x3 NOT ADD SLT PUSH2 0xD8 JUMPI PUSH1 0x2 SLOAD PUSH1 0x40 MLOAD PUSH1 0x1 PUSH1 0x1 PUSH1 0xA0 SHL SUB SWAP1 SWAP2 AND DUP2 MSTORE PUSH1 0x20 SWAP1 RETURN JUMPDEST CALLVALUE PUSH2 0xD8 JUMPI PUSH1 0x20 CALLDATASIZE PUSH1 0x3 NOT ADD SLT PUSH2 0xD8 JUMPI PUSH2 0x631 PUSH2 0x15E JUMP JUMPDEST PUSH1 0x1 SLOAD PUSH1 0x1 PUSH1 0x1 PUSH1 0xA0 SHL SUB SWAP2 SWAP1 DUP3 AND CALLER SUB PUSH2 0x5DE JUMPI AND PUSH12 0xFFFFFFFFFFFFFFFFFFFFFFFF PUSH1 0xA0 SHL PUSH0 SLOAD AND OR PUSH0 SSTORE PUSH0 DUP1 RETURN JUMPDEST PUSH4 0x4E487B71 PUSH1 0xE0 SHL PUSH0 MSTORE PUSH1 0x41 PUSH1 0x4 MSTORE PUSH1 0x24 PUSH0 REVERT JUMPDEST PUSH8 0xFFFFFFFFFFFFFFFF DUP2 GT PUSH2 0x689 JUMPI PUSH1 0x40 MSTORE JUMP JUMPDEST PUSH2 0x661 JUMP JUMPDEST SWAP1 PUSH1 0x1F DUP1 NOT SWAP2 ADD AND DUP2 ADD SWAP1 DUP2 LT PUSH8 0xFFFFFFFFFFFFFFFF DUP3 GT OR PUSH2 0x689 JUMPI PUSH1 0x40 MSTORE JUMP JUMPDEST SWAP1 DUP2 PUSH1 0x20 SWAP2 SUB SLT PUSH2 0xD8 JUMPI MLOAD DUP1 ISZERO ISZERO DUP2 SUB PUSH2 0xD8 JUMPI SWAP1 JUMP JUMPDEST PUSH1 0x40 MLOAD RETURNDATASIZE PUSH0 DUP3 RETURNDATACOPY RETURNDATASIZE SWAP1 REVERT JUMPDEST SWAP1 PUSH2 0x6E1 PUSH1 0x40 MLOAD SWAP3 DUP4 PUSH2 0x68E JUMP JUMPDEST JUMP JUMPDEST PUSH1 0x4 SLOAD PUSH9 0x10000000000000000 DUP2 LT ISZERO PUSH2 0x689 JUMPI PUSH1 0x1 DUP2 ADD DUP1 PUSH1 0x4 SSTORE DUP2 LT ISZERO PUSH2 0x74B JUMPI PUSH1 0x4 PUSH0 MSTORE PUSH32 0x8A35ACFBC15FF81A39AE7D344FD709F28E8600B4AA8C65C6B64BFE7FE36BD19B ADD DUP1 SLOAD PUSH1 0x1 PUSH1 0x1 PUSH1 0xA0 SHL SUB NOT AND PUSH1 0x1 PUSH1 0x1 PUSH1 0xA0 SHL SUB SWAP1 SWAP3 AND SWAP2 SWAP1 SWAP2 OR SWAP1 SSTORE JUMP JUMPDEST PUSH4 0x4E487B71 PUSH1 0xE0 SHL PUSH0 MSTORE PUSH1 0x32 PUSH1 0x4 MSTORE PUSH1 0x24 PUSH0 REVERT JUMPDEST PUSH1 0x2 SLOAD PUSH1 0x1 PUSH1 0x1 PUSH1 0xA0 SHL SUB SWAP1 DUP2 AND SWAP2 AND SUB PUSH2 0x5DE JUMPI JUMP INVALID PUSH1 0x80 DUP1 PUSH1 0x40 MSTORE CALLVALUE PUSH3 0xEB JUMPI PUSH1 0x20 DUP2 PUSH3 0x1B PUSH1 0x6 SWAP4 PUSH3 0xEF JUMP JUMPDEST DUP3 DUP2 MSTORE ADD PUSH6 0xA85A88E4CAF PUSH1 0xD3 SHL DUP2 MSTORE KECCAK256 PUSH1 0x1 PUSH1 0x20 PUSH1 0x40 MLOAD PUSH3 0x3E DUP2 PUSH3 0xEF JUMP JUMPDEST DUP3 DUP2 MSTORE ADD PUSH1 0x31 PUSH1 0xF8 SHL DUP2 MSTORE KECCAK256 SWAP1 PUSH1 0x40 MLOAD SWAP2 PUSH1 0x20 DUP4 ADD SWAP2 PUSH32 0x8B73C3C69BB8FE3D512ECC4CF759CC79239F7B179B0FFACAA9A75D522B39400F DUP4 MSTORE PUSH1 0x40 DUP5 ADD MSTORE PUSH1 0x60 DUP4 ADD MSTORE CHAINID PUSH1 0x80 DUP4 ADD MSTORE ADDRESS PUSH1 0xA0 DUP4 ADD MSTORE PUSH1 0xA0 DUP3 MSTORE PUSH1 0xC0 DUP3 ADD SWAP2 DUP1 DUP4 LT PUSH1 0x1 DUP1 PUSH1 0x40 SHL SUB DUP5 GT OR PUSH3 0xD7 JUMPI PUSH1 0x40 DUP4 SWAP1 MSTORE MLOAD SWAP1 KECCAK256 PUSH1 0x3 SSTORE PUSH1 0x1 PUSH1 0x10 SSTORE PUSH1 0x5 DUP1 SLOAD PUSH1 0x1 PUSH1 0x1 PUSH1 0xA0 SHL SUB NOT AND CALLER OR SWAP1 SSTORE PUSH2 0x2580 SWAP1 DUP2 PUSH3 0x10C DUP3 CODECOPY RETURN JUMPDEST PUSH4 0x4E487B71 PUSH1 0xE0 SHL PUSH0 MSTORE PUSH1 0x41 PUSH1 0x4 MSTORE PUSH1 0x24 PUSH0 REVERT JUMPDEST PUSH0 DUP1 REVERT JUMPDEST PUSH1 0x40 DUP2 ADD SWAP1 DUP2 LT PUSH1 0x1 PUSH1 0x1 PUSH1 0x40 SHL SUB DUP3 GT OR PUSH3 0xD7 JUMPI PUSH1 0x40 MSTORE JUMP INVALID PUSH1 0x80 PUSH1 0x40 DUP2 DUP2 MSTORE PUSH1 0x4 SWAP1 DUP2 CALLDATASIZE LT ISZERO PUSH2 0x15 JUMPI PUSH0 DUP1 REVERT JUMPDEST PUSH0 SWAP3 DUP4 CALLDATALOAD PUSH1 0xE0 SHR SWAP1 DUP2 PUSH4 0x1FFC9A7 EQ PUSH2 0x1A6B JUMPI POP DUP1 PUSH4 0x6FDDE03 EQ PUSH2 0x1A2D JUMPI DUP1 PUSH4 0x902F1AC EQ PUSH2 0x19D4 JUMPI DUP1 PUSH4 0x95EA7B3 EQ PUSH2 0x19AA JUMPI DUP1 PUSH4 0xDFE1681 EQ PUSH2 0x1981 JUMPI DUP1 PUSH4 0x143BA4F3 EQ PUSH2 0x178F JUMPI DUP1 PUSH4 0x175EC2A3 EQ PUSH2 0x1770 JUMPI DUP1 PUSH4 0x18160DDD EQ PUSH2 0x1753 JUMPI DUP1 PUSH4 0x23B872DD EQ PUSH2 0x16C4 JUMPI DUP1 PUSH4 0x30ADF81F EQ PUSH2 0x1689 JUMPI DUP1 PUSH4 0x313CE567 EQ PUSH2 0x166D JUMPI DUP1 PUSH4 0x3644E515 EQ PUSH2 0x164E JUMPI DUP1 PUSH4 0x5909C0D5 EQ PUSH2 0x162F JUMPI DUP1 PUSH4 0x5A3D5493 EQ PUSH2 0x1610 JUMPI DUP1 PUSH4 0x6A627842 EQ PUSH2 0x1351 JUMPI DUP1 PUSH4 0x6D9A640A EQ PUSH2 0xF9C JUMPI DUP1 PUSH4 0x70A08231 EQ PUSH2 0xF64 JUMPI DUP1 PUSH4 0x7464FC3D EQ PUSH2 0xF45 JUMPI DUP1 PUSH4 0x7ECEBE00 EQ PUSH2 0xF0F JUMPI DUP1 PUSH4 0x88BE4A7F EQ PUSH2 0xEF0 JUMPI DUP1 PUSH4 0x89AFCB44 EQ PUSH2 0xB58 JUMPI DUP1 PUSH4 0x95D89B41 EQ PUSH2 0xB17 JUMPI DUP1 PUSH4 0xA9059CBB EQ PUSH2 0xAE6 JUMPI DUP1 PUSH4 0xB3CEA217 EQ PUSH2 0xAC7 JUMPI DUP1 PUSH4 0xBA9A7A56 EQ PUSH2 0xAAA JUMPI DUP1 PUSH4 0xBC197C81 EQ PUSH2 0xA20 JUMPI DUP1 PUSH4 0xBC25CF77 EQ PUSH2 0x8AD JUMPI DUP1 PUSH4 0xC45A0155 EQ PUSH2 0x884 JUMPI DUP1 PUSH4 0xD13F90B4 EQ PUSH2 0x7FF JUMPI DUP1 PUSH4 0xD21220A7 EQ PUSH2 0x7D6 JUMPI DUP1 PUSH4 0xD505ACCF EQ PUSH2 0x5A4 JUMPI DUP1 PUSH4 0xDD62ED3E EQ PUSH2 0x55B JUMPI DUP1 PUSH4 0xF23A6E61 EQ PUSH2 0x501 JUMPI DUP1 PUSH4 0xFCF2CE04 EQ PUSH2 0x2EA JUMPI PUSH4 0xFFF6CAE9 EQ PUSH2 0x1A2 JUMPI PUSH0 DUP1 REVERT JUMPDEST CALLVALUE PUSH2 0x2E6 JUMPI DUP3 PUSH1 0x3 NOT CALLDATASIZE ADD SLT PUSH2 0x2E6 JUMPI PUSH2 0x1C0 PUSH1 0x1 PUSH1 0x10 SLOAD EQ PUSH2 0x1C9B JUMP JUMPDEST PUSH1 0x10 DUP4 SWAP1 SSTORE PUSH1 0x6 SLOAD DUP2 MLOAD PUSH4 0x70A08231 PUSH1 0xE0 SHL DUP2 MSTORE ADDRESS DUP5 DUP3 ADD MSTORE SWAP1 PUSH1 0x20 SWAP1 PUSH1 0x1 PUSH1 0x1 PUSH1 0xA0 SHL SUB SWAP1 DUP3 SWAP1 DUP5 SWAP1 PUSH1 0x24 SWAP1 DUP3 SWAP1 DUP6 AND GAS STATICCALL SWAP3 DUP4 ISZERO PUSH2 0x2DC JUMPI DUP7 SWAP4 PUSH2 0x2AB JUMPI JUMPDEST POP PUSH1 0x7 SLOAD PUSH1 0xB SLOAD DUP6 MLOAD PUSH3 0x7EEAC7 PUSH1 0xE1 SHL DUP2 MSTORE ADDRESS SWAP8 DUP2 ADD SWAP8 DUP9 MSTORE PUSH1 0x20 DUP9 ADD SWAP2 SWAP1 SWAP2 MSTORE SWAP6 DUP4 SWAP3 DUP8 SWAP3 AND SWAP1 DUP3 SWAP1 DUP2 SWAP1 PUSH1 0x40 ADD JUMPDEST SUB SWAP2 GAS STATICCALL SWAP3 DUP4 ISZERO PUSH2 0x2A2 JUMPI POP DUP5 SWAP3 PUSH2 0x26C JUMPI JUMPDEST POP PUSH2 0x264 SWAP3 POP PUSH1 0xC SLOAD SWAP2 PUSH1 0x1 PUSH1 0x1 PUSH1 0x70 SHL SUB DUP1 DUP5 PUSH1 0x70 SHR AND SWAP4 AND SWAP2 PUSH2 0x1D7B JUMP JUMPDEST PUSH1 0x1 PUSH1 0x10 SSTORE DUP1 RETURN JUMPDEST SWAP1 SWAP2 POP DUP3 DUP2 RETURNDATASIZE DUP4 GT PUSH2 0x29B JUMPI JUMPDEST PUSH2 0x283 DUP2 DUP4 PUSH2 0x1AD4 JUMP JUMPDEST DUP2 ADD SUB SLT PUSH2 0x297 JUMPI PUSH2 0x264 SWAP2 MLOAD SWAP1 PUSH0 PUSH2 0x244 JUMP JUMPDEST PUSH0 DUP1 REVERT JUMPDEST POP RETURNDATASIZE PUSH2 0x279 JUMP JUMPDEST MLOAD RETURNDATASIZE DUP7 DUP3 RETURNDATACOPY RETURNDATASIZE SWAP1 REVERT JUMPDEST SWAP1 SWAP3 POP DUP2 DUP2 DUP2 RETURNDATASIZE DUP4 GT PUSH2 0x2D5 JUMPI JUMPDEST PUSH2 0x2C3 DUP2 DUP4 PUSH2 0x1AD4 JUMP JUMPDEST DUP2 ADD SUB SLT PUSH2 0x297 JUMPI MLOAD SWAP2 PUSH2 0x231 PUSH2 0x201 JUMP JUMPDEST POP RETURNDATASIZE PUSH2 0x2B9 JUMP JUMPDEST DUP5 MLOAD RETURNDATASIZE DUP9 DUP3 RETURNDATACOPY RETURNDATASIZE SWAP1 REVERT JUMPDEST DUP3 DUP1 REVERT JUMPDEST POP SWAP2 SWAP1 CALLVALUE PUSH2 0x4FD JUMPI DUP3 PUSH1 0x3 NOT CALLDATASIZE ADD SLT PUSH2 0x4FD JUMPI PUSH2 0x305 PUSH2 0x1B3D JUMP JUMPDEST SWAP3 PUSH2 0x314 PUSH1 0x1 PUSH1 0x10 SLOAD EQ PUSH2 0x1C9B JUMP JUMPDEST DUP3 PUSH1 0x10 SSTORE PUSH1 0x1 DUP1 PUSH1 0xA0 SHL SUB DUP1 PUSH1 0x5 SLOAD AND SWAP5 DUP3 MLOAD DUP1 SWAP7 PUSH4 0x570316BB PUSH1 0xE1 SHL DUP3 MSTORE DUP2 DUP7 PUSH1 0x20 SWAP10 DUP11 SWAP4 GAS STATICCALL SWAP1 DUP2 ISZERO PUSH2 0x2DC JUMPI SWAP1 DUP4 SWAP2 DUP8 SWAP2 PUSH2 0x4D0 JUMPI JUMPDEST POP AND CALLER SUB PUSH2 0x4C1 JUMPI PUSH1 0x44 DUP7 DUP4 PUSH1 0x7 SLOAD AND DUP6 MLOAD SWAP3 DUP4 DUP1 SWAP3 PUSH4 0xE985E9C5 PUSH1 0xE0 SHL DUP3 MSTORE ADDRESS DUP11 DUP4 ADD MSTORE CALLER PUSH1 0x24 DUP4 ADD MSTORE GAS STATICCALL SWAP1 DUP2 ISZERO PUSH2 0x2DC JUMPI DUP7 SWAP2 PUSH2 0x4A4 JUMPI JUMPDEST POP ISZERO PUSH2 0x495 JUMPI DUP2 AND SWAP5 DUP3 MLOAD PUSH4 0x23B872DD PUSH1 0xE0 SHL DUP2 MSTORE CALLER DUP6 DUP3 ADD MSTORE ADDRESS PUSH1 0x24 DUP3 ADD MSTORE PUSH1 0x24 CALLDATALOAD PUSH1 0x44 DUP3 ADD MSTORE DUP2 DUP2 PUSH1 0x64 DUP2 DUP10 DUP12 GAS CALL DUP1 ISZERO PUSH2 0x2DC JUMPI PUSH2 0x467 JUMPI JUMPDEST POP POP PUSH1 0x7 SLOAD AND SWAP2 PUSH1 0xB SLOAD PUSH1 0xA SLOAD SWAP1 DUP5 EXTCODESIZE ISZERO PUSH2 0x463 JUMPI SWAP1 PUSH1 0x64 DUP7 SWAP3 DUP4 DUP7 MLOAD SWAP8 DUP9 SWAP5 DUP6 SWAP4 PUSH4 0x7A94C565 PUSH1 0xE1 SHL DUP6 MSTORE CALLER DUP10 DUP7 ADD MSTORE PUSH1 0x24 DUP6 ADD MSTORE PUSH1 0x44 DUP5 ADD MSTORE GAS CALL DUP1 ISZERO PUSH2 0x459 JUMPI PUSH2 0x42D JUMPI JUMPDEST PUSH1 0x8 DUP1 SLOAD PUSH1 0x1 PUSH1 0x1 PUSH1 0xA8 SHL SUB NOT AND DUP7 OR PUSH1 0x1 PUSH1 0xA0 SHL OR SWAP1 SSTORE PUSH1 0x1 PUSH1 0x10 SSTORE DUP4 DUP1 RETURN JUMPDEST PUSH8 0xFFFFFFFFFFFFFFFF DUP4 GT PUSH2 0x446 JUMPI POP MSTORE PUSH0 DUP1 DUP1 PUSH2 0x40C JUMP JUMPDEST PUSH4 0x4E487B71 PUSH1 0xE0 SHL DUP5 MSTORE PUSH1 0x41 SWAP1 MSTORE PUSH1 0x24 DUP4 REVERT JUMPDEST DUP3 MLOAD RETURNDATASIZE DUP7 DUP3 RETURNDATACOPY RETURNDATASIZE SWAP1 REVERT JUMPDEST DUP6 DUP1 REVERT JUMPDEST DUP2 PUSH2 0x486 SWAP3 SWAP1 RETURNDATASIZE LT PUSH2 0x48E JUMPI JUMPDEST PUSH2 0x47E DUP2 DUP4 PUSH2 0x1AD4 JUMP JUMPDEST DUP2 ADD SWAP1 PUSH2 0x2073 JUMP JUMPDEST POP PUSH0 DUP1 PUSH2 0x3C4 JUMP JUMPDEST POP RETURNDATASIZE PUSH2 0x474 JUMP JUMPDEST POP POP MLOAD PUSH4 0x7EA0AEA5 PUSH1 0xE1 SHL DUP2 MSTORE REVERT JUMPDEST PUSH2 0x4BB SWAP2 POP DUP8 RETURNDATASIZE DUP10 GT PUSH2 0x48E JUMPI PUSH2 0x47E DUP2 DUP4 PUSH2 0x1AD4 JUMP JUMPDEST PUSH0 PUSH2 0x388 JUMP JUMPDEST POP POP MLOAD PUSH4 0xD2F85AEB PUSH1 0xE0 SHL DUP2 MSTORE REVERT JUMPDEST PUSH2 0x4F0 SWAP2 POP DUP9 RETURNDATASIZE DUP11 GT PUSH2 0x4F6 JUMPI JUMPDEST PUSH2 0x4E8 DUP2 DUP4 PUSH2 0x1AD4 JUMP JUMPDEST DUP2 ADD SWAP1 PUSH2 0x1EBB JUMP JUMPDEST PUSH0 PUSH2 0x34D JUMP JUMPDEST POP RETURNDATASIZE PUSH2 0x4DE JUMP JUMPDEST POP DUP1 REVERT JUMPDEST POP DUP3 CALLVALUE PUSH2 0x558 JUMPI PUSH1 0xA0 CALLDATASIZE PUSH1 0x3 NOT ADD SLT PUSH2 0x558 JUMPI PUSH2 0x51C PUSH2 0x1B3D JUMP JUMPDEST POP PUSH2 0x525 PUSH2 0x1B53 JUMP JUMPDEST POP PUSH1 0x84 CALLDATALOAD SWAP1 PUSH8 0xFFFFFFFFFFFFFFFF DUP3 GT PUSH2 0x558 JUMPI POP PUSH1 0x20 SWAP3 PUSH2 0x549 SWAP2 CALLDATASIZE SWAP2 ADD PUSH2 0x1BB2 JUMP JUMPDEST POP POP MLOAD PUSH4 0xF23A6E61 PUSH1 0xE0 SHL DUP2 MSTORE RETURN JUMPDEST DUP1 REVERT JUMPDEST DUP4 DUP3 CALLVALUE PUSH2 0x4FD JUMPI DUP1 PUSH1 0x3 NOT CALLDATASIZE ADD SLT PUSH2 0x4FD JUMPI DUP1 PUSH1 0x20 SWAP3 PUSH2 0x579 PUSH2 0x1B3D JUMP JUMPDEST PUSH2 0x581 PUSH2 0x1B53 JUMP JUMPDEST PUSH1 0x1 PUSH1 0x1 PUSH1 0xA0 SHL SUB SWAP2 DUP3 AND DUP4 MSTORE PUSH1 0x2 DUP7 MSTORE DUP4 DUP4 KECCAK256 SWAP2 AND DUP3 MSTORE DUP5 MSTORE KECCAK256 SLOAD SWAP1 MLOAD SWAP1 DUP2 MSTORE RETURN JUMPDEST POP SWAP2 SWAP1 CALLVALUE PUSH2 0x4FD JUMPI PUSH1 0xE0 CALLDATASIZE PUSH1 0x3 NOT ADD SLT PUSH2 0x4FD JUMPI PUSH2 0x5C0 PUSH2 0x1B3D JUMP JUMPDEST PUSH2 0x5C8 PUSH2 0x1B53 JUMP JUMPDEST SWAP1 PUSH1 0x44 CALLDATALOAD SWAP3 PUSH1 0x64 CALLDATALOAD PUSH1 0x84 CALLDATALOAD PUSH1 0xFF DUP2 AND DUP1 SWAP2 SUB PUSH2 0x7D2 JUMPI TIMESTAMP DUP3 LT PUSH2 0x79A JUMPI PUSH1 0x3 SLOAD SWAP2 PUSH1 0x1 DUP1 PUSH1 0xA0 SHL SUB SWAP2 DUP3 DUP7 AND SWAP4 DUP5 DUP11 MSTORE DUP6 PUSH1 0x20 MSTORE DUP11 DUP11 KECCAK256 SWAP3 DUP4 SLOAD SWAP4 PUSH0 NOT DUP6 EQ PUSH2 0x787 JUMPI SWAP1 DUP5 SWAP4 SWAP3 SWAP2 PUSH1 0x1 DUP15 SWAP7 ADD SWAP1 SSTORE DUP5 MLOAD SWAP4 DUP8 PUSH1 0x20 DUP7 ADD SWAP7 PUSH32 0x6E71EDAE12B1B97F4D1F60370FEF10105FA2FAAE0126114A169C64845D6126C9 DUP9 MSTORE DUP7 ADD MSTORE DUP7 DUP12 AND PUSH1 0x60 DUP7 ADD MSTORE DUP12 PUSH1 0x80 DUP7 ADD MSTORE PUSH1 0xA0 DUP6 ADD MSTORE PUSH1 0xC0 DUP5 ADD MSTORE PUSH1 0xC0 DUP4 MSTORE PUSH1 0xE0 DUP4 ADD PUSH8 0xFFFFFFFFFFFFFFFF SWAP5 DUP5 DUP3 LT DUP7 DUP4 GT OR PUSH2 0x774 JUMPI DUP2 DUP15 MSTORE DUP5 MLOAD SWAP1 KECCAK256 PUSH2 0x100 DUP6 ADD SWAP3 PUSH2 0x1901 PUSH1 0xF0 SHL DUP5 MSTORE PUSH2 0x102 DUP7 ADD MSTORE PUSH2 0x122 DUP6 ADD MSTORE PUSH1 0x42 DUP2 MSTORE PUSH2 0x160 DUP5 ADD SWAP5 DUP2 DUP7 LT SWAP1 DUP7 GT OR PUSH2 0x761 JUMPI DUP5 DUP14 MSTORE MLOAD SWAP1 KECCAK256 DUP4 MSTORE PUSH2 0x180 DUP3 ADD MSTORE PUSH1 0xA4 CALLDATALOAD PUSH2 0x1A0 DUP3 ADD MSTORE PUSH1 0xC4 CALLDATALOAD PUSH2 0x1C0 SWAP1 SWAP2 ADD MSTORE DUP8 DUP1 MSTORE PUSH1 0x20 SWAP1 DUP9 SWAP1 PUSH1 0x80 SWAP1 PUSH1 0x1 GAS STATICCALL ISZERO PUSH2 0x757 JUMPI DUP7 MLOAD AND SWAP1 DUP2 ISZERO ISZERO SWAP2 DUP3 PUSH2 0x74D JUMPI JUMPDEST POP POP ISZERO PUSH2 0x70A JUMPI POP PUSH2 0x707 SWAP4 SWAP5 POP PUSH2 0x1BE0 JUMP JUMPDEST DUP1 RETURN JUMPDEST PUSH1 0x64 SWAP1 PUSH1 0x20 DUP8 MLOAD SWAP2 PUSH3 0x461BCD PUSH1 0xE5 SHL DUP4 MSTORE DUP3 ADD MSTORE PUSH1 0x1C PUSH1 0x24 DUP3 ADD MSTORE PUSH32 0x556E697377617056323A20494E56414C49445F5349474E415455524500000000 PUSH1 0x44 DUP3 ADD MSTORE REVERT JUMPDEST EQ SWAP1 POP PUSH0 DUP1 PUSH2 0x6F4 JUMP JUMPDEST DUP8 MLOAD RETURNDATASIZE DUP9 DUP3 RETURNDATACOPY RETURNDATASIZE SWAP1 REVERT JUMPDEST PUSH4 0x4E487B71 PUSH1 0xE0 SHL DUP13 MSTORE PUSH1 0x41 DUP9 MSTORE PUSH1 0x24 DUP13 REVERT JUMPDEST PUSH4 0x4E487B71 PUSH1 0xE0 SHL DUP14 MSTORE PUSH1 0x41 DUP10 MSTORE PUSH1 0x24 DUP14 REVERT JUMPDEST PUSH4 0x4E487B71 PUSH1 0xE0 SHL DUP13 MSTORE PUSH1 0x11 DUP9 MSTORE PUSH1 0x24 DUP13 REVERT JUMPDEST DUP8 MLOAD PUSH3 0x461BCD PUSH1 0xE5 SHL DUP2 MSTORE PUSH1 0x20 DUP2 DUP6 ADD MSTORE PUSH1 0x12 PUSH1 0x24 DUP3 ADD MSTORE PUSH18 0x155B9A5CDDD85C158C8E8811561412549151 PUSH1 0x72 SHL PUSH1 0x44 DUP3 ADD MSTORE PUSH1 0x64 SWAP1 REVERT JUMPDEST DUP7 DUP1 REVERT JUMPDEST DUP4 DUP3 CALLVALUE PUSH2 0x4FD JUMPI DUP2 PUSH1 0x3 NOT CALLDATASIZE ADD SLT PUSH2 0x4FD JUMPI PUSH1 0x7 SLOAD SWAP1 MLOAD PUSH1 0x1 PUSH1 0x1 PUSH1 0xA0 SHL SUB SWAP1 SWAP2 AND DUP2 MSTORE PUSH1 0x20 SWAP1 RETURN JUMPDEST POP CALLVALUE PUSH2 0x2E6 JUMPI PUSH1 0xA0 CALLDATASIZE PUSH1 0x3 NOT ADD SLT PUSH2 0x2E6 JUMPI PUSH2 0x819 PUSH2 0x1B3D JUMP JUMPDEST SWAP2 PUSH2 0x822 PUSH2 0x1B53 JUMP JUMPDEST PUSH1 0x5 SLOAD PUSH1 0x1 PUSH1 0x1 PUSH1 0xA0 SHL SUB SWAP4 SWAP2 SWAP3 SWAP2 SWAP1 DUP5 AND CALLER SUB PUSH2 0x877 JUMPI POP POP DUP2 PUSH12 0xFFFFFFFFFFFFFFFFFFFFFFFF PUSH1 0xA0 SHL SWAP4 AND DUP4 PUSH1 0x6 SLOAD AND OR PUSH1 0x6 SSTORE AND SWAP1 PUSH1 0x7 SLOAD AND OR PUSH1 0x7 SSTORE PUSH1 0x44 CALLDATALOAD PUSH1 0x9 SSTORE PUSH1 0x64 CALLDATALOAD PUSH1 0xA SSTORE PUSH1 0x84 CALLDATALOAD PUSH1 0xB SSTORE DUP1 RETURN JUMPDEST MLOAD PUSH4 0xD2F85AEB PUSH1 0xE0 SHL DUP2 MSTORE REVERT JUMPDEST DUP4 DUP3 CALLVALUE PUSH2 0x4FD JUMPI DUP2 PUSH1 0x3 NOT CALLDATASIZE ADD SLT PUSH2 0x4FD JUMPI PUSH1 0x5 SLOAD SWAP1 MLOAD PUSH1 0x1 PUSH1 0x1 PUSH1 0xA0 SHL SUB SWAP1 SWAP2 AND DUP2 MSTORE PUSH1 0x20 SWAP1 RETURN JUMPDEST POP SWAP1 CALLVALUE PUSH2 0x2E6 JUMPI PUSH1 0x20 SWAP1 DUP2 PUSH1 0x3 NOT CALLDATASIZE ADD SLT PUSH2 0xA1C JUMPI PUSH2 0x8CA PUSH2 0x1B3D JUMP JUMPDEST PUSH2 0x8D8 PUSH1 0x1 PUSH1 0x10 SLOAD EQ PUSH2 0x1C9B JUMP JUMPDEST PUSH1 0x10 DUP6 SWAP1 SSTORE PUSH1 0x6 SLOAD PUSH1 0x7 SLOAD DUP6 MLOAD PUSH4 0x70A08231 PUSH1 0xE0 SHL DUP2 MSTORE ADDRESS DUP6 DUP3 ADD MSTORE SWAP6 PUSH1 0x1 PUSH1 0x1 PUSH1 0xA0 SHL SUB SWAP2 DUP3 AND SWAP6 SWAP1 SWAP3 SWAP1 SWAP2 AND DUP2 DUP8 PUSH1 0x24 DUP2 DUP5 GAS STATICCALL SWAP7 DUP8 ISZERO PUSH2 0xA12 JUMPI DUP9 SWAP8 PUSH2 0x9DB JUMPI JUMPDEST POP SWAP1 PUSH2 0x943 PUSH2 0x96F SWAP3 DUP6 PUSH2 0x93D PUSH1 0x1 PUSH1 0x1 PUSH1 0x70 SHL SUB SWAP11 DUP12 PUSH1 0xC SLOAD AND SWAP1 PUSH2 0x2417 JUMP JUMPDEST SWAP2 PUSH2 0x208B JUMP JUMPDEST PUSH1 0xB SLOAD DUP4 MLOAD PUSH3 0x7EEAC7 PUSH1 0xE1 SHL DUP2 MSTORE ADDRESS SWAP7 DUP2 ADD SWAP7 DUP8 MSTORE PUSH1 0x20 DUP8 ADD DUP3 SWAP1 MSTORE SWAP1 SWAP6 SWAP1 SWAP3 DUP3 SWAP2 DUP5 SWAP2 DUP3 SWAP2 PUSH1 0x40 ADD SWAP1 JUMP JUMPDEST SUB DUP2 DUP10 GAS STATICCALL SWAP3 DUP4 ISZERO PUSH2 0x9D2 JUMPI POP DUP8 SWAP3 PUSH2 0x9A2 JUMPI JUMPDEST POP POP PUSH2 0x99A SWAP1 PUSH2 0x264 SWAP6 PUSH1 0xC SLOAD PUSH1 0x70 SHR AND SWAP1 PUSH2 0x2417 JUMP JUMPDEST SWAP3 ADDRESS SWAP1 PUSH2 0x219C JUMP JUMPDEST SWAP1 DUP1 SWAP3 POP DUP2 RETURNDATASIZE DUP4 GT PUSH2 0x9CB JUMPI JUMPDEST PUSH2 0x9B9 DUP2 DUP4 PUSH2 0x1AD4 JUMP JUMPDEST DUP2 ADD SUB SLT PUSH2 0x463 JUMPI MLOAD DUP5 PUSH2 0x99A PUSH2 0x983 JUMP JUMPDEST POP RETURNDATASIZE PUSH2 0x9AF JUMP JUMPDEST MLOAD RETURNDATASIZE DUP10 DUP3 RETURNDATACOPY RETURNDATASIZE SWAP1 REVERT JUMPDEST SWAP2 DUP1 SWAP2 SWAP8 POP DUP3 DUP2 RETURNDATASIZE DUP4 GT PUSH2 0xA0B JUMPI JUMPDEST PUSH2 0x9F4 DUP2 DUP4 PUSH2 0x1AD4 JUMP JUMPDEST DUP2 ADD SUB SLT PUSH2 0xA07 JUMPI SWAP1 MLOAD SWAP6 PUSH2 0x943 PUSH2 0x91C JUMP JUMPDEST DUP8 DUP1 REVERT JUMPDEST POP RETURNDATASIZE PUSH2 0x9EA JUMP JUMPDEST DUP4 MLOAD RETURNDATASIZE DUP11 DUP3 RETURNDATACOPY RETURNDATASIZE SWAP1 REVERT JUMPDEST DUP4 DUP1 REVERT JUMPDEST POP DUP3 CALLVALUE PUSH2 0x558 JUMPI PUSH1 0xA0 CALLDATASIZE PUSH1 0x3 NOT ADD SLT PUSH2 0x558 JUMPI PUSH2 0xA3B PUSH2 0x1B3D JUMP JUMPDEST POP PUSH2 0xA44 PUSH2 0x1B53 JUMP JUMPDEST POP PUSH8 0xFFFFFFFFFFFFFFFF SWAP1 PUSH1 0x44 CALLDATALOAD DUP3 DUP2 GT PUSH2 0x4FD JUMPI PUSH2 0xA66 SWAP1 CALLDATASIZE SWAP1 DUP7 ADD PUSH2 0x1B81 JUMP JUMPDEST POP POP PUSH1 0x64 CALLDATALOAD DUP3 DUP2 GT PUSH2 0x4FD JUMPI PUSH2 0xA7F SWAP1 CALLDATASIZE SWAP1 DUP7 ADD PUSH2 0x1B81 JUMP JUMPDEST POP POP PUSH1 0x84 CALLDATALOAD SWAP2 DUP3 GT PUSH2 0x558 JUMPI POP PUSH1 0x20 SWAP3 PUSH2 0xA9B SWAP2 CALLDATASIZE SWAP2 ADD PUSH2 0x1BB2 JUMP JUMPDEST POP POP MLOAD PUSH4 0xBC197C81 PUSH1 0xE0 SHL DUP2 MSTORE RETURN JUMPDEST DUP4 DUP3 CALLVALUE PUSH2 0x4FD JUMPI DUP2 PUSH1 0x3 NOT CALLDATASIZE ADD SLT PUSH2 0x4FD JUMPI PUSH1 0x20 SWAP1 MLOAD PUSH2 0x3E8 DUP2 MSTORE RETURN JUMPDEST DUP4 DUP3 CALLVALUE PUSH2 0x4FD JUMPI DUP2 PUSH1 0x3 NOT CALLDATASIZE ADD SLT PUSH2 0x4FD JUMPI PUSH1 0x20 SWAP1 PUSH1 0xB SLOAD SWAP1 MLOAD SWAP1 DUP2 MSTORE RETURN JUMPDEST DUP4 DUP3 CALLVALUE PUSH2 0x4FD JUMPI DUP1 PUSH1 0x3 NOT CALLDATASIZE ADD SLT PUSH2 0x4FD JUMPI PUSH1 0x20 SWAP1 PUSH2 0xB10 PUSH2 0xB06 PUSH2 0x1B3D JUMP JUMPDEST PUSH1 0x24 CALLDATALOAD SWAP1 CALLER PUSH2 0x1C33 JUMP JUMPDEST MLOAD PUSH1 0x1 DUP2 MSTORE RETURN JUMPDEST DUP4 DUP3 CALLVALUE PUSH2 0x4FD JUMPI DUP2 PUSH1 0x3 NOT CALLDATASIZE ADD SLT PUSH2 0x4FD JUMPI DUP1 MLOAD PUSH2 0xB54 SWAP2 PUSH2 0xB38 DUP3 PUSH2 0x1AA4 JUMP JUMPDEST PUSH1 0x5 DUP3 MSTORE PUSH5 0xA888E4CAF PUSH1 0xDB SHL PUSH1 0x20 DUP4 ADD MSTORE MLOAD SWAP2 DUP3 SWAP2 DUP3 PUSH2 0x1AF6 JUMP JUMPDEST SUB SWAP1 RETURN JUMPDEST POP SWAP2 SWAP1 CALLVALUE PUSH2 0x4FD JUMPI PUSH1 0x20 DUP1 PUSH1 0x3 NOT CALLDATASIZE ADD SLT PUSH2 0x2E6 JUMPI PUSH2 0xB75 PUSH2 0x1B3D JUMP JUMPDEST PUSH2 0xB83 PUSH1 0x1 PUSH1 0x10 SLOAD EQ PUSH2 0x1C9B JUMP JUMPDEST DUP4 PUSH1 0x10 SSTORE PUSH2 0xBA6 PUSH1 0xC SLOAD PUSH1 0x1 PUSH1 0x1 PUSH1 0x70 SHL SUB SWAP2 DUP3 DUP3 AND SWAP3 DUP3 PUSH1 0x70 SHR AND SWAP2 PUSH1 0xE0 SHR SWAP1 JUMP JUMPDEST POP PUSH1 0x6 SLOAD PUSH1 0x7 SLOAD DUP9 MLOAD PUSH4 0x70A08231 PUSH1 0xE0 SHL DUP1 DUP3 MSTORE ADDRESS DUP10 DUP4 ADD MSTORE SWAP1 SWAP9 PUSH1 0x1 PUSH1 0x1 PUSH1 0xA0 SHL SUB SWAP6 SWAP2 SWAP5 SWAP1 SWAP4 SWAP1 SWAP3 DUP7 AND SWAP1 DUP7 AND DUP9 DUP12 PUSH1 0x24 DUP2 DUP5 GAS STATICCALL SWAP11 DUP12 ISZERO PUSH2 0xDEA JUMPI DUP6 SWAP12 PUSH2 0xEBD JUMPI JUMPDEST POP PUSH1 0xB SLOAD DUP13 MLOAD PUSH3 0x7EEAC7 PUSH1 0xE1 SHL DUP1 DUP3 MSTORE ADDRESS DUP14 DUP4 ADD SWAP1 DUP2 MSTORE PUSH1 0x20 DUP2 ADD SWAP4 SWAP1 SWAP4 MSTORE SWAP1 SWAP12 SWAP1 SWAP4 SWAP2 DUP12 SWAP1 DUP14 SWAP1 DUP2 SWAP1 PUSH1 0x40 ADD SUB DUP2 DUP6 GAS STATICCALL SWAP12 DUP13 ISZERO PUSH2 0xE2C JUMPI DUP8 SWAP13 PUSH2 0xE8E JUMPI JUMPDEST POP ADDRESS DUP8 MSTORE PUSH1 0x1 DUP12 MSTORE DUP14 DUP8 KECCAK256 SLOAD SWAP8 PUSH2 0xC42 DUP8 DUP8 PUSH2 0x1EDA JUMP JUMPDEST SWAP9 DUP9 SLOAD SWAP15 DUP16 SWAP1 PUSH2 0xC52 SWAP1 DUP4 PUSH2 0x24A7 JUMP JUMPDEST SWAP1 PUSH2 0xC5C SWAP2 PUSH2 0x1CD7 JUMP JUMPDEST SWAP15 DUP16 SWAP15 PUSH2 0xC69 SWAP1 DUP4 PUSH2 0x24A7 JUMP JUMPDEST SWAP1 PUSH2 0xC73 SWAP2 PUSH2 0x1CD7 JUMP JUMPDEST SWAP14 ISZERO ISZERO DUP1 PUSH2 0xE85 JUMPI JUMPDEST ISZERO PUSH2 0xE36 JUMPI SWAP1 DUP16 DUP16 SWAP1 DUP16 DUP16 SWAP5 SWAP1 DUP16 PUSH2 0xCDF PUSH1 0x24 SWAP6 DUP16 PUSH2 0xCEA SWAP6 ADDRESS DUP3 MSTORE PUSH1 0x1 DUP12 MSTORE PUSH2 0xCA9 DUP2 DUP10 DUP5 KECCAK256 SLOAD PUSH2 0x2417 JUMP JUMPDEST ADDRESS DUP4 MSTORE PUSH1 0x1 DUP13 MSTORE DUP9 DUP4 KECCAK256 SSTORE PUSH2 0xCBF DUP2 DUP4 SLOAD PUSH2 0x2417 JUMP JUMPDEST DUP3 SSTORE DUP8 MLOAD SWAP1 DUP2 MSTORE PUSH0 DUP1 MLOAD PUSH1 0x20 PUSH2 0x252B DUP4 CODECOPY DUP2 MLOAD SWAP2 MSTORE DUP12 ADDRESS SWAP3 LOG3 DUP3 DUP13 PUSH2 0x208B JUMP JUMPDEST PUSH1 0xB SLOAD SWAP1 ADDRESS DUP11 PUSH2 0x219C JUMP JUMPDEST MLOAD DUP1 SWAP7 DUP2 SWAP4 DUP3 MSTORE ADDRESS DUP7 DUP4 ADD MSTORE GAS STATICCALL SWAP3 DUP4 ISZERO PUSH2 0xE2C JUMPI SWAP2 DUP15 SWAP2 DUP13 SWAP4 DUP10 SWAP6 PUSH2 0xDF4 JUMPI JUMPDEST POP PUSH1 0xB SLOAD SWAP3 MLOAD SWAP6 DUP7 MSTORE ADDRESS SWAP1 DUP7 ADD SWAP1 DUP2 MSTORE PUSH1 0x20 DUP2 ADD SWAP3 SWAP1 SWAP3 MSTORE DUP5 SWAP2 DUP3 SWAP1 DUP2 SWAP1 PUSH1 0x40 ADD JUMPDEST SUB SWAP2 GAS STATICCALL SWAP2 DUP3 ISZERO PUSH2 0xDEA JUMPI DUP6 SWAP3 PUSH2 0xDB3 JUMPI JUMPDEST POP PUSH2 0xD4A SWAP5 POP PUSH2 0x1D7B JUMP JUMPDEST PUSH2 0xD90 JUMPI JUMPDEST DUP6 MLOAD SWAP2 DUP6 DUP4 MSTORE DUP5 DUP5 DUP5 ADD MSTORE AND SWAP1 PUSH32 0xDCCD412F0B1252819CB1FD330B93224CA42612892BB3F4F789976E6D81936496 DUP7 CALLER SWAP3 LOG3 PUSH1 0x1 PUSH1 0x10 SSTORE DUP4 MLOAD SWAP3 DUP4 MSTORE DUP3 ADD MSTORE RETURN JUMPDEST PUSH2 0xDAB PUSH1 0xC SLOAD PUSH1 0x1 PUSH1 0x1 PUSH1 0x70 SHL SUB DUP1 DUP3 PUSH1 0x70 SHR AND SWAP2 AND PUSH2 0x24A7 JUMP JUMPDEST PUSH1 0xF SSTORE PUSH2 0xD4F JUMP JUMPDEST SWAP2 POP SWAP2 SWAP3 SWAP4 DUP9 DUP3 DUP2 RETURNDATASIZE DUP4 GT PUSH2 0xDE3 JUMPI JUMPDEST PUSH2 0xDCD DUP2 DUP4 PUSH2 0x1AD4 JUMP JUMPDEST DUP2 ADD SUB SLT PUSH2 0x558 JUMPI POP MLOAD PUSH2 0xD4A SWAP4 SWAP3 SWAP2 PUSH0 PUSH2 0xD3F JUMP JUMPDEST POP RETURNDATASIZE PUSH2 0xDC3 JUMP JUMPDEST DUP13 MLOAD RETURNDATASIZE DUP8 DUP3 RETURNDATACOPY RETURNDATASIZE SWAP1 REVERT JUMPDEST SWAP3 POP SWAP3 SWAP1 SWAP4 POP DUP2 DUP2 RETURNDATASIZE DUP4 GT PUSH2 0xE25 JUMPI JUMPDEST PUSH2 0xE0E DUP2 DUP4 PUSH2 0x1AD4 JUMP JUMPDEST DUP2 ADD SUB SLT PUSH2 0x7D2 JUMPI MLOAD SWAP2 DUP11 SWAP2 DUP15 SWAP2 SWAP1 PUSH2 0xD2D PUSH2 0xD0B JUMP JUMPDEST POP RETURNDATASIZE PUSH2 0xE04 JUMP JUMPDEST DUP15 MLOAD RETURNDATASIZE DUP10 DUP3 RETURNDATACOPY RETURNDATASIZE SWAP1 REVERT JUMPDEST DUP16 MLOAD PUSH3 0x461BCD PUSH1 0xE5 SHL DUP2 MSTORE DUP1 DUP5 ADD DUP15 SWAP1 MSTORE PUSH1 0x24 DUP1 DUP3 ADD MSTORE PUSH32 0x54447265783A20494E53554646494349454E545F4C49515549444954595F4255 PUSH1 0x44 DUP3 ADD MSTORE PUSH4 0x14939151 PUSH1 0xE2 SHL PUSH1 0x64 DUP3 ADD MSTORE PUSH1 0x84 SWAP1 REVERT JUMPDEST POP DUP14 ISZERO ISZERO PUSH2 0xC7C JUMP JUMPDEST SWAP1 SWAP12 POP DUP11 DUP2 DUP2 RETURNDATASIZE DUP4 GT PUSH2 0xEB6 JUMPI JUMPDEST PUSH2 0xEA6 DUP2 DUP4 PUSH2 0x1AD4 JUMP JUMPDEST DUP2 ADD SUB SLT PUSH2 0x7D2 JUMPI MLOAD SWAP11 PUSH0 PUSH2 0xC2B JUMP JUMPDEST POP RETURNDATASIZE PUSH2 0xE9C JUMP JUMPDEST SWAP1 SWAP11 POP DUP9 DUP2 DUP2 RETURNDATASIZE DUP4 GT PUSH2 0xEE9 JUMPI JUMPDEST PUSH2 0xED5 DUP2 DUP4 PUSH2 0x1AD4 JUMP JUMPDEST DUP2 ADD SUB SLT PUSH2 0xEE5 JUMPI MLOAD SWAP10 PUSH0 PUSH2 0xBEB JUMP JUMPDEST DUP5 DUP1 REVERT JUMPDEST POP RETURNDATASIZE PUSH2 0xECB JUMP JUMPDEST DUP4 DUP3 CALLVALUE PUSH2 0x4FD JUMPI DUP2 PUSH1 0x3 NOT CALLDATASIZE ADD SLT PUSH2 0x4FD JUMPI PUSH1 0x20 SWAP1 PUSH1 0xA SLOAD SWAP1 MLOAD SWAP1 DUP2 MSTORE RETURN JUMPDEST POP SWAP1 CALLVALUE PUSH2 0x2E6 JUMPI PUSH1 0x20 CALLDATASIZE PUSH1 0x3 NOT ADD SLT PUSH2 0x2E6 JUMPI PUSH1 0x20 SWAP3 DUP3 SWAP2 PUSH1 0x1 PUSH1 0x1 PUSH1 0xA0 SHL SUB PUSH2 0xF37 PUSH2 0x1B3D JUMP JUMPDEST AND DUP3 MSTORE DUP5 MSTORE KECCAK256 SLOAD SWAP1 MLOAD SWAP1 DUP2 MSTORE RETURN JUMPDEST DUP4 DUP3 CALLVALUE PUSH2 0x4FD JUMPI DUP2 PUSH1 0x3 NOT CALLDATASIZE ADD SLT PUSH2 0x4FD JUMPI PUSH1 0x20 SWAP1 PUSH1 0xF SLOAD SWAP1 MLOAD SWAP1 DUP2 MSTORE RETURN JUMPDEST DUP4 DUP3 CALLVALUE PUSH2 0x4FD JUMPI PUSH1 0x20 CALLDATASIZE PUSH1 0x3 NOT ADD SLT PUSH2 0x4FD JUMPI PUSH1 0x20 SWAP2 DUP2 SWAP1 PUSH1 0x1 PUSH1 0x1 PUSH1 0xA0 SHL SUB PUSH2 0xF8C PUSH2 0x1B3D JUMP JUMPDEST AND DUP2 MSTORE PUSH1 0x1 DUP5 MSTORE KECCAK256 SLOAD SWAP1 MLOAD SWAP1 DUP2 MSTORE RETURN JUMPDEST POP CALLVALUE PUSH2 0x2E6 JUMPI PUSH1 0x60 CALLDATASIZE PUSH1 0x3 NOT ADD SLT PUSH2 0x2E6 JUMPI DUP2 CALLDATALOAD PUSH1 0x24 CALLDATALOAD SWAP1 PUSH1 0x44 CALLDATALOAD SWAP4 PUSH1 0x1 DUP1 PUSH1 0xA0 SHL SUB SWAP4 DUP5 DUP7 AND SWAP6 DUP7 DUP2 SUB PUSH2 0xA07 JUMPI PUSH2 0xFD9 PUSH1 0x1 PUSH1 0x10 SLOAD EQ PUSH2 0x1C9B JUMP JUMPDEST DUP8 PUSH1 0x10 SSTORE DUP4 ISZERO SWAP6 DUP7 DUP1 SWAP8 PUSH2 0x1349 JUMPI JUMPDEST PUSH2 0x133A JUMPI PUSH2 0x100B PUSH1 0xC SLOAD PUSH1 0x1 PUSH1 0x1 PUSH1 0x70 SHL SUB SWAP2 DUP3 DUP3 AND SWAP3 DUP3 PUSH1 0x70 SHR AND SWAP2 PUSH1 0xE0 SHR SWAP1 JUMP JUMPDEST POP SWAP2 PUSH1 0x1 PUSH1 0x1 PUSH1 0x70 SHL SUB SWAP9 DUP10 DUP4 AND SWAP5 DUP6 DUP10 LT ISZERO DUP1 PUSH2 0x132E JUMPI JUMPDEST PUSH2 0x1312 JUMPI DUP3 PUSH1 0x6 SLOAD AND SWAP3 PUSH1 0x7 SLOAD AND SWAP2 DUP4 DUP14 EQ DUP1 ISZERO PUSH2 0x1309 JUMPI JUMPDEST PUSH2 0x12F6 JUMPI ISZERO PUSH2 0x12E6 JUMPI JUMPDEST DUP10 DUP1 PUSH2 0x12D1 JUMPI JUMPDEST POP POP DUP6 MLOAD SWAP7 DUP8 SWAP3 PUSH4 0x70A08231 PUSH1 0xE0 SHL DUP5 MSTORE ADDRESS DUP3 DUP6 ADD MSTORE DUP4 PUSH1 0x24 PUSH1 0x20 SWAP11 DUP12 SWAP4 GAS STATICCALL SWAP2 DUP14 DUP4 ISZERO PUSH2 0x12C6 JUMPI SWAP1 DUP10 SWAP2 SWAP4 PUSH2 0x1295 JUMPI JUMPDEST PUSH1 0xB SLOAD DUP10 MLOAD PUSH3 0x7EEAC7 PUSH1 0xE1 SHL DUP2 MSTORE ADDRESS DUP6 DUP3 ADD SWAP1 DUP2 MSTORE PUSH1 0x20 DUP2 ADD SWAP3 SWAP1 SWAP3 MSTORE SWAP6 POP DUP6 SWAP2 SWAP1 DUP3 SWAP1 DUP2 SWAP1 PUSH1 0x40 ADD JUMPDEST SUB SWAP2 GAS STATICCALL SWAP3 DUP4 ISZERO PUSH2 0x128B JUMPI DUP14 SWAP4 PUSH2 0x1258 JUMPI JUMPDEST POP PUSH2 0x10C6 DUP10 DUP8 PUSH2 0x232A JUMP JUMPDEST DUP3 GT ISZERO PUSH2 0x1251 JUMPI PUSH2 0x10E0 PUSH2 0x10DA DUP11 DUP9 PUSH2 0x232A JUMP JUMPDEST DUP4 PUSH2 0x232A JUMP JUMPDEST SWAP11 JUMPDEST DUP6 AND SWAP6 DUP14 PUSH2 0x10F0 DUP13 DUP10 PUSH2 0x232A JUMP JUMPDEST DUP6 GT ISZERO SWAP1 POP PUSH2 0x124A JUMPI PUSH2 0x110C PUSH2 0x1106 DUP13 DUP10 PUSH2 0x232A JUMP JUMPDEST DUP6 PUSH2 0x232A JUMP JUMPDEST SWAP7 JUMPDEST DUP13 ISZERO DUP1 PUSH2 0x1242 JUMPI JUMPDEST PUSH2 0x1232 JUMPI PUSH2 0x115E SWAP1 PUSH2 0x1158 PUSH2 0x113D DUP16 PUSH2 0x1137 PUSH2 0x1131 DUP10 PUSH2 0x2469 JUMP JUMPDEST SWAP2 PUSH2 0x2488 JUMP JUMPDEST SWAP1 PUSH2 0x2417 JUMP JUMPDEST PUSH2 0x1152 PUSH2 0x1149 DUP10 PUSH2 0x2469 JUMP JUMPDEST PUSH2 0x1137 DUP14 PUSH2 0x2488 JUMP JUMPDEST SWAP1 PUSH2 0x24A7 JUMP JUMPDEST SWAP3 PUSH2 0x24A7 JUMP JUMPDEST SWAP1 PUSH3 0xF4240 SWAP2 DUP3 DUP2 MUL SWAP3 DUP2 DUP5 DIV DUP2 EQ DUP3 ISZERO OR ISZERO PUSH2 0x121D JUMPI DUP4 DIV SUB PUSH2 0x11E3 JUMPI LT PUSH2 0x11D5 JUMPI POP SWAP1 PUSH2 0x118E SWAP4 SWAP3 SWAP2 PUSH2 0x1D7B JUMP JUMPDEST PUSH1 0xB SLOAD SWAP3 DUP3 MLOAD SWAP7 DUP8 MSTORE DUP7 ADD MSTORE DUP5 ADD MSTORE PUSH1 0x60 DUP4 ADD MSTORE PUSH1 0x80 DUP3 ADD MSTORE PUSH32 0xD8A2619BB81B7AB8223519302707BC92744BB4C9E8F4DFF2F582D261953C54C9 PUSH1 0xA0 CALLER SWAP3 LOG3 PUSH1 0x1 PUSH1 0x10 SSTORE DUP1 RETURN JUMPDEST DUP7 MLOAD PUSH4 0xDE92078F PUSH1 0xE0 SHL DUP2 MSTORE REVERT JUMPDEST DUP9 MLOAD PUSH3 0x461BCD PUSH1 0xE5 SHL DUP2 MSTORE DUP1 DUP5 ADD DUP12 SWAP1 MSTORE PUSH1 0x14 PUSH1 0x24 DUP3 ADD MSTORE PUSH20 0x64732D6D6174682D6D756C2D6F766572666C6F77 PUSH1 0x60 SHL PUSH1 0x44 DUP3 ADD MSTORE PUSH1 0x64 SWAP1 REVERT JUMPDEST POP POP PUSH4 0x4E487B71 PUSH1 0xE0 SHL DUP16 MSTORE PUSH1 0x11 DUP4 MSTORE PUSH1 0x24 DUP16 REVERT JUMPDEST DUP9 MLOAD PUSH4 0x41F8D065 PUSH1 0xE1 SHL DUP2 MSTORE DUP4 SWAP1 REVERT JUMPDEST POP DUP8 ISZERO PUSH2 0x1116 JUMP JUMPDEST DUP14 SWAP7 PUSH2 0x110E JUMP JUMPDEST DUP13 SWAP11 PUSH2 0x10E2 JUMP JUMPDEST SWAP1 SWAP3 POP DUP8 DUP2 DUP2 RETURNDATASIZE DUP4 GT PUSH2 0x1284 JUMPI JUMPDEST PUSH2 0x1270 DUP2 DUP4 PUSH2 0x1AD4 JUMP JUMPDEST DUP2 ADD SUB SLT PUSH2 0x1280 JUMPI MLOAD SWAP2 PUSH0 PUSH2 0x10BB JUMP JUMPDEST DUP13 DUP1 REVERT JUMPDEST POP RETURNDATASIZE PUSH2 0x1266 JUMP JUMPDEST DUP8 MLOAD RETURNDATASIZE DUP16 DUP3 RETURNDATACOPY RETURNDATASIZE SWAP1 REVERT JUMPDEST SWAP3 POP DUP4 DUP2 RETURNDATASIZE DUP4 GT PUSH2 0x12BF JUMPI JUMPDEST PUSH2 0x12AB DUP2 DUP4 PUSH2 0x1AD4 JUMP JUMPDEST DUP2 ADD SUB SLT PUSH2 0x1280 JUMPI DUP8 PUSH2 0x10A9 SWAP4 MLOAD SWAP3 PUSH2 0x107F JUMP JUMPDEST POP RETURNDATASIZE PUSH2 0x12A1 JUMP JUMPDEST DUP9 MLOAD SWAP1 RETURNDATASIZE SWAP1 DUP3 RETURNDATACOPY RETURNDATASIZE SWAP1 REVERT JUMPDEST PUSH1 0xB SLOAD PUSH2 0x12DF SWAP3 ADDRESS DUP6 PUSH2 0x219C JUMP JUMPDEST PUSH0 DUP10 PUSH2 0x104E JUMP JUMPDEST PUSH2 0x12F1 DUP10 DUP3 DUP6 PUSH2 0x208B JUMP JUMPDEST PUSH2 0x1047 JUMP JUMPDEST DUP8 MLOAD PUSH1 0x1 PUSH3 0x351165 PUSH1 0xE1 SHL SUB NOT DUP2 MSTORE DUP10 SWAP1 REVERT JUMPDEST POP DUP3 DUP14 EQ PUSH2 0x103D JUMP JUMPDEST PUSH1 0x44 DUP9 DUP12 DUP12 DUP11 MLOAD SWAP3 PUSH4 0x9499BF71 PUSH1 0xE0 SHL DUP5 MSTORE DUP4 ADD MSTORE PUSH1 0x24 DUP3 ADD MSTORE REVERT JUMPDEST POP DUP11 DUP6 AND DUP11 LT ISZERO PUSH2 0x1024 JUMP JUMPDEST POP POP MLOAD PUSH4 0xF201E09 PUSH1 0xE0 SHL DUP2 MSTORE REVERT JUMPDEST POP DUP6 ISZERO PUSH2 0xFE8 JUMP JUMPDEST POP CALLVALUE PUSH2 0x2E6 JUMPI PUSH1 0x20 SWAP2 DUP3 PUSH1 0x3 NOT CALLDATASIZE ADD SLT PUSH2 0xA1C JUMPI PUSH1 0x24 SWAP3 SWAP4 PUSH2 0x1371 PUSH2 0x1B3D JUMP JUMPDEST SWAP2 PUSH2 0x1380 PUSH1 0x1 PUSH1 0x10 SLOAD EQ PUSH2 0x1C9B JUMP JUMPDEST DUP2 PUSH1 0x10 SSTORE PUSH2 0x13A3 PUSH1 0xC SLOAD PUSH1 0x1 PUSH1 0x1 PUSH1 0x70 SHL SUB SWAP2 DUP3 DUP3 AND SWAP3 DUP3 PUSH1 0x70 SHR AND SWAP2 PUSH1 0xE0 SHR SWAP1 JUMP JUMPDEST POP PUSH1 0x6 SLOAD DUP7 MLOAD PUSH4 0x70A08231 PUSH1 0xE0 SHL DUP2 MSTORE ADDRESS DUP6 DUP3 ADD MSTORE SWAP8 SWAP2 SWAP3 SWAP2 PUSH1 0x1 PUSH1 0x1 PUSH1 0xA0 SHL SUB SWAP2 DUP11 SWAP2 DUP11 SWAP2 DUP3 SWAP1 DUP6 AND GAS STATICCALL SWAP8 DUP9 ISZERO PUSH2 0x15D3 JUMPI SWAP1 DUP10 SWAP2 DUP7 SWAP10 PUSH2 0x15DD JUMPI JUMPDEST POP PUSH1 0x7 SLOAD PUSH1 0xB SLOAD DUP10 MLOAD PUSH3 0x7EEAC7 PUSH1 0xE1 SHL DUP2 MSTORE ADDRESS DUP2 DUP10 ADD SWAP1 DUP2 MSTORE PUSH1 0x20 DUP2 ADD SWAP3 SWAP1 SWAP3 MSTORE SWAP7 SWAP6 SWAP5 SWAP4 SWAP3 DUP8 SWAP3 AND SWAP1 DUP3 SWAP1 DUP2 SWAP1 PUSH1 0x40 ADD JUMPDEST SUB SWAP2 GAS STATICCALL SWAP4 DUP5 ISZERO PUSH2 0x15D3 JUMPI DUP6 SWAP5 PUSH2 0x15A4 JUMPI JUMPDEST POP PUSH1 0x1 PUSH1 0x1 PUSH1 0x70 SHL SUB SWAP4 DUP5 DUP3 AND SWAP9 PUSH2 0x143C DUP11 DUP3 PUSH2 0x2417 JUMP JUMPDEST SWAP8 DUP7 DUP6 AND SWAP6 PUSH2 0x144B DUP8 DUP6 PUSH2 0x2417 JUMP JUMPDEST SWAP9 PUSH2 0x1456 DUP8 DUP8 PUSH2 0x1EDA JUMP JUMPDEST SWAP8 DUP2 SLOAD SWAP14 DUP15 ISZERO PUSH0 EQ PUSH2 0x1566 JUMPI POP POP PUSH2 0x1476 PUSH2 0x1471 DUP12 DUP14 PUSH2 0x24A7 JUMP JUMPDEST PUSH2 0x2357 JUMP JUMPDEST PUSH2 0x3E7 NOT DUP2 ADD SWAP1 DUP2 GT PUSH2 0x1553 JUMPI DUP15 DUP3 SWAP2 SWAP15 PUSH2 0x1490 SWAP1 PUSH2 0x23B0 JUMP JUMPDEST DUP3 SSTORE DUP2 DUP1 MSTORE PUSH1 0x1 DUP2 MSTORE DUP14 DUP1 DUP4 KECCAK256 SLOAD PUSH2 0x14A7 SWAP1 PUSH2 0x23B0 JUMP JUMPDEST SWAP1 DUP4 DUP1 MSTORE PUSH1 0x1 DUP4 MSTORE DUP4 KECCAK256 SSTORE DUP14 MLOAD SWAP1 PUSH2 0x3E8 DUP3 MSTORE PUSH0 DUP1 MLOAD PUSH1 0x20 PUSH2 0x252B DUP4 CODECOPY DUP2 MLOAD SWAP2 MSTORE SWAP2 LOG3 JUMPDEST DUP12 ISZERO PUSH2 0x1545 JUMPI POP SWAP1 PUSH2 0x14E3 DUP12 PUSH2 0x14E8 SWAP7 SWAP6 SWAP5 SWAP4 PUSH2 0x1CF5 JUMP JUMPDEST PUSH2 0x1D7B JUMP JUMPDEST PUSH2 0x1527 JUMPI JUMPDEST POP DUP3 MLOAD SWAP2 DUP3 MSTORE DUP5 DUP3 ADD MSTORE PUSH32 0x4C209B5FC8AD50758F13E2E1088BA56A560DFF690A1C6FEF26394F4C03821C4F DUP3 CALLER SWAP3 LOG2 PUSH1 0x1 PUSH1 0x10 SSTORE MLOAD SWAP1 DUP2 MSTORE RETURN JUMPDEST PUSH2 0x153C SWAP1 PUSH1 0xC SLOAD SWAP1 DUP1 DUP3 PUSH1 0x70 SHR AND SWAP2 AND PUSH2 0x24A7 JUMP JUMPDEST PUSH1 0xF SSTORE PUSH0 PUSH2 0x14ED JUMP JUMPDEST DUP11 MLOAD PUSH4 0x13CD8095 PUSH1 0xE3 SHL DUP2 MSTORE REVERT JUMPDEST POP PUSH1 0x11 PUSH1 0x24 SWAP3 PUSH4 0x4E487B71 PUSH1 0xE0 SHL DUP4 MSTORE MSTORE REVERT JUMPDEST SWAP1 PUSH2 0x157F DUP16 SWAP5 SWAP16 PUSH2 0x158B SWAP4 DUP16 PUSH2 0x1584 SWAP3 PUSH2 0x157F SWAP2 PUSH2 0x24A7 JUMP JUMPDEST PUSH2 0x1CD7 JUMP JUMPDEST SWAP5 DUP14 PUSH2 0x24A7 JUMP JUMPDEST SWAP1 POP DUP1 DUP3 LT ISZERO PUSH2 0x159D JUMPI POP JUMPDEST SWAP11 PUSH2 0x14CB JUMP JUMPDEST SWAP1 POP PUSH2 0x1597 JUMP JUMPDEST SWAP1 SWAP4 POP DUP9 DUP2 DUP2 RETURNDATASIZE DUP4 GT PUSH2 0x15CC JUMPI JUMPDEST PUSH2 0x15BC DUP2 DUP4 PUSH2 0x1AD4 JUMP JUMPDEST DUP2 ADD SUB SLT PUSH2 0xEE5 JUMPI MLOAD SWAP3 PUSH0 PUSH2 0x1424 JUMP JUMPDEST POP RETURNDATASIZE PUSH2 0x15B2 JUMP JUMPDEST DUP8 MLOAD RETURNDATASIZE DUP8 DUP3 RETURNDATACOPY RETURNDATASIZE SWAP1 REVERT JUMPDEST DUP3 DUP2 SWAP4 SWAP3 SWAP11 POP RETURNDATASIZE DUP4 GT PUSH2 0x1609 JUMPI JUMPDEST PUSH2 0x15F5 DUP2 DUP4 PUSH2 0x1AD4 JUMP JUMPDEST DUP2 ADD SUB SLT PUSH2 0xEE5 JUMPI MLOAD SWAP7 DUP9 SWAP1 PUSH2 0x1412 PUSH2 0x13E0 JUMP JUMPDEST POP RETURNDATASIZE PUSH2 0x15EB JUMP JUMPDEST DUP4 DUP3 CALLVALUE PUSH2 0x4FD JUMPI DUP2 PUSH1 0x3 NOT CALLDATASIZE ADD SLT PUSH2 0x4FD JUMPI PUSH1 0x20 SWAP1 PUSH1 0xE SLOAD SWAP1 MLOAD SWAP1 DUP2 MSTORE RETURN JUMPDEST DUP4 DUP3 CALLVALUE PUSH2 0x4FD JUMPI DUP2 PUSH1 0x3 NOT CALLDATASIZE ADD SLT PUSH2 0x4FD JUMPI PUSH1 0x20 SWAP1 PUSH1 0xD SLOAD SWAP1 MLOAD SWAP1 DUP2 MSTORE RETURN JUMPDEST DUP4 DUP3 CALLVALUE PUSH2 0x4FD JUMPI DUP2 PUSH1 0x3 NOT CALLDATASIZE ADD SLT PUSH2 0x4FD JUMPI PUSH1 0x20 SWAP1 PUSH1 0x3 SLOAD SWAP1 MLOAD SWAP1 DUP2 MSTORE RETURN JUMPDEST DUP4 DUP3 CALLVALUE PUSH2 0x4FD JUMPI DUP2 PUSH1 0x3 NOT CALLDATASIZE ADD SLT PUSH2 0x4FD JUMPI PUSH1 0x20 SWAP1 MLOAD PUSH1 0x12 DUP2 MSTORE RETURN JUMPDEST DUP4 DUP3 CALLVALUE PUSH2 0x4FD JUMPI DUP2 PUSH1 0x3 NOT CALLDATASIZE ADD SLT PUSH2 0x4FD JUMPI PUSH1 0x20 SWAP1 MLOAD PUSH32 0x6E71EDAE12B1B97F4D1F60370FEF10105FA2FAAE0126114A169C64845D6126C9 DUP2 MSTORE RETURN JUMPDEST DUP4 DUP3 CALLVALUE PUSH2 0x4FD JUMPI PUSH1 0x60 CALLDATASIZE PUSH1 0x3 NOT ADD SLT PUSH2 0x4FD JUMPI PUSH2 0xB10 PUSH2 0x16E2 PUSH2 0x1B3D JUMP JUMPDEST PUSH2 0x16EA PUSH2 0x1B53 JUMP JUMPDEST PUSH1 0x44 CALLDATALOAD SWAP2 PUSH1 0x1 DUP1 PUSH1 0xA0 SHL SUB DUP2 AND DUP1 DUP8 MSTORE DUP6 PUSH1 0x20 SWAP8 PUSH1 0x2 DUP10 MSTORE DUP2 DUP2 KECCAK256 CALLER DUP3 MSTORE DUP10 MSTORE PUSH0 NOT DUP3 DUP3 KECCAK256 SLOAD SUB PUSH2 0x171E JUMPI JUMPDEST POP POP POP PUSH2 0x1C33 JUMP JUMPDEST DUP3 DUP2 MSTORE PUSH1 0x2 DUP10 MSTORE DUP2 DUP2 KECCAK256 CALLER DUP3 MSTORE DUP10 MSTORE PUSH2 0x173A DUP7 DUP4 DUP4 KECCAK256 SLOAD PUSH2 0x2417 JUMP JUMPDEST SWAP3 DUP2 MSTORE PUSH1 0x2 DUP10 MSTORE DUP2 DUP2 KECCAK256 CALLER DUP3 MSTORE DUP10 MSTORE KECCAK256 SSTORE DUP7 DUP6 DUP2 PUSH2 0x1716 JUMP JUMPDEST DUP4 DUP3 CALLVALUE PUSH2 0x4FD JUMPI DUP2 PUSH1 0x3 NOT CALLDATASIZE ADD SLT PUSH2 0x4FD JUMPI PUSH1 0x20 SWAP2 SLOAD SWAP1 MLOAD SWAP1 DUP2 MSTORE RETURN JUMPDEST DUP4 DUP3 CALLVALUE PUSH2 0x4FD JUMPI DUP2 PUSH1 0x3 NOT CALLDATASIZE ADD SLT PUSH2 0x4FD JUMPI PUSH1 0x20 SWAP1 PUSH1 0x9 SLOAD SWAP1 MLOAD SWAP1 DUP2 MSTORE RETURN JUMPDEST POP CALLVALUE PUSH2 0x2E6 JUMPI DUP1 PUSH1 0x3 NOT CALLDATASIZE ADD SLT PUSH2 0x2E6 JUMPI PUSH8 0xFFFFFFFFFFFFFFFF SWAP2 DUP1 CALLDATALOAD DUP4 DUP2 GT PUSH2 0xEE5 JUMPI CALLDATASIZE PUSH1 0x23 DUP3 ADD SLT ISZERO PUSH2 0xEE5 JUMPI DUP1 DUP3 ADD CALLDATALOAD SWAP4 PUSH1 0x24 PUSH2 0x17CE DUP7 PUSH2 0x1B69 JUMP JUMPDEST SWAP3 PUSH2 0x17DB DUP7 MLOAD SWAP5 DUP6 PUSH2 0x1AD4 JUMP JUMPDEST DUP7 DUP5 MSTORE PUSH1 0x20 SWAP7 DUP3 DUP9 DUP7 ADD SWAP2 PUSH1 0x5 SHL DUP4 ADD ADD SWAP2 CALLDATASIZE DUP4 GT PUSH2 0x195A JUMPI DUP4 ADD SWAP1 JUMPDEST DUP3 DUP3 LT PUSH2 0x195E JUMPI POP POP POP DUP1 CALLDATALOAD SWAP2 DUP3 GT PUSH2 0x7D2 JUMPI CALLDATASIZE PUSH1 0x23 DUP4 ADD SLT ISZERO PUSH2 0x7D2 JUMPI DUP2 DUP5 ADD CALLDATALOAD SWAP2 PUSH2 0x1824 DUP4 PUSH2 0x1B69 JUMP JUMPDEST SWAP3 PUSH2 0x1831 DUP8 MLOAD SWAP5 DUP6 PUSH2 0x1AD4 JUMP JUMPDEST DUP1 DUP5 MSTORE DUP3 DUP9 DUP6 ADD SWAP2 PUSH1 0x5 SHL DUP4 ADD ADD SWAP2 CALLDATASIZE DUP4 GT PUSH2 0x195A JUMPI DUP4 DUP10 SWAP2 ADD SWAP2 JUMPDEST DUP4 DUP4 LT PUSH2 0x194A JUMPI POP POP POP POP PUSH1 0x8 SWAP1 PUSH1 0xFF DUP3 SLOAD PUSH1 0xA0 SHR AND ISZERO PUSH2 0x193A JUMPI DUP4 MLOAD SWAP1 DUP4 MLOAD DUP3 DUP2 SUB PUSH2 0x191F JUMPI POP POP ISZERO JUMPDEST DUP1 ISZERO PUSH2 0x1882 JUMPI DUP8 DUP1 RETURN JUMPDEST DUP2 SLOAD PUSH2 0x18E3 SWAP1 DUP9 SWAP1 PUSH1 0x1 PUSH1 0x1 PUSH1 0xA0 SHL SUB SWAP1 DUP2 AND SWAP1 PUSH2 0x189F DUP9 PUSH2 0x2309 JUMP JUMPDEST MLOAD AND SWAP1 PUSH2 0x18AB DUP8 PUSH2 0x2309 JUMP JUMPDEST MLOAD DUP11 MLOAD PUSH4 0xA9059CBB PUSH1 0xE0 SHL DUP2 MSTORE PUSH1 0x1 PUSH1 0x1 PUSH1 0xA0 SHL SUB SWAP1 SWAP4 AND DUP4 DUP12 ADD SWAP1 DUP2 MSTORE PUSH1 0x20 DUP2 ADD SWAP2 SWAP1 SWAP2 MSTORE SWAP2 SWAP4 DUP5 SWAP3 DUP4 SWAP2 DUP15 SWAP2 DUP4 SWAP2 PUSH1 0x40 SWAP1 SWAP2 ADD SWAP1 JUMP JUMPDEST SUB SWAP3 GAS CALL DUP1 ISZERO PUSH2 0x1915 JUMPI PUSH2 0x18F8 JUMPI JUMPDEST POP PUSH2 0x1878 JUMP JUMPDEST PUSH2 0x190E SWAP1 DUP9 RETURNDATASIZE DUP11 GT PUSH2 0x48E JUMPI PUSH2 0x47E DUP2 DUP4 PUSH2 0x1AD4 JUMP JUMPDEST POP PUSH0 PUSH2 0x18F2 JUMP JUMPDEST DUP8 MLOAD RETURNDATASIZE DUP12 DUP3 RETURNDATACOPY RETURNDATASIZE SWAP1 REVERT JUMPDEST SWAP2 DUP7 SWAP2 PUSH1 0x44 SWAP4 DUP10 MLOAD SWAP4 PUSH4 0x963F39BF PUSH1 0xE0 SHL DUP6 MSTORE DUP5 ADD MSTORE DUP3 ADD MSTORE REVERT JUMPDEST DUP6 MLOAD PUSH4 0x3AE44449 PUSH1 0xE1 SHL DUP2 MSTORE DUP6 SWAP1 REVERT JUMPDEST DUP3 CALLDATALOAD DUP2 MSTORE SWAP2 DUP2 ADD SWAP2 DUP10 SWAP2 ADD PUSH2 0x184D JUMP JUMPDEST DUP10 DUP1 REVERT JUMPDEST DUP2 CALLDATALOAD PUSH1 0x1 PUSH1 0x1 PUSH1 0xA0 SHL SUB DUP2 AND DUP2 SUB PUSH2 0x197D JUMPI DUP2 MSTORE SWAP1 DUP9 ADD SWAP1 DUP9 ADD PUSH2 0x17F8 JUMP JUMPDEST DUP11 DUP1 REVERT JUMPDEST DUP4 DUP3 CALLVALUE PUSH2 0x4FD JUMPI DUP2 PUSH1 0x3 NOT CALLDATASIZE ADD SLT PUSH2 0x4FD JUMPI PUSH1 0x6 SLOAD SWAP1 MLOAD PUSH1 0x1 PUSH1 0x1 PUSH1 0xA0 SHL SUB SWAP1 SWAP2 AND DUP2 MSTORE PUSH1 0x20 SWAP1 RETURN JUMPDEST DUP4 DUP3 CALLVALUE PUSH2 0x4FD JUMPI DUP1 PUSH1 0x3 NOT CALLDATASIZE ADD SLT PUSH2 0x4FD JUMPI PUSH1 0x20 SWAP1 PUSH2 0xB10 PUSH2 0x19CA PUSH2 0x1B3D JUMP JUMPDEST PUSH1 0x24 CALLDATALOAD SWAP1 CALLER PUSH2 0x1BE0 JUMP JUMPDEST POP DUP3 CALLVALUE PUSH2 0x558 JUMPI DUP1 PUSH1 0x3 NOT CALLDATASIZE ADD SLT PUSH2 0x558 JUMPI PUSH1 0x60 PUSH4 0xFFFFFFFF DUP4 PUSH2 0x1A0D PUSH1 0xC SLOAD PUSH1 0x1 PUSH1 0x1 PUSH1 0x70 SHL SUB SWAP2 DUP3 DUP3 AND SWAP3 DUP3 PUSH1 0x70 SHR AND SWAP2 PUSH1 0xE0 SHR SWAP1 JUMP JUMPDEST SWAP1 SWAP4 SWAP2 DUP4 MLOAD SWAP5 PUSH1 0x1 PUSH1 0x1 PUSH1 0x70 SHL SUB DUP1 SWAP3 AND DUP7 MSTORE AND PUSH1 0x20 DUP6 ADD MSTORE AND SWAP1 DUP3 ADD MSTORE RETURN JUMPDEST DUP4 DUP3 CALLVALUE PUSH2 0x4FD JUMPI DUP2 PUSH1 0x3 NOT CALLDATASIZE ADD SLT PUSH2 0x4FD JUMPI DUP1 MLOAD PUSH2 0xB54 SWAP2 PUSH2 0x1A4E DUP3 PUSH2 0x1AA4 JUMP JUMPDEST PUSH1 0x6 DUP3 MSTORE PUSH6 0xA85A88E4CAF PUSH1 0xD3 SHL PUSH1 0x20 DUP4 ADD MSTORE MLOAD SWAP2 DUP3 SWAP2 DUP3 PUSH2 0x1AF6 JUMP JUMPDEST DUP5 SWAP1 DUP5 CALLVALUE PUSH2 0x2E6 JUMPI PUSH1 0x20 CALLDATASIZE PUSH1 0x3 NOT ADD SLT PUSH2 0x2E6 JUMPI CALLDATALOAD SWAP2 PUSH1 0x1 PUSH1 0x1 PUSH1 0xE0 SHL SUB NOT DUP4 AND DUP4 SUB PUSH2 0x558 JUMPI POP PUSH2 0x1A9E PUSH1 0x20 SWAP3 PUSH2 0x2337 JUMP JUMPDEST ISZERO ISZERO DUP2 MSTORE RETURN JUMPDEST PUSH1 0x40 DUP2 ADD SWAP1 DUP2 LT PUSH8 0xFFFFFFFFFFFFFFFF DUP3 GT OR PUSH2 0x1AC0 JUMPI PUSH1 0x40 MSTORE JUMP JUMPDEST PUSH4 0x4E487B71 PUSH1 0xE0 SHL PUSH0 MSTORE PUSH1 0x41 PUSH1 0x4 MSTORE PUSH1 0x24 PUSH0 REVERT JUMPDEST SWAP1 PUSH1 0x1F DUP1 NOT SWAP2 ADD AND DUP2 ADD SWAP1 DUP2 LT PUSH8 0xFFFFFFFFFFFFFFFF DUP3 GT OR PUSH2 0x1AC0 JUMPI PUSH1 0x40 MSTORE JUMP JUMPDEST PUSH1 0x20 DUP1 DUP3 MSTORE DUP3 MLOAD DUP2 DUP4 ADD DUP2 SWAP1 MSTORE SWAP1 SWAP4 SWAP3 PUSH0 JUMPDEST DUP3 DUP2 LT PUSH2 0x1B29 JUMPI POP POP PUSH1 0x40 SWAP3 SWAP4 POP PUSH0 DUP4 DUP3 DUP5 ADD ADD MSTORE PUSH1 0x1F DUP1 NOT SWAP2 ADD AND ADD ADD SWAP1 JUMP JUMPDEST DUP2 DUP2 ADD DUP7 ADD MLOAD DUP5 DUP3 ADD PUSH1 0x40 ADD MSTORE DUP6 ADD PUSH2 0x1B08 JUMP JUMPDEST PUSH1 0x4 CALLDATALOAD SWAP1 PUSH1 0x1 PUSH1 0x1 PUSH1 0xA0 SHL SUB DUP3 AND DUP3 SUB PUSH2 0x297 JUMPI JUMP JUMPDEST PUSH1 0x24 CALLDATALOAD SWAP1 PUSH1 0x1 PUSH1 0x1 PUSH1 0xA0 SHL SUB DUP3 AND DUP3 SUB PUSH2 0x297 JUMPI JUMP JUMPDEST PUSH8 0xFFFFFFFFFFFFFFFF DUP2 GT PUSH2 0x1AC0 JUMPI PUSH1 0x5 SHL PUSH1 0x20 ADD SWAP1 JUMP JUMPDEST SWAP2 DUP2 PUSH1 0x1F DUP5 ADD SLT ISZERO PUSH2 0x297 JUMPI DUP3 CALLDATALOAD SWAP2 PUSH8 0xFFFFFFFFFFFFFFFF DUP4 GT PUSH2 0x297 JUMPI PUSH1 0x20 DUP1 DUP6 ADD SWAP5 DUP5 PUSH1 0x5 SHL ADD ADD GT PUSH2 0x297 JUMPI JUMP JUMPDEST SWAP2 DUP2 PUSH1 0x1F DUP5 ADD SLT ISZERO PUSH2 0x297 JUMPI DUP3 CALLDATALOAD SWAP2 PUSH8 0xFFFFFFFFFFFFFFFF DUP4 GT PUSH2 0x297 JUMPI PUSH1 0x20 DUP4 DUP2 DUP7 ADD SWAP6 ADD ADD GT PUSH2 0x297 JUMPI JUMP JUMPDEST SWAP1 SWAP2 PUSH1 0x20 PUSH32 0x8C5BE1E5EBEC7D5BD14F71427D1E84F3DD0314C0F7B2291E5B200AC8C7C3B925 SWAP2 PUSH1 0x1 DUP1 PUSH1 0xA0 SHL SUB DUP1 SWAP5 AND SWAP4 DUP5 PUSH0 MSTORE PUSH1 0x2 DUP4 MSTORE PUSH1 0x40 PUSH0 KECCAK256 SWAP6 AND SWAP5 DUP6 PUSH0 MSTORE DUP3 MSTORE DUP1 PUSH1 0x40 PUSH0 KECCAK256 SSTORE PUSH1 0x40 MLOAD SWAP1 DUP2 MSTORE LOG3 JUMP JUMPDEST SWAP1 SWAP2 PUSH1 0x20 PUSH0 DUP1 MLOAD PUSH1 0x20 PUSH2 0x252B DUP4 CODECOPY DUP2 MLOAD SWAP2 MSTORE SWAP2 PUSH1 0x1 DUP1 PUSH1 0xA0 SHL SUB DUP1 SWAP5 AND SWAP4 PUSH0 SWAP6 DUP6 DUP8 MSTORE PUSH1 0x1 DUP5 MSTORE PUSH2 0x1C68 DUP4 PUSH1 0x40 DUP10 KECCAK256 SLOAD PUSH2 0x2417 JUMP JUMPDEST DUP7 DUP9 MSTORE PUSH1 0x1 DUP6 MSTORE PUSH1 0x40 DUP9 KECCAK256 SSTORE AND SWAP5 DUP6 DUP2 MSTORE PUSH1 0x40 PUSH2 0x1C88 DUP4 DUP3 DUP5 KECCAK256 SLOAD PUSH2 0x2402 JUMP JUMPDEST SWAP2 DUP8 DUP2 MSTORE PUSH1 0x1 DUP6 MSTORE KECCAK256 SSTORE PUSH1 0x40 MLOAD SWAP1 DUP2 MSTORE LOG3 JUMP JUMPDEST ISZERO PUSH2 0x1CA2 JUMPI JUMP JUMPDEST PUSH1 0x40 MLOAD PUSH3 0x461BCD PUSH1 0xE5 SHL DUP2 MSTORE PUSH1 0x20 PUSH1 0x4 DUP3 ADD MSTORE PUSH1 0xD PUSH1 0x24 DUP3 ADD MSTORE PUSH13 0x15111C995E0E881313D0D2D151 PUSH1 0x9A SHL PUSH1 0x44 DUP3 ADD MSTORE PUSH1 0x64 SWAP1 REVERT JUMPDEST DUP2 ISZERO PUSH2 0x1CE1 JUMPI DIV SWAP1 JUMP JUMPDEST PUSH4 0x4E487B71 PUSH1 0xE0 SHL PUSH0 MSTORE PUSH1 0x12 PUSH1 0x4 MSTORE PUSH1 0x24 PUSH0 REVERT JUMPDEST PUSH0 DUP1 MLOAD PUSH1 0x20 PUSH2 0x252B DUP4 CODECOPY DUP2 MLOAD SWAP2 MSTORE PUSH1 0x20 PUSH0 SWAP3 PUSH2 0x1D12 DUP6 DUP6 SLOAD PUSH2 0x2402 JUMP JUMPDEST DUP5 SSTORE PUSH1 0x1 DUP1 PUSH1 0xA0 SHL SUB AND SWAP4 DUP5 DUP5 MSTORE PUSH1 0x1 DUP3 MSTORE PUSH2 0x1D32 DUP2 PUSH1 0x40 DUP7 KECCAK256 SLOAD PUSH2 0x2402 JUMP JUMPDEST DUP6 DUP6 MSTORE PUSH1 0x1 DUP4 MSTORE PUSH1 0x40 DUP6 KECCAK256 SSTORE PUSH1 0x40 MLOAD SWAP1 DUP2 MSTORE LOG3 JUMP JUMPDEST DUP2 DUP2 MUL SWAP3 SWAP2 DUP2 ISZERO SWAP2 DUP5 DIV EQ OR ISZERO PUSH2 0x1D5A JUMPI JUMP JUMPDEST PUSH4 0x4E487B71 PUSH1 0xE0 SHL PUSH0 MSTORE PUSH1 0x11 PUSH1 0x4 MSTORE PUSH1 0x24 PUSH0 REVERT JUMPDEST SWAP2 SWAP1 DUP3 ADD DUP1 SWAP3 GT PUSH2 0x1D5A JUMPI JUMP JUMPDEST SWAP2 PUSH1 0x1 PUSH1 0x1 PUSH1 0x70 SHL SUB SWAP1 DUP2 DUP5 GT DUP1 ISZERO PUSH2 0x1EB2 JUMPI JUMPDEST PUSH2 0x1E94 JUMPI PUSH4 0xFFFFFFFF SWAP4 PUSH1 0xC SLOAD PUSH1 0xE0 SHR DUP6 TIMESTAMP AND SUB SWAP2 DUP6 DUP4 GT PUSH2 0x1D5A JUMPI PUSH32 0x1C411E9A96E071241C2F21F7726B17AE89E3CAB4C78BE50E062B03A9FFFBBAD1 SWAP7 PUSH1 0x40 SWAP7 DUP6 SWAP5 AND DUP1 ISZERO ISZERO DUP1 PUSH2 0x1E89 JUMPI JUMPDEST DUP1 PUSH2 0x1E7E JUMPI JUMPDEST PUSH2 0x1E25 JUMPI JUMPDEST POP POP POP PUSH1 0x70 SWAP4 DUP5 SHL PUSH1 0x1 PUSH1 0x70 SHL PUSH1 0x1 PUSH1 0xE0 SHL SUB AND SWAP2 AND SWAP1 DUP2 OR TIMESTAMP PUSH1 0xE0 SHL PUSH1 0x1 PUSH1 0x1 PUSH1 0xE0 SHL SUB NOT AND OR PUSH1 0xC DUP2 SWAP1 SSTORE DUP5 MLOAD SWAP2 DUP3 MSTORE SWAP1 SWAP3 SHR AND PUSH1 0x20 DUP3 ADD MSTORE LOG1 JUMP JUMPDEST PUSH2 0x1E73 SWAP3 PUSH2 0x1E6B SWAP3 PUSH1 0x1 PUSH1 0x1 PUSH1 0xE0 SHL SUB SWAP2 PUSH2 0x1E55 SWAP2 SWAP1 PUSH2 0x1E50 SWAP1 PUSH2 0x1E63 PUSH2 0x1E5B DUP8 DUP8 DUP8 DUP6 DUP8 DUP10 PUSH2 0x24DD JUMP JUMPDEST PUSH2 0x250C JUMP JUMPDEST AND PUSH2 0x1D47 JUMP JUMPDEST PUSH1 0xD SLOAD PUSH2 0x1D6E JUMP JUMPDEST PUSH1 0xD SSTORE PUSH2 0x24DD JUMP JUMPDEST PUSH1 0xE SLOAD PUSH2 0x1D6E JUMP JUMPDEST PUSH1 0xE SSTORE PUSH0 DUP1 DUP1 PUSH2 0x1DE7 JUMP JUMPDEST POP DUP5 DUP3 AND ISZERO ISZERO PUSH2 0x1DE2 JUMP JUMPDEST POP DUP5 DUP4 AND ISZERO ISZERO PUSH2 0x1DDC JUMP JUMPDEST PUSH1 0x44 DUP5 DUP5 PUSH1 0x40 MLOAD SWAP2 PUSH4 0x52939D77 PUSH1 0xE0 SHL DUP4 MSTORE PUSH1 0x4 DUP4 ADD MSTORE PUSH1 0x24 DUP3 ADD MSTORE REVERT JUMPDEST POP DUP2 DUP4 GT PUSH2 0x1D8F JUMP JUMPDEST SWAP1 DUP2 PUSH1 0x20 SWAP2 SUB SLT PUSH2 0x297 JUMPI MLOAD PUSH1 0x1 PUSH1 0x1 PUSH1 0xA0 SHL SUB DUP2 AND DUP2 SUB PUSH2 0x297 JUMPI SWAP1 JUMP JUMPDEST PUSH1 0x5 SLOAD PUSH1 0x40 MLOAD PUSH3 0x2FCFCB PUSH1 0xE3 SHL DUP2 MSTORE SWAP3 SWAP4 SWAP3 SWAP2 SWAP1 PUSH1 0x1 PUSH1 0x1 PUSH1 0xA0 SHL SUB SWAP1 PUSH1 0x20 SWAP1 DUP5 SWAP1 PUSH1 0x4 SWAP1 DUP3 SWAP1 DUP6 AND GAS STATICCALL SWAP3 DUP4 ISZERO PUSH2 0x2029 JUMPI PUSH0 SWAP4 PUSH2 0x2009 JUMPI JUMPDEST POP DUP3 AND ISZERO ISZERO SWAP4 PUSH1 0xF SLOAD SWAP2 DUP6 PUSH0 EQ PUSH2 0x1FF9 JUMPI DUP3 PUSH2 0x1F30 JUMPI JUMPDEST POP POP POP POP JUMP JUMPDEST PUSH2 0x1471 PUSH2 0x1F4D SWAP2 PUSH2 0x1F53 SWAP4 PUSH1 0x1 PUSH1 0x1 PUSH1 0x70 SHL SUB DUP1 SWAP2 AND SWAP2 AND PUSH2 0x24A7 JUMP JUMPDEST SWAP2 PUSH2 0x2357 JUMP JUMPDEST SWAP1 DUP2 DUP2 GT PUSH2 0x1F62 JUMPI JUMPDEST DUP1 PUSH2 0x1F2A JUMP JUMPDEST PUSH2 0x1F71 PUSH0 SLOAD PUSH2 0x1152 DUP5 DUP5 PUSH2 0x2417 JUMP JUMPDEST SWAP1 PUSH1 0x5 DUP2 MUL SWAP1 DUP1 DUP3 DIV PUSH1 0x5 EQ DUP2 ISZERO OR ISZERO PUSH2 0x1D5A JUMPI PUSH1 0x5 DUP3 DIV SUB PUSH2 0x1FBD JUMPI PUSH2 0x1FA1 SWAP3 PUSH2 0x1F9B SWAP2 PUSH2 0x2402 JUMP JUMPDEST SWAP1 PUSH2 0x1CD7 JUMP JUMPDEST DUP1 PUSH2 0x1FAD JUMPI JUMPDEST DUP1 PUSH2 0x1F5C JUMP JUMPDEST PUSH2 0x1FB6 SWAP2 PUSH2 0x1CF5 JUMP JUMPDEST PUSH0 DUP1 PUSH2 0x1FA7 JUMP JUMPDEST PUSH1 0x40 MLOAD PUSH3 0x461BCD PUSH1 0xE5 SHL DUP2 MSTORE PUSH1 0x20 PUSH1 0x4 DUP3 ADD MSTORE PUSH1 0x14 PUSH1 0x24 DUP3 ADD MSTORE PUSH20 0x64732D6D6174682D6D756C2D6F766572666C6F77 PUSH1 0x60 SHL PUSH1 0x44 DUP3 ADD MSTORE PUSH1 0x64 SWAP1 REVERT JUMPDEST POP POP SWAP1 POP PUSH2 0x2003 JUMPI JUMP JUMPDEST PUSH0 PUSH1 0xF SSTORE JUMP JUMPDEST PUSH2 0x2022 SWAP2 SWAP4 POP PUSH1 0x20 RETURNDATASIZE DUP2 GT PUSH2 0x4F6 JUMPI PUSH2 0x4E8 DUP2 DUP4 PUSH2 0x1AD4 JUMP JUMPDEST SWAP2 PUSH0 PUSH2 0x1F13 JUMP JUMPDEST PUSH1 0x40 MLOAD RETURNDATASIZE PUSH0 DUP3 RETURNDATACOPY RETURNDATASIZE SWAP1 REVERT JUMPDEST RETURNDATASIZE ISZERO PUSH2 0x206E JUMPI RETURNDATASIZE SWAP1 PUSH8 0xFFFFFFFFFFFFFFFF DUP3 GT PUSH2 0x1AC0 JUMPI PUSH1 0x40 MLOAD SWAP2 PUSH2 0x2063 PUSH1 0x1F DUP3 ADD PUSH1 0x1F NOT AND PUSH1 0x20 ADD DUP5 PUSH2 0x1AD4 JUMP JUMPDEST DUP3 MSTORE RETURNDATASIZE PUSH0 PUSH1 0x20 DUP5 ADD RETURNDATACOPY JUMP JUMPDEST PUSH1 0x60 SWAP1 JUMP JUMPDEST SWAP1 DUP2 PUSH1 0x20 SWAP2 SUB SLT PUSH2 0x297 JUMPI MLOAD DUP1 ISZERO ISZERO DUP2 SUB PUSH2 0x297 JUMPI SWAP1 JUMP JUMPDEST PUSH0 SWAP3 SWAP2 DUP4 PUSH2 0x2100 PUSH2 0x210E DUP3 SWAP6 PUSH32 0x7472616E7366657228616464726573732C75696E743235362900000000000000 PUSH1 0x20 PUSH1 0x40 MLOAD PUSH2 0x20C6 DUP2 PUSH2 0x1AA4 JUMP JUMPDEST PUSH1 0x19 DUP2 MSTORE ADD MSTORE PUSH1 0x40 MLOAD PUSH4 0xA9059CBB PUSH1 0xE0 SHL PUSH1 0x20 DUP3 ADD SWAP1 DUP2 MSTORE PUSH1 0x1 PUSH1 0x1 PUSH1 0xA0 SHL SUB SWAP1 SWAP7 AND PUSH1 0x24 DUP3 ADD MSTORE PUSH1 0x44 DUP2 ADD SWAP2 SWAP1 SWAP2 MSTORE SWAP2 DUP3 SWAP1 PUSH1 0x64 DUP3 ADD SWAP1 JUMP JUMPDEST SUB PUSH1 0x1F NOT DUP2 ADD DUP4 MSTORE DUP3 PUSH2 0x1AD4 JUMP JUMPDEST MLOAD SWAP3 GAS CALL PUSH2 0x211A PUSH2 0x2034 JUMP JUMPDEST DUP2 PUSH2 0x216D JUMPI JUMPDEST POP ISZERO PUSH2 0x2128 JUMPI JUMP JUMPDEST PUSH1 0x40 MLOAD PUSH3 0x461BCD PUSH1 0xE5 SHL DUP2 MSTORE PUSH1 0x20 PUSH1 0x4 DUP3 ADD MSTORE PUSH1 0x1C PUSH1 0x24 DUP3 ADD MSTORE PUSH32 0x54447265783A2045524332305F5452414E534645525F4641494C454400000000 PUSH1 0x44 DUP3 ADD MSTORE PUSH1 0x64 SWAP1 REVERT JUMPDEST DUP1 MLOAD DUP1 ISZERO SWAP3 POP DUP3 ISZERO PUSH2 0x2182 JUMPI JUMPDEST POP POP PUSH0 PUSH2 0x2120 JUMP JUMPDEST PUSH2 0x2195 SWAP3 POP PUSH1 0x20 DUP1 SWAP2 DUP4 ADD ADD SWAP2 ADD PUSH2 0x2073 JUMP JUMPDEST PUSH0 DUP1 PUSH2 0x217A JUMP JUMPDEST SWAP1 PUSH1 0x40 SWAP5 DUP6 MLOAD SWAP5 PUSH1 0x60 DUP7 ADD SWAP6 PUSH8 0xFFFFFFFFFFFFFFFF SWAP7 DUP2 DUP2 LT DUP9 DUP3 GT OR PUSH2 0x1AC0 JUMPI DUP9 MSTORE PUSH1 0x37 DUP2 MSTORE PUSH32 0x2C75696E743235362C75696E743235362C627974657329000000000000000000 DUP9 PUSH1 0x20 DUP4 ADD SWAP3 PUSH32 0x736166655472616E7366657246726F6D28616464726573732C61646472657373 DUP5 MSTORE ADD MSTORE PUSH1 0x37 PUSH4 0xFFFFFFFF PUSH1 0xE0 SHL SWAP2 KECCAK256 AND SWAP3 DUP8 MLOAD SWAP6 PUSH1 0x20 DUP8 ADD SWAP5 DUP6 MSTORE PUSH1 0x1 DUP1 PUSH1 0xA0 SHL SUB DUP1 SWAP3 AND PUSH1 0x24 DUP9 ADD MSTORE AND PUSH1 0x44 DUP7 ADD MSTORE PUSH1 0x64 DUP6 ADD MSTORE PUSH1 0x84 DUP5 ADD MSTORE PUSH1 0xA0 PUSH1 0xA4 DUP5 ADD MSTORE PUSH1 0x2 PUSH1 0xC4 DUP5 ADD MSTORE PUSH2 0x60F PUSH1 0xF3 SHL PUSH1 0xE4 DUP5 ADD MSTORE PUSH1 0xE4 DUP4 MSTORE PUSH2 0x120 DUP4 ADD SWAP4 DUP4 DUP6 LT SWAP1 DUP6 GT OR PUSH2 0x1AC0 JUMPI PUSH0 DUP1 SWAP5 SWAP4 DUP2 SWAP5 DUP8 MSTORE MLOAD SWAP3 GAS CALL PUSH2 0x2288 PUSH2 0x2034 JUMP JUMPDEST DUP2 PUSH2 0x22DA JUMPI JUMPDEST POP ISZERO PUSH2 0x2297 JUMPI POP JUMP JUMPDEST MLOAD PUSH3 0x461BCD PUSH1 0xE5 SHL DUP2 MSTORE PUSH1 0x20 PUSH1 0x4 DUP3 ADD MSTORE PUSH1 0x1E PUSH1 0x24 DUP3 ADD MSTORE PUSH32 0x54447265783A20455243313135355F5452414E534645525F4641494C45440000 PUSH1 0x44 DUP3 ADD MSTORE PUSH1 0x64 SWAP1 REVERT JUMPDEST DUP1 MLOAD DUP1 ISZERO SWAP3 POP DUP3 ISZERO PUSH2 0x22EF JUMPI JUMPDEST POP POP PUSH0 PUSH2 0x228E JUMP JUMPDEST PUSH2 0x2302 SWAP3 POP PUSH1 0x20 DUP1 SWAP2 DUP4 ADD ADD SWAP2 ADD PUSH2 0x2073 JUMP JUMPDEST PUSH0 DUP1 PUSH2 0x22E7 JUMP JUMPDEST DUP1 MLOAD ISZERO PUSH2 0x2316 JUMPI PUSH1 0x20 ADD SWAP1 JUMP JUMPDEST PUSH4 0x4E487B71 PUSH1 0xE0 SHL PUSH0 MSTORE PUSH1 0x32 PUSH1 0x4 MSTORE PUSH1 0x24 PUSH0 REVERT JUMPDEST SWAP2 SWAP1 DUP3 SUB SWAP2 DUP3 GT PUSH2 0x1D5A JUMPI JUMP JUMPDEST PUSH1 0x1 PUSH1 0x1 PUSH1 0xE0 SHL SUB NOT AND PUSH4 0x36372B07 PUSH1 0xE0 SHL EQ PUSH2 0x2352 JUMPI PUSH0 SWAP1 JUMP JUMPDEST PUSH1 0x1 SWAP1 JUMP JUMPDEST SWAP1 PUSH0 PUSH1 0x3 DUP4 GT ISZERO PUSH2 0x23A3 JUMPI POP DUP2 PUSH1 0x1 SWAP1 DUP1 DUP3 SHR DUP3 DUP2 ADD DUP1 SWAP2 GT PUSH2 0x1D5A JUMPI SWAP2 SWAP1 JUMPDEST DUP5 DUP4 LT PUSH2 0x2383 JUMPI POP POP POP JUMP JUMPDEST SWAP1 SWAP2 SWAP4 POP PUSH2 0x239A DUP5 PUSH2 0x2395 DUP2 DUP5 PUSH2 0x1CD7 JUMP JUMPDEST PUSH2 0x1D6E JUMP JUMPDEST DUP3 SHR SWAP2 SWAP1 PUSH2 0x2377 JUMP JUMPDEST SWAP2 PUSH2 0x23AA JUMPI JUMP JUMPDEST PUSH1 0x1 SWAP2 POP JUMP JUMPDEST SWAP1 PUSH2 0x3E8 DUP3 ADD SWAP2 DUP3 DUP2 GT PUSH2 0x1D5A JUMPI DUP3 LT PUSH2 0x23C6 JUMPI JUMP JUMPDEST PUSH1 0x40 MLOAD PUSH3 0x461BCD PUSH1 0xE5 SHL DUP2 MSTORE PUSH1 0x20 PUSH1 0x4 DUP3 ADD MSTORE PUSH1 0x14 PUSH1 0x24 DUP3 ADD MSTORE PUSH20 0x64732D6D6174682D6164642D6F766572666C6F77 PUSH1 0x60 SHL PUSH1 0x44 DUP3 ADD MSTORE PUSH1 0x64 SWAP1 REVERT JUMPDEST SWAP2 SWAP1 PUSH2 0x240E SWAP1 DUP4 PUSH2 0x1D6E JUMP JUMPDEST SWAP2 DUP3 LT PUSH2 0x23C6 JUMPI JUMP JUMPDEST SWAP2 SWAP1 PUSH2 0x2423 SWAP1 DUP4 PUSH2 0x232A JUMP JUMPDEST SWAP2 DUP3 GT PUSH2 0x242C JUMPI JUMP JUMPDEST PUSH1 0x40 MLOAD PUSH3 0x461BCD PUSH1 0xE5 SHL DUP2 MSTORE PUSH1 0x20 PUSH1 0x4 DUP3 ADD MSTORE PUSH1 0x15 PUSH1 0x24 DUP3 ADD MSTORE PUSH21 0x64732D6D6174682D7375622D756E646572666C6F77 PUSH1 0x58 SHL PUSH1 0x44 DUP3 ADD MSTORE PUSH1 0x64 SWAP1 REVERT JUMPDEST SWAP1 PUSH2 0x3E8 SWAP2 DUP3 DUP2 MUL SWAP3 DUP2 DUP5 DIV DUP2 EQ DUP3 ISZERO OR ISZERO PUSH2 0x1D5A JUMPI DUP4 DIV SUB PUSH2 0x1FBD JUMPI JUMP JUMPDEST SWAP1 PUSH1 0x3 DUP3 MUL SWAP2 DUP1 DUP4 DIV PUSH1 0x3 EQ DUP2 ISZERO OR ISZERO PUSH2 0x1D5A JUMPI PUSH1 0x3 DUP4 DIV SUB PUSH2 0x1FBD JUMPI JUMP JUMPDEST PUSH0 SWAP3 SWAP2 DUP1 ISZERO SWAP2 DUP3 ISZERO PUSH2 0x24BD JUMPI JUMPDEST POP POP ISZERO PUSH2 0x1FBD JUMPI JUMP JUMPDEST SWAP2 POP SWAP3 POP PUSH2 0x24D5 PUSH2 0x24CE DUP5 DUP4 PUSH2 0x1D47 JUMP JUMPDEST SWAP4 DUP5 PUSH2 0x1CD7 JUMP JUMPDEST EQ PUSH0 DUP1 PUSH2 0x24B4 JUMP JUMPDEST PUSH1 0x1 PUSH1 0x70 SHL PUSH1 0x1 PUSH1 0xE0 SHL SUB PUSH1 0x70 DUP3 SWAP1 SHL AND SWAP1 PUSH1 0x1 PUSH1 0x1 PUSH1 0x70 SHL SUB AND DUP1 DUP3 DIV PUSH1 0x1 PUSH1 0x70 SHL EQ SWAP1 ISZERO OR ISZERO PUSH2 0x1D5A JUMPI SWAP1 JUMP JUMPDEST SWAP1 PUSH1 0x1 PUSH1 0x1 PUSH1 0x70 SHL SUB AND SWAP1 DUP2 ISZERO PUSH2 0x1CE1 JUMPI PUSH1 0x1 PUSH1 0x1 PUSH1 0xE0 SHL SUB AND DIV SWAP1 JUMP INVALID 0xDD CALLCODE MSTORE 0xAD SHL 0xE2 0xC8 SWAP12 PUSH10 0xC2B068FC378DAA952BA7 CALL PUSH4 0xC4A11628 CREATE2 GAS 0x4D CREATE2 0x23 0xB3 0xEF LOG2 PUSH5 0x6970667358 0x22 SLT KECCAK256 CALLER SAR LOG0 0xB7 CALL OR PUSH14 0x48E8A2703811379F08232CCA891A 0xE5 0xDC PUSH2 0x8331 0xEE CALLDATALOAD DUP12 0x27 0xC3 0xE6 PUSH5 0x736F6C6343 STOP ADDMOD ISZERO STOP CALLER LOG2 PUSH5 0x6970667358 0x22 SLT KECCAK256 0xF7 LT OR PUSH10 0x12E0FBD003D95E7E228 SWAP5 PUSH32 0xAC0F27C5AA72A9DFA2778ABDA9F744664736F6C634300081500330000000000 "
		},
		"gasEstimates": {
			"creation": {
				"codeDepositCost": "2366400",
				"executionCost": "infinite",
				"totalCost": "infinite"
			},
			"external": {
				"allPairs(uint256)": "4479",
				"allPairsLength()": "2356",
				"createPair(address,address,uint256,uint256,uint256)": "infinite",
				"feeTo()": "2270",
				"feeToSetter()": "2314",
				"getPair(address,address,uint256)": "2771",
				"govBr()": "2446",
				"setFeeTo(address)": "26763",
				"setFeeToSetter(address)": "24637"
			},
			"internal": {
				"_isGov(address)": "infinite"
			}
		},
		"methodIdentifiers": {
			"allPairs(uint256)": "1e3dd18b",
			"allPairsLength()": "574f2ba3",
			"createPair(address,address,uint256,uint256,uint256)": "4b77fa8b",
			"feeTo()": "017e7e58",
			"feeToSetter()": "094b7415",
			"getPair(address,address,uint256)": "5eced480",
			"govBr()": "ae062d76",
			"setFeeTo(address)": "f46901ed",
			"setFeeToSetter(address)": "a2e74af6"
		}
	},
	"abi": [
		{
			"inputs": [
				{
					"internalType": "address",
					"name": "_feeToSetter",
					"type": "address"
				},
				{
					"internalType": "address",
					"name": "_govBR",
					"type": "address"
				}
			],
			"stateMutability": "nonpayable",
			"type": "constructor"
		},
		{
			"inputs": [],
			"name": "Factory_Forbidden",
			"type": "error"
		},
		{
			"inputs": [],
			"name": "Factory_IdenticalAddresses",
			"type": "error"
		},
		{
			"inputs": [],
			"name": "Factory_PairExists",
			"type": "error"
		},
		{
			"inputs": [],
			"name": "Factory_ZeroAddress",
			"type": "error"
		},
		{
			"inputs": [],
			"name": "Factory_ZeroAmount",
			"type": "error"
		},
		{
			"anonymous": false,
			"inputs": [
				{
					"indexed": true,
					"internalType": "address",
					"name": "token0",
					"type": "address"
				},
				{
					"indexed": true,
					"internalType": "address",
					"name": "token1",
					"type": "address"
				},
				{
					"indexed": false,
					"internalType": "address",
					"name": "pair",
					"type": "address"
				},
				{
					"indexed": false,
					"internalType": "uint256",
					"name": "id",
					"type": "uint256"
				},
				{
					"indexed": false,
					"internalType": "uint256",
					"name": "amount0",
					"type": "uint256"
				},
				{
					"indexed": false,
					"internalType": "uint256",
					"name": "amount1",
					"type": "uint256"
				},
				{
					"indexed": false,
					"internalType": "uint256",
					"name": "",
					"type": "uint256"
				}
			],
			"name": "PairCreated",
			"type": "event"
		},
		{
			"inputs": [
				{
					"internalType": "uint256",
					"name": "",
					"type": "uint256"
				}
			],
			"name": "allPairs",
			"outputs": [
				{
					"internalType": "address",
					"name": "",
					"type": "address"
				}
			],
			"stateMutability": "view",
			"type": "function"
		},
		{
			"inputs": [],
			"name": "allPairsLength",
			"outputs": [
				{
					"internalType": "uint256",
					"name": "",
					"type": "uint256"
				}
			],
			"stateMutability": "view",
			"type": "function"
		},
		{
			"inputs": [
				{
					"internalType": "address",
					"name": "tokenA",
					"type": "address"
				},
				{
					"internalType": "address",
					"name": "tokenB",
					"type": "address"
				},
				{
					"internalType": "uint256",
					"name": "amount0",
					"type": "uint256"
				},
				{
					"internalType": "uint256",
					"name": "amount1",
					"type": "uint256"
				},
				{
					"internalType": "uint256",
					"name": "id",
					"type": "uint256"
				}
			],
			"name": "createPair",
			"outputs": [
				{
					"internalType": "address",
					"name": "pair",
					"type": "address"
				}
			],
			"stateMutability": "nonpayable",
			"type": "function"
		},
		{
			"inputs": [],
			"name": "feeTo",
			"outputs": [
				{
					"internalType": "address",
					"name": "",
					"type": "address"
				}
			],
			"stateMutability": "view",
			"type": "function"
		},
		{
			"inputs": [],
			"name": "feeToSetter",
			"outputs": [
				{
					"internalType": "address",
					"name": "",
					"type": "address"
				}
			],
			"stateMutability": "view",
			"type": "function"
		},
		{
			"inputs": [
				{
					"internalType": "address",
					"name": "",
					"type": "address"
				},
				{
					"internalType": "address",
					"name": "",
					"type": "address"
				},
				{
					"internalType": "uint256",
					"name": "",
					"type": "uint256"
				}
			],
			"name": "getPair",
			"outputs": [
				{
					"internalType": "address",
					"name": "",
					"type": "address"
				}
			],
			"stateMutability": "view",
			"type": "function"
		},
		{
			"inputs": [],
			"name": "govBr",
			"outputs": [
				{
					"internalType": "address",
					"name": "",
					"type": "address"
				}
			],
			"stateMutability": "view",
			"type": "function"
		},
		{
			"inputs": [
				{
					"internalType": "address",
					"name": "_feeTo",
					"type": "address"
				}
			],
			"name": "setFeeTo",
			"outputs": [],
			"stateMutability": "nonpayable",
			"type": "function"
		},
		{
			"inputs": [
				{
					"internalType": "address",
					"name": "_feeToSetter",
					"type": "address"
				}
			],
			"name": "setFeeToSetter",
			"outputs": [],
			"stateMutability": "nonpayable",
			"type": "function"
		}
	]
}