{
	"src/core/Native.sol": {
		"NATIVE": {
			"abi": [
				{
					"anonymous": false,
					"inputs": [
						{
							"indexed": true,
							"internalType": "address",
							"name": "src",
							"type": "address"
						},
						{
							"indexed": true,
							"internalType": "address",
							"name": "guy",
							"type": "address"
						},
						{
							"indexed": false,
							"internalType": "uint256",
							"name": "wad",
							"type": "uint256"
						}
					],
					"name": "Approval",
					"type": "event"
				},
				{
					"anonymous": false,
					"inputs": [
						{
							"indexed": true,
							"internalType": "address",
							"name": "dst",
							"type": "address"
						},
						{
							"indexed": false,
							"internalType": "uint256",
							"name": "wad",
							"type": "uint256"
						}
					],
					"name": "Deposit",
					"type": "event"
				},
				{
					"anonymous": false,
					"inputs": [
						{
							"indexed": true,
							"internalType": "address",
							"name": "src",
							"type": "address"
						},
						{
							"indexed": true,
							"internalType": "address",
							"name": "dst",
							"type": "address"
						},
						{
							"indexed": false,
							"internalType": "uint256",
							"name": "wad",
							"type": "uint256"
						}
					],
					"name": "Transfer",
					"type": "event"
				},
				{
					"anonymous": false,
					"inputs": [
						{
							"indexed": true,
							"internalType": "address",
							"name": "src",
							"type": "address"
						},
						{
							"indexed": false,
							"internalType": "uint256",
							"name": "wad",
							"type": "uint256"
						}
					],
					"name": "Withdrawal",
					"type": "event"
				},
				{
					"stateMutability": "payable",
					"type": "fallback"
				},
				{
					"inputs": [
						{
							"internalType": "address",
							"name": "",
							"type": "address"
						},
						{
							"internalType": "address",
							"name": "",
							"type": "address"
						}
					],
					"name": "allowance",
					"outputs": [
						{
							"internalType": "uint256",
							"name": "",
							"type": "uint256"
						}
					],
					"stateMutability": "view",
					"type": "function"
				},
				{
					"inputs": [
						{
							"internalType": "address",
							"name": "guy",
							"type": "address"
						},
						{
							"internalType": "uint256",
							"name": "wad",
							"type": "uint256"
						}
					],
					"name": "approve",
					"outputs": [
						{
							"internalType": "bool",
							"name": "",
							"type": "bool"
						}
					],
					"stateMutability": "nonpayable",
					"type": "function"
				},
				{
					"inputs": [
						{
							"internalType": "address",
							"name": "",
							"type": "address"
						}
					],
					"name": "balanceOf",
					"outputs": [
						{
							"internalType": "uint256",
							"name": "",
							"type": "uint256"
						}
					],
					"stateMutability": "view",
					"type": "function"
				},
				{
					"inputs": [],
					"name": "decimals",
					"outputs": [
						{
							"internalType": "uint8",
							"name": "",
							"type": "uint8"
						}
					],
					"stateMutability": "view",
					"type": "function"
				},
				{
					"inputs": [],
					"name": "deposit",
					"outputs": [],
					"stateMutability": "payable",
					"type": "function"
				},
				{
					"inputs": [],
					"name": "name",
					"outputs": [
						{
							"internalType": "string",
							"name": "",
							"type": "string"
						}
					],
					"stateMutability": "view",
					"type": "function"
				},
				{
					"inputs": [],
					"name": "symbol",
					"outputs": [
						{
							"internalType": "string",
							"name": "",
							"type": "string"
						}
					],
					"stateMutability": "view",
					"type": "function"
				},
				{
					"inputs": [],
					"name": "totalSupply",
					"outputs": [
						{
							"internalType": "uint256",
							"name": "",
							"type": "uint256"
						}
					],
					"stateMutability": "view",
					"type": "function"
				},
				{
					"inputs": [
						{
							"internalType": "address",
							"name": "dst",
							"type": "address"
						},
						{
							"internalType": "uint256",
							"name": "wad",
							"type": "uint256"
						}
					],
					"name": "transfer",
					"outputs": [
						{
							"internalType": "bool",
							"name": "",
							"type": "bool"
						}
					],
					"stateMutability": "nonpayable",
					"type": "function"
				},
				{
					"inputs": [
						{
							"internalType": "address",
							"name": "src",
							"type": "address"
						},
						{
							"internalType": "address",
							"name": "dst",
							"type": "address"
						},
						{
							"internalType": "uint256",
							"name": "wad",
							"type": "uint256"
						}
					],
					"name": "transferFrom",
					"outputs": [
						{
							"internalType": "bool",
							"name": "",
							"type": "bool"
						}
					],
					"stateMutability": "nonpayable",
					"type": "function"
				},
				{
					"inputs": [
						{
							"internalType": "uint256",
							"name": "wad",
							"type": "uint256"
						}
					],
					"name": "withdraw",
					"outputs": [],
					"stateMutability": "nonpayable",
					"type": "function"
				},
				{
					"stateMutability": "payable",
					"type": "receive"
				}
			],
			"devdoc": {
				"kind": "dev",
				"methods": {},
				"version": 1
			},
			"evm": {
				"assembly": "    /* \"src/core/Native.sol\":26:1859  contract NATIVE {... */\n  mstore(0x40, 0x80)\n  jumpi(tag_2, callvalue)\n    /* \"src/core/Native.sol\":69:84  \"Wrapped Ether\" */\n  0x00\n    /* \"src/core/Native.sol\":26:1859  contract NATIVE {... */\n  tag_4\n  dup2\n  sload\n  tag_1\n  jump\t// in\ntag_4:\n  0x1f\n  dup2\n  gt\n  tag_5\n  jumpi\ntag_6:\n  pop\n  add(shl(0x99, 0x2bb930b83832b21022ba3432b9), 0x1a)\n  dup2\n  sstore\n    /* \"src/core/Native.sol\":113:119  \"WETH\" */\n  0x01\n    /* \"src/core/Native.sol\":26:1859  contract NATIVE {... */\n  swap1\n  tag_7\n  dup3\n  sload\n  tag_1\n  jump\t// in\ntag_7:\n  swap1\n  0x1f\n  dup3\n  gt\n  tag_8\n  jumpi\ntag_9:\n  add(shl(0xe3, 0x0ae8aa89), 0x08)\n  dup4\n  sstore\n    /* \"src/core/Native.sol\":149:151  18 */\n  0x02\n    /* \"src/core/Native.sol\":26:1859  contract NATIVE {... */\n  dup1\n  sload\n  not(0xff)\n  and\n    /* \"src/core/Native.sol\":149:151  18 */\n  0x12\n    /* \"src/core/Native.sol\":26:1859  contract NATIVE {... */\n  or\n  swap1\n  sstore\n  mload(0x40)\n  dataSize(sub_0)\n  swap1\n  dup2\n  dataOffset(sub_0)\n  dup3\n  codecopy\n  return\ntag_8:\n  dup3\n  dup2\n  mstore\n  dup3\n  0x1f\n  0x20\n  dup4\n  keccak256\n  swap4\n  add\n  0x05\n  shr\n  dup4\n  add\n  swap3\ntag_10:\n  dup4\n  dup2\n  lt\n  tag_11\n  jumpi\n  pop\n  pop\n  jump(tag_9)\ntag_11:\n  dup3\n  dup2\n  sstore\n  add\n  dup4\n  swap1\n  jump(tag_10)\ntag_5:\n  dup2\n  dup1\n  mstore\n  0x1f\n  0x20\n  dup4\n  keccak256\n  swap2\n  add\n  0x05\n  shr\n  dup2\n  add\n  swap1\ntag_13:\n  dup2\n  dup2\n  lt\n  tag_14\n  jumpi\n  pop\n  jump(tag_6)\ntag_14:\n  dup3\n  dup2\n  sstore\n  0x01\n  add\n  jump(tag_13)\ntag_2:\n  0x00\n  dup1\n  revert\ntag_1:\n  swap1\n  0x01\n  dup3\n  dup2\n  shr\n  swap3\n  and\n  dup1\n  iszero\n  tag_16\n  jumpi\ntag_17:\n  0x20\n  dup4\n  lt\n  eq\n  tag_18\n  jumpi\n  jump\t// out\ntag_18:\n  mstore(0x00, shl(0xe0, 0x4e487b71))\n  mstore(0x04, 0x22)\n  revert(0x00, 0x24)\ntag_16:\n  swap2\n  0x7f\n  and\n  swap2\n  jump(tag_17)\nstop\n\nsub_0: assembly {\n        /* \"src/core/Native.sol\":26:1859  contract NATIVE {... */\n      0x80\n      0x40\n      dup2\n      dup2\n      mstore\n      0x04\n      dup1\n      calldatasize\n      lt\n      iszero\n      tag_8\n      jumpi\n    tag_9:\n      pop\n      pop\n      pop\n      jumpi(tag_12, iszero(calldatasize))\n        /* \"src/core/Native.sol\":521:575  fallback() external payable {... */\n      tag_12\n      tag_5\n      jump\t// in\n    tag_12:\n        /* \"src/core/Native.sol\":26:1859  contract NATIVE {... */\n      stop\n    tag_8:\n      0x00\n      swap3\n      dup4\n      calldataload\n      0xe0\n      shr\n      swap1\n      dup2\n      0x06fdde03\n      eq\n      tag_13\n      jumpi\n      pop\n      dup1\n      0x095ea7b3\n      eq\n      tag_15\n      jumpi\n      dup1\n      0x18160ddd\n      eq\n      tag_17\n      jumpi\n      dup1\n      0x23b872dd\n      eq\n      tag_19\n      jumpi\n      dup1\n      0x2e1a7d4d\n      eq\n      tag_21\n      jumpi\n      dup1\n      0x313ce567\n      eq\n      tag_23\n      jumpi\n      dup1\n      0x70a08231\n      eq\n      tag_25\n      jumpi\n      dup1\n      0x95d89b41\n      eq\n      tag_27\n      jumpi\n      dup1\n      0xa9059cbb\n      eq\n      tag_29\n      jumpi\n      dup1\n      0xd0e30db0\n      eq\n      tag_31\n      jumpi\n      0xdd62ed3e\n      sub\n      tag_9\n      jumpi\n      jumpi(tag_37, callvalue)\n      dup2\n      add(calldatasize, not(0x03))\n      slt\n      tag_37\n      jumpi\n      0x20\n      swap3\n      dup3\n      swap2\n      tag_39\n      tag_2\n      jump\t// in\n    tag_39:\n      tag_40\n      tag_3\n      jump\t// in\n    tag_40:\n      sub(shl(0xa0, 0x01), 0x01)\n      swap2\n      dup3\n      and\n      dup5\n      mstore\n      swap2\n      dup7\n      mstore\n      dup4\n      dup4\n      keccak256\n      swap2\n      and\n      dup3\n      mstore\n      dup5\n      mstore\n      keccak256\n      sload\n      swap1\n      mload\n      swap1\n      dup2\n      mstore\n      return\n    tag_37:\n      dup3\n      dup1\n      revert\n    tag_31:\n      dup4\n      dup1\n      add(calldatasize, not(0x03))\n      slt\n      tag_41\n      jumpi\n      tag_43\n      tag_5\n      jump\t// in\n    tag_43:\n      dup1\n      return\n    tag_41:\n      dup1\n      revert\n    tag_29:\n      pop\n      pop\n      jumpi(tag_46, callvalue)\n      dup1\n      add(calldatasize, not(0x03))\n      slt\n      tag_46\n      jumpi\n      0x20\n      swap1\n        /* \"src/core/Native.sol\":1334:1368  transferFrom(msg.sender, dst, wad) */\n      tag_48\n        /* \"src/core/Native.sol\":26:1859  contract NATIVE {... */\n      tag_49\n      tag_2\n      jump\t// in\n    tag_49:\n      calldataload(0x24)\n        /* \"src/core/Native.sol\":1347:1357  msg.sender */\n      swap1\n      caller\n        /* \"src/core/Native.sol\":1334:1368  transferFrom(msg.sender, dst, wad) */\n      tag_7\n      jump\t// in\n    tag_48:\n        /* \"src/core/Native.sol\":26:1859  contract NATIVE {... */\n      swap1\n      mload\n      swap1\n      iszero\n      iszero\n      dup2\n      mstore\n      return\n    tag_46:\n      pop\n      dup1\n      revert\n    tag_27:\n      pop\n      swap2\n      swap1\n      jumpi(tag_46, callvalue)\n      dup2\n      add(calldatasize, not(0x03))\n      slt\n      tag_46\n      jumpi\n      dup1\n      mload\n      swap1\n      dup3\n        /* \"src/core/Native.sol\":90:119  string public symbol = \"WETH\" */\n      0x01\n        /* \"src/core/Native.sol\":26:1859  contract NATIVE {... */\n      dup1\n      sload\n      swap1\n      dup2\n      dup2\n      shr\n      swap1\n      dup1\n      dup4\n      and\n      swap3\n      dup4\n      iszero\n      tag_54\n      jumpi\n    tag_55:\n      0x20\n      swap4\n      dup5\n      dup5\n      lt\n      dup2\n      eq\n      tag_56\n      jumpi\n      dup4\n      dup9\n      mstore\n      swap1\n      dup2\n      iszero\n      tag_58\n      jumpi\n      pop\n      0x01\n      eq\n      tag_60\n      jumpi\n    tag_61:\n      pop\n      pop\n      pop\n      dup3\n      swap1\n      sub\n      0x1f\n      add\n      not(0x1f)\n      and\n      dup3\n      add\n      swap3\n      0xffffffffffffffff\n      dup5\n      gt\n      dup4\n      dup6\n      lt\n      or\n      tag_62\n      jumpi\n      pop\n      dup3\n      swap2\n      dup3\n      tag_64\n      swap3\n      mstore\n      dup3\n      tag_1\n      jump\t// in\n    tag_64:\n      sub\n      swap1\n      return\n    tag_62:\n      shl(0xe0, 0x4e487b71)\n      dup2\n      mstore\n      0x41\n      dup6\n      mstore\n      0x24\n      swap1\n      revert\n    tag_60:\n      dup1\n      dup8\n      mstore\n      swap2\n      swap3\n      pop\n      dup6\n      swap2\n      dup4\n      0xb10e2d527612073b26eecdfd717e6a320cf44b4afac2b0732d9fcbe2b7fa0cf6\n    tag_65:\n      dup4\n      dup6\n      lt\n      tag_66\n      jumpi\n      pop\n      pop\n      pop\n      pop\n      dup4\n      add\n      add\n      0x00\n      dup1\n      dup1\n      jump(tag_61)\n    tag_66:\n      dup1\n      sload\n      dup9\n      dup7\n      add\n      dup4\n      add\n      mstore\n      swap4\n      add\n      swap3\n      dup5\n      swap1\n      dup3\n      add\n      jump(tag_65)\n    tag_58:\n      not(0xff)\n      and\n      dup8\n      dup6\n      add\n      mstore\n      pop\n      pop\n      iszero\n      iszero\n      0x05\n      shl\n      dup5\n      add\n      add\n      swap1\n      pop\n      0x00\n      dup1\n      dup1\n      jump(tag_61)\n    tag_56:\n      shl(0xe0, 0x4e487b71)\n      dup10\n      mstore\n      0x22\n      dup11\n      mstore\n      0x24\n      dup10\n      revert\n    tag_54:\n      swap2\n      0x7f\n      and\n      swap2\n      jump(tag_55)\n    tag_25:\n      pop\n      pop\n      jumpi(tag_46, callvalue)\n      jumpi(tag_46, slt(add(not(0x03), calldatasize), 0x20))\n      0x20\n      swap2\n      dup2\n      swap1\n      sub(shl(0xa0, 0x01), 0x01)\n      tag_72\n      tag_2\n      jump\t// in\n    tag_72:\n      and\n      dup2\n      mstore\n        /* \"src/core/Native.sol\":406:447  mapping(address => uint) public balanceOf */\n      0x03\n        /* \"src/core/Native.sol\":26:1859  contract NATIVE {... */\n      dup5\n      mstore\n      keccak256\n      sload\n      swap1\n      mload\n      swap1\n      dup2\n      mstore\n      return\n    tag_23:\n      pop\n      pop\n      jumpi(tag_46, callvalue)\n      dup2\n      add(calldatasize, not(0x03))\n      slt\n      tag_46\n      jumpi\n      0x20\n      swap1\n      0xff\n        /* \"src/core/Native.sol\":125:151  uint8 public decimals = 18 */\n      0x02\n        /* \"src/core/Native.sol\":26:1859  contract NATIVE {... */\n      sload\n      and\n      swap1\n      mload\n      swap1\n      dup2\n      mstore\n      return\n    tag_21:\n      pop\n      jumpi(tag_37, callvalue)\n      jumpi(tag_37, slt(add(not(0x03), calldatasize), 0x20))\n      calldataload\n        /* \"src/core/Native.sol\":815:825  msg.sender */\n      swap1\n      caller\n        /* \"src/core/Native.sol\":26:1859  contract NATIVE {... */\n      dup4\n      mstore\n        /* \"src/core/Native.sol\":805:814  balanceOf */\n      0x03\n        /* \"src/core/Native.sol\":26:1859  contract NATIVE {... */\n      0x20\n      mstore\n      dup1\n      dup4\n      keccak256\n      dup1\n      sload\n        /* \"src/core/Native.sol\":805:833  balanceOf[msg.sender] >= wad */\n      dup4\n      dup2\n      lt\n        /* \"src/core/Native.sol\":26:1859  contract NATIVE {... */\n      tag_81\n      jumpi\n        /* \"src/core/Native.sol\":844:872  balanceOf[msg.sender] -= wad */\n      dup4\n      tag_83\n      swap2\n      tag_6\n      jump\t// in\n    tag_83:\n        /* \"src/core/Native.sol\":26:1859  contract NATIVE {... */\n      swap1\n      sstore\n        /* \"src/core/Native.sol\":882:915  payable(msg.sender).transfer(wad) */\n      dup3\n      dup1\n      dup4\n      dup1\n      iszero\n      tag_84\n      jumpi\n        /* \"src/core/Native.sol\":26:1859  contract NATIVE {... */\n    tag_85:\n        /* \"src/core/Native.sol\":815:825  msg.sender */\n      dup3\n      dup1\n      swap3\n      swap2\n      dup2\n      swap3\n      caller\n        /* \"src/core/Native.sol\":882:915  payable(msg.sender).transfer(wad) */\n      swap1\n      call\n      iszero\n      tag_86\n      jumpi\n        /* \"src/core/Native.sol\":26:1859  contract NATIVE {... */\n      mload\n      swap1\n      dup2\n      mstore\n        /* \"src/core/Native.sol\":930:957  Withdrawal(msg.sender, wad) */\n      0x7fcf532c15f0a6db0bd6d0e038bea71d30d808c7d98cb3bf7268a95bf5081b65\n        /* \"src/core/Native.sol\":26:1859  contract NATIVE {... */\n      0x20\n        /* \"src/core/Native.sol\":815:825  msg.sender */\n      caller\n        /* \"src/core/Native.sol\":930:957  Withdrawal(msg.sender, wad) */\n      swap3\n      log2\n        /* \"src/core/Native.sol\":26:1859  contract NATIVE {... */\n      dup1\n      return\n        /* \"src/core/Native.sol\":882:915  payable(msg.sender).transfer(wad) */\n    tag_86:\n        /* \"src/core/Native.sol\":26:1859  contract NATIVE {... */\n      mload\n      swap2\n      returndatasize\n      swap2\n      pop\n      dup3\n      returndatacopy\n      returndatasize\n      swap1\n      revert\n        /* \"src/core/Native.sol\":882:915  payable(msg.sender).transfer(wad) */\n    tag_84:\n      0x08fc\n      swap2\n      pop\n      jump(tag_85)\n        /* \"src/core/Native.sol\":26:1859  contract NATIVE {... */\n    tag_81:\n      dup5\n      dup1\n      revert\n    tag_19:\n      pop\n      pop\n      jumpi(tag_46, callvalue)\n      jumpi(tag_46, slt(add(not(0x03), calldatasize), 0x60))\n      0x20\n      swap1\n      tag_48\n      tag_93\n      tag_2\n      jump\t// in\n    tag_93:\n      tag_94\n      tag_3\n      jump\t// in\n    tag_94:\n      calldataload(0x44)\n      swap2\n      tag_7\n      jump\t// in\n    tag_17:\n      pop\n      pop\n      jumpi(tag_46, callvalue)\n      dup2\n      add(calldatasize, not(0x03))\n      slt\n      tag_46\n      jumpi\n      mload\n        /* \"src/core/Native.sol\":1037:1058  address(this).balance */\n      selfbalance\n        /* \"src/core/Native.sol\":26:1859  contract NATIVE {... */\n      dup2\n      mstore\n      0x20\n      swap1\n      return\n    tag_15:\n      pop\n      jumpi(tag_37, callvalue)\n      dup2\n      add(calldatasize, not(0x03))\n      slt\n      tag_37\n      jumpi\n      0x20\n      swap3\n      tag_103\n      tag_2\n      jump\t// in\n    tag_103:\n      swap2\n      dup4\n      calldataload(0x24)\n        /* \"src/core/Native.sol\":1153:1163  msg.sender */\n      swap3\n      dup4\n      swap3\n      caller\n        /* \"src/core/Native.sol\":26:1859  contract NATIVE {... */\n      dup3\n      mstore\n      dup8\n      mstore\n      dup2\n      dup2\n      keccak256\n      swap5\n      0x01\n      dup1\n      0xa0\n      shl\n      sub\n      and\n      swap5\n      dup6\n      dup3\n      mstore\n      dup8\n      mstore\n      keccak256\n      sstore\n      dup3\n      mload\n      swap1\n      dup2\n      mstore\n        /* \"src/core/Native.sol\":1190:1220  Approval(msg.sender, guy, wad) */\n      0x8c5be1e5ebec7d5bd14f71427d1e84f3dd0314c0f7b2291e5b200ac8c7c3b925\n        /* \"src/core/Native.sol\":1153:1163  msg.sender */\n      dup5\n      caller\n        /* \"src/core/Native.sol\":1190:1220  Approval(msg.sender, guy, wad) */\n      swap3\n      log3\n        /* \"src/core/Native.sol\":26:1859  contract NATIVE {... */\n      mload\n      0x01\n      dup2\n      mstore\n      return\n    tag_13:\n      dup5\n      swap2\n      pop\n      dup4\n      jumpi(tag_37, callvalue)\n      dup3\n      add(calldatasize, not(0x03))\n      slt\n      tag_37\n      jumpi\n      dup3\n      dup4\n      sload\n      0x01\n      dup2\n      dup2\n      shr\n      swap1\n      dup1\n      dup4\n      and\n      swap3\n      dup4\n      iszero\n      tag_108\n      jumpi\n    tag_109:\n      0x20\n      swap4\n      dup5\n      dup5\n      lt\n      dup2\n      eq\n      tag_56\n      jumpi\n      dup4\n      dup9\n      mstore\n      swap1\n      dup2\n      iszero\n      tag_112\n      jumpi\n      pop\n      0x01\n      eq\n      tag_114\n      jumpi\n      pop\n      pop\n      pop\n      dup3\n      swap1\n      sub\n      0x1f\n      add\n      not(0x1f)\n      and\n      dup3\n      add\n      swap3\n      0xffffffffffffffff\n      dup5\n      gt\n      dup4\n      dup6\n      lt\n      or\n      tag_62\n      jumpi\n      pop\n      dup3\n      swap2\n      dup3\n      tag_64\n      swap3\n      mstore\n      dup3\n      tag_1\n      jump\t// in\n    tag_114:\n      dup7\n      dup1\n      mstore\n      swap2\n      swap3\n      pop\n      dup6\n      swap2\n      dup4\n      0x290decd9548b62a8d60345a988386fc84ba6bc95484008f6362f93160ef3e563\n    tag_119:\n      dup4\n      dup6\n      lt\n      tag_120\n      jumpi\n      pop\n      pop\n      pop\n      pop\n      dup4\n      add\n      add\n      dup6\n      dup1\n      dup1\n      jump(tag_61)\n    tag_120:\n      dup1\n      sload\n      dup9\n      dup7\n      add\n      dup4\n      add\n      mstore\n      swap4\n      add\n      swap3\n      dup5\n      swap1\n      dup3\n      add\n      jump(tag_119)\n    tag_112:\n      not(0xff)\n      and\n      dup8\n      dup6\n      add\n      mstore\n      pop\n      pop\n      iszero\n      iszero\n      0x05\n      shl\n      dup5\n      add\n      add\n      swap1\n      pop\n      dup6\n      dup1\n      dup1\n      jump(tag_61)\n    tag_108:\n      swap2\n      0x7f\n      and\n      swap2\n      jump(tag_109)\n    tag_1:\n      0x20\n      dup1\n      dup3\n      mstore\n      dup3\n      mload\n      dup2\n      dup4\n      add\n      dup2\n      swap1\n      mstore\n      swap1\n      swap4\n      swap3\n      0x00\n    tag_122:\n      dup3\n      dup2\n      lt\n      tag_123\n      jumpi\n      pop\n      pop\n      0x40\n      swap3\n      swap4\n      pop\n      0x00\n      dup4\n      dup3\n      dup5\n      add\n      add\n      mstore\n      0x1f\n      dup1\n      not\n      swap2\n      add\n      and\n      add\n      add\n      swap1\n      jump\t// out\n    tag_123:\n      dup2\n      dup2\n      add\n      dup7\n      add\n      mload\n      dup5\n      dup3\n      add\n      0x40\n      add\n      mstore\n      dup6\n      add\n      jump(tag_122)\n    tag_2:\n      calldataload(0x04)\n      swap1\n      sub(shl(0xa0, 0x01), 0x01)\n      dup3\n      and\n      dup3\n      sub\n      tag_125\n      jumpi\n      jump\t// out\n    tag_125:\n      0x00\n      dup1\n      revert\n    tag_3:\n      calldataload(0x24)\n      swap1\n      sub(shl(0xa0, 0x01), 0x01)\n      dup3\n      and\n      dup3\n      sub\n      tag_125\n      jumpi\n      jump\t// out\n    tag_4:\n      swap2\n      swap1\n      dup3\n      add\n      dup1\n      swap3\n      gt\n      tag_129\n      jumpi\n      jump\t// out\n    tag_129:\n      mstore(0x00, shl(0xe0, 0x4e487b71))\n      mstore(0x04, 0x11)\n      revert(0x00, 0x24)\n        /* \"src/core/Native.sol\":616:746  function deposit() public payable {... */\n    tag_5:\n        /* \"src/core/Native.sol\":670:680  msg.sender */\n      caller\n      0x00\n        /* \"src/core/Native.sol\":26:1859  contract NATIVE {... */\n      mstore\n        /* \"src/core/Native.sol\":660:669  balanceOf */\n      0x03\n        /* \"src/core/Native.sol\":26:1859  contract NATIVE {... */\n      0x20\n      mstore\n      keccak256(0x00, 0x40)\n        /* \"src/core/Native.sol\":660:694  balanceOf[msg.sender] += msg.value */\n      tag_131\n        /* \"src/core/Native.sol\":685:694  msg.value */\n      callvalue\n        /* \"src/core/Native.sol\":26:1859  contract NATIVE {... */\n      dup3\n      sload\n        /* \"src/core/Native.sol\":660:694  balanceOf[msg.sender] += msg.value */\n      tag_4\n      jump\t// in\n    tag_131:\n        /* \"src/core/Native.sol\":26:1859  contract NATIVE {... */\n      swap1\n      sstore\n      mload(0x40)\n        /* \"src/core/Native.sol\":685:694  msg.value */\n      callvalue\n        /* \"src/core/Native.sol\":26:1859  contract NATIVE {... */\n      dup2\n      mstore\n        /* \"src/core/Native.sol\":709:739  Deposit(msg.sender, msg.value) */\n      0xe1fffcc4923d04b559f4d29a8bfc6cda04eb5b0d3c460751c2402c5c5cc9109c\n        /* \"src/core/Native.sol\":26:1859  contract NATIVE {... */\n      0x20\n        /* \"src/core/Native.sol\":670:680  msg.sender */\n      caller\n        /* \"src/core/Native.sol\":709:739  Deposit(msg.sender, msg.value) */\n      swap3\n      log2\n        /* \"src/core/Native.sol\":616:746  function deposit() public payable {... */\n      jump\t// out\n        /* \"src/core/Native.sol\":26:1859  contract NATIVE {... */\n    tag_6:\n      swap2\n      swap1\n      dup3\n      sub\n      swap2\n      dup3\n      gt\n      tag_129\n      jumpi\n      jump\t// out\n        /* \"src/core/Native.sol\":1381:1857  function transferFrom(... */\n    tag_7:\n      swap2\n      swap1\n      swap2\n        /* \"src/core/Native.sol\":26:1859  contract NATIVE {... */\n      0x01\n      dup1\n      0xa0\n      shl\n      sub\n      dup1\n      swap2\n      and\n      swap2\n      0x00\n      swap4\n      dup4\n      dup6\n      mstore\n      0x20\n      swap3\n        /* \"src/core/Native.sol\":1509:1518  balanceOf */\n      0x03\n        /* \"src/core/Native.sol\":26:1859  contract NATIVE {... */\n      dup5\n      mstore\n      0x40\n      swap2\n      dup4\n      dup4\n      dup9\n      keccak256\n      sload\n        /* \"src/core/Native.sol\":1509:1530  balanceOf[src] >= wad */\n      lt\n        /* \"src/core/Native.sol\":26:1859  contract NATIVE {... */\n      tag_142\n      jumpi\n        /* \"src/core/Native.sol\":1553:1563  msg.sender */\n      caller\n        /* \"src/core/Native.sol\":1546:1563  src != msg.sender */\n      dup7\n      eq\n      iszero\n        /* \"src/core/Native.sol\":1546:1611  src != msg.sender && allowance[src][msg.sender] != type(uint).max */\n      dup1\n      tag_136\n      jumpi\n        /* \"src/core/Native.sol\":1381:1857  function transferFrom(... */\n    tag_137:\n        /* \"src/core/Native.sol\":1542:1727  if (src != msg.sender && allowance[src][msg.sender] != type(uint).max) {... */\n      tag_138\n      jumpi\n        /* \"src/core/Native.sol\":1381:1857  function transferFrom(... */\n    tag_139:\n        /* \"src/core/Native.sol\":26:1859  contract NATIVE {... */\n      swap2\n      dup1\n      swap2\n        /* \"src/core/Native.sol\":1805:1828  Transfer(src, dst, wad) */\n      0xddf252ad1be2c89b69c2b068fc378daa952ba7f163c4a11628f55a4df523b3ef\n        /* \"src/core/Native.sol\":26:1859  contract NATIVE {... */\n      swap6\n      swap5\n      swap4\n      dup8\n      dup10\n      mstore\n        /* \"src/core/Native.sol\":1509:1518  balanceOf */\n      0x03\n        /* \"src/core/Native.sol\":26:1859  contract NATIVE {... */\n      dup7\n      mstore\n      dup3\n      dup10\n      keccak256\n        /* \"src/core/Native.sol\":1737:1758  balanceOf[src] -= wad */\n      tag_140\n        /* \"src/core/Native.sol\":26:1859  contract NATIVE {... */\n      dup7\n      dup3\n      sload\n        /* \"src/core/Native.sol\":1737:1758  balanceOf[src] -= wad */\n      tag_6\n      jump\t// in\n    tag_140:\n        /* \"src/core/Native.sol\":26:1859  contract NATIVE {... */\n      swap1\n      sstore\n      and\n      swap7\n      dup8\n      dup2\n      mstore\n        /* \"src/core/Native.sol\":1509:1518  balanceOf */\n      0x03\n        /* \"src/core/Native.sol\":26:1859  contract NATIVE {... */\n      dup6\n      mstore\n      keccak256\n        /* \"src/core/Native.sol\":1768:1789  balanceOf[dst] += wad */\n      tag_141\n        /* \"src/core/Native.sol\":26:1859  contract NATIVE {... */\n      dup4\n      dup3\n      sload\n        /* \"src/core/Native.sol\":1768:1789  balanceOf[dst] += wad */\n      tag_4\n      jump\t// in\n    tag_141:\n        /* \"src/core/Native.sol\":26:1859  contract NATIVE {... */\n      swap1\n      sstore\n      mload\n      swap1\n      dup2\n      mstore\n        /* \"src/core/Native.sol\":1805:1828  Transfer(src, dst, wad) */\n      log3\n        /* \"src/core/Native.sol\":1846:1850  true */\n      0x01\n        /* \"src/core/Native.sol\":1381:1857  function transferFrom(... */\n      swap1\n      jump\t// out\n        /* \"src/core/Native.sol\":1542:1727  if (src != msg.sender && allowance[src][msg.sender] != type(uint).max) {... */\n    tag_138:\n        /* \"src/core/Native.sol\":26:1859  contract NATIVE {... */\n      dup6\n      dup8\n      mstore\n        /* \"src/core/Native.sol\":1635:1644  allowance */\n      0x04\n        /* \"src/core/Native.sol\":26:1859  contract NATIVE {... */\n      dup6\n      mstore\n      dup3\n      dup8\n      keccak256\n        /* \"src/core/Native.sol\":1553:1563  msg.sender */\n      caller\n        /* \"src/core/Native.sol\":26:1859  contract NATIVE {... */\n      dup9\n      mstore\n      dup6\n      mstore\n      dup4\n      dup4\n      dup9\n      keccak256\n      sload\n        /* \"src/core/Native.sol\":1635:1668  allowance[src][msg.sender] >= wad */\n      lt\n        /* \"src/core/Native.sol\":26:1859  contract NATIVE {... */\n      tag_142\n      jumpi\n      swap2\n      dup1\n      swap2\n        /* \"src/core/Native.sol\":1805:1828  Transfer(src, dst, wad) */\n      0xddf252ad1be2c89b69c2b068fc378daa952ba7f163c4a11628f55a4df523b3ef\n        /* \"src/core/Native.sol\":26:1859  contract NATIVE {... */\n      swap6\n      swap5\n      swap4\n      dup8\n      dup10\n      mstore\n        /* \"src/core/Native.sol\":1635:1644  allowance */\n      0x04\n        /* \"src/core/Native.sol\":26:1859  contract NATIVE {... */\n      dup7\n      mstore\n      dup3\n      dup10\n      keccak256\n        /* \"src/core/Native.sol\":1553:1563  msg.sender */\n      caller\n        /* \"src/core/Native.sol\":26:1859  contract NATIVE {... */\n      dup11\n      mstore\n      dup7\n      mstore\n      dup3\n      dup10\n      keccak256\n        /* \"src/core/Native.sol\":1683:1716  allowance[src][msg.sender] -= wad */\n      tag_144\n        /* \"src/core/Native.sol\":26:1859  contract NATIVE {... */\n      dup7\n      dup3\n      sload\n        /* \"src/core/Native.sol\":1683:1716  allowance[src][msg.sender] -= wad */\n      tag_6\n      jump\t// in\n    tag_144:\n        /* \"src/core/Native.sol\":26:1859  contract NATIVE {... */\n      swap1\n      sstore\n        /* \"src/core/Native.sol\":1542:1727  if (src != msg.sender && allowance[src][msg.sender] != type(uint).max) {... */\n      swap2\n      pop\n      swap2\n      swap3\n      swap4\n      swap5\n      pop\n      jump(tag_139)\n        /* \"src/core/Native.sol\":26:1859  contract NATIVE {... */\n    tag_142:\n      dup7\n      dup1\n      revert\n        /* \"src/core/Native.sol\":1546:1611  src != msg.sender && allowance[src][msg.sender] != type(uint).max */\n    tag_136:\n      pop\n        /* \"src/core/Native.sol\":1567:1576  allowance */\n      0x04\n        /* \"src/core/Native.sol\":26:1859  contract NATIVE {... */\n      dup6\n      mstore\n      dup3\n      dup8\n      keccak256\n        /* \"src/core/Native.sol\":1553:1563  msg.sender */\n      caller\n        /* \"src/core/Native.sol\":26:1859  contract NATIVE {... */\n      dup9\n      mstore\n      dup6\n      mstore\n      dup3\n      dup8\n      keccak256\n      sload\n      not(0x00)\n        /* \"src/core/Native.sol\":1567:1611  allowance[src][msg.sender] != type(uint).max */\n      eq\n      iszero\n        /* \"src/core/Native.sol\":1546:1611  src != msg.sender && allowance[src][msg.sender] != type(uint).max */\n      jump(tag_137)\n\n    auxdata: 0xa264697066735822122014cb2d353cc2621bda88d78446e0e87e13ffd118bc12221cc5a804d70d644fbb64736f6c63430008150033\n}\n",
				"bytecode": {
					"linkReferences": {},
					"object": "6080604052346100ca575f61001481546100ce565b601f81116100a0575b50601a6c2bb930b83832b21022ba3432b960991b01815560019061004182546100ce565b90601f8211610074575b6008630ae8aa8960e31b0183556002805460ff1916601217905560405161073c90816101078239f35b82815282601f60208320930160051c8301925b83811061009557505061004b565b828155018390610087565b818052601f60208320910160051c8101905b8181106100bf575061001d565b8281556001016100b2565b5f80fd5b90600182811c921680156100fc575b60208310146100e857565b634e487b7160e01b5f52602260045260245ffd5b91607f16916100dd56fe60806040818152600480361015610024575b505050361561002257610022610594565b005b5f92833560e01c90816306fdde031461040957508063095ea7b31461039b57806318160ddd1461038057806323b872dd1461034e5780632e1a7d4d146102bc578063313ce5671461029a57806370a082311461026257806395d89b4114610141578063a9059cbb1461010a578063d0e30db0146100f05763dd62ed3e0361001157346100ec57816003193601126100ec5760209282916100c2610543565b6100ca61055d565b6001600160a01b03918216845291865283832091168252845220549051908152f35b8280fd5b838060031936011261010757610104610594565b80f35b80fd5b50503461013d578060031936011261013d5760209061013461012a610543565b60243590336105e8565b90519015158152f35b5080fd5b5091903461013d578160031936011261013d5780519082600180549081811c90808316928315610258575b60209384841081146102455783885290811561022957506001146101d4575b505050829003601f01601f191682019267ffffffffffffffff8411838510176101c157508291826101bd9252826104fc565b0390f35b634e487b7160e01b815260418552602490fd5b8087529192508591837fb10e2d527612073b26eecdfd717e6a320cf44b4afac2b0732d9fcbe2b7fa0cf65b83851061021557505050508301015f808061018b565b8054888601830152930192849082016101ff565b60ff1916878501525050151560051b84010190505f808061018b565b634e487b7160e01b895260228a52602489fd5b91607f169161016c565b50503461013d57602036600319011261013d5760209181906001600160a01b0361028a610543565b1681526003845220549051908152f35b50503461013d578160031936011261013d5760209060ff600254169051908152f35b50346100ec5760203660031901126100ec5735903383526003602052808320805483811061034a57836102ee916105db565b90558280838015610340575b8280929181923390f11561033557519081527f7fcf532c15f0a6db0bd6d0e038bea71d30d808c7d98cb3bf7268a95bf5081b6560203392a280f35b51913d9150823e3d90fd5b6108fc91506102fa565b8480fd5b50503461013d57606036600319011261013d5760209061013461036f610543565b61037761055d565b604435916105e8565b50503461013d578160031936011261013d5751478152602090f35b50346100ec57816003193601126100ec576020926103b7610543565b918360243592839233825287528181209460018060a01b0316948582528752205582519081527f8c5be1e5ebec7d5bd14f71427d1e84f3dd0314c0f7b2291e5b200ac8c7c3b925843392a35160018152f35b84915083346100ec57826003193601126100ec57828354600181811c908083169283156104f2575b6020938484108114610245578388529081156104d6575060011461048157505050829003601f01601f191682019267ffffffffffffffff8411838510176101c157508291826101bd9252826104fc565b8680529192508591837f290decd9548b62a8d60345a988386fc84ba6bc95484008f6362f93160ef3e5635b8385106104c2575050505083010185808061018b565b8054888601830152930192849082016104ac565b60ff1916878501525050151560051b840101905085808061018b565b91607f1691610431565b602080825282518183018190529093925f5b82811061052f57505060409293505f838284010152601f8019910116010190565b81810186015184820160400152850161050e565b600435906001600160a01b038216820361055957565b5f80fd5b602435906001600160a01b038216820361055957565b9190820180921161058057565b634e487b7160e01b5f52601160045260245ffd5b335f52600360205260405f206105ab348254610573565b90556040513481527fe1fffcc4923d04b559f4d29a8bfc6cda04eb5b0d3c460751c2402c5c5cc9109c60203392a2565b9190820391821161058057565b91909160018060a01b03809116915f93838552602092600384526040918383882054106106e85733861415806106ec575b61067d575b9180917fddf252ad1be2c89b69c2b068fc378daa952ba7f163c4a11628f55a4df523b3ef9594938789526003865282892061065a8682546105db565b905516968781526003855220610671838254610573565b905551908152a3600190565b8587526004855282872033885285528383882054106106e8579180917fddf252ad1be2c89b69c2b068fc378daa952ba7f163c4a11628f55a4df523b3ef95949387895260048652828920338a5286528289206106da8682546105db565b90559150919293945061061e565b8680fd5b50600485528287203388528552828720545f19141561061956fea264697066735822122014cb2d353cc2621bda88d78446e0e87e13ffd118bc12221cc5a804d70d644fbb64736f6c63430008150033",
					"opcodes": "PUSH1 0x80 PUSH1 0x40 MSTORE CALLVALUE PUSH2 0xCA JUMPI PUSH0 PUSH2 0x14 DUP2 SLOAD PUSH2 0xCE JUMP JUMPDEST PUSH1 0x1F DUP2 GT PUSH2 0xA0 JUMPI JUMPDEST POP PUSH1 0x1A PUSH13 0x2BB930B83832B21022BA3432B9 PUSH1 0x99 SHL ADD DUP2 SSTORE PUSH1 0x1 SWAP1 PUSH2 0x41 DUP3 SLOAD PUSH2 0xCE JUMP JUMPDEST SWAP1 PUSH1 0x1F DUP3 GT PUSH2 0x74 JUMPI JUMPDEST PUSH1 0x8 PUSH4 0xAE8AA89 PUSH1 0xE3 SHL ADD DUP4 SSTORE PUSH1 0x2 DUP1 SLOAD PUSH1 0xFF NOT AND PUSH1 0x12 OR SWAP1 SSTORE PUSH1 0x40 MLOAD PUSH2 0x73C SWAP1 DUP2 PUSH2 0x107 DUP3 CODECOPY RETURN JUMPDEST DUP3 DUP2 MSTORE DUP3 PUSH1 0x1F PUSH1 0x20 DUP4 KECCAK256 SWAP4 ADD PUSH1 0x5 SHR DUP4 ADD SWAP3 JUMPDEST DUP4 DUP2 LT PUSH2 0x95 JUMPI POP POP PUSH2 0x4B JUMP JUMPDEST DUP3 DUP2 SSTORE ADD DUP4 SWAP1 PUSH2 0x87 JUMP JUMPDEST DUP2 DUP1 MSTORE PUSH1 0x1F PUSH1 0x20 DUP4 KECCAK256 SWAP2 ADD PUSH1 0x5 SHR DUP2 ADD SWAP1 JUMPDEST DUP2 DUP2 LT PUSH2 0xBF JUMPI POP PUSH2 0x1D JUMP JUMPDEST DUP3 DUP2 SSTORE PUSH1 0x1 ADD PUSH2 0xB2 JUMP JUMPDEST PUSH0 DUP1 REVERT JUMPDEST SWAP1 PUSH1 0x1 DUP3 DUP2 SHR SWAP3 AND DUP1 ISZERO PUSH2 0xFC JUMPI JUMPDEST PUSH1 0x20 DUP4 LT EQ PUSH2 0xE8 JUMPI JUMP JUMPDEST PUSH4 0x4E487B71 PUSH1 0xE0 SHL PUSH0 MSTORE PUSH1 0x22 PUSH1 0x4 MSTORE PUSH1 0x24 PUSH0 REVERT JUMPDEST SWAP2 PUSH1 0x7F AND SWAP2 PUSH2 0xDD JUMP INVALID PUSH1 0x80 PUSH1 0x40 DUP2 DUP2 MSTORE PUSH1 0x4 DUP1 CALLDATASIZE LT ISZERO PUSH2 0x24 JUMPI JUMPDEST POP POP POP CALLDATASIZE ISZERO PUSH2 0x22 JUMPI PUSH2 0x22 PUSH2 0x594 JUMP JUMPDEST STOP JUMPDEST PUSH0 SWAP3 DUP4 CALLDATALOAD PUSH1 0xE0 SHR SWAP1 DUP2 PUSH4 0x6FDDE03 EQ PUSH2 0x409 JUMPI POP DUP1 PUSH4 0x95EA7B3 EQ PUSH2 0x39B JUMPI DUP1 PUSH4 0x18160DDD EQ PUSH2 0x380 JUMPI DUP1 PUSH4 0x23B872DD EQ PUSH2 0x34E JUMPI DUP1 PUSH4 0x2E1A7D4D EQ PUSH2 0x2BC JUMPI DUP1 PUSH4 0x313CE567 EQ PUSH2 0x29A JUMPI DUP1 PUSH4 0x70A08231 EQ PUSH2 0x262 JUMPI DUP1 PUSH4 0x95D89B41 EQ PUSH2 0x141 JUMPI DUP1 PUSH4 0xA9059CBB EQ PUSH2 0x10A JUMPI DUP1 PUSH4 0xD0E30DB0 EQ PUSH2 0xF0 JUMPI PUSH4 0xDD62ED3E SUB PUSH2 0x11 JUMPI CALLVALUE PUSH2 0xEC JUMPI DUP2 PUSH1 0x3 NOT CALLDATASIZE ADD SLT PUSH2 0xEC JUMPI PUSH1 0x20 SWAP3 DUP3 SWAP2 PUSH2 0xC2 PUSH2 0x543 JUMP JUMPDEST PUSH2 0xCA PUSH2 0x55D JUMP JUMPDEST PUSH1 0x1 PUSH1 0x1 PUSH1 0xA0 SHL SUB SWAP2 DUP3 AND DUP5 MSTORE SWAP2 DUP7 MSTORE DUP4 DUP4 KECCAK256 SWAP2 AND DUP3 MSTORE DUP5 MSTORE KECCAK256 SLOAD SWAP1 MLOAD SWAP1 DUP2 MSTORE RETURN JUMPDEST DUP3 DUP1 REVERT JUMPDEST DUP4 DUP1 PUSH1 0x3 NOT CALLDATASIZE ADD SLT PUSH2 0x107 JUMPI PUSH2 0x104 PUSH2 0x594 JUMP JUMPDEST DUP1 RETURN JUMPDEST DUP1 REVERT JUMPDEST POP POP CALLVALUE PUSH2 0x13D JUMPI DUP1 PUSH1 0x3 NOT CALLDATASIZE ADD SLT PUSH2 0x13D JUMPI PUSH1 0x20 SWAP1 PUSH2 0x134 PUSH2 0x12A PUSH2 0x543 JUMP JUMPDEST PUSH1 0x24 CALLDATALOAD SWAP1 CALLER PUSH2 0x5E8 JUMP JUMPDEST SWAP1 MLOAD SWAP1 ISZERO ISZERO DUP2 MSTORE RETURN JUMPDEST POP DUP1 REVERT JUMPDEST POP SWAP2 SWAP1 CALLVALUE PUSH2 0x13D JUMPI DUP2 PUSH1 0x3 NOT CALLDATASIZE ADD SLT PUSH2 0x13D JUMPI DUP1 MLOAD SWAP1 DUP3 PUSH1 0x1 DUP1 SLOAD SWAP1 DUP2 DUP2 SHR SWAP1 DUP1 DUP4 AND SWAP3 DUP4 ISZERO PUSH2 0x258 JUMPI JUMPDEST PUSH1 0x20 SWAP4 DUP5 DUP5 LT DUP2 EQ PUSH2 0x245 JUMPI DUP4 DUP9 MSTORE SWAP1 DUP2 ISZERO PUSH2 0x229 JUMPI POP PUSH1 0x1 EQ PUSH2 0x1D4 JUMPI JUMPDEST POP POP POP DUP3 SWAP1 SUB PUSH1 0x1F ADD PUSH1 0x1F NOT AND DUP3 ADD SWAP3 PUSH8 0xFFFFFFFFFFFFFFFF DUP5 GT DUP4 DUP6 LT OR PUSH2 0x1C1 JUMPI POP DUP3 SWAP2 DUP3 PUSH2 0x1BD SWAP3 MSTORE DUP3 PUSH2 0x4FC JUMP JUMPDEST SUB SWAP1 RETURN JUMPDEST PUSH4 0x4E487B71 PUSH1 0xE0 SHL DUP2 MSTORE PUSH1 0x41 DUP6 MSTORE PUSH1 0x24 SWAP1 REVERT JUMPDEST DUP1 DUP8 MSTORE SWAP2 SWAP3 POP DUP6 SWAP2 DUP4 PUSH32 0xB10E2D527612073B26EECDFD717E6A320CF44B4AFAC2B0732D9FCBE2B7FA0CF6 JUMPDEST DUP4 DUP6 LT PUSH2 0x215 JUMPI POP POP POP POP DUP4 ADD ADD PUSH0 DUP1 DUP1 PUSH2 0x18B JUMP JUMPDEST DUP1 SLOAD DUP9 DUP7 ADD DUP4 ADD MSTORE SWAP4 ADD SWAP3 DUP5 SWAP1 DUP3 ADD PUSH2 0x1FF JUMP JUMPDEST PUSH1 0xFF NOT AND DUP8 DUP6 ADD MSTORE POP POP ISZERO ISZERO PUSH1 0x5 SHL DUP5 ADD ADD SWAP1 POP PUSH0 DUP1 DUP1 PUSH2 0x18B JUMP JUMPDEST PUSH4 0x4E487B71 PUSH1 0xE0 SHL DUP10 MSTORE PUSH1 0x22 DUP11 MSTORE PUSH1 0x24 DUP10 REVERT JUMPDEST SWAP2 PUSH1 0x7F AND SWAP2 PUSH2 0x16C JUMP JUMPDEST POP POP CALLVALUE PUSH2 0x13D JUMPI PUSH1 0x20 CALLDATASIZE PUSH1 0x3 NOT ADD SLT PUSH2 0x13D JUMPI PUSH1 0x20 SWAP2 DUP2 SWAP1 PUSH1 0x1 PUSH1 0x1 PUSH1 0xA0 SHL SUB PUSH2 0x28A PUSH2 0x543 JUMP JUMPDEST AND DUP2 MSTORE PUSH1 0x3 DUP5 MSTORE KECCAK256 SLOAD SWAP1 MLOAD SWAP1 DUP2 MSTORE RETURN JUMPDEST POP POP CALLVALUE PUSH2 0x13D JUMPI DUP2 PUSH1 0x3 NOT CALLDATASIZE ADD SLT PUSH2 0x13D JUMPI PUSH1 0x20 SWAP1 PUSH1 0xFF PUSH1 0x2 SLOAD AND SWAP1 MLOAD SWAP1 DUP2 MSTORE RETURN JUMPDEST POP CALLVALUE PUSH2 0xEC JUMPI PUSH1 0x20 CALLDATASIZE PUSH1 0x3 NOT ADD SLT PUSH2 0xEC JUMPI CALLDATALOAD SWAP1 CALLER DUP4 MSTORE PUSH1 0x3 PUSH1 0x20 MSTORE DUP1 DUP4 KECCAK256 DUP1 SLOAD DUP4 DUP2 LT PUSH2 0x34A JUMPI DUP4 PUSH2 0x2EE SWAP2 PUSH2 0x5DB JUMP JUMPDEST SWAP1 SSTORE DUP3 DUP1 DUP4 DUP1 ISZERO PUSH2 0x340 JUMPI JUMPDEST DUP3 DUP1 SWAP3 SWAP2 DUP2 SWAP3 CALLER SWAP1 CALL ISZERO PUSH2 0x335 JUMPI MLOAD SWAP1 DUP2 MSTORE PUSH32 0x7FCF532C15F0A6DB0BD6D0E038BEA71D30D808C7D98CB3BF7268A95BF5081B65 PUSH1 0x20 CALLER SWAP3 LOG2 DUP1 RETURN JUMPDEST MLOAD SWAP2 RETURNDATASIZE SWAP2 POP DUP3 RETURNDATACOPY RETURNDATASIZE SWAP1 REVERT JUMPDEST PUSH2 0x8FC SWAP2 POP PUSH2 0x2FA JUMP JUMPDEST DUP5 DUP1 REVERT JUMPDEST POP POP CALLVALUE PUSH2 0x13D JUMPI PUSH1 0x60 CALLDATASIZE PUSH1 0x3 NOT ADD SLT PUSH2 0x13D JUMPI PUSH1 0x20 SWAP1 PUSH2 0x134 PUSH2 0x36F PUSH2 0x543 JUMP JUMPDEST PUSH2 0x377 PUSH2 0x55D JUMP JUMPDEST PUSH1 0x44 CALLDATALOAD SWAP2 PUSH2 0x5E8 JUMP JUMPDEST POP POP CALLVALUE PUSH2 0x13D JUMPI DUP2 PUSH1 0x3 NOT CALLDATASIZE ADD SLT PUSH2 0x13D JUMPI MLOAD SELFBALANCE DUP2 MSTORE PUSH1 0x20 SWAP1 RETURN JUMPDEST POP CALLVALUE PUSH2 0xEC JUMPI DUP2 PUSH1 0x3 NOT CALLDATASIZE ADD SLT PUSH2 0xEC JUMPI PUSH1 0x20 SWAP3 PUSH2 0x3B7 PUSH2 0x543 JUMP JUMPDEST SWAP2 DUP4 PUSH1 0x24 CALLDATALOAD SWAP3 DUP4 SWAP3 CALLER DUP3 MSTORE DUP8 MSTORE DUP2 DUP2 KECCAK256 SWAP5 PUSH1 0x1 DUP1 PUSH1 0xA0 SHL SUB AND SWAP5 DUP6 DUP3 MSTORE DUP8 MSTORE KECCAK256 SSTORE DUP3 MLOAD SWAP1 DUP2 MSTORE PUSH32 0x8C5BE1E5EBEC7D5BD14F71427D1E84F3DD0314C0F7B2291E5B200AC8C7C3B925 DUP5 CALLER SWAP3 LOG3 MLOAD PUSH1 0x1 DUP2 MSTORE RETURN JUMPDEST DUP5 SWAP2 POP DUP4 CALLVALUE PUSH2 0xEC JUMPI DUP3 PUSH1 0x3 NOT CALLDATASIZE ADD SLT PUSH2 0xEC JUMPI DUP3 DUP4 SLOAD PUSH1 0x1 DUP2 DUP2 SHR SWAP1 DUP1 DUP4 AND SWAP3 DUP4 ISZERO PUSH2 0x4F2 JUMPI JUMPDEST PUSH1 0x20 SWAP4 DUP5 DUP5 LT DUP2 EQ PUSH2 0x245 JUMPI DUP4 DUP9 MSTORE SWAP1 DUP2 ISZERO PUSH2 0x4D6 JUMPI POP PUSH1 0x1 EQ PUSH2 0x481 JUMPI POP POP POP DUP3 SWAP1 SUB PUSH1 0x1F ADD PUSH1 0x1F NOT AND DUP3 ADD SWAP3 PUSH8 0xFFFFFFFFFFFFFFFF DUP5 GT DUP4 DUP6 LT OR PUSH2 0x1C1 JUMPI POP DUP3 SWAP2 DUP3 PUSH2 0x1BD SWAP3 MSTORE DUP3 PUSH2 0x4FC JUMP JUMPDEST DUP7 DUP1 MSTORE SWAP2 SWAP3 POP DUP6 SWAP2 DUP4 PUSH32 0x290DECD9548B62A8D60345A988386FC84BA6BC95484008F6362F93160EF3E563 JUMPDEST DUP4 DUP6 LT PUSH2 0x4C2 JUMPI POP POP POP POP DUP4 ADD ADD DUP6 DUP1 DUP1 PUSH2 0x18B JUMP JUMPDEST DUP1 SLOAD DUP9 DUP7 ADD DUP4 ADD MSTORE SWAP4 ADD SWAP3 DUP5 SWAP1 DUP3 ADD PUSH2 0x4AC JUMP JUMPDEST PUSH1 0xFF NOT AND DUP8 DUP6 ADD MSTORE POP POP ISZERO ISZERO PUSH1 0x5 SHL DUP5 ADD ADD SWAP1 POP DUP6 DUP1 DUP1 PUSH2 0x18B JUMP JUMPDEST SWAP2 PUSH1 0x7F AND SWAP2 PUSH2 0x431 JUMP JUMPDEST PUSH1 0x20 DUP1 DUP3 MSTORE DUP3 MLOAD DUP2 DUP4 ADD DUP2 SWAP1 MSTORE SWAP1 SWAP4 SWAP3 PUSH0 JUMPDEST DUP3 DUP2 LT PUSH2 0x52F JUMPI POP POP PUSH1 0x40 SWAP3 SWAP4 POP PUSH0 DUP4 DUP3 DUP5 ADD ADD MSTORE PUSH1 0x1F DUP1 NOT SWAP2 ADD AND ADD ADD SWAP1 JUMP JUMPDEST DUP2 DUP2 ADD DUP7 ADD MLOAD DUP5 DUP3 ADD PUSH1 0x40 ADD MSTORE DUP6 ADD PUSH2 0x50E JUMP JUMPDEST PUSH1 0x4 CALLDATALOAD SWAP1 PUSH1 0x1 PUSH1 0x1 PUSH1 0xA0 SHL SUB DUP3 AND DUP3 SUB PUSH2 0x559 JUMPI JUMP JUMPDEST PUSH0 DUP1 REVERT JUMPDEST PUSH1 0x24 CALLDATALOAD SWAP1 PUSH1 0x1 PUSH1 0x1 PUSH1 0xA0 SHL SUB DUP3 AND DUP3 SUB PUSH2 0x559 JUMPI JUMP JUMPDEST SWAP2 SWAP1 DUP3 ADD DUP1 SWAP3 GT PUSH2 0x580 JUMPI JUMP JUMPDEST PUSH4 0x4E487B71 PUSH1 0xE0 SHL PUSH0 MSTORE PUSH1 0x11 PUSH1 0x4 MSTORE PUSH1 0x24 PUSH0 REVERT JUMPDEST CALLER PUSH0 MSTORE PUSH1 0x3 PUSH1 0x20 MSTORE PUSH1 0x40 PUSH0 KECCAK256 PUSH2 0x5AB CALLVALUE DUP3 SLOAD PUSH2 0x573 JUMP JUMPDEST SWAP1 SSTORE PUSH1 0x40 MLOAD CALLVALUE DUP2 MSTORE PUSH32 0xE1FFFCC4923D04B559F4D29A8BFC6CDA04EB5B0D3C460751C2402C5C5CC9109C PUSH1 0x20 CALLER SWAP3 LOG2 JUMP JUMPDEST SWAP2 SWAP1 DUP3 SUB SWAP2 DUP3 GT PUSH2 0x580 JUMPI JUMP JUMPDEST SWAP2 SWAP1 SWAP2 PUSH1 0x1 DUP1 PUSH1 0xA0 SHL SUB DUP1 SWAP2 AND SWAP2 PUSH0 SWAP4 DUP4 DUP6 MSTORE PUSH1 0x20 SWAP3 PUSH1 0x3 DUP5 MSTORE PUSH1 0x40 SWAP2 DUP4 DUP4 DUP9 KECCAK256 SLOAD LT PUSH2 0x6E8 JUMPI CALLER DUP7 EQ ISZERO DUP1 PUSH2 0x6EC JUMPI JUMPDEST PUSH2 0x67D JUMPI JUMPDEST SWAP2 DUP1 SWAP2 PUSH32 0xDDF252AD1BE2C89B69C2B068FC378DAA952BA7F163C4A11628F55A4DF523B3EF SWAP6 SWAP5 SWAP4 DUP8 DUP10 MSTORE PUSH1 0x3 DUP7 MSTORE DUP3 DUP10 KECCAK256 PUSH2 0x65A DUP7 DUP3 SLOAD PUSH2 0x5DB JUMP JUMPDEST SWAP1 SSTORE AND SWAP7 DUP8 DUP2 MSTORE PUSH1 0x3 DUP6 MSTORE KECCAK256 PUSH2 0x671 DUP4 DUP3 SLOAD PUSH2 0x573 JUMP JUMPDEST SWAP1 SSTORE MLOAD SWAP1 DUP2 MSTORE LOG3 PUSH1 0x1 SWAP1 JUMP JUMPDEST DUP6 DUP8 MSTORE PUSH1 0x4 DUP6 MSTORE DUP3 DUP8 KECCAK256 CALLER DUP9 MSTORE DUP6 MSTORE DUP4 DUP4 DUP9 KECCAK256 SLOAD LT PUSH2 0x6E8 JUMPI SWAP2 DUP1 SWAP2 PUSH32 0xDDF252AD1BE2C89B69C2B068FC378DAA952BA7F163C4A11628F55A4DF523B3EF SWAP6 SWAP5 SWAP4 DUP8 DUP10 MSTORE PUSH1 0x4 DUP7 MSTORE DUP3 DUP10 KECCAK256 CALLER DUP11 MSTORE DUP7 MSTORE DUP3 DUP10 KECCAK256 PUSH2 0x6DA DUP7 DUP3 SLOAD PUSH2 0x5DB JUMP JUMPDEST SWAP1 SSTORE SWAP2 POP SWAP2 SWAP3 SWAP4 SWAP5 POP PUSH2 0x61E JUMP JUMPDEST DUP7 DUP1 REVERT JUMPDEST POP PUSH1 0x4 DUP6 MSTORE DUP3 DUP8 KECCAK256 CALLER DUP9 MSTORE DUP6 MSTORE DUP3 DUP8 KECCAK256 SLOAD PUSH0 NOT EQ ISZERO PUSH2 0x619 JUMP INVALID LOG2 PUSH5 0x6970667358 0x22 SLT KECCAK256 EQ 0xCB 0x2D CALLDATALOAD EXTCODECOPY 0xC2 PUSH3 0x1BDA88 0xD7 DUP5 CHAINID 0xE0 0xE8 PUSH31 0x13FFD118BC12221CC5A804D70D644FBB64736F6C6343000815003300000000 "
				},
				"gasEstimates": {
					"creation": {
						"codeDepositCost": "370400",
						"executionCost": "infinite",
						"totalCost": "infinite"
					},
					"external": {
						"": "26103",
						"allowance(address,address)": "2784",
						"approve(address,uint256)": "24309",
						"balanceOf(address)": "2559",
						"decimals()": "2392",
						"deposit()": "26096",
						"name()": "infinite",
						"symbol()": "infinite",
						"totalSupply()": "216",
						"transfer(address,uint256)": "53204",
						"transferFrom(address,address,uint256)": "infinite",
						"withdraw(uint256)": "infinite"
					}
				},
				"methodIdentifiers": {
					"allowance(address,address)": "dd62ed3e",
					"approve(address,uint256)": "095ea7b3",
					"balanceOf(address)": "70a08231",
					"decimals()": "313ce567",
					"deposit()": "d0e30db0",
					"name()": "06fdde03",
					"symbol()": "95d89b41",
					"totalSupply()": "18160ddd",
					"transfer(address,uint256)": "a9059cbb",
					"transferFrom(address,address,uint256)": "23b872dd",
					"withdraw(uint256)": "2e1a7d4d"
				}
			},
			"storageLayout": {
				"storage": [
					{
						"astId": 4,
						"contract": "src/core/Native.sol:NATIVE",
						"label": "name",
						"offset": 0,
						"slot": "0",
						"type": "t_string_storage"
					},
					{
						"astId": 7,
						"contract": "src/core/Native.sol:NATIVE",
						"label": "symbol",
						"offset": 0,
						"slot": "1",
						"type": "t_string_storage"
					},
					{
						"astId": 10,
						"contract": "src/core/Native.sol:NATIVE",
						"label": "decimals",
						"offset": 0,
						"slot": "2",
						"type": "t_uint8"
					},
					{
						"astId": 42,
						"contract": "src/core/Native.sol:NATIVE",
						"label": "balanceOf",
						"offset": 0,
						"slot": "3",
						"type": "t_mapping(t_address,t_uint256)"
					},
					{
						"astId": 48,
						"contract": "src/core/Native.sol:NATIVE",
						"label": "allowance",
						"offset": 0,
						"slot": "4",
						"type": "t_mapping(t_address,t_mapping(t_address,t_uint256))"
					}
				],
				"types": {
					"t_address": {
						"encoding": "inplace",
						"label": "address",
						"numberOfBytes": "20"
					},
					"t_mapping(t_address,t_mapping(t_address,t_uint256))": {
						"encoding": "mapping",
						"key": "t_address",
						"label": "mapping(address => mapping(address => uint256))",
						"numberOfBytes": "32",
						"value": "t_mapping(t_address,t_uint256)"
					},
					"t_mapping(t_address,t_uint256)": {
						"encoding": "mapping",
						"key": "t_address",
						"label": "mapping(address => uint256)",
						"numberOfBytes": "32",
						"value": "t_uint256"
					},
					"t_string_storage": {
						"encoding": "bytes",
						"label": "string",
						"numberOfBytes": "32"
					},
					"t_uint256": {
						"encoding": "inplace",
						"label": "uint256",
						"numberOfBytes": "32"
					},
					"t_uint8": {
						"encoding": "inplace",
						"label": "uint8",
						"numberOfBytes": "1"
					}
				}
			},
			"userdoc": {
				"kind": "user",
				"methods": {},
				"version": 1
			}
		}
	}
}